{
  "contractName": "branch",
  "abi": [
    {
      "inputs": [
        {
          "name": "_branchName",
          "type": "string"
        },
        {
          "name": "_commitArray",
          "type": "address[]"
        }
      ],
      "payable": false,
      "stateMutability": "nonpayable",
      "type": "constructor"
    },
    {
      "anonymous": false,
      "inputs": [
        {
          "indexed": false,
          "name": "commitCreator",
          "type": "address"
        },
        {
          "indexed": false,
          "name": "msg",
          "type": "string"
        },
        {
          "indexed": false,
          "name": "_commitHash",
          "type": "string"
        }
      ],
      "name": "commitCreated",
      "type": "event"
    },
    {
      "constant": true,
      "inputs": [],
      "name": "getCommitsArray",
      "outputs": [
        {
          "name": "",
          "type": "address[]"
        }
      ],
      "payable": false,
      "stateMutability": "view",
      "type": "function"
    },
    {
      "constant": false,
      "inputs": [
        {
          "name": "_authorAddress",
          "type": "address"
        },
        {
          "name": "_authorName",
          "type": "string"
        },
        {
          "name": "_commitHash",
          "type": "string"
        },
        {
          "name": "_date",
          "type": "string"
        },
        {
          "name": "_msg",
          "type": "string"
        }
      ],
      "name": "parseCommit",
      "outputs": [],
      "payable": false,
      "stateMutability": "nonpayable",
      "type": "function"
    },
    {
      "constant": false,
      "inputs": [
        {
          "name": "_authorName",
          "type": "string"
        },
        {
          "name": "_commitHash",
          "type": "string"
        },
        {
          "name": "_date",
          "type": "string"
        },
        {
          "name": "_msg",
          "type": "string"
        },
        {
          "name": "_addedFiles",
          "type": "bytes32[]"
        },
        {
          "name": "_addedLines",
          "type": "bytes32[]"
        },
        {
          "name": "_removedFiles",
          "type": "bytes32[]"
        },
        {
          "name": "_removedLines",
          "type": "bytes32[]"
        }
      ],
      "name": "pushCommit",
      "outputs": [],
      "payable": false,
      "stateMutability": "nonpayable",
      "type": "function"
    },
    {
      "constant": true,
      "inputs": [],
      "name": "getLastCommitHash",
      "outputs": [
        {
          "name": "",
          "type": "string"
        }
      ],
      "payable": false,
      "stateMutability": "view",
      "type": "function"
    }
  ],
  "bytecode": "0x60806040523480156200001157600080fd5b506040516200245038038062002450833981018060405260408110156200003757600080fd5b8101908080516401000000008111156200005057600080fd5b820160208101848111156200006457600080fd5b81516401000000008111828201871017156200007f57600080fd5b505092919060200180516401000000008111156200009c57600080fd5b82016020810184811115620000b057600080fd5b8151856020820283011164010000000082111715620000ce57600080fd5b50508451909350620000ea9250600091506020850190620002cc565b5080516200010090600290602084019062000351565b5062000115816401000000006200011d810204565b5050620003fe565b60005b8151811015620002c85781818151811015156200013957fe5b90602001906020020151600183838151811015156200015457fe5b90602001906020020151600160a060020a031663d13319c46040518163ffffffff167c010000000000000000000000000000000000000000000000000000000002815260040160006040518083038186803b158015620001b357600080fd5b505afa158015620001c8573d6000803e3d6000fd5b505050506040513d6000823e601f3d908101601f191682016040526020811015620001f257600080fd5b8101908080516401000000008111156200020b57600080fd5b820160208101848111156200021f57600080fd5b81516401000000008111828201871017156200023a57600080fd5b50509291905050506040518082805190602001908083835b60208310620002735780518252601f19909201916020918201910162000252565b51815160209384036101000a600019018019909216911617905292019485525060405193849003019092208054600160a060020a031916600160a060020a039490941693909317909255505060010162000120565b5050565b828054600181600116156101000203166002900490600052602060002090601f016020900481019282601f106200030f57805160ff19168380011785556200033f565b828001600101855582156200033f579182015b828111156200033f57825182559160200191906001019062000322565b506200034d929150620003b7565b5090565b828054828255906000526020600020908101928215620003a9579160200282015b82811115620003a95782518254600160a060020a031916600160a060020a0390911617825560209092019160019091019062000372565b506200034d929150620003d7565b620003d491905b808211156200034d5760008155600101620003be565b90565b620003d491905b808211156200034d578054600160a060020a0319168155600101620003de565b612042806200040e6000396000f3fe608060405260043610620000665763ffffffff7c0100000000000000000000000000000000000000000000000000000000600035041663c7068e2381146200006b578063c7335c9114620004e2578063cf3a5422146200054c578063eae2db7a14620007c1575b600080fd5b3480156200007857600080fd5b50620004e060048036036101008110156200009257600080fd5b810190602081018135640100000000811115620000ae57600080fd5b820183602082011115620000c157600080fd5b80359060200191846001830284011164010000000083111715620000e457600080fd5b91908080601f01602080910402602001604051908101604052809392919081815260200183838082843760009201919091525092959493602081019350359150506401000000008111156200013857600080fd5b8201836020820111156200014b57600080fd5b803590602001918460018302840111640100000000831117156200016e57600080fd5b91908080601f0160208091040260200160405190810160405280939291908181526020018383808284376000920191909152509295949360208101935035915050640100000000811115620001c257600080fd5b820183602082011115620001d557600080fd5b80359060200191846001830284011164010000000083111715620001f857600080fd5b91908080601f01602080910402602001604051908101604052809392919081815260200183838082843760009201919091525092959493602081019350359150506401000000008111156200024c57600080fd5b8201836020820111156200025f57600080fd5b803590602001918460018302840111640100000000831117156200028257600080fd5b91908080601f0160208091040260200160405190810160405280939291908181526020018383808284376000920191909152509295949360208101935035915050640100000000811115620002d657600080fd5b820183602082011115620002e957600080fd5b803590602001918460208302840111640100000000831117156200030c57600080fd5b91908080602002602001604051908101604052809392919081815260200183836020028082843760009201919091525092959493602081019350359150506401000000008111156200035d57600080fd5b8201836020820111156200037057600080fd5b803590602001918460208302840111640100000000831117156200039357600080fd5b9190808060200260200160405190810160405280939291908181526020018383602002808284376000920191909152509295949360208101935035915050640100000000811115620003e457600080fd5b820183602082011115620003f757600080fd5b803590602001918460208302840111640100000000831117156200041a57600080fd5b91908080602002602001604051908101604052809392919081815260200183836020028082843760009201919091525092959493602081019350359150506401000000008111156200046b57600080fd5b8201836020820111156200047e57600080fd5b80359060200191846020830284011164010000000083111715620004a157600080fd5b91908080602002602001604051908101604052809392919081815260200183836020028082843760009201919091525092955062000851945050505050565b005b348015620004ef57600080fd5b50620004fa62000ece565b60408051602080825283518183015283519192839290830191858101910280838360005b83811015620005385781810151838201526020016200051e565b505050509050019250505060405180910390f35b3480156200055957600080fd5b50620004e0600480360360a08110156200057257600080fd5b73ffffffffffffffffffffffffffffffffffffffff8235169190810190604081016020820135640100000000811115620005ab57600080fd5b820183602082011115620005be57600080fd5b80359060200191846001830284011164010000000083111715620005e157600080fd5b91908080601f01602080910402602001604051908101604052809392919081815260200183838082843760009201919091525092959493602081019350359150506401000000008111156200063557600080fd5b8201836020820111156200064857600080fd5b803590602001918460018302840111640100000000831117156200066b57600080fd5b91908080601f0160208091040260200160405190810160405280939291908181526020018383808284376000920191909152509295949360208101935035915050640100000000811115620006bf57600080fd5b820183602082011115620006d257600080fd5b80359060200191846001830284011164010000000083111715620006f557600080fd5b91908080601f01602080910402602001604051908101604052809392919081815260200183838082843760009201919091525092959493602081019350359150506401000000008111156200074957600080fd5b8201836020820111156200075c57600080fd5b803590602001918460018302840111640100000000831117156200077f57600080fd5b91908080601f01602080910402602001604051908101604052809392919081815260200183838082843760009201919091525092955062000f3f945050505050565b348015620007ce57600080fd5b50620007d9620013ad565b6040805160208082528351818301528351919283929083019185019080838360005b8381101562000815578181015183820152602001620007fb565b50505050905090810190601f168015620008435780820380516001836020036101000a031916815260200191505b509250505060405180910390f35b6000338989898962000862620014c4565b808673ffffffffffffffffffffffffffffffffffffffff1673ffffffffffffffffffffffffffffffffffffffff16815260200180602001806020018060200180602001858103855289818151815260200191508051906020019080838360005b83811015620008dc578181015183820152602001620008c2565b50505050905090810190601f1680156200090a5780820380516001836020036101000a031916815260200191505b5085810384528851815288516020918201918a019080838360005b838110156200093f57818101518382015260200162000925565b50505050905090810190601f1680156200096d5780820380516001836020036101000a031916815260200191505b50858103835287518152875160209182019189019080838360005b83811015620009a257818101518382015260200162000988565b50505050905090810190601f168015620009d05780820380516001836020036101000a031916815260200191505b50858103825286518152865160209182019188019080838360005b8381101562000a05578181015183820152602001620009eb565b50505050905090810190601f16801562000a335780820380516001836020036101000a031916815260200191505b509950505050505050505050604051809103906000f08015801562000a5c573d6000803e3d6000fd5b5090508073ffffffffffffffffffffffffffffffffffffffff1663faa51b86868686866040518563ffffffff167c01000000000000000000000000000000000000000000000000000000000281526004018080602001806020018060200180602001858103855289818151815260200191508051906020019060200280838360005b8381101562000af857818101518382015260200162000ade565b50505050905001858103845288818151815260200191508051906020019060200280838360005b8381101562000b3957818101518382015260200162000b1f565b50505050905001858103835287818151815260200191508051906020019060200280838360005b8381101562000b7a57818101518382015260200162000b60565b50505050905001858103825286818151815260200191508051906020019060200280838360005b8381101562000bbb57818101518382015260200162000ba1565b5050505090500198505050505050505050600060405180830381600087803b15801562000be757600080fd5b505af115801562000bfc573d6000803e3d6000fd5b50505050806001896040518082805190602001908083835b6020831062000c355780518252601f19909201916020918201910162000c14565b51815160209384036101000a60001901801990921691161790529201948552506040519384900381018420805473ffffffffffffffffffffffffffffffffffffffff191673ffffffffffffffffffffffffffffffffffffffff9690961695909517909455505089516002926001928c9290918291908401908083835b6020831062000cd25780518252601f19909201916020918201910162000cb1565b6001836020036101000a038019825116818451168082178552505050505050905001915050908152602001604051809103902060009054906101000a900473ffffffffffffffffffffffffffffffffffffffff1690806001815401808255809150509060018203906000526020600020016000909192909190916101000a81548173ffffffffffffffffffffffffffffffffffffffff021916908373ffffffffffffffffffffffffffffffffffffffff160217905550507f49e41cf7f645152827d5c078de6829eb2dc16ae1ac0a4cbe6025d392d3cd707633878a604051808473ffffffffffffffffffffffffffffffffffffffff1673ffffffffffffffffffffffffffffffffffffffff1681526020018060200180602001838103835285818151815260200191508051906020019080838360005b8381101562000e2257818101518382015260200162000e08565b50505050905090810190601f16801562000e505780820380516001836020036101000a031916815260200191505b50838103825284518152845160209182019186019080838360005b8381101562000e8557818101518382015260200162000e6b565b50505050905090810190601f16801562000eb35780820380516001836020036101000a031916815260200191505b509550505050505060405180910390a1505050505050505050565b6060600280548060200260200160405190810160405280929190818152602001828054801562000f3557602002820191906000526020600020905b815473ffffffffffffffffffffffffffffffffffffffff16815260019091019060200180831162000f09575b5050505050905090565b6000858585858562000f50620014c4565b808673ffffffffffffffffffffffffffffffffffffffff1673ffffffffffffffffffffffffffffffffffffffff16815260200180602001806020018060200180602001858103855289818151815260200191508051906020019080838360005b8381101562000fca57818101518382015260200162000fb0565b50505050905090810190601f16801562000ff85780820380516001836020036101000a031916815260200191505b5085810384528851815288516020918201918a019080838360005b838110156200102d57818101518382015260200162001013565b50505050905090810190601f1680156200105b5780820380516001836020036101000a031916815260200191505b50858103835287518152875160209182019189019080838360005b838110156200109057818101518382015260200162001076565b50505050905090810190601f168015620010be5780820380516001836020036101000a031916815260200191505b50858103825286518152865160209182019188019080838360005b83811015620010f3578181015183820152602001620010d9565b50505050905090810190601f168015620011215780820380516001836020036101000a031916815260200191505b509950505050505050505050604051809103906000f0801580156200114a573d6000803e3d6000fd5b509050806001856040518082805190602001908083835b60208310620011825780518252601f19909201916020918201910162001161565b51815160209384036101000a60001901801990921691161790529201948552506040519384900381018420805473ffffffffffffffffffffffffffffffffffffffff191673ffffffffffffffffffffffffffffffffffffffff969096169590951790945550508551600292600192889290918291908401908083835b602083106200121f5780518252601f199092019160209182019101620011fe565b51815160001960209485036101000a01908116901991909116179052920194855250604080519485900382018520548654600181018855600097885283882001805473ffffffffffffffffffffffffffffffffffffffff191673ffffffffffffffffffffffffffffffffffffffff9283161790558c168552606085830181815289519187019190915288517f49e41cf7f645152827d5c078de6829eb2dc16ae1ac0a4cbe6025d392d3cd7076978e978b97508d96509492938501926080860192908801918190849084905b8381101562001304578181015183820152602001620012ea565b50505050905090810190601f168015620013325780820380516001836020036101000a031916815260200191505b50838103825284518152845160209182019186019080838360005b83811015620013675781810151838201526020016200134d565b50505050905090810190601f168015620013955780820380516001836020036101000a031916815260200191505b509550505050505060405180910390a1505050505050565b60028054606091906000198101908110620013c457fe5b6000918252602082200154604080517fd13319c4000000000000000000000000000000000000000000000000000000008152905173ffffffffffffffffffffffffffffffffffffffff9092169263d13319c492600480840193829003018186803b1580156200143257600080fd5b505afa15801562001447573d6000803e3d6000fd5b505050506040513d6000823e601f3d908101601f1916820160405260208110156200147157600080fd5b8101908080516401000000008111156200148a57600080fd5b820160208101848111156200149e57600080fd5b8151640100000000811182820187101715620014b957600080fd5b509094505050505090565b604051610b4180620014d68339019056fe60806040523480156200001157600080fd5b5060405162000b4138038062000b41833981018060405260a08110156200003757600080fd5b8151602083018051919392830192916401000000008111156200005957600080fd5b820160208101848111156200006d57600080fd5b81516401000000008111828201871017156200008857600080fd5b50509291906020018051640100000000811115620000a557600080fd5b82016020810184811115620000b957600080fd5b8151640100000000811182820187101715620000d457600080fd5b50509291906020018051640100000000811115620000f157600080fd5b820160208101848111156200010557600080fd5b81516401000000008111828201871017156200012057600080fd5b505092919060200180516401000000008111156200013d57600080fd5b820160208101848111156200015157600080fd5b81516401000000008111828201871017156200016c57600080fd5b505060008054600160a060020a031916600160a060020a038a161790558551909350620001a39250600291506020860190620001f1565b508151620001b9906003906020850190620001f1565b508051620001cf906004906020840190620001f1565b508351620001e5906001906020870190620001f1565b50505050505062000296565b828054600181600116156101000203166002900490600052602060002090601f016020900481019282601f106200023457805160ff191683800117855562000264565b8280016001018555821562000264579182015b828111156200026457825182559160200191906001019062000247565b506200027292915062000276565b5090565b6200029391905b808211156200027257600081556001016200027d565b90565b61089b80620002a66000396000f3fe6080604052600436106100a35763ffffffff7c010000000000000000000000000000000000000000000000000000000060003504166330beb74181146100a8578063430fe9c11461010d5780635000c0151461019757806356b68885146101ac5780635a1dafcf146101c157806367f29d67146101d6578063a4300ee5146101eb578063ce6d41de14610229578063d13319c41461023e578063faa51b8614610253575b600080fd5b3480156100b457600080fd5b506100bd610491565b60408051602080825283518183015283519192839290830191858101910280838360005b838110156100f95781810151838201526020016100e1565b505050509050019250505060405180910390f35b34801561011957600080fd5b506101226104ea565b6040805160208082528351818301528351919283929083019185019080838360005b8381101561015c578181015183820152602001610144565b50505050905090810190601f1680156101895780820380516001836020036101000a031916815260200191505b509250505060405180910390f35b3480156101a357600080fd5b506100bd610577565b3480156101b857600080fd5b506100bd6105cd565b3480156101cd57600080fd5b506100bd610623565b3480156101e257600080fd5b50610122610679565b3480156101f757600080fd5b506102006106d9565b6040805173ffffffffffffffffffffffffffffffffffffffff9092168252519081900360200190f35b34801561023557600080fd5b506101226106f5565b34801561024a57600080fd5b50610122610756565b34801561025f57600080fd5b5061048f6004803603608081101561027657600080fd5b81019060208101813564010000000081111561029157600080fd5b8201836020820111156102a357600080fd5b803590602001918460208302840111640100000000831117156102c557600080fd5b919080806020026020016040519081016040528093929190818152602001838360200280828437600092019190915250929594936020810193503591505064010000000081111561031557600080fd5b82018360208201111561032757600080fd5b8035906020019184602083028401116401000000008311171561034957600080fd5b919080806020026020016040519081016040528093929190818152602001838360200280828437600092019190915250929594936020810193503591505064010000000081111561039957600080fd5b8201836020820111156103ab57600080fd5b803590602001918460208302840111640100000000831117156103cd57600080fd5b919080806020026020016040519081016040528093929190818152602001838360200280828437600092019190915250929594936020810193503591505064010000000081111561041d57600080fd5b82018360208201111561042f57600080fd5b8035906020019184602083028401116401000000008311171561045157600080fd5b9190808060200260200160405190810160405280939291908181526020018383602002808284376000920191909152509295506107b4945050505050565b005b606060068054806020026020016040519081016040528092919081815260200182805480156104df57602002820191906000526020600020905b8154815260200190600101908083116104cb575b505050505090505b90565b60038054604080516020601f60026000196101006001881615020190951694909404938401819004810282018101909252828152606093909290918301828280156104df5780601f1061054b576101008083540402835291602001916104df565b820191906000526020600020905b81548152906001019060200180831161055957509395945050505050565b606060078054806020026020016040519081016040528092919081815260200182805480156104df57602002820191906000526020600020908154815260200190600101908083116104cb575050505050905090565b606060088054806020026020016040519081016040528092919081815260200182805480156104df57602002820191906000526020600020908154815260200190600101908083116104cb575050505050905090565b606060058054806020026020016040519081016040528092919081815260200182805480156104df57602002820191906000526020600020908154815260200190600101908083116104cb575050505050905090565b60018054604080516020601f600260001961010087891615020190951694909404938401819004810282018101909252828152606093909290918301828280156104df5780601f1061054b576101008083540402835291602001916104df565b60005473ffffffffffffffffffffffffffffffffffffffff1690565b60048054604080516020601f60026000196101006001881615020190951694909404938401819004810282018101909252828152606093909290918301828280156104df5780601f1061054b576101008083540402835291602001916104df565b60028054604080516020601f60001961010060018716150201909416859004938401819004810282018101909252828152606093909290918301828280156104df5780601f1061054b576101008083540402835291602001916104df565b83516107c790600590602087019061080a565b5082516107db90600690602086019061080a565b5081516107ef90600790602085019061080a565b50805161080390600890602084019061080a565b5050505050565b828054828255906000526020600020908101928215610845579160200282015b8281111561084557825182559160200191906001019061082a565b50610851929150610855565b5090565b6104e791905b80821115610851576000815560010161085b56fea165627a7a723058202e3425a3670deb3b3b05f06baf573094890c12455c14d8956b42fa4b5037e7740029a165627a7a72305820e85d38902327f904667611dd98406a9e5e6ca0f8908f6583c4211bff14665d300029",
  "source": "pragma solidity ^0.5.0;\n\nimport \"./commit.sol\";\n\ncontract branch{\n    string branchName;\n    mapping(string => address) commitMap; //CommitHash => contract\n    commit[] commitArray;\n\n    constructor(string memory _branchName, commit[] memory _commitArray) public{\n        branchName = _branchName;\n        commitArray = _commitArray;\n        initMap(_commitArray);\n    }\n    function initMap(commit[] memory _commitArray)  private  {\n        for (uint index = 0; index < _commitArray.length; index++) {\n            commitMap[_commitArray[index].getHash()] = address(_commitArray[index]);\n        }\n    }\n    function getCommitsArray() public view returns (commit[] memory) {\n        return commitArray;\n    }\n    event commitCreated(address commitCreator, string msg, string _commitHash);\n\n    modifier onlyPermitted(){\n        //require(msg.sender == owner);\n        _;\n    }\n    function parseCommit(address _authorAddress,string memory _authorName,string memory _commitHash, string memory _date,\n    string memory _msg) public onlyPermitted{\n        commit Commit = new commit(_authorAddress,_authorName, _commitHash, _date, _msg);\n        commitMap[_commitHash] = address(Commit);\n        commitArray.push(commit(commitMap[_commitHash]));\n        emit commitCreated(_authorAddress, _msg, _commitHash);\n    }\n\n    function pushCommit(string memory _authorName,string memory _commitHash, string memory _date,\n    string memory _msg, bytes32[] memory _addedFiles, bytes32[] memory _addedLines,\n    bytes32[] memory _removedFiles, bytes32[] memory _removedLines) public onlyPermitted{\n        commit Commit = new commit(msg.sender,_authorName, _commitHash, _date, _msg);\n        Commit.initChanges( _addedFiles,  _addedLines,_removedFiles, _removedLines);\n        commitMap[_commitHash] = address(Commit);\n        commitArray.push(commit(commitMap[_commitHash]));\n        emit commitCreated(msg.sender, _msg, _commitHash);\n    }\n\n\n    function getLastCommitHash() public view returns(string memory) {\n        return commitArray[commitArray.length-1].getHash();\n    }\n\n\n\n}",
  "sourcePath": "/home/yehia/Documents/Projects/hackathon/BlockHub/contracts/branch.sol",
  "compiler": {
    "name": "solc",
    "version": "0.5.0+commit.1d4f565a.Emscripten.clang"
  },
  "schemaVersion": "3.0.8",
  "updatedAt": "2019-08-02T14:08:36.721Z",
  "devdoc": {
    "methods": {}
  },
  "userdoc": {
    "methods": {}
  }
}