{
  "contractName": "branch",
  "abi": [
    {
      "inputs": [
        {
          "name": "_branchName",
          "type": "string"
        },
        {
          "name": "_commitArray",
          "type": "address[]"
        }
      ],
      "payable": false,
      "stateMutability": "nonpayable",
      "type": "constructor"
    },
    {
      "anonymous": false,
      "inputs": [
        {
          "indexed": false,
          "name": "commitCreator",
          "type": "address"
        },
        {
          "indexed": false,
          "name": "msg",
          "type": "string"
        },
        {
          "indexed": false,
          "name": "_commitHash",
          "type": "string"
        }
      ],
      "name": "commitCreated",
      "type": "event"
    },
    {
      "constant": true,
      "inputs": [],
      "name": "getCommitsArray",
      "outputs": [
        {
          "name": "",
          "type": "address[]"
        }
      ],
      "payable": false,
      "stateMutability": "view",
      "type": "function"
    },
    {
      "constant": false,
      "inputs": [
        {
          "name": "_authorAddress",
          "type": "address"
        },
        {
          "name": "_authorName",
          "type": "string"
        },
        {
          "name": "_commitHash",
          "type": "string"
        },
        {
          "name": "_date",
          "type": "string"
        },
        {
          "name": "_msg",
          "type": "string"
        },
        {
          "name": "_change",
          "type": "string"
        }
      ],
      "name": "parseCommit",
      "outputs": [],
      "payable": false,
      "stateMutability": "nonpayable",
      "type": "function"
    },
    {
      "constant": false,
      "inputs": [
        {
          "name": "_authorName",
          "type": "string"
        },
        {
          "name": "_commitHash",
          "type": "string"
        },
        {
          "name": "_date",
          "type": "string"
        },
        {
          "name": "_msg",
          "type": "string"
        },
        {
          "name": "_change",
          "type": "string"
        }
      ],
      "name": "pushCommit",
      "outputs": [],
      "payable": false,
      "stateMutability": "nonpayable",
      "type": "function"
    },
    {
      "constant": true,
      "inputs": [],
      "name": "getLastCommitHash",
      "outputs": [
        {
          "name": "",
          "type": "string"
        }
      ],
      "payable": false,
      "stateMutability": "view",
      "type": "function"
    }
  ],
  "bytecode": "0x60806040523480156200001157600080fd5b5060405162001d1638038062001d16833981018060405260408110156200003757600080fd5b8101908080516401000000008111156200005057600080fd5b820160208101848111156200006457600080fd5b81516401000000008111828201871017156200007f57600080fd5b505092919060200180516401000000008111156200009c57600080fd5b82016020810184811115620000b057600080fd5b8151856020820283011164010000000082111715620000ce57600080fd5b50508451909350620000ea9250600091506020850190620002cc565b5080516200010090600290602084019062000351565b5062000115816401000000006200011d810204565b5050620003fe565b60005b8151811015620002c85781818151811015156200013957fe5b90602001906020020151600183838151811015156200015457fe5b90602001906020020151600160a060020a031663d13319c46040518163ffffffff167c010000000000000000000000000000000000000000000000000000000002815260040160006040518083038186803b158015620001b357600080fd5b505afa158015620001c8573d6000803e3d6000fd5b505050506040513d6000823e601f3d908101601f191682016040526020811015620001f257600080fd5b8101908080516401000000008111156200020b57600080fd5b820160208101848111156200021f57600080fd5b81516401000000008111828201871017156200023a57600080fd5b50509291905050506040518082805190602001908083835b60208310620002735780518252601f19909201916020918201910162000252565b51815160209384036101000a600019018019909216911617905292019485525060405193849003019092208054600160a060020a031916600160a060020a039490941693909317909255505060010162000120565b5050565b828054600181600116156101000203166002900490600052602060002090601f016020900481019282601f106200030f57805160ff19168380011785556200033f565b828001600101855582156200033f579182015b828111156200033f57825182559160200191906001019062000322565b506200034d929150620003b7565b5090565b828054828255906000526020600020908101928215620003a9579160200282015b82811115620003a95782518254600160a060020a031916600160a060020a0390911617825560209092019160019091019062000372565b506200034d929150620003d7565b620003d491905b808211156200034d5760008155600101620003be565b90565b620003d491905b808211156200034d578054600160a060020a0319168155600101620003de565b611908806200040e6000396000f3fe608060405260043610620000665763ffffffff7c010000000000000000000000000000000000000000000000000000000060003504166379397dca81146200006b578063b58c6106146200035f578063c7335c911462000641578063eae2db7a14620006ab575b600080fd5b3480156200007857600080fd5b506200035d600480360360c08110156200009157600080fd5b600160a060020a038235169190810190604081016020820135640100000000811115620000bd57600080fd5b820183602082011115620000d057600080fd5b80359060200191846001830284011164010000000083111715620000f357600080fd5b91908080601f01602080910402602001604051908101604052809392919081815260200183838082843760009201919091525092959493602081019350359150506401000000008111156200014757600080fd5b8201836020820111156200015a57600080fd5b803590602001918460018302840111640100000000831117156200017d57600080fd5b91908080601f0160208091040260200160405190810160405280939291908181526020018383808284376000920191909152509295949360208101935035915050640100000000811115620001d157600080fd5b820183602082011115620001e457600080fd5b803590602001918460018302840111640100000000831117156200020757600080fd5b91908080601f01602080910402602001604051908101604052809392919081815260200183838082843760009201919091525092959493602081019350359150506401000000008111156200025b57600080fd5b8201836020820111156200026e57600080fd5b803590602001918460018302840111640100000000831117156200029157600080fd5b91908080601f0160208091040260200160405190810160405280939291908181526020018383808284376000920191909152509295949360208101935035915050640100000000811115620002e557600080fd5b820183602082011115620002f857600080fd5b803590602001918460018302840111640100000000831117156200031b57600080fd5b91908080601f0160208091040260200160405190810160405280939291908181526020018383808284376000920191909152509295506200073b945050505050565b005b3480156200036c57600080fd5b506200035d600480360360a08110156200038557600080fd5b810190602081018135640100000000811115620003a157600080fd5b820183602082011115620003b457600080fd5b80359060200191846001830284011164010000000083111715620003d757600080fd5b91908080601f01602080910402602001604051908101604052809392919081815260200183838082843760009201919091525092959493602081019350359150506401000000008111156200042b57600080fd5b8201836020820111156200043e57600080fd5b803590602001918460018302840111640100000000831117156200046157600080fd5b91908080601f0160208091040260200160405190810160405280939291908181526020018383808284376000920191909152509295949360208101935035915050640100000000811115620004b557600080fd5b820183602082011115620004c857600080fd5b80359060200191846001830284011164010000000083111715620004eb57600080fd5b91908080601f01602080910402602001604051908101604052809392919081815260200183838082843760009201919091525092959493602081019350359150506401000000008111156200053f57600080fd5b8201836020820111156200055257600080fd5b803590602001918460018302840111640100000000831117156200057557600080fd5b91908080601f0160208091040260200160405190810160405280939291908181526020018383808284376000920191909152509295949360208101935035915050640100000000811115620005c957600080fd5b820183602082011115620005dc57600080fd5b80359060200191846001830284011164010000000083111715620005ff57600080fd5b91908080601f01602080910402602001604051908101604052809392919081815260200183838082843760009201919091525092955062000be0945050505050565b3480156200064e57600080fd5b506200065962001087565b60408051602080825283518183015283519192839290830191858101910280838360005b83811015620006975781810151838201526020016200067d565b505050509050019250505060405180910390f35b348015620006b857600080fd5b50620006c3620010eb565b6040805160208082528351818301528351919283929083019185019080838360005b83811015620006ff578181015183820152602001620006e5565b50505050905090810190601f1680156200072d5780820380516001836020036101000a031916815260200191505b509250505060405180910390f35b60008686868686866200074d620011f5565b8087600160a060020a0316600160a060020a03168152602001806020018060200180602001806020018060200186810386528b818151815260200191508051906020019080838360005b83811015620007b157818101518382015260200162000797565b50505050905090810190601f168015620007df5780820380516001836020036101000a031916815260200191505b5086810385528a5181528a516020918201918c019080838360005b8381101562000814578181015183820152602001620007fa565b50505050905090810190601f168015620008425780820380516001836020036101000a031916815260200191505b5086810384528951815289516020918201918b019080838360005b83811015620008775781810151838201526020016200085d565b50505050905090810190601f168015620008a55780820380516001836020036101000a031916815260200191505b5086810383528851815288516020918201918a019080838360005b83811015620008da578181015183820152602001620008c0565b50505050905090810190601f168015620009085780820380516001836020036101000a031916815260200191505b50868103825287518152875160209182019189019080838360005b838110156200093d57818101518382015260200162000923565b50505050905090810190601f1680156200096b5780820380516001836020036101000a031916815260200191505b509b505050505050505050505050604051809103906000f08015801562000996573d6000803e3d6000fd5b509050806001866040518082805190602001908083835b60208310620009ce5780518252601f199092019160209182019101620009ad565b51815160209384036101000a60001901801990921691161790529201948552506040519384900381018420805473ffffffffffffffffffffffffffffffffffffffff1916600160a060020a03969096169590951790945550508651600292600192899290918291908401908083835b6020831062000a5e5780518252601f19909201916020918201910162000a3d565b51815160001960209485036101000a01908116901991909116179052920194855250604080519485900382018520548654600181018855600097885283882001805473ffffffffffffffffffffffffffffffffffffffff1916600160a060020a039283161790558d16855260608583018181528a519187019190915289517f49e41cf7f645152827d5c078de6829eb2dc16ae1ac0a4cbe6025d392d3cd7076978f978c97508e96509492938501926080860192908801918190849084905b8381101562000b3657818101518382015260200162000b1c565b50505050905090810190601f16801562000b645780820380516001836020036101000a031916815260200191505b50838103825284518152845160209182019186019080838360005b8381101562000b9957818101518382015260200162000b7f565b50505050905090810190601f16801562000bc75780820380516001836020036101000a031916815260200191505b509550505050505060405180910390a150505050505050565b600033868686868662000bf2620011f5565b8087600160a060020a0316600160a060020a03168152602001806020018060200180602001806020018060200186810386528b818151815260200191508051906020019080838360005b8381101562000c5657818101518382015260200162000c3c565b50505050905090810190601f16801562000c845780820380516001836020036101000a031916815260200191505b5086810385528a5181528a516020918201918c019080838360005b8381101562000cb957818101518382015260200162000c9f565b50505050905090810190601f16801562000ce75780820380516001836020036101000a031916815260200191505b5086810384528951815289516020918201918b019080838360005b8381101562000d1c57818101518382015260200162000d02565b50505050905090810190601f16801562000d4a5780820380516001836020036101000a031916815260200191505b5086810383528851815288516020918201918a019080838360005b8381101562000d7f57818101518382015260200162000d65565b50505050905090810190601f16801562000dad5780820380516001836020036101000a031916815260200191505b50868103825287518152875160209182019189019080838360005b8381101562000de257818101518382015260200162000dc8565b50505050905090810190601f16801562000e105780820380516001836020036101000a031916815260200191505b509b505050505050505050505050604051809103906000f08015801562000e3b573d6000803e3d6000fd5b509050806001866040518082805190602001908083835b6020831062000e735780518252601f19909201916020918201910162000e52565b51815160209384036101000a60001901801990921691161790529201948552506040519384900381018420805473ffffffffffffffffffffffffffffffffffffffff1916600160a060020a03969096169590951790945550508651600292600192899290918291908401908083835b6020831062000f035780518252601f19909201916020918201910162000ee2565b51815160001960209485036101000a01908116901991909116179052920194855250604080519485900382018520548654600181018855600097885283882001805473ffffffffffffffffffffffffffffffffffffffff1916600160a060020a039092169190911790553380865260608684018181528b51918801919091528a517f49e41cf7f645152827d5c078de6829eb2dc16ae1ac0a4cbe6025d392d3cd70769892978c97508e96509491938501926080860192880191908190849084905b8381101562000fde57818101518382015260200162000fc4565b50505050905090810190601f1680156200100c5780820380516001836020036101000a031916815260200191505b50838103825284518152845160209182019186019080838360005b838110156200104157818101518382015260200162001027565b50505050905090810190601f1680156200106f5780820380516001836020036101000a031916815260200191505b509550505050505060405180910390a1505050505050565b60606002805480602002602001604051908101604052809291908181526020018280548015620010e157602002820191906000526020600020905b8154600160a060020a03168152600190910190602001808311620010c2575b5050505050905090565b600280546060919060001981019081106200110257fe5b6000918252602082200154604080517fd13319c40000000000000000000000000000000000000000000000000000000081529051600160a060020a039092169263d13319c492600480840193829003018186803b1580156200116357600080fd5b505afa15801562001178573d6000803e3d6000fd5b505050506040513d6000823e601f3d908101601f191682016040526020811015620011a257600080fd5b810190808051640100000000811115620011bb57600080fd5b82016020810184811115620011cf57600080fd5b8151640100000000811182820187101715620011ea57600080fd5b509094505050505090565b6040516106d680620012078339019056fe608060405234801561001057600080fd5b506040516106d63803806106d6833981018060405260c081101561003357600080fd5b81516020830180519193928301929164010000000081111561005457600080fd5b8201602081018481111561006757600080fd5b815164010000000081118282018710171561008157600080fd5b5050929190602001805164010000000081111561009d57600080fd5b820160208101848111156100b057600080fd5b81516401000000008111828201871017156100ca57600080fd5b505092919060200180516401000000008111156100e657600080fd5b820160208101848111156100f957600080fd5b815164010000000081118282018710171561011357600080fd5b5050929190602001805164010000000081111561012f57600080fd5b8201602081018481111561014257600080fd5b815164010000000081118282018710171561015c57600080fd5b5050929190602001805164010000000081111561017857600080fd5b8201602081018481111561018b57600080fd5b81516401000000008111828201871017156101a557600080fd5b505060008054600160a060020a031916600160a060020a038b1617905586519093506101da9250600291506020870190610236565b5082516101ee906003906020860190610236565b508151610202906004906020850190610236565b508051610216906005906020840190610236565b50845161022a906001906020880190610236565b505050505050506102d1565b828054600181600116156101000203166002900490600052602060002090601f016020900481019282601f1061027757805160ff19168380011785556102a4565b828001600101855582156102a4579182015b828111156102a4578251825591602001919060010190610289565b506102b09291506102b4565b5090565b6102ce91905b808211156102b057600081556001016102ba565b90565b6103f6806102e06000396000f3fe6080604052600436106100775763ffffffff7c0100000000000000000000000000000000000000000000000000000000600035041663430fe9c1811461007c5780634c9f9fc314610106578063a4300ee51461011b578063b7ed5abc14610159578063ce6d41de1461016e578063d13319c414610183575b600080fd5b34801561008857600080fd5b50610091610198565b6040805160208082528351818301528351919283929083019185019080838360005b838110156100cb5781810151838201526020016100b3565b50505050905090810190601f1680156100f85780820380516001836020036101000a031916815260200191505b509250505060405180910390f35b34801561011257600080fd5b5061009161022e565b34801561012757600080fd5b5061013061028e565b6040805173ffffffffffffffffffffffffffffffffffffffff9092168252519081900360200190f35b34801561016557600080fd5b506100916102aa565b34801561017a57600080fd5b5061009161030b565b34801561018f57600080fd5b5061009161036c565b60038054604080516020601f60026000196101006001881615020190951694909404938401819004810282018101909252828152606093909290918301828280156102245780601f106101f957610100808354040283529160200191610224565b820191906000526020600020905b81548152906001019060200180831161020757829003601f168201915b5050505050905090565b60018054604080516020601f600260001961010087891615020190951694909404938401819004810282018101909252828152606093909290918301828280156102245780601f106101f957610100808354040283529160200191610224565b60005473ffffffffffffffffffffffffffffffffffffffff1690565b60058054604080516020601f60026000196101006001881615020190951694909404938401819004810282018101909252828152606093909290918301828280156102245780601f106101f957610100808354040283529160200191610224565b60048054604080516020601f60026000196101006001881615020190951694909404938401819004810282018101909252828152606093909290918301828280156102245780601f106101f957610100808354040283529160200191610224565b60028054604080516020601f60001961010060018716150201909416859004938401819004810282018101909252828152606093909290918301828280156102245780601f106101f95761010080835404028352916020019161022456fea165627a7a72305820fbb785ea4a1983aaac09f02495a11576d6390b9b6d071409bf34091009d7a24a0029a165627a7a72305820fd200e3e25d0f5bd3cb995fc5c34cc5c448c7ccc58c6253dd5511bf6f2ed433d0029",
  "source": "pragma solidity ^0.5.0;\n\nimport \"./commit.sol\";\n\ncontract branch{\n    string branchName;\n    mapping(string => address) commitMap; //CommitHash => contract\n    commit[] commitArray;\n\n    constructor(string memory _branchName, commit[] memory _commitArray) public{\n        branchName = _branchName;\n        commitArray = _commitArray;\n        initMap(_commitArray);\n    }\n    function initMap(commit[] memory _commitArray)  private  {\n        for (uint index = 0; index < _commitArray.length; index++) {\n            commitMap[_commitArray[index].getHash()] = address(_commitArray[index]);\n        }\n    }\n    function getCommitsArray() public view returns (commit[] memory) {\n        return commitArray;\n    }\n    event commitCreated(address commitCreator, string msg, string _commitHash);\n\n    modifier onlyPermitted(){\n        //require(msg.sender == owner);\n        _;\n    }\n    function parseCommit(address _authorAddress,string memory _authorName,string memory _commitHash, string memory _date,\n    string memory _msg, string memory _change ) public onlyPermitted{\n        commit Commit = new commit(_authorAddress,_authorName, _commitHash, _date, _msg, _change);\n        commitMap[_commitHash] = address(Commit);\n        commitArray.push(commit(commitMap[_commitHash]));\n        emit commitCreated(_authorAddress, _msg, _commitHash);\n    }\n\n    function pushCommit(string memory _authorName,string memory _commitHash, string memory _date,\n    string memory _msg, string memory _change ) public onlyPermitted{\n        commit Commit = new commit(msg.sender,_authorName, _commitHash, _date, _msg, _change);\n        commitMap[_commitHash] = address(Commit);\n        commitArray.push(commit(commitMap[_commitHash]));\n        emit commitCreated(msg.sender, _msg, _commitHash);\n    }\n\n\n    function getLastCommitHash() public view returns(string memory) {\n        return commitArray[commitArray.length-1].getHash();\n    }\n\n\n\n}",
  "sourcePath": "/home/yehia/Documents/Projects/hackathon/BlockHub/contracts/branch.sol",
  "compiler": {
    "name": "solc",
    "version": "0.5.0+commit.1d4f565a.Emscripten.clang"
  },
  "schemaVersion": "3.0.8",
  "updatedAt": "2019-08-01T14:29:18.913Z",
  "devdoc": {
    "methods": {}
  },
  "userdoc": {
    "methods": {}
  }
}