{
  "contractName": "branch",
  "abi": [
    {
      "inputs": [
        {
          "name": "_branchName",
          "type": "string"
        },
        {
          "name": "_commitArray",
          "type": "address[]"
        }
      ],
      "payable": false,
      "stateMutability": "nonpayable",
      "type": "constructor"
    },
    {
      "anonymous": false,
      "inputs": [
        {
          "indexed": false,
          "name": "commitCreator",
          "type": "address"
        },
        {
          "indexed": false,
          "name": "name",
          "type": "string"
        },
        {
          "indexed": false,
          "name": "msg",
          "type": "string"
        },
        {
          "indexed": false,
          "name": "_commitHash",
          "type": "string"
        }
      ],
      "name": "commitCreated",
      "type": "event"
    },
    {
      "constant": true,
      "inputs": [],
      "name": "getCommitsArray",
      "outputs": [
        {
          "name": "",
          "type": "address[]"
        }
      ],
      "payable": false,
      "stateMutability": "view",
      "type": "function"
    },
    {
      "constant": true,
      "inputs": [],
      "name": "getCommitsArrayLength",
      "outputs": [
        {
          "name": "",
          "type": "uint256"
        }
      ],
      "payable": false,
      "stateMutability": "view",
      "type": "function"
    },
    {
      "constant": true,
      "inputs": [],
      "name": "getRootCommit",
      "outputs": [
        {
          "name": "",
          "type": "string"
        }
      ],
      "payable": false,
      "stateMutability": "view",
      "type": "function"
    },
    {
      "constant": false,
      "inputs": [
        {
          "name": "_authorName",
          "type": "string"
        },
        {
          "name": "_commitHash",
          "type": "string"
        },
        {
          "name": "_date",
          "type": "string"
        },
        {
          "name": "_message",
          "type": "string"
        },
        {
          "name": "_ipfsChange",
          "type": "string"
        }
      ],
      "name": "pushCommit",
      "outputs": [],
      "payable": false,
      "stateMutability": "nonpayable",
      "type": "function"
    },
    {
      "constant": true,
      "inputs": [],
      "name": "getLastCommitHash",
      "outputs": [
        {
          "name": "",
          "type": "string"
        }
      ],
      "payable": false,
      "stateMutability": "view",
      "type": "function"
    }
  ],
  "bytecode": "0x60806040523480156200001157600080fd5b506040516200177b3803806200177b833981018060405260408110156200003757600080fd5b8101908080516401000000008111156200005057600080fd5b820160208101848111156200006457600080fd5b81516401000000008111828201871017156200007f57600080fd5b505092919060200180516401000000008111156200009c57600080fd5b82016020810184811115620000b057600080fd5b8151856020820283011164010000000082111715620000ce57600080fd5b50508451909350620000ea9250600091506020850190620002cc565b5080516200010090600390602084019062000351565b5062000115816401000000006200011d810204565b5050620003fe565b60005b8151811015620002c85781818151811015156200013957fe5b90602001906020020151600183838151811015156200015457fe5b90602001906020020151600160a060020a031663d13319c46040518163ffffffff167c010000000000000000000000000000000000000000000000000000000002815260040160006040518083038186803b158015620001b357600080fd5b505afa158015620001c8573d6000803e3d6000fd5b505050506040513d6000823e601f3d908101601f191682016040526020811015620001f257600080fd5b8101908080516401000000008111156200020b57600080fd5b820160208101848111156200021f57600080fd5b81516401000000008111828201871017156200023a57600080fd5b50509291905050506040518082805190602001908083835b60208310620002735780518252601f19909201916020918201910162000252565b51815160209384036101000a600019018019909216911617905292019485525060405193849003019092208054600160a060020a031916600160a060020a039490941693909317909255505060010162000120565b5050565b828054600181600116156101000203166002900490600052602060002090601f016020900481019282601f106200030f57805160ff19168380011785556200033f565b828001600101855582156200033f579182015b828111156200033f57825182559160200191906001019062000322565b506200034d929150620003b7565b5090565b828054828255906000526020600020908101928215620003a9579160200282015b82811115620003a95782518254600160a060020a031916600160a060020a0390911617825560209092019160019091019062000372565b506200034d929150620003d7565b620003d491905b808211156200034d5760008155600101620003be565b90565b620003d491905b808211156200034d578054600160a060020a0319168155600101620003de565b61136d806200040e6000396000f3fe60806040526004361061006c5763ffffffff7c0100000000000000000000000000000000000000000000000000000000600035041663491136708114610071578063b58c610614610098578063c7335c9114610369578063eae2db7a146103ce578063f996031414610458575b600080fd5b34801561007d57600080fd5b5061008661046d565b60408051918252519081900360200190f35b3480156100a457600080fd5b50610367600480360360a08110156100bb57600080fd5b8101906020810181356401000000008111156100d657600080fd5b8201836020820111156100e857600080fd5b8035906020019184600183028401116401000000008311171561010a57600080fd5b91908080601f016020809104026020016040519081016040528093929190818152602001838380828437600092019190915250929594936020810193503591505064010000000081111561015d57600080fd5b82018360208201111561016f57600080fd5b8035906020019184600183028401116401000000008311171561019157600080fd5b91908080601f01602080910402602001604051908101604052809392919081815260200183838082843760009201919091525092959493602081019350359150506401000000008111156101e457600080fd5b8201836020820111156101f657600080fd5b8035906020019184600183028401116401000000008311171561021857600080fd5b91908080601f016020809104026020016040519081016040528093929190818152602001838380828437600092019190915250929594936020810193503591505064010000000081111561026b57600080fd5b82018360208201111561027d57600080fd5b8035906020019184600183028401116401000000008311171561029f57600080fd5b91908080601f01602080910402602001604051908101604052809392919081815260200183838082843760009201919091525092959493602081019350359150506401000000008111156102f257600080fd5b82018360208201111561030457600080fd5b8035906020019184600183028401116401000000008311171561032657600080fd5b91908080601f016020809104026020016040519081016040528093929190818152602001838380828437600092019190915250929550610474945050505050565b005b34801561037557600080fd5b5061037e6109a6565b60408051602080825283518183015283519192839290830191858101910280838360005b838110156103ba5781810151838201526020016103a2565b505050509050019250505060405180910390f35b3480156103da57600080fd5b506103e3610a15565b6040805160208082528351818301528351919283929083019185019080838360005b8381101561041d578181015183820152602001610405565b50505050905090810190601f16801561044a5780820380516001836020036101000a031916815260200191505b509250505060405180910390f35b34801561046457600080fd5b506103e3610b61565b6003545b90565b600085858585610482610c3d565b8080602001806020018060200180602001858103855289818151815260200191508051906020019080838360005b838110156104c85781810151838201526020016104b0565b50505050905090810190601f1680156104f55780820380516001836020036101000a031916815260200191505b5085810384528851815288516020918201918a019080838360005b83811015610528578181015183820152602001610510565b50505050905090810190601f1680156105555780820380516001836020036101000a031916815260200191505b50858103835287518152875160209182019189019080838360005b83811015610588578181015183820152602001610570565b50505050905090810190601f1680156105b55780820380516001836020036101000a031916815260200191505b50858103825286518152865160209182019188019080838360005b838110156105e85781810151838201526020016105d0565b50505050905090810190601f1680156106155780820380516001836020036101000a031916815260200191505b5098505050505050505050604051809103906000f08015801561063c573d6000803e3d6000fd5b509050606060405190810160405280602d81526020017f616161616161616161616161616161616161616161616161616161616161616181526020017f61616161616161616161616161000000000000000000000000000000000000008152506002866040518082805190602001908083835b602083106106ec57805182527fffffffffffffffffffffffffffffffffffffffffffffffffffffffffffffffe090920191602091820191016106af565b51815160209384036101000a7fffffffffffffffffffffffffffffffffffffffffffffffffffffffffffffffff0180199092169116179052920194855250604051938490038101909320845161074b9591949190910192509050610c4d565b50806001866040518082805190602001908083835b6020831061079d57805182527fffffffffffffffffffffffffffffffffffffffffffffffffffffffffffffffe09092019160209182019101610760565b51815160209384036101000a7fffffffffffffffffffffffffffffffffffffffffffffffffffffffffffffffff018019909216911617905292019485525060408051948590038201852080547fffffffffffffffffffffffff00000000000000000000000000000000000000001673ffffffffffffffffffffffffffffffffffffffff97909716969096179095553380855260808583018181528d51918701919091528c517ffd6d88f4ad58e0413badea4af5148585f787b426d4dac0376143f72c4714a01b9792968e96508b95508d949093840191606085019160a08601919089019080838360005b8381101561089f578181015183820152602001610887565b50505050905090810190601f1680156108cc5780820380516001836020036101000a031916815260200191505b50848103835286518152865160209182019188019080838360005b838110156108ff5781810151838201526020016108e7565b50505050905090810190601f16801561092c5780820380516001836020036101000a031916815260200191505b50848103825285518152855160209182019187019080838360005b8381101561095f578181015183820152602001610947565b50505050905090810190601f16801561098c5780820380516001836020036101000a031916815260200191505b5097505050505050505060405180910390a1505050505050565b60606003805480602002602001604051908101604052809291908181526020018280548015610a0b57602002820191906000526020600020905b815473ffffffffffffffffffffffffffffffffffffffff1681526001909101906020018083116109e0575b5050505050905090565b60038054606091907fffffffffffffffffffffffffffffffffffffffffffffffffffffffffffffffff8101908110610a4957fe5b6000918252602082200154604080517fd13319c4000000000000000000000000000000000000000000000000000000008152905173ffffffffffffffffffffffffffffffffffffffff9092169263d13319c492600480840193829003018186803b158015610ab657600080fd5b505afa158015610aca573d6000803e3d6000fd5b505050506040513d6000823e601f3d9081017fffffffffffffffffffffffffffffffffffffffffffffffffffffffffffffffe01682016040526020811015610b1157600080fd5b810190808051640100000000811115610b2957600080fd5b82016020810184811115610b3c57600080fd5b8151640100000000811182820187101715610b5657600080fd5b509094505050505090565b604080517f726f6f74000000000000000000000000000000000000000000000000000000008152600260048201819052825191829003602401822080546020601f7fffffffffffffffffffffffffffffffffffffffffffffffffffffffffffffffff61010060018516150201909216939093049081018390048302840183019094528383526060939091830182828015610a0b5780601f10610c1157610100808354040283529160200191610a0b565b820191906000526020600020905b815481529060010190602001808311610c1f57509395945050505050565b60405161065c80610ce683390190565b828054600181600116156101000203166002900490600052602060002090601f016020900481019282601f10610c8e57805160ff1916838001178555610cbb565b82800160010185558215610cbb579182015b82811115610cbb578251825591602001919060010190610ca0565b50610cc7929150610ccb565b5090565b61047191905b80821115610cc75760008155600101610cd156fe608060405234801561001057600080fd5b5060405161065c38038061065c8339810180604052608081101561003357600080fd5b81019080805164010000000081111561004b57600080fd5b8201602081018481111561005e57600080fd5b815164010000000081118282018710171561007857600080fd5b5050929190602001805164010000000081111561009457600080fd5b820160208101848111156100a757600080fd5b81516401000000008111828201871017156100c157600080fd5b505092919060200180516401000000008111156100dd57600080fd5b820160208101848111156100f057600080fd5b815164010000000081118282018710171561010a57600080fd5b5050929190602001805164010000000081111561012657600080fd5b8201602081018481111561013957600080fd5b815164010000000081118282018710171561015357600080fd5b505060008054600160a060020a03191633179055855190935061017f92506002915060208601906101c5565b5081516101939060039060208501906101c5565b5080516101a79060049060208401906101c5565b5083516101bb9060019060208701906101c5565b5050505050610260565b828054600181600116156101000203166002900490600052602060002090601f016020900481019282601f1061020657805160ff1916838001178555610233565b82800160010185558215610233579182015b82811115610233578251825591602001919060010190610218565b5061023f929150610243565b5090565b61025d91905b8082111561023f5760008155600101610249565b90565b6103ed8061026f6000396000f3fe60806040526004361061006c5763ffffffff7c0100000000000000000000000000000000000000000000000000000000600035041663430fe9c1811461007157806367f29d67146100fb578063a4300ee514610110578063ce6d41de1461014e578063d13319c414610163575b600080fd5b34801561007d57600080fd5b50610086610178565b6040805160208082528351818301528351919283929083019185019080838360005b838110156100c05781810151838201526020016100a8565b50505050905090810190601f1680156100ed5780820380516001836020036101000a031916815260200191505b509250505060405180910390f35b34801561010757600080fd5b5061008661022c565b34801561011c57600080fd5b506101256102aa565b6040805173ffffffffffffffffffffffffffffffffffffffff9092168252519081900360200190f35b34801561015a57600080fd5b506100866102c6565b34801561016f57600080fd5b50610086610345565b60038054604080516020601f60027fffffffffffffffffffffffffffffffffffffffffffffffffffffffffffffffff6101006001881615020190951694909404938401819004810282018101909252828152606093909290918301828280156102225780601f106101f757610100808354040283529160200191610222565b820191906000526020600020905b81548152906001019060200180831161020557829003601f168201915b5050505050905090565b60018054604080516020601f60027fffffffffffffffffffffffffffffffffffffffffffffffffffffffffffffffff61010087891615020190951694909404938401819004810282018101909252828152606093909290918301828280156102225780601f106101f757610100808354040283529160200191610222565b60005473ffffffffffffffffffffffffffffffffffffffff1690565b60048054604080516020601f60027fffffffffffffffffffffffffffffffffffffffffffffffffffffffffffffffff6101006001881615020190951694909404938401819004810282018101909252828152606093909290918301828280156102225780601f106101f757610100808354040283529160200191610222565b60028054604080516020601f7fffffffffffffffffffffffffffffffffffffffffffffffffffffffffffffffff61010060018716150201909416859004938401819004810282018101909252828152606093909290918301828280156102225780601f106101f75761010080835404028352916020019161022256fea165627a7a72305820359a8a93d4c6ff054d85195550dda7af93d5c7197a9fda2d9944c3d95310048b0029a165627a7a723058209acda9da0c8bc88f83e27f9ddce8576922f5f81a48966797f182b5a9bb5557570029",
  "source": "pragma solidity ^0.5.0;\n\nimport \"./commit.sol\";\n\ncontract branch{\n    string branchName;\n    mapping(string => address) commitMap; //CommitHash => contract\n    mapping ( string => string) changes;// CommitHash => IPFS hash\n\n    commit[] commitArray;\n\n    constructor(string memory _branchName, commit[] memory _commitArray) public{\n        branchName = _branchName;\n        commitArray = _commitArray;\n        initMap(_commitArray);\n    }\n    function initMap(commit[] memory _commitArray)  private  {\n        for (uint index = 0; index < _commitArray.length; index++) {\n            commitMap[_commitArray[index].getHash()] = address(_commitArray[index]);\n        }\n    }\n    function getCommitsArray() public view returns (commit[] memory) {\n        return commitArray;\n    }\n     function getCommitsArrayLength() public view returns (uint) {\n        return commitArray.length;\n    }\n    function getRootCommit() view public returns (string  memory) {\n        return changes[\"root\"]; \n    }\n   function pushCommit(string memory _authorName,string memory _commitHash,\n  string memory  _date, string memory _message,string memory _ipfsChange) public{\n      \n      commit Commit = new commit(_authorName,_commitHash,_date,_message);\n      changes[_commitHash] = \"aaaaaaaaaaaaaaaaaaaaaaaaaaaaaaaaaaaaaaaaaaaaa\";\n      commitMap[_commitHash] = address(Commit);\n      emit commitCreated(msg.sender,_authorName,_message,_commitHash);\n  }\n    event commitCreated(address commitCreator, string name,string msg, string _commitHash);\n\n    modifier onlyPermitted(){\n        //require(msg.sender == owner);\n        _;\n    }\n  \n\n    function getLastCommitHash() public view returns(string memory) {\n        return commitArray[commitArray.length-1].getHash();\n    }\n\n\n\n}",
  "sourcePath": "/home/yehia/Documents/Projects/hackathon/BlockHub/contracts/branch.sol",
  "compiler": {
    "name": "solc",
    "version": "0.5.0+commit.1d4f565a.Emscripten.clang"
  },
  "schemaVersion": "3.0.8",
  "updatedAt": "2019-08-20T11:59:32.582Z",
  "devdoc": {
    "methods": {}
  },
  "userdoc": {
    "methods": {}
  }
}