{
  "contractName": "branch",
  "abi": [
    {
      "inputs": [
        {
          "name": "_branchName",
          "type": "string"
        },
        {
          "name": "_commitArray",
          "type": "address[]"
        }
      ],
      "payable": false,
      "stateMutability": "nonpayable",
      "type": "constructor"
    },
    {
      "anonymous": false,
      "inputs": [
        {
          "indexed": false,
          "name": "commitCreator",
          "type": "address"
        },
        {
          "indexed": false,
          "name": "name",
          "type": "string"
        },
        {
          "indexed": false,
          "name": "msg",
          "type": "string"
        },
        {
          "indexed": false,
          "name": "_commitHash",
          "type": "string"
        }
      ],
      "name": "commitCreated",
      "type": "event"
    },
    {
      "constant": true,
      "inputs": [],
      "name": "getCommitsArray",
      "outputs": [
        {
          "name": "",
          "type": "address[]"
        }
      ],
      "payable": false,
      "stateMutability": "view",
      "type": "function"
    },
    {
      "constant": true,
      "inputs": [],
      "name": "getCommitsArrayLength",
      "outputs": [
        {
          "name": "",
          "type": "uint256"
        }
      ],
      "payable": false,
      "stateMutability": "view",
      "type": "function"
    },
    {
      "constant": false,
      "inputs": [
        {
          "name": "_authorName",
          "type": "string"
        },
        {
          "name": "_commitHash",
          "type": "string"
        },
        {
          "name": "_date",
          "type": "string"
        },
        {
          "name": "_message",
          "type": "string"
        },
        {
          "name": "_change",
          "type": "string"
        }
      ],
      "name": "pushCommit",
      "outputs": [],
      "payable": false,
      "stateMutability": "nonpayable",
      "type": "function"
    },
    {
      "constant": true,
      "inputs": [],
      "name": "getLastCommitHash",
      "outputs": [
        {
          "name": "",
          "type": "string"
        }
      ],
      "payable": false,
      "stateMutability": "view",
      "type": "function"
    }
  ],
  "bytecode": "0x60806040523480156200001157600080fd5b506040516200159e3803806200159e833981018060405260408110156200003757600080fd5b8101908080516401000000008111156200005057600080fd5b820160208101848111156200006457600080fd5b81516401000000008111828201871017156200007f57600080fd5b505092919060200180516401000000008111156200009c57600080fd5b82016020810184811115620000b057600080fd5b8151856020820283011164010000000082111715620000ce57600080fd5b50508451909350620000ea9250600091506020850190620002cc565b5080516200010090600290602084019062000351565b5062000115816401000000006200011d810204565b5050620003fe565b60005b8151811015620002c85781818151811015156200013957fe5b90602001906020020151600183838151811015156200015457fe5b90602001906020020151600160a060020a031663d13319c46040518163ffffffff167c010000000000000000000000000000000000000000000000000000000002815260040160006040518083038186803b158015620001b357600080fd5b505afa158015620001c8573d6000803e3d6000fd5b505050506040513d6000823e601f3d908101601f191682016040526020811015620001f257600080fd5b8101908080516401000000008111156200020b57600080fd5b820160208101848111156200021f57600080fd5b81516401000000008111828201871017156200023a57600080fd5b50509291905050506040518082805190602001908083835b60208310620002735780518252601f19909201916020918201910162000252565b51815160209384036101000a600019018019909216911617905292019485525060405193849003019092208054600160a060020a031916600160a060020a039490941693909317909255505060010162000120565b5050565b828054600181600116156101000203166002900490600052602060002090601f016020900481019282601f106200030f57805160ff19168380011785556200033f565b828001600101855582156200033f579182015b828111156200033f57825182559160200191906001019062000322565b506200034d929150620003b7565b5090565b828054828255906000526020600020908101928215620003a9579160200282015b82811115620003a95782518254600160a060020a031916600160a060020a0390911617825560209092019160019091019062000372565b506200034d929150620003d7565b620003d491905b808211156200034d5760008155600101620003be565b90565b620003d491905b808211156200034d578054600160a060020a0319168155600101620003de565b611190806200040e6000396000f3fe6080604052600436106100615763ffffffff7c0100000000000000000000000000000000000000000000000000000000600035041663491136708114610066578063b58c61061461008d578063c7335c911461035e578063eae2db7a146103c3575b600080fd5b34801561007257600080fd5b5061007b61044d565b60408051918252519081900360200190f35b34801561009957600080fd5b5061035c600480360360a08110156100b057600080fd5b8101906020810181356401000000008111156100cb57600080fd5b8201836020820111156100dd57600080fd5b803590602001918460018302840111640100000000831117156100ff57600080fd5b91908080601f016020809104026020016040519081016040528093929190818152602001838380828437600092019190915250929594936020810193503591505064010000000081111561015257600080fd5b82018360208201111561016457600080fd5b8035906020019184600183028401116401000000008311171561018657600080fd5b91908080601f01602080910402602001604051908101604052809392919081815260200183838082843760009201919091525092959493602081019350359150506401000000008111156101d957600080fd5b8201836020820111156101eb57600080fd5b8035906020019184600183028401116401000000008311171561020d57600080fd5b91908080601f016020809104026020016040519081016040528093929190818152602001838380828437600092019190915250929594936020810193503591505064010000000081111561026057600080fd5b82018360208201111561027257600080fd5b8035906020019184600183028401116401000000008311171561029457600080fd5b91908080601f01602080910402602001604051908101604052809392919081815260200183838082843760009201919091525092959493602081019350359150506401000000008111156102e757600080fd5b8201836020820111156102f957600080fd5b8035906020019184600183028401116401000000008311171561031b57600080fd5b91908080601f016020809104026020016040519081016040528093929190818152602001838380828437600092019190915250929550610453945050505050565b005b34801561036a57600080fd5b506103736108df565b60408051602080825283518183015283519192839290830191858101910280838360005b838110156103af578181015183820152602001610397565b505050509050019250505060405180910390f35b3480156103cf57600080fd5b506103d861094e565b6040805160208082528351818301528351919283929083019185019080838360005b838110156104125781810151838201526020016103fa565b50505050905090810190601f16801561043f5780820380516001836020036101000a031916815260200191505b509250505060405180910390f35b60025490565b60008585858585610462610a9a565b80806020018060200180602001806020018060200186810386528b818151815260200191508051906020019080838360005b838110156104ac578181015183820152602001610494565b50505050905090810190601f1680156104d95780820380516001836020036101000a031916815260200191505b5086810385528a5181528a516020918201918c019080838360005b8381101561050c5781810151838201526020016104f4565b50505050905090810190601f1680156105395780820380516001836020036101000a031916815260200191505b5086810384528951815289516020918201918b019080838360005b8381101561056c578181015183820152602001610554565b50505050905090810190601f1680156105995780820380516001836020036101000a031916815260200191505b5086810383528851815288516020918201918a019080838360005b838110156105cc5781810151838201526020016105b4565b50505050905090810190601f1680156105f95780820380516001836020036101000a031916815260200191505b50868103825287518152875160209182019189019080838360005b8381101561062c578181015183820152602001610614565b50505050905090810190601f1680156106595780820380516001836020036101000a031916815260200191505b509a5050505050505050505050604051809103906000f080158015610682573d6000803e3d6000fd5b509050806001866040518082805190602001908083835b602083106106d657805182527fffffffffffffffffffffffffffffffffffffffffffffffffffffffffffffffe09092019160209182019101610699565b51815160209384036101000a7fffffffffffffffffffffffffffffffffffffffffffffffffffffffffffffffff018019909216911617905292019485525060408051948590038201852080547fffffffffffffffffffffffff00000000000000000000000000000000000000001673ffffffffffffffffffffffffffffffffffffffff97909716969096179095553380855260808583018181528d51918701919091528c517ffd6d88f4ad58e0413badea4af5148585f787b426d4dac0376143f72c4714a01b9792968e96508b95508d949093840191606085019160a08601919089019080838360005b838110156107d85781810151838201526020016107c0565b50505050905090810190601f1680156108055780820380516001836020036101000a031916815260200191505b50848103835286518152865160209182019188019080838360005b83811015610838578181015183820152602001610820565b50505050905090810190601f1680156108655780820380516001836020036101000a031916815260200191505b50848103825285518152855160209182019187019080838360005b83811015610898578181015183820152602001610880565b50505050905090810190601f1680156108c55780820380516001836020036101000a031916815260200191505b5097505050505050505060405180910390a1505050505050565b6060600280548060200260200160405190810160405280929190818152602001828054801561094457602002820191906000526020600020905b815473ffffffffffffffffffffffffffffffffffffffff168152600190910190602001808311610919575b5050505050905090565b60028054606091907fffffffffffffffffffffffffffffffffffffffffffffffffffffffffffffffff810190811061098257fe5b6000918252602082200154604080517fd13319c4000000000000000000000000000000000000000000000000000000008152905173ffffffffffffffffffffffffffffffffffffffff9092169263d13319c492600480840193829003018186803b1580156109ef57600080fd5b505afa158015610a03573d6000803e3d6000fd5b505050506040513d6000823e601f3d9081017fffffffffffffffffffffffffffffffffffffffffffffffffffffffffffffffe01682016040526020811015610a4a57600080fd5b810190808051640100000000811115610a6257600080fd5b82016020810184811115610a7557600080fd5b8151640100000000811182820187101715610a8f57600080fd5b509094505050505090565b6040516106ba80610aab8339019056fe608060405234801561001057600080fd5b506040516106ba3803806106ba833981018060405260a081101561003357600080fd5b81019080805164010000000081111561004b57600080fd5b8201602081018481111561005e57600080fd5b815164010000000081118282018710171561007857600080fd5b5050929190602001805164010000000081111561009457600080fd5b820160208101848111156100a757600080fd5b81516401000000008111828201871017156100c157600080fd5b505092919060200180516401000000008111156100dd57600080fd5b820160208101848111156100f057600080fd5b815164010000000081118282018710171561010a57600080fd5b5050929190602001805164010000000081111561012657600080fd5b8201602081018481111561013957600080fd5b815164010000000081118282018710171561015357600080fd5b5050929190602001805164010000000081111561016f57600080fd5b8201602081018481111561018257600080fd5b815164010000000081118282018710171561019c57600080fd5b505060008054600160a060020a0319163317905586519093506101c89250600291506020870190610223565b5082516101dc906003906020860190610223565b5081516101f0906004906020850190610223565b508451610204906001906020880190610223565b508051610218906005906020840190610223565b5050505050506102be565b828054600181600116156101000203166002900490600052602060002090601f016020900481019282601f1061026457805160ff1916838001178555610291565b82800160010185558215610291579182015b82811115610291578251825591602001919060010190610276565b5061029d9291506102a1565b5090565b6102bb91905b8082111561029d57600081556001016102a7565b90565b6103ed806102cd6000396000f3fe60806040526004361061006c5763ffffffff7c0100000000000000000000000000000000000000000000000000000000600035041663430fe9c1811461007157806367f29d67146100fb578063a4300ee514610110578063ce6d41de1461014e578063d13319c414610163575b600080fd5b34801561007d57600080fd5b50610086610178565b6040805160208082528351818301528351919283929083019185019080838360005b838110156100c05781810151838201526020016100a8565b50505050905090810190601f1680156100ed5780820380516001836020036101000a031916815260200191505b509250505060405180910390f35b34801561010757600080fd5b5061008661022c565b34801561011c57600080fd5b506101256102aa565b6040805173ffffffffffffffffffffffffffffffffffffffff9092168252519081900360200190f35b34801561015a57600080fd5b506100866102c6565b34801561016f57600080fd5b50610086610345565b60038054604080516020601f60027fffffffffffffffffffffffffffffffffffffffffffffffffffffffffffffffff6101006001881615020190951694909404938401819004810282018101909252828152606093909290918301828280156102225780601f106101f757610100808354040283529160200191610222565b820191906000526020600020905b81548152906001019060200180831161020557829003601f168201915b5050505050905090565b60018054604080516020601f60027fffffffffffffffffffffffffffffffffffffffffffffffffffffffffffffffff61010087891615020190951694909404938401819004810282018101909252828152606093909290918301828280156102225780601f106101f757610100808354040283529160200191610222565b60005473ffffffffffffffffffffffffffffffffffffffff1690565b60048054604080516020601f60027fffffffffffffffffffffffffffffffffffffffffffffffffffffffffffffffff6101006001881615020190951694909404938401819004810282018101909252828152606093909290918301828280156102225780601f106101f757610100808354040283529160200191610222565b60028054604080516020601f7fffffffffffffffffffffffffffffffffffffffffffffffffffffffffffffffff61010060018716150201909416859004938401819004810282018101909252828152606093909290918301828280156102225780601f106101f75761010080835404028352916020019161022256fea165627a7a723058200cd0e7f8eb368813830f6dcd0cec4434a327c874fde935af81e9231a0df3784c0029a165627a7a723058206cb5bac9d88b68eac90ba67872e91304ce431e3cfbeb4bbb412f22ec07a36a5d0029",
  "source": "pragma solidity ^0.5.0;\n\nimport \"./commit.sol\";\n\ncontract branch{\n    string branchName;\n    mapping(string => address) commitMap; //CommitHash => contract\n    commit[] commitArray;\n\n    constructor(string memory _branchName, commit[] memory _commitArray) public{\n        branchName = _branchName;\n        commitArray = _commitArray;\n        initMap(_commitArray);\n    }\n    function initMap(commit[] memory _commitArray)  private  {\n        for (uint index = 0; index < _commitArray.length; index++) {\n            commitMap[_commitArray[index].getHash()] = address(_commitArray[index]);\n        }\n    }\n    function getCommitsArray() public view returns (commit[] memory) {\n        return commitArray;\n    }\n     function getCommitsArrayLength() public view returns (uint) {\n        return commitArray.length;\n    }\n   function pushCommit(string memory _authorName,string memory _commitHash,\n  string memory  _date, string memory _message,string memory _change) public{\n      \n      commit Commit = new commit(_authorName,_commitHash,_date,_message,_change);\n      commitMap[_commitHash] = address(Commit);\n      emit commitCreated(msg.sender,_authorName,_message,_commitHash);\n  }\n    event commitCreated(address commitCreator, string name,string msg, string _commitHash);\n\n    modifier onlyPermitted(){\n        //require(msg.sender == owner);\n        _;\n    }\n  \n\n    function getLastCommitHash() public view returns(string memory) {\n        return commitArray[commitArray.length-1].getHash();\n    }\n\n\n\n}",
  "sourcePath": "/home/yehia/Documents/Projects/hackathon/BlockHub/contracts/branch.sol",
  "compiler": {
    "name": "solc",
    "version": "0.5.0+commit.1d4f565a.Emscripten.clang"
  },
  "schemaVersion": "3.0.8",
  "updatedAt": "2019-08-04T11:02:10.627Z",
  "devdoc": {
    "methods": {}
  },
  "userdoc": {
    "methods": {}
  }
}