{
  "contractName": "branch",
  "abi": [
    {
      "inputs": [
        {
          "name": "_branchName",
          "type": "string"
        },
        {
          "name": "_commitArray",
          "type": "address[]"
        }
      ],
      "payable": false,
      "stateMutability": "nonpayable",
      "type": "constructor"
    },
    {
      "anonymous": false,
      "inputs": [
        {
          "indexed": false,
          "name": "commitCreator",
          "type": "address"
        },
        {
          "indexed": false,
          "name": "msg",
          "type": "string"
        },
        {
          "indexed": false,
          "name": "_commitHash",
          "type": "string"
        }
      ],
      "name": "commitCreated",
      "type": "event"
    },
    {
      "constant": true,
      "inputs": [],
      "name": "getCommitsArray",
      "outputs": [
        {
          "name": "",
          "type": "address[]"
        }
      ],
      "payable": false,
      "stateMutability": "view",
      "type": "function"
    },
    {
      "constant": false,
      "inputs": [
        {
          "name": "_commitHash",
          "type": "string"
        },
        {
          "name": "_date",
          "type": "string"
        },
        {
          "name": "_msg",
          "type": "string"
        },
        {
          "name": "_change",
          "type": "string"
        }
      ],
      "name": "parseCommit",
      "outputs": [],
      "payable": false,
      "stateMutability": "nonpayable",
      "type": "function"
    },
    {
      "constant": true,
      "inputs": [],
      "name": "getLastCommitHash",
      "outputs": [
        {
          "name": "",
          "type": "string"
        }
      ],
      "payable": false,
      "stateMutability": "view",
      "type": "function"
    }
  ],
  "bytecode": "0x60806040523480156200001157600080fd5b50604051620011c6380380620011c6833981018060405260408110156200003757600080fd5b8101908080516401000000008111156200005057600080fd5b820160208101848111156200006457600080fd5b81516401000000008111828201871017156200007f57600080fd5b505092919060200180516401000000008111156200009c57600080fd5b82016020810184811115620000b057600080fd5b8151856020820283011164010000000082111715620000ce57600080fd5b50508451909350620000ea9250600091506020850190620002cc565b5080516200010090600290602084019062000351565b5062000115816401000000006200011d810204565b5050620003fe565b60005b8151811015620002c85781818151811015156200013957fe5b90602001906020020151600183838151811015156200015457fe5b90602001906020020151600160a060020a031663d13319c46040518163ffffffff167c010000000000000000000000000000000000000000000000000000000002815260040160006040518083038186803b158015620001b357600080fd5b505afa158015620001c8573d6000803e3d6000fd5b505050506040513d6000823e601f3d908101601f191682016040526020811015620001f257600080fd5b8101908080516401000000008111156200020b57600080fd5b820160208101848111156200021f57600080fd5b81516401000000008111828201871017156200023a57600080fd5b50509291905050506040518082805190602001908083835b60208310620002735780518252601f19909201916020918201910162000252565b51815160209384036101000a600019018019909216911617905292019485525060405193849003019092208054600160a060020a031916600160a060020a039490941693909317909255505060010162000120565b5050565b828054600181600116156101000203166002900490600052602060002090601f016020900481019282601f106200030f57805160ff19168380011785556200033f565b828001600101855582156200033f579182015b828111156200033f57825182559160200191906001019062000322565b506200034d929150620003b7565b5090565b828054828255906000526020600020908101928215620003a9579160200282015b82811115620003a95782518254600160a060020a031916600160a060020a0390911617825560209092019160019091019062000372565b506200034d929150620003d7565b620003d491905b808211156200034d5760008155600101620003be565b90565b620003d491905b808211156200034d578054600160a060020a0319168155600101620003de565b610db8806200040e6000396000f3fe6080604052600436106100565763ffffffff7c0100000000000000000000000000000000000000000000000000000000600035041663c7335c91811461005b578063c9609d76146100c0578063eae2db7a1461030a575b600080fd5b34801561006757600080fd5b50610070610394565b60408051602080825283518183015283519192839290830191858101910280838360005b838110156100ac578181015183820152602001610094565b505050509050019250505060405180910390f35b3480156100cc57600080fd5b50610308600480360360808110156100e357600080fd5b8101906020810181356401000000008111156100fe57600080fd5b82018360208201111561011057600080fd5b8035906020019184600183028401116401000000008311171561013257600080fd5b91908080601f016020809104026020016040519081016040528093929190818152602001838380828437600092019190915250929594936020810193503591505064010000000081111561018557600080fd5b82018360208201111561019757600080fd5b803590602001918460018302840111640100000000831117156101b957600080fd5b91908080601f016020809104026020016040519081016040528093929190818152602001838380828437600092019190915250929594936020810193503591505064010000000081111561020c57600080fd5b82018360208201111561021e57600080fd5b8035906020019184600183028401116401000000008311171561024057600080fd5b91908080601f016020809104026020016040519081016040528093929190818152602001838380828437600092019190915250929594936020810193503591505064010000000081111561029357600080fd5b8201836020820111156102a557600080fd5b803590602001918460018302840111640100000000831117156102c757600080fd5b91908080601f016020809104026020016040519081016040528093929190818152602001838380828437600092019190915250929550610403945050505050565b005b34801561031657600080fd5b5061031f61085a565b6040805160208082528351818301528351919283929083019185019080838360005b83811015610359578181015183820152602001610341565b50505050905090810190601f1680156103865780820380516001836020036101000a031916815260200191505b509250505060405180910390f35b606060028054806020026020016040519081016040528092919081815260200182805480156103f957602002820191906000526020600020905b815473ffffffffffffffffffffffffffffffffffffffff1681526001909101906020018083116103ce575b5050505050905090565b6000338585858561041261096a565b808673ffffffffffffffffffffffffffffffffffffffff1673ffffffffffffffffffffffffffffffffffffffff16815260200180602001806020018060200180602001858103855289818151815260200191508051906020019080838360005b8381101561048a578181015183820152602001610472565b50505050905090810190601f1680156104b75780820380516001836020036101000a031916815260200191505b5085810384528851815288516020918201918a019080838360005b838110156104ea5781810151838201526020016104d2565b50505050905090810190601f1680156105175780820380516001836020036101000a031916815260200191505b50858103835287518152875160209182019189019080838360005b8381101561054a578181015183820152602001610532565b50505050905090810190601f1680156105775780820380516001836020036101000a031916815260200191505b50858103825286518152865160209182019188019080838360005b838110156105aa578181015183820152602001610592565b50505050905090810190601f1680156105d75780820380516001836020036101000a031916815260200191505b509950505050505050505050604051809103906000f0801580156105ff573d6000803e3d6000fd5b509050806001866040518082805190602001908083835b602083106106355780518252601f199092019160209182019101610616565b51815160209384036101000a60001901801990921691161790529201948552506040519384900381018420805473ffffffffffffffffffffffffffffffffffffffff191673ffffffffffffffffffffffffffffffffffffffff969096169590951790945550508651600292600192899290918291908401908083835b602083106106d05780518252601f1990920191602091820191016106b1565b51815160001960209485036101000a01908116901991909116179052920194855250604080519485900382018520548654600181018855600097885283882001805473ffffffffffffffffffffffffffffffffffffffff191673ffffffffffffffffffffffffffffffffffffffff9092169190911790553380865260608684018181528b51918801919091528a517f49e41cf7f645152827d5c078de6829eb2dc16ae1ac0a4cbe6025d392d3cd70769892978c97508e96509491938501926080860192880191908190849084905b838110156107b657818101518382015260200161079e565b50505050905090810190601f1680156107e35780820380516001836020036101000a031916815260200191505b50838103825284518152845160209182019186019080838360005b838110156108165781810151838201526020016107fe565b50505050905090810190601f1680156108435780820380516001836020036101000a031916815260200191505b509550505050505060405180910390a15050505050565b6002805460609190600019810190811061087057fe5b6000918252602082200154604080517fd13319c4000000000000000000000000000000000000000000000000000000008152905173ffffffffffffffffffffffffffffffffffffffff9092169263d13319c492600480840193829003018186803b1580156108dd57600080fd5b505afa1580156108f1573d6000803e3d6000fd5b505050506040513d6000823e601f3d908101601f19168201604052602081101561091a57600080fd5b81019080805164010000000081111561093257600080fd5b8201602081018481111561094557600080fd5b815164010000000081118282018710171561095f57600080fd5b509094505050505090565b6040516104128061097b8339019056fe608060405234801561001057600080fd5b50604051610412380380610412833981018060405260a081101561003357600080fd5b81516020830180519193928301929164010000000081111561005457600080fd5b8201602081018481111561006757600080fd5b815164010000000081118282018710171561008157600080fd5b5050929190602001805164010000000081111561009d57600080fd5b820160208101848111156100b057600080fd5b81516401000000008111828201871017156100ca57600080fd5b505092919060200180516401000000008111156100e657600080fd5b820160208101848111156100f957600080fd5b815164010000000081118282018710171561011357600080fd5b5050929190602001805164010000000081111561012f57600080fd5b8201602081018481111561014257600080fd5b815164010000000081118282018710171561015c57600080fd5b505060008054600160a060020a031916600160a060020a038a16179055865190935061019192506001915060208701906101d8565b5082516101a59060029060208601906101d8565b5081516101b99060039060208501906101d8565b5080516101cd9060049060208401906101d8565b505050505050610273565b828054600181600116156101000203166002900490600052602060002090601f016020900481019282601f1061021957805160ff1916838001178555610246565b82800160010185558215610246579182015b8281111561024657825182559160200191906001019061022b565b50610252929150610256565b5090565b61027091905b80821115610252576000815560010161025c565b90565b610190806102826000396000f3fe6080604052600436106100405763ffffffff7c0100000000000000000000000000000000000000000000000000000000600035041663d13319c48114610045575b600080fd5b34801561005157600080fd5b5061005a6100cf565b6040805160208082528351818301528351919283929083019185019080838360005b8381101561009457818101518382015260200161007c565b50505050905090810190601f1680156100c15780820380516001836020036101000a031916815260200191505b509250505060405180910390f35b60018054604080516020601f6002600019610100878916150201909516949094049384018190048102820181019092528281526060939092909183018282801561015a5780601f1061012f5761010080835404028352916020019161015a565b820191906000526020600020905b81548152906001019060200180831161013d57829003601f168201915b505050505090509056fea165627a7a72305820cd5b6e2913f12cf8a65acd708c27b02c735dd5a6ed6514422ac8b702ea501e130029a165627a7a723058208e8a8ed54d9ff2419e05ec5f8674dc96a4b2d1adebb58c7b950c26d4e094f02a0029",
  "source": "pragma solidity ^0.5.0;\n\nimport \"./commit.sol\";\n\ncontract branch{\n    string branchName;\n    mapping(string => address) commitMap; //CommitHash => contract\n    commit[] commitArray;\n\n    constructor(string memory _branchName, commit[] memory _commitArray) public{\n        branchName = _branchName;\n        commitArray = _commitArray;\n        initMap(_commitArray);\n    }\n    function initMap(commit[] memory _commitArray)  private  {\n        for (uint index = 0; index < _commitArray.length; index++) {\n                commitMap[_commitArray[index].getHash()]  = address(_commitArray[index]);\n        }\n    }\n    function getCommitsArray() view public returns (commit[] memory) {\n        return commitArray;\n    }\n    event commitCreated(address commitCreator, string msg, string _commitHash);\n\n    modifier onlyPermitted(){\n        //require(msg.sender == owner);\n        _;\n    }\n    function parseCommit(string memory _commitHash, string memory _date, \n    string memory _msg, string memory _change ) public onlyPermitted{\n        commit Commit =  new commit(msg.sender, _commitHash, _date, _msg, _change);\n        commitMap[_commitHash] = address(Commit);\n        commitArray.push(commit(commitMap[_commitHash]));\n        \n        emit commitCreated(msg.sender, _msg, _commitHash);\n    }\n\n\n    function getLastCommitHash() public view returns(string memory) {\n        return commitArray[commitArray.length-1].getHash();\n    }\n\n\n\n}",
  "sourcePath": "/home/yehia/Documents/Projects/hackathon/BlockHub/contracts/branch.sol",
  "compiler": {
    "name": "solc",
    "version": "0.5.0+commit.1d4f565a.Emscripten.clang"
  },
  "schemaVersion": "3.0.8",
  "updatedAt": "2019-07-30T11:22:27.655Z",
  "devdoc": {
    "methods": {}
  },
  "userdoc": {
    "methods": {}
  }
}