{
  "contractName": "branch",
  "abi": [
    {
      "inputs": [
        {
          "name": "_branchName",
          "type": "string"
        },
        {
          "name": "_commitArray",
          "type": "address[]"
        }
      ],
      "payable": false,
      "stateMutability": "nonpayable",
      "type": "constructor"
    },
    {
      "anonymous": false,
      "inputs": [
        {
          "indexed": false,
          "name": "commitCreator",
          "type": "address"
        },
        {
          "indexed": false,
          "name": "msg",
          "type": "string"
        },
        {
          "indexed": false,
          "name": "_commitHash",
          "type": "string"
        }
      ],
      "name": "commitCreated",
      "type": "event"
    },
    {
      "constant": true,
      "inputs": [],
      "name": "getCommitsArray",
      "outputs": [
        {
          "name": "",
          "type": "address[]"
        }
      ],
      "payable": false,
      "stateMutability": "view",
      "type": "function"
    },
    {
      "constant": false,
      "inputs": [
        {
          "name": "_authorAddress",
          "type": "address"
        },
        {
          "name": "_authorName",
          "type": "string"
        },
        {
          "name": "_commitHash",
          "type": "string"
        },
        {
          "name": "_date",
          "type": "string"
        },
        {
          "name": "_msg",
          "type": "string"
        },
        {
          "name": "_change",
          "type": "string"
        }
      ],
      "name": "parseCommit",
      "outputs": [],
      "payable": false,
      "stateMutability": "nonpayable",
      "type": "function"
    },
    {
      "constant": true,
      "inputs": [],
      "name": "getLastCommitHash",
      "outputs": [
        {
          "name": "",
          "type": "string"
        }
      ],
      "payable": false,
      "stateMutability": "view",
      "type": "function"
    }
  ],
  "bytecode": "0x60806040523480156200001157600080fd5b506040516200142138038062001421833981018060405260408110156200003757600080fd5b8101908080516401000000008111156200005057600080fd5b820160208101848111156200006457600080fd5b81516401000000008111828201871017156200007f57600080fd5b505092919060200180516401000000008111156200009c57600080fd5b82016020810184811115620000b057600080fd5b8151856020820283011164010000000082111715620000ce57600080fd5b50508451909350620000ea9250600091506020850190620002a5565b508051620001009060029060208401906200032a565b5062000112816200011a60201b60201c565b5050620003d7565b60005b8151811015620002a1578181815181106200013457fe5b602002602001015160018383815181106200014b57fe5b60200260200101516001600160a01b031663d13319c46040518163ffffffff1660e01b815260040160006040518083038186803b1580156200018c57600080fd5b505afa158015620001a1573d6000803e3d6000fd5b505050506040513d6000823e601f3d908101601f191682016040526020811015620001cb57600080fd5b810190808051640100000000811115620001e457600080fd5b82016020810184811115620001f857600080fd5b81516401000000008111828201871017156200021357600080fd5b50509291905050506040518082805190602001908083835b602083106200024c5780518252601f1990920191602091820191016200022b565b51815160209384036101000a6000190180199092169116179052920194855250604051938490030190922080546001600160a01b0319166001600160a01b03949094169390931790925550506001016200011d565b5050565b828054600181600116156101000203166002900490600052602060002090601f016020900481019282601f10620002e857805160ff191683800117855562000318565b8280016001018555821562000318579182015b8281111562000318578251825591602001919060010190620002fb565b506200032692915062000390565b5090565b82805482825590600052602060002090810192821562000382579160200282015b828111156200038257825182546001600160a01b0319166001600160a01b039091161782556020909201916001909101906200034b565b5062000326929150620003b0565b620003ad91905b8082111562000326576000815560010162000397565b90565b620003ad91905b80821115620003265780546001600160a01b0319168155600101620003b7565b61103a80620003e76000396000f3fe608060405234801561001057600080fd5b50600436106100415760003560e01c806379397dca14610046578063c7335c9114610310578063eae2db7a14610368575b600080fd5b61030e600480360360c081101561005c57600080fd5b6001600160a01b038235169190810190604081016020820135600160201b81111561008657600080fd5b82018360208201111561009857600080fd5b803590602001918460018302840111600160201b831117156100b957600080fd5b91908080601f0160208091040260200160405190810160405280939291908181526020018383808284376000920191909152509295949360208101935035915050600160201b81111561010b57600080fd5b82018360208201111561011d57600080fd5b803590602001918460018302840111600160201b8311171561013e57600080fd5b91908080601f0160208091040260200160405190810160405280939291908181526020018383808284376000920191909152509295949360208101935035915050600160201b81111561019057600080fd5b8201836020820111156101a257600080fd5b803590602001918460018302840111600160201b831117156101c357600080fd5b91908080601f0160208091040260200160405190810160405280939291908181526020018383808284376000920191909152509295949360208101935035915050600160201b81111561021557600080fd5b82018360208201111561022757600080fd5b803590602001918460018302840111600160201b8311171561024857600080fd5b91908080601f0160208091040260200160405190810160405280939291908181526020018383808284376000920191909152509295949360208101935035915050600160201b81111561029a57600080fd5b8201836020820111156102ac57600080fd5b803590602001918460018302840111600160201b831117156102cd57600080fd5b91908080601f0160208091040260200160405190810160405280939291908181526020018383808284376000920191909152509295506103e5945050505050565b005b61031861085b565b60408051602080825283518183015283519192839290830191858101910280838360005b8381101561035457818101518382015260200161033c565b505050509050019250505060405180910390f35b6103706108bd565b6040805160208082528351818301528351919283929083019185019080838360005b838110156103aa578181015183820152602001610392565b50505050905090810190601f1680156103d75780820380516001836020036101000a031916815260200191505b509250505060405180910390f35b60008686868686866040516103f9906109a8565b80876001600160a01b03166001600160a01b03168152602001806020018060200180602001806020018060200186810386528b818151815260200191508051906020019080838360005b8381101561045b578181015183820152602001610443565b50505050905090810190601f1680156104885780820380516001836020036101000a031916815260200191505b5086810385528a5181528a516020918201918c019080838360005b838110156104bb5781810151838201526020016104a3565b50505050905090810190601f1680156104e85780820380516001836020036101000a031916815260200191505b5086810384528951815289516020918201918b019080838360005b8381101561051b578181015183820152602001610503565b50505050905090810190601f1680156105485780820380516001836020036101000a031916815260200191505b5086810383528851815288516020918201918a019080838360005b8381101561057b578181015183820152602001610563565b50505050905090810190601f1680156105a85780820380516001836020036101000a031916815260200191505b50868103825287518152875160209182019189019080838360005b838110156105db5781810151838201526020016105c3565b50505050905090810190601f1680156106085780820380516001836020036101000a031916815260200191505b509b505050505050505050505050604051809103906000f080158015610632573d6000803e3d6000fd5b509050806001866040518082805190602001908083835b602083106106685780518252601f199092019160209182019101610649565b51815160209384036101000a6000190180199092169116179052920194855250604051938490038101842080546001600160a01b0319166001600160a01b03969096169590951790945550508651600292600192899290918291908401908083835b602083106106e95780518252601f1990920191602091820191016106ca565b51815160001960209485036101000a0190811690199190911617905292019485525060408051948590038201852054865460018101885560009788528388200180546001600160a01b0319166001600160a01b039092169190911790553380865260608684018181528b51918801919091528a517f49e41cf7f645152827d5c078de6829eb2dc16ae1ac0a4cbe6025d392d3cd70769892978c97508e96509491938501926080860192880191908190849084905b838110156107b557818101518382015260200161079d565b50505050905090810190601f1680156107e25780820380516001836020036101000a031916815260200191505b50838103825284518152845160209182019186019080838360005b838110156108155781810151838201526020016107fd565b50505050905090810190601f1680156108425780820380516001836020036101000a031916815260200191505b509550505050505060405180910390a150505050505050565b606060028054806020026020016040519081016040528092919081815260200182805480156108b357602002820191906000526020600020905b81546001600160a01b03168152600190910190602001808311610895575b5050505050905090565b600280546060919060001981019081106108d357fe5b600091825260208220015460408051600160e21b63344cc67102815290516001600160a01b039092169263d13319c492600480840193829003018186803b15801561091d57600080fd5b505afa158015610931573d6000803e3d6000fd5b505050506040513d6000823e601f3d908101601f19168201604052602081101561095a57600080fd5b810190808051600160201b81111561097157600080fd5b8201602081018481111561098457600080fd5b8151600160201b81118282018710171561099d57600080fd5b509094505050505090565b610659806109b68339019056fe608060405234801561001057600080fd5b50604051610659380380610659833981018060405260c081101561003357600080fd5b81516020830180519193928301929164010000000081111561005457600080fd5b8201602081018481111561006757600080fd5b815164010000000081118282018710171561008157600080fd5b5050929190602001805164010000000081111561009d57600080fd5b820160208101848111156100b057600080fd5b81516401000000008111828201871017156100ca57600080fd5b505092919060200180516401000000008111156100e657600080fd5b820160208101848111156100f957600080fd5b815164010000000081118282018710171561011357600080fd5b5050929190602001805164010000000081111561012f57600080fd5b8201602081018481111561014257600080fd5b815164010000000081118282018710171561015c57600080fd5b5050929190602001805164010000000081111561017857600080fd5b8201602081018481111561018b57600080fd5b81516401000000008111828201871017156101a557600080fd5b5050600080546001600160a01b0319166001600160a01b038b1617905586519093506101da9250600291506020870190610236565b5082516101ee906003906020860190610236565b508151610202906004906020850190610236565b508051610216906005906020840190610236565b50845161022a906001906020880190610236565b505050505050506102d1565b828054600181600116156101000203166002900490600052602060002090601f016020900481019282601f1061027757805160ff19168380011785556102a4565b828001600101855582156102a4579182015b828111156102a4578251825591602001919060010190610289565b506102b09291506102b4565b5090565b6102ce91905b808211156102b057600081556001016102ba565b90565b610379806102e06000396000f3fe608060405234801561001057600080fd5b50600436106100625760003560e01c8063430fe9c1146100675780634c9f9fc3146100e4578063a4300ee5146100ec578063b7ed5abc14610110578063ce6d41de14610118578063d13319c414610120575b600080fd5b61006f610128565b6040805160208082528351818301528351919283929083019185019080838360005b838110156100a9578181015183820152602001610091565b50505050905090810190601f1680156100d65780820380516001836020036101000a031916815260200191505b509250505060405180910390f35b61006f6101be565b6100f461021e565b604080516001600160a01b039092168252519081900360200190f35b61006f61022d565b61006f61028e565b61006f6102ef565b60038054604080516020601f60026000196101006001881615020190951694909404938401819004810282018101909252828152606093909290918301828280156101b45780601f10610189576101008083540402835291602001916101b4565b820191906000526020600020905b81548152906001019060200180831161019757829003601f168201915b5050505050905090565b60018054604080516020601f600260001961010087891615020190951694909404938401819004810282018101909252828152606093909290918301828280156101b45780601f10610189576101008083540402835291602001916101b4565b6000546001600160a01b031690565b60058054604080516020601f60026000196101006001881615020190951694909404938401819004810282018101909252828152606093909290918301828280156101b45780601f10610189576101008083540402835291602001916101b4565b60048054604080516020601f60026000196101006001881615020190951694909404938401819004810282018101909252828152606093909290918301828280156101b45780601f10610189576101008083540402835291602001916101b4565b60028054604080516020601f60001961010060018716150201909416859004938401819004810282018101909252828152606093909290918301828280156101b45780601f10610189576101008083540402835291602001916101b456fea165627a7a72305820cdd60dcf89b4029996bff27be113524b0be49e7f83ef70a9b1a03f124dddebf40029a165627a7a72305820a53c1e658ebeb1e692df341dcd61fea475a3cd8ba2ee9ee4088a8fc4823663050029",
  "source": "pragma solidity ^0.5.0;\n\nimport \"./commit.sol\";\n\ncontract branch{\n    string branchName;\n    mapping(string => address) commitMap; //CommitHash => contract\n    commit[] commitArray;\n\n    constructor(string memory _branchName, commit[] memory _commitArray) public{\n        branchName = _branchName;\n        commitArray = _commitArray;\n        initMap(_commitArray);\n    }\n    function initMap(commit[] memory _commitArray)  private  {\n        for (uint index = 0; index < _commitArray.length; index++) {\n            commitMap[_commitArray[index].getHash()] = address(_commitArray[index]);\n        }\n    }\n    function getCommitsArray() public view returns (commit[] memory) {\n        return commitArray;\n    }\n    event commitCreated(address commitCreator, string msg, string _commitHash);\n\n    modifier onlyPermitted(){\n        //require(msg.sender == owner);\n        _;\n    }\n    function parseCommit(address _authorAddress,string memory _authorName,string memory _commitHash, string memory _date,\n    string memory _msg, string memory _change ) public onlyPermitted{\n        commit Commit = new commit(_authorAddress,_authorName, _commitHash, _date, _msg, _change);\n        commitMap[_commitHash] = address(Commit);\n        commitArray.push(commit(commitMap[_commitHash]));\n        emit commitCreated(msg.sender, _msg, _commitHash);\n    }\n\n\n    function getLastCommitHash() public view returns(string memory) {\n        return commitArray[commitArray.length-1].getHash();\n    }\n\n\n\n}",
  "sourcePath": "/home/mahmoud/Projects/BlockHub/contracts/branch.sol",
  "compiler": {
    "name": "solc",
    "version": "0.5.8+commit.23d335f2.Emscripten.clang"
  },
  "schemaVersion": "3.0.11",
  "updatedAt": "2019-08-01T13:00:04.201Z",
  "devdoc": {
    "methods": {}
  },
  "userdoc": {
    "methods": {}
  }
}