{
  "contractName": "commit",
  "abi": [
    {
      "inputs": [
        {
          "name": "_authorName",
          "type": "string"
        },
        {
          "name": "_commitHash",
          "type": "string"
        },
        {
          "name": "_date",
          "type": "string"
        },
        {
          "name": "_message",
          "type": "string"
        }
      ],
      "payable": false,
      "stateMutability": "nonpayable",
      "type": "constructor"
    },
    {
      "constant": true,
      "inputs": [],
      "name": "getAuthorAddress",
      "outputs": [
        {
          "name": "",
          "type": "address"
        }
      ],
      "payable": false,
      "stateMutability": "view",
      "type": "function"
    },
    {
      "constant": true,
      "inputs": [],
      "name": "getAuthorName",
      "outputs": [
        {
          "name": "",
          "type": "string"
        }
      ],
      "payable": false,
      "stateMutability": "view",
      "type": "function"
    },
    {
      "constant": true,
      "inputs": [],
      "name": "getHash",
      "outputs": [
        {
          "name": "",
          "type": "string"
        }
      ],
      "payable": false,
      "stateMutability": "view",
      "type": "function"
    },
    {
      "constant": true,
      "inputs": [],
      "name": "getDate",
      "outputs": [
        {
          "name": "",
          "type": "string"
        }
      ],
      "payable": false,
      "stateMutability": "view",
      "type": "function"
    },
    {
      "constant": true,
      "inputs": [],
      "name": "getMessage",
      "outputs": [
        {
          "name": "",
          "type": "string"
        }
      ],
      "payable": false,
      "stateMutability": "view",
      "type": "function"
    }
  ],
  "bytecode": "0x608060405234801561001057600080fd5b5060405161065c38038061065c8339810180604052608081101561003357600080fd5b81019080805164010000000081111561004b57600080fd5b8201602081018481111561005e57600080fd5b815164010000000081118282018710171561007857600080fd5b5050929190602001805164010000000081111561009457600080fd5b820160208101848111156100a757600080fd5b81516401000000008111828201871017156100c157600080fd5b505092919060200180516401000000008111156100dd57600080fd5b820160208101848111156100f057600080fd5b815164010000000081118282018710171561010a57600080fd5b5050929190602001805164010000000081111561012657600080fd5b8201602081018481111561013957600080fd5b815164010000000081118282018710171561015357600080fd5b505060008054600160a060020a03191633179055855190935061017f92506002915060208601906101c5565b5081516101939060039060208501906101c5565b5080516101a79060049060208401906101c5565b5083516101bb9060019060208701906101c5565b5050505050610260565b828054600181600116156101000203166002900490600052602060002090601f016020900481019282601f1061020657805160ff1916838001178555610233565b82800160010185558215610233579182015b82811115610233578251825591602001919060010190610218565b5061023f929150610243565b5090565b61025d91905b8082111561023f5760008155600101610249565b90565b6103ed8061026f6000396000f3fe60806040526004361061006c5763ffffffff7c0100000000000000000000000000000000000000000000000000000000600035041663430fe9c1811461007157806367f29d67146100fb578063a4300ee514610110578063ce6d41de1461014e578063d13319c414610163575b600080fd5b34801561007d57600080fd5b50610086610178565b6040805160208082528351818301528351919283929083019185019080838360005b838110156100c05781810151838201526020016100a8565b50505050905090810190601f1680156100ed5780820380516001836020036101000a031916815260200191505b509250505060405180910390f35b34801561010757600080fd5b5061008661022c565b34801561011c57600080fd5b506101256102aa565b6040805173ffffffffffffffffffffffffffffffffffffffff9092168252519081900360200190f35b34801561015a57600080fd5b506100866102c6565b34801561016f57600080fd5b50610086610345565b60038054604080516020601f60027fffffffffffffffffffffffffffffffffffffffffffffffffffffffffffffffff6101006001881615020190951694909404938401819004810282018101909252828152606093909290918301828280156102225780601f106101f757610100808354040283529160200191610222565b820191906000526020600020905b81548152906001019060200180831161020557829003601f168201915b5050505050905090565b60018054604080516020601f60027fffffffffffffffffffffffffffffffffffffffffffffffffffffffffffffffff61010087891615020190951694909404938401819004810282018101909252828152606093909290918301828280156102225780601f106101f757610100808354040283529160200191610222565b60005473ffffffffffffffffffffffffffffffffffffffff1690565b60048054604080516020601f60027fffffffffffffffffffffffffffffffffffffffffffffffffffffffffffffffff6101006001881615020190951694909404938401819004810282018101909252828152606093909290918301828280156102225780601f106101f757610100808354040283529160200191610222565b60028054604080516020601f7fffffffffffffffffffffffffffffffffffffffffffffffffffffffffffffffff61010060018716150201909416859004938401819004810282018101909252828152606093909290918301828280156102225780601f106101f75761010080835404028352916020019161022256fea165627a7a72305820359a8a93d4c6ff054d85195550dda7af93d5c7197a9fda2d9944c3d95310048b0029",
  "source": "pragma solidity ^0.5.0;\n\ncontract commit{\n  address authorAddress;\n  string authorName;\n  string commitHash;\n  string date;\n  string message;\n\n  \n  constructor (string memory _authorName,string memory _commitHash,\n  string memory  _date, string memory _message) public {\n    authorAddress = msg.sender;\n    commitHash = _commitHash;\n    date = _date;\n    message = _message;\n    authorName = _authorName;\n  }\n\n  function getAuthorAddress() public view returns (address) {\n    return authorAddress;\n  }\n\n  function getAuthorName() public view returns (string memory) {\n    return authorName;\n  }\n\n  function getHash() public view returns (string memory) {\n    return commitHash;\n  }\n\n  function getDate() public view returns (string memory) {\n    return date;\n  }\n\n  function getMessage() public view returns (string memory) {\n    return message;\n  }\n\n\n\n}",
  "sourcePath": "/home/yehia/Documents/Projects/hackathon/BlockHub/contracts/commit.sol",
  "compiler": {
    "name": "solc",
    "version": "0.5.0+commit.1d4f565a.Emscripten.clang"
  },
  "schemaVersion": "3.0.8",
  "updatedAt": "2019-08-20T11:59:32.584Z",
  "devdoc": {
    "methods": {}
  },
  "userdoc": {
    "methods": {}
  }
}