{
  "contractName": "commit",
  "abi": [
    {
      "inputs": [
        {
          "name": "_authorAddress",
          "type": "address"
        },
        {
          "name": "_authoreName",
          "type": "string"
        },
        {
          "name": "_commitHash",
          "type": "string"
        },
        {
          "name": "_date",
          "type": "string"
        },
        {
          "name": "_message",
          "type": "string"
        },
        {
          "name": "_change",
          "type": "string"
        }
      ],
      "payable": false,
      "stateMutability": "nonpayable",
      "type": "constructor"
    },
    {
      "constant": true,
      "inputs": [],
      "name": "getAuthorAddress",
      "outputs": [
        {
          "name": "",
          "type": "address"
        }
      ],
      "payable": false,
      "stateMutability": "view",
      "type": "function"
    },
    {
      "constant": true,
      "inputs": [],
      "name": "getAuthoreName",
      "outputs": [
        {
          "name": "",
          "type": "string"
        }
      ],
      "payable": false,
      "stateMutability": "view",
      "type": "function"
    },
    {
      "constant": true,
      "inputs": [],
      "name": "getHash",
      "outputs": [
        {
          "name": "",
          "type": "string"
        }
      ],
      "payable": false,
      "stateMutability": "view",
      "type": "function"
    },
    {
      "constant": true,
      "inputs": [],
      "name": "getDate",
      "outputs": [
        {
          "name": "",
          "type": "string"
        }
      ],
      "payable": false,
      "stateMutability": "view",
      "type": "function"
    },
    {
      "constant": true,
      "inputs": [],
      "name": "getMessage",
      "outputs": [
        {
          "name": "",
          "type": "string"
        }
      ],
      "payable": false,
      "stateMutability": "view",
      "type": "function"
    },
    {
      "constant": true,
      "inputs": [],
      "name": "getChange",
      "outputs": [
        {
          "name": "",
          "type": "string"
        }
      ],
      "payable": false,
      "stateMutability": "view",
      "type": "function"
    }
  ],
  "bytecode": "0x608060405234801561001057600080fd5b506040516106d63803806106d6833981018060405260c081101561003357600080fd5b81516020830180519193928301929164010000000081111561005457600080fd5b8201602081018481111561006757600080fd5b815164010000000081118282018710171561008157600080fd5b5050929190602001805164010000000081111561009d57600080fd5b820160208101848111156100b057600080fd5b81516401000000008111828201871017156100ca57600080fd5b505092919060200180516401000000008111156100e657600080fd5b820160208101848111156100f957600080fd5b815164010000000081118282018710171561011357600080fd5b5050929190602001805164010000000081111561012f57600080fd5b8201602081018481111561014257600080fd5b815164010000000081118282018710171561015c57600080fd5b5050929190602001805164010000000081111561017857600080fd5b8201602081018481111561018b57600080fd5b81516401000000008111828201871017156101a557600080fd5b505060008054600160a060020a031916600160a060020a038b1617905586519093506101da9250600291506020870190610236565b5082516101ee906003906020860190610236565b508151610202906004906020850190610236565b508051610216906005906020840190610236565b50845161022a906001906020880190610236565b505050505050506102d1565b828054600181600116156101000203166002900490600052602060002090601f016020900481019282601f1061027757805160ff19168380011785556102a4565b828001600101855582156102a4579182015b828111156102a4578251825591602001919060010190610289565b506102b09291506102b4565b5090565b6102ce91905b808211156102b057600081556001016102ba565b90565b6103f6806102e06000396000f3fe6080604052600436106100775763ffffffff7c0100000000000000000000000000000000000000000000000000000000600035041663430fe9c1811461007c5780634c9f9fc314610106578063a4300ee51461011b578063b7ed5abc14610159578063ce6d41de1461016e578063d13319c414610183575b600080fd5b34801561008857600080fd5b50610091610198565b6040805160208082528351818301528351919283929083019185019080838360005b838110156100cb5781810151838201526020016100b3565b50505050905090810190601f1680156100f85780820380516001836020036101000a031916815260200191505b509250505060405180910390f35b34801561011257600080fd5b5061009161022e565b34801561012757600080fd5b5061013061028e565b6040805173ffffffffffffffffffffffffffffffffffffffff9092168252519081900360200190f35b34801561016557600080fd5b506100916102aa565b34801561017a57600080fd5b5061009161030b565b34801561018f57600080fd5b5061009161036c565b60038054604080516020601f60026000196101006001881615020190951694909404938401819004810282018101909252828152606093909290918301828280156102245780601f106101f957610100808354040283529160200191610224565b820191906000526020600020905b81548152906001019060200180831161020757829003601f168201915b5050505050905090565b60018054604080516020601f600260001961010087891615020190951694909404938401819004810282018101909252828152606093909290918301828280156102245780601f106101f957610100808354040283529160200191610224565b60005473ffffffffffffffffffffffffffffffffffffffff1690565b60058054604080516020601f60026000196101006001881615020190951694909404938401819004810282018101909252828152606093909290918301828280156102245780601f106101f957610100808354040283529160200191610224565b60048054604080516020601f60026000196101006001881615020190951694909404938401819004810282018101909252828152606093909290918301828280156102245780601f106101f957610100808354040283529160200191610224565b60028054604080516020601f60001961010060018716150201909416859004938401819004810282018101909252828152606093909290918301828280156102245780601f106101f95761010080835404028352916020019161022456fea165627a7a72305820fbb785ea4a1983aaac09f02495a11576d6390b9b6d071409bf34091009d7a24a0029",
  "source": "pragma solidity ^0.5.0;\n\ncontract commit{\n   address authorAddress;\n   string authoreName;\n   string commitHash;\n   string  date;\n   string message;\n   string change;\n   constructor (address  _authorAddress,string memory _authoreName,string memory _commitHash,string memory  _date, string memory _message, string memory _change ) public {\n       authorAddress = _authorAddress;\n       commitHash = _commitHash;\n       date = _date;\n       message = _message;\n       change = _change;\n       authoreName = _authoreName;\n   }\n    function getAuthorAddress() view public returns (address) {\n      return authorAddress;\n  }\n  function getAuthoreName() view public returns (string memory) {\n      return authoreName;\n  }\n  function getHash() view public returns (string memory) {\n      return commitHash;\n  }\n   function getDate() view public returns (string memory) {\n      return date;\n  }\n    function getMessage() view public returns (string memory) {\n      return message;\n  }  \n    function getChange() view public returns (string memory) {\n      return change;\n  }\n}",
  "sourcePath": "/home/yehia/Documents/Projects/hackathon/BlockHub/contracts/commit.sol",
  "compiler": {
    "name": "solc",
    "version": "0.5.0+commit.1d4f565a.Emscripten.clang"
  },
  "schemaVersion": "3.0.8",
  "updatedAt": "2019-08-01T14:29:18.915Z",
  "devdoc": {
    "methods": {}
  },
  "userdoc": {
    "methods": {}
  }
}