{
  "contractName": "commit",
  "abi": [
    {
      "inputs": [
        {
          "name": "_authorAddress",
          "type": "address"
        },
        {
          "name": "_commitHash",
          "type": "string"
        },
        {
          "name": "_date",
          "type": "string"
        },
        {
          "name": "_message",
          "type": "string"
        },
        {
          "name": "_change",
          "type": "string"
        }
      ],
      "payable": false,
      "stateMutability": "nonpayable",
      "type": "constructor"
    },
    {
      "constant": true,
      "inputs": [],
      "name": "getHash",
      "outputs": [
        {
          "name": "",
          "type": "string"
        }
      ],
      "payable": false,
      "stateMutability": "view",
      "type": "function"
    }
  ],
  "bytecode": "0x608060405234801561001057600080fd5b50604051610412380380610412833981018060405260a081101561003357600080fd5b81516020830180519193928301929164010000000081111561005457600080fd5b8201602081018481111561006757600080fd5b815164010000000081118282018710171561008157600080fd5b5050929190602001805164010000000081111561009d57600080fd5b820160208101848111156100b057600080fd5b81516401000000008111828201871017156100ca57600080fd5b505092919060200180516401000000008111156100e657600080fd5b820160208101848111156100f957600080fd5b815164010000000081118282018710171561011357600080fd5b5050929190602001805164010000000081111561012f57600080fd5b8201602081018481111561014257600080fd5b815164010000000081118282018710171561015c57600080fd5b505060008054600160a060020a031916600160a060020a038a16179055865190935061019192506001915060208701906101d8565b5082516101a59060029060208601906101d8565b5081516101b99060039060208501906101d8565b5080516101cd9060049060208401906101d8565b505050505050610273565b828054600181600116156101000203166002900490600052602060002090601f016020900481019282601f1061021957805160ff1916838001178555610246565b82800160010185558215610246579182015b8281111561024657825182559160200191906001019061022b565b50610252929150610256565b5090565b61027091905b80821115610252576000815560010161025c565b90565b610190806102826000396000f3fe6080604052600436106100405763ffffffff7c0100000000000000000000000000000000000000000000000000000000600035041663d13319c48114610045575b600080fd5b34801561005157600080fd5b5061005a6100cf565b6040805160208082528351818301528351919283929083019185019080838360005b8381101561009457818101518382015260200161007c565b50505050905090810190601f1680156100c15780820380516001836020036101000a031916815260200191505b509250505060405180910390f35b60018054604080516020601f6002600019610100878916150201909516949094049384018190048102820181019092528281526060939092909183018282801561015a5780601f1061012f5761010080835404028352916020019161015a565b820191906000526020600020905b81548152906001019060200180831161013d57829003601f168201915b505050505090509056fea165627a7a72305820cd5b6e2913f12cf8a65acd708c27b02c735dd5a6ed6514422ac8b702ea501e130029",
  "source": "pragma solidity ^0.5.0;\n\ncontract commit{\n   address authorAddress;\n   string commitHash;\n   string  date;\n   string message;\n   string change;\n   constructor (address  _authorAddress,string memory _commitHash,string memory  _date, string memory _message, string memory _change ) public {\n       authorAddress = _authorAddress;\n       commitHash = _commitHash;\n       date = _date;\n       message = _message;\n       change = _change;\n   }\n  function getHash() view public returns (string memory) {\n      return commitHash;\n  }\n}",
  "sourcePath": "/home/yehia/Documents/Projects/hackathon/BlockHub/contracts/commit.sol",
  "compiler": {
    "name": "solc",
    "version": "0.5.0+commit.1d4f565a.Emscripten.clang"
  },
  "schemaVersion": "3.0.8",
  "updatedAt": "2019-07-30T14:35:51.686Z",
  "devdoc": {
    "methods": {}
  },
  "userdoc": {
    "methods": {}
  }
}