{
  "contractName": "commit",
  "abi": [
    {
      "inputs": [
        {
          "name": "_authorAddress",
          "type": "address"
        },
        {
          "name": "_authorName",
          "type": "string"
        },
        {
          "name": "_commitHash",
          "type": "string"
        },
        {
          "name": "_date",
          "type": "string"
        },
        {
          "name": "_message",
          "type": "string"
        }
      ],
      "payable": false,
      "stateMutability": "nonpayable",
      "type": "constructor"
    },
    {
      "constant": false,
      "inputs": [
        {
          "name": "_addedFiles",
          "type": "bytes32[]"
        },
        {
          "name": "_addedLines",
          "type": "bytes32[]"
        },
        {
          "name": "_removedFiles",
          "type": "bytes32[]"
        },
        {
          "name": "_removedLines",
          "type": "bytes32[]"
        }
      ],
      "name": "initChanges",
      "outputs": [],
      "payable": false,
      "stateMutability": "nonpayable",
      "type": "function"
    },
    {
      "constant": true,
      "inputs": [],
      "name": "getAuthorAddress",
      "outputs": [
        {
          "name": "",
          "type": "address"
        }
      ],
      "payable": false,
      "stateMutability": "view",
      "type": "function"
    },
    {
      "constant": true,
      "inputs": [],
      "name": "getAuthorName",
      "outputs": [
        {
          "name": "",
          "type": "string"
        }
      ],
      "payable": false,
      "stateMutability": "view",
      "type": "function"
    },
    {
      "constant": true,
      "inputs": [],
      "name": "getHash",
      "outputs": [
        {
          "name": "",
          "type": "string"
        }
      ],
      "payable": false,
      "stateMutability": "view",
      "type": "function"
    },
    {
      "constant": true,
      "inputs": [],
      "name": "getDate",
      "outputs": [
        {
          "name": "",
          "type": "string"
        }
      ],
      "payable": false,
      "stateMutability": "view",
      "type": "function"
    },
    {
      "constant": true,
      "inputs": [],
      "name": "getMessage",
      "outputs": [
        {
          "name": "",
          "type": "string"
        }
      ],
      "payable": false,
      "stateMutability": "view",
      "type": "function"
    },
    {
      "constant": true,
      "inputs": [],
      "name": "getAddedFiles",
      "outputs": [
        {
          "name": "",
          "type": "bytes32[]"
        }
      ],
      "payable": false,
      "stateMutability": "view",
      "type": "function"
    },
    {
      "constant": true,
      "inputs": [],
      "name": "getAddedLines",
      "outputs": [
        {
          "name": "",
          "type": "bytes32[]"
        }
      ],
      "payable": false,
      "stateMutability": "view",
      "type": "function"
    },
    {
      "constant": true,
      "inputs": [],
      "name": "getRemovedFiles",
      "outputs": [
        {
          "name": "",
          "type": "bytes32[]"
        }
      ],
      "payable": false,
      "stateMutability": "view",
      "type": "function"
    },
    {
      "constant": true,
      "inputs": [],
      "name": "getRemovedLines",
      "outputs": [
        {
          "name": "",
          "type": "bytes32[]"
        }
      ],
      "payable": false,
      "stateMutability": "view",
      "type": "function"
    }
  ],
  "bytecode": "0x60806040523480156200001157600080fd5b5060405162000b4138038062000b41833981018060405260a08110156200003757600080fd5b8151602083018051919392830192916401000000008111156200005957600080fd5b820160208101848111156200006d57600080fd5b81516401000000008111828201871017156200008857600080fd5b50509291906020018051640100000000811115620000a557600080fd5b82016020810184811115620000b957600080fd5b8151640100000000811182820187101715620000d457600080fd5b50509291906020018051640100000000811115620000f157600080fd5b820160208101848111156200010557600080fd5b81516401000000008111828201871017156200012057600080fd5b505092919060200180516401000000008111156200013d57600080fd5b820160208101848111156200015157600080fd5b81516401000000008111828201871017156200016c57600080fd5b505060008054600160a060020a031916600160a060020a038a161790558551909350620001a39250600291506020860190620001f1565b508151620001b9906003906020850190620001f1565b508051620001cf906004906020840190620001f1565b508351620001e5906001906020870190620001f1565b50505050505062000296565b828054600181600116156101000203166002900490600052602060002090601f016020900481019282601f106200023457805160ff191683800117855562000264565b8280016001018555821562000264579182015b828111156200026457825182559160200191906001019062000247565b506200027292915062000276565b5090565b6200029391905b808211156200027257600081556001016200027d565b90565b61089b80620002a66000396000f3fe6080604052600436106100a35763ffffffff7c010000000000000000000000000000000000000000000000000000000060003504166330beb74181146100a8578063430fe9c11461010d5780635000c0151461019757806356b68885146101ac5780635a1dafcf146101c157806367f29d67146101d6578063a4300ee5146101eb578063ce6d41de14610229578063d13319c41461023e578063faa51b8614610253575b600080fd5b3480156100b457600080fd5b506100bd610491565b60408051602080825283518183015283519192839290830191858101910280838360005b838110156100f95781810151838201526020016100e1565b505050509050019250505060405180910390f35b34801561011957600080fd5b506101226104ea565b6040805160208082528351818301528351919283929083019185019080838360005b8381101561015c578181015183820152602001610144565b50505050905090810190601f1680156101895780820380516001836020036101000a031916815260200191505b509250505060405180910390f35b3480156101a357600080fd5b506100bd610577565b3480156101b857600080fd5b506100bd6105cd565b3480156101cd57600080fd5b506100bd610623565b3480156101e257600080fd5b50610122610679565b3480156101f757600080fd5b506102006106d9565b6040805173ffffffffffffffffffffffffffffffffffffffff9092168252519081900360200190f35b34801561023557600080fd5b506101226106f5565b34801561024a57600080fd5b50610122610756565b34801561025f57600080fd5b5061048f6004803603608081101561027657600080fd5b81019060208101813564010000000081111561029157600080fd5b8201836020820111156102a357600080fd5b803590602001918460208302840111640100000000831117156102c557600080fd5b919080806020026020016040519081016040528093929190818152602001838360200280828437600092019190915250929594936020810193503591505064010000000081111561031557600080fd5b82018360208201111561032757600080fd5b8035906020019184602083028401116401000000008311171561034957600080fd5b919080806020026020016040519081016040528093929190818152602001838360200280828437600092019190915250929594936020810193503591505064010000000081111561039957600080fd5b8201836020820111156103ab57600080fd5b803590602001918460208302840111640100000000831117156103cd57600080fd5b919080806020026020016040519081016040528093929190818152602001838360200280828437600092019190915250929594936020810193503591505064010000000081111561041d57600080fd5b82018360208201111561042f57600080fd5b8035906020019184602083028401116401000000008311171561045157600080fd5b9190808060200260200160405190810160405280939291908181526020018383602002808284376000920191909152509295506107b4945050505050565b005b606060068054806020026020016040519081016040528092919081815260200182805480156104df57602002820191906000526020600020905b8154815260200190600101908083116104cb575b505050505090505b90565b60038054604080516020601f60026000196101006001881615020190951694909404938401819004810282018101909252828152606093909290918301828280156104df5780601f1061054b576101008083540402835291602001916104df565b820191906000526020600020905b81548152906001019060200180831161055957509395945050505050565b606060078054806020026020016040519081016040528092919081815260200182805480156104df57602002820191906000526020600020908154815260200190600101908083116104cb575050505050905090565b606060088054806020026020016040519081016040528092919081815260200182805480156104df57602002820191906000526020600020908154815260200190600101908083116104cb575050505050905090565b606060058054806020026020016040519081016040528092919081815260200182805480156104df57602002820191906000526020600020908154815260200190600101908083116104cb575050505050905090565b60018054604080516020601f600260001961010087891615020190951694909404938401819004810282018101909252828152606093909290918301828280156104df5780601f1061054b576101008083540402835291602001916104df565b60005473ffffffffffffffffffffffffffffffffffffffff1690565b60048054604080516020601f60026000196101006001881615020190951694909404938401819004810282018101909252828152606093909290918301828280156104df5780601f1061054b576101008083540402835291602001916104df565b60028054604080516020601f60001961010060018716150201909416859004938401819004810282018101909252828152606093909290918301828280156104df5780601f1061054b576101008083540402835291602001916104df565b83516107c790600590602087019061080a565b5082516107db90600690602086019061080a565b5081516107ef90600790602085019061080a565b50805161080390600890602084019061080a565b5050505050565b828054828255906000526020600020908101928215610845579160200282015b8281111561084557825182559160200191906001019061082a565b50610851929150610855565b5090565b6104e791905b80821115610851576000815560010161085b56fea165627a7a723058202e3425a3670deb3b3b05f06baf573094890c12455c14d8956b42fa4b5037e7740029",
  "source": "pragma solidity ^0.5.0;\n\ncontract commit{\n  address authorAddress;\n  string authorName;\n  string commitHash;\n  string date;\n  string message;\n  //string change;\n  bytes32[] addedFiles;\n  bytes32[] addedLines;\n  bytes32[] removedFiles;\n  bytes32[] removedLines;\n  \n  constructor (address  _authorAddress,string memory _authorName,string memory _commitHash,\n  string memory  _date, string memory _message) public {\n    authorAddress = _authorAddress;\n    commitHash = _commitHash;\n    date = _date;\n    message = _message;\n    authorName = _authorName;\n  }\n  function initChanges( bytes32[] memory _addedFiles, bytes32[] memory _addedLines,\n  bytes32[] memory _removedFiles, bytes32[] memory _removedLines) public{\n    addedFiles = _addedFiles;\n    addedLines = _addedLines;\n    removedFiles = _removedFiles;\n    removedLines = _removedLines;\n  }\n  function getAuthorAddress() public view returns (address) {\n    return authorAddress;\n  }\n\n  function getAuthorName() public view returns (string memory) {\n    return authorName;\n  }\n\n  function getHash() public view returns (string memory) {\n    return commitHash;\n  }\n\n  function getDate() public view returns (string memory) {\n    return date;\n  }\n\n  function getMessage() public view returns (string memory) {\n    return message;\n  }\n\n  function getAddedFiles() public view returns (bytes32[] memory){\n    return addedFiles;\n  }\n\n  function getAddedLines() public view returns (bytes32[] memory){\n    return addedLines;\n  }\n\n  function getRemovedFiles() public view returns (bytes32[] memory){\n    return removedFiles;\n  }\n  \n  function getRemovedLines() public view returns (bytes32[] memory){\n    return removedLines;\n  }\n}",
  "sourcePath": "/home/yehia/Documents/Projects/hackathon/BlockHub/contracts/commit.sol",
  "compiler": {
    "name": "solc",
    "version": "0.5.0+commit.1d4f565a.Emscripten.clang"
  },
  "schemaVersion": "3.0.8",
  "updatedAt": "2019-08-02T14:08:36.723Z",
  "devdoc": {
    "methods": {}
  },
  "userdoc": {
    "methods": {}
  }
}