{
  "contractName": "commit",
  "abi": [
    {
      "inputs": [
        {
          "name": "_authorAddress",
          "type": "address"
        },
        {
          "name": "_authoreName",
          "type": "string"
        },
        {
          "name": "_commitHash",
          "type": "string"
        },
        {
          "name": "_date",
          "type": "string"
        },
        {
          "name": "_message",
          "type": "string"
        },
        {
          "name": "_change",
          "type": "string"
        }
      ],
      "payable": false,
      "stateMutability": "nonpayable",
      "type": "constructor"
    },
    {
      "constant": true,
      "inputs": [],
      "name": "getAuthorAddress",
      "outputs": [
        {
          "name": "",
          "type": "address"
        }
      ],
      "payable": false,
      "stateMutability": "view",
      "type": "function"
    },
    {
      "constant": true,
      "inputs": [],
      "name": "getAuthoreName",
      "outputs": [
        {
          "name": "",
          "type": "string"
        }
      ],
      "payable": false,
      "stateMutability": "view",
      "type": "function"
    },
    {
      "constant": true,
      "inputs": [],
      "name": "getHash",
      "outputs": [
        {
          "name": "",
          "type": "string"
        }
      ],
      "payable": false,
      "stateMutability": "view",
      "type": "function"
    },
    {
      "constant": true,
      "inputs": [],
      "name": "getDate",
      "outputs": [
        {
          "name": "",
          "type": "string"
        }
      ],
      "payable": false,
      "stateMutability": "view",
      "type": "function"
    },
    {
      "constant": true,
      "inputs": [],
      "name": "getMessage",
      "outputs": [
        {
          "name": "",
          "type": "string"
        }
      ],
      "payable": false,
      "stateMutability": "view",
      "type": "function"
    },
    {
      "constant": true,
      "inputs": [],
      "name": "getChange",
      "outputs": [
        {
          "name": "",
          "type": "string"
        }
      ],
      "payable": false,
      "stateMutability": "view",
      "type": "function"
    }
  ],
  "bytecode": "0x608060405234801561001057600080fd5b50604051610659380380610659833981018060405260c081101561003357600080fd5b81516020830180519193928301929164010000000081111561005457600080fd5b8201602081018481111561006757600080fd5b815164010000000081118282018710171561008157600080fd5b5050929190602001805164010000000081111561009d57600080fd5b820160208101848111156100b057600080fd5b81516401000000008111828201871017156100ca57600080fd5b505092919060200180516401000000008111156100e657600080fd5b820160208101848111156100f957600080fd5b815164010000000081118282018710171561011357600080fd5b5050929190602001805164010000000081111561012f57600080fd5b8201602081018481111561014257600080fd5b815164010000000081118282018710171561015c57600080fd5b5050929190602001805164010000000081111561017857600080fd5b8201602081018481111561018b57600080fd5b81516401000000008111828201871017156101a557600080fd5b5050600080546001600160a01b0319166001600160a01b038b1617905586519093506101da9250600291506020870190610236565b5082516101ee906003906020860190610236565b508151610202906004906020850190610236565b508051610216906005906020840190610236565b50845161022a906001906020880190610236565b505050505050506102d1565b828054600181600116156101000203166002900490600052602060002090601f016020900481019282601f1061027757805160ff19168380011785556102a4565b828001600101855582156102a4579182015b828111156102a4578251825591602001919060010190610289565b506102b09291506102b4565b5090565b6102ce91905b808211156102b057600081556001016102ba565b90565b610379806102e06000396000f3fe608060405234801561001057600080fd5b50600436106100625760003560e01c8063430fe9c1146100675780634c9f9fc3146100e4578063a4300ee5146100ec578063b7ed5abc14610110578063ce6d41de14610118578063d13319c414610120575b600080fd5b61006f610128565b6040805160208082528351818301528351919283929083019185019080838360005b838110156100a9578181015183820152602001610091565b50505050905090810190601f1680156100d65780820380516001836020036101000a031916815260200191505b509250505060405180910390f35b61006f6101be565b6100f461021e565b604080516001600160a01b039092168252519081900360200190f35b61006f61022d565b61006f61028e565b61006f6102ef565b60038054604080516020601f60026000196101006001881615020190951694909404938401819004810282018101909252828152606093909290918301828280156101b45780601f10610189576101008083540402835291602001916101b4565b820191906000526020600020905b81548152906001019060200180831161019757829003601f168201915b5050505050905090565b60018054604080516020601f600260001961010087891615020190951694909404938401819004810282018101909252828152606093909290918301828280156101b45780601f10610189576101008083540402835291602001916101b4565b6000546001600160a01b031690565b60058054604080516020601f60026000196101006001881615020190951694909404938401819004810282018101909252828152606093909290918301828280156101b45780601f10610189576101008083540402835291602001916101b4565b60048054604080516020601f60026000196101006001881615020190951694909404938401819004810282018101909252828152606093909290918301828280156101b45780601f10610189576101008083540402835291602001916101b4565b60028054604080516020601f60001961010060018716150201909416859004938401819004810282018101909252828152606093909290918301828280156101b45780601f10610189576101008083540402835291602001916101b456fea165627a7a72305820cdd60dcf89b4029996bff27be113524b0be49e7f83ef70a9b1a03f124dddebf40029",
  "source": "pragma solidity ^0.5.0;\n\ncontract commit{\n   address authorAddress;\n   string authoreName;\n   string commitHash;\n   string  date;\n   string message;\n   string change;\n   constructor (address  _authorAddress,string memory _authoreName,string memory _commitHash,string memory  _date, string memory _message, string memory _change ) public {\n       authorAddress = _authorAddress;\n       commitHash = _commitHash;\n       date = _date;\n       message = _message;\n       change = _change;\n       authoreName = _authoreName;\n   }\n    function getAuthorAddress() view public returns (address) {\n      return authorAddress;\n  }\n  function getAuthoreName() view public returns (string memory) {\n      return authoreName;\n  }\n  function getHash() view public returns (string memory) {\n      return commitHash;\n  }\n   function getDate() view public returns (string memory) {\n      return date;\n  }\n    function getMessage() view public returns (string memory) {\n      return message;\n  }  \n    function getChange() view public returns (string memory) {\n      return change;\n  }\n}",
  "sourcePath": "/home/mahmoud/Projects/BlockHub/contracts/commit.sol",
  "compiler": {
    "name": "solc",
    "version": "0.5.8+commit.23d335f2.Emscripten.clang"
  },
  "schemaVersion": "3.0.11",
  "updatedAt": "2019-08-01T13:00:04.204Z",
  "devdoc": {
    "methods": {}
  },
  "userdoc": {
    "methods": {}
  }
}