{
  "contractName": "createRepo",
  "abi": [
    {
      "anonymous": false,
      "inputs": [
        {
          "indexed": false,
          "name": "_repoName",
          "type": "string"
        },
        {
          "indexed": false,
          "name": "repoAddress",
          "type": "address"
        },
        {
          "indexed": false,
          "name": "_repoDescription",
          "type": "string"
        },
        {
          "indexed": false,
          "name": "_repoOwner",
          "type": "address"
        },
        {
          "indexed": false,
          "name": "_creationDate",
          "type": "uint256"
        }
      ],
      "name": "repoCreated",
      "type": "event",
      "signature": "0xa1a198b6b8f946dce5299fc0fbe5fba77d94b2446ed5219cb221f9fe8ebf18da"
    },
    {
      "constant": false,
      "inputs": [
        {
          "name": "_repoName",
          "type": "string"
        },
        {
          "name": "_repoDescription",
          "type": "string"
        }
      ],
      "name": "createNewRepo",
      "outputs": [
        {
          "name": "",
          "type": "address"
        }
      ],
      "payable": false,
      "stateMutability": "nonpayable",
      "type": "function",
      "signature": "0x88f67d92"
    }
  ],
  "bytecode": "0x608060405234801561001057600080fd5b50614171806100206000396000f3fe6080604052600436106100405763ffffffff7c010000000000000000000000000000000000000000000000000000000060003504166388f67d928114610045575b600080fd5b34801561005157600080fd5b5061017f6004803603604081101561006857600080fd5b81019060208101813564010000000081111561008357600080fd5b82018360208201111561009557600080fd5b803590602001918460018302840111640100000000831117156100b757600080fd5b91908080601f016020809104026020016040519081016040528093929190818152602001838380828437600092019190915250929594936020810193503591505064010000000081111561010a57600080fd5b82018360208201111561011c57600080fd5b8035906020019184600183028401116401000000008311171561013e57600080fd5b91908080601f0160208091040260200160405190810160405280939291908181526020018383808284376000920191909152509295506101a8945050505050565b6040805173ffffffffffffffffffffffffffffffffffffffff9092168252519081900360200190f35b60008083836101b561043e565b604080825283519082015282518190602080830191606084019187019080838360005b838110156101f05781810151838201526020016101d8565b50505050905090810190601f16801561021d5780820380516001836020036101000a031916815260200191505b50838103825284518152845160209182019186019080838360005b83811015610250578181015183820152602001610238565b50505050905090810190601f16801561027d5780820380516001836020036101000a031916815260200191505b50945050505050604051809103906000f0801580156102a0573d6000803e3d6000fd5b50600080546001810182558180527f290decd9548b62a8d60345a988386fc84ba6bc95484008f6362f93160ef3e5630180547fffffffffffffffffffffffff00000000000000000000000000000000000000001673ffffffffffffffffffffffffffffffffffffffff8416908117909155604080516020808201939093523360608201819052426080830181905260a08084528b51908401528a519697507fa1a198b6b8f946dce5299fc0fbe5fba77d94b2446ed5219cb221f9fe8ebf18da968b9689968c969495939484939084019260c08501928b0191908190849084905b83811015610398578181015183820152602001610380565b50505050905090810190601f1680156103c55780820380516001836020036101000a031916815260200191505b50838103825286518152865160209182019188019080838360005b838110156103f85781810151838201526020016103e0565b50505050905090810190601f1680156104255780820380516001836020036101000a031916815260200191505b5097505050505050505060405180910390a19392505050565b604051613cf78061044f8339019056fe60806040523480156200001157600080fd5b5060405162003cf738038062003cf7833981018060405260408110156200003757600080fd5b8101908080516401000000008111156200005057600080fd5b820160208101848111156200006457600080fd5b81516401000000008111828201871017156200007f57600080fd5b505092919060200180516401000000008111156200009c57600080fd5b82016020810184811115620000b057600080fd5b8151640100000000811182820187101715620000cb57600080fd5b50508451909350620000e7925060009150602085019062000368565b508051620000fd90600190602084019062000368565b5060028054600160a060020a031916339081179091556000908152600860205260408120805460ff1916600117905542600355606090816200013e620003ed565b60408082526006908201527f6d61737465720000000000000000000000000000000000000000000000000000606082015260806020808301828152845192840192909252835183929160a0840191868201910280838360005b83811015620001b157818101518382015260200162000197565b505050509050019350505050604051809103906000f080158015620001da573d6000803e3d6000fd5b50604080517f6d6173746572000000000000000000000000000000000000000000000000000081526007600682015281519081900360260181208054600160a060020a038516600160a060020a03199182168117909255600580546001818101835560009283527f036b6384b5eca791c62761152d0c79bb0604c104a5fb6f4eb0703f3154bb3db090910180549093168417909255602084019290925260608084528254600292811615610100026000190116919091049083018190529394507f2cc0cc783d4394153ee1cb11493c793869b41b40f52797786620f00fb79c1ea493909285929182918201906080830190869080156200031e5780601f10620002f2576101008083540402835291602001916200031e565b820191906000526020600020905b8154815290600101906020018083116200030057829003601f168201915b5050928303905250600681527f6d61737465720000000000000000000000000000000000000000000000000000602082015260408051918290030192509050a1505050506200041e565b828054600181600116156101000203166002900490600052602060002090601f016020900481019282601f10620003ab57805160ff1916838001178555620003db565b82800160010185558215620003db579182015b82811115620003db578251825591602001919060010190620003be565b50620003e9929150620003fe565b5090565b60405161159e806200275983390190565b6200041b91905b80821115620003e9576000815560010162000405565b90565b61232b806200042e6000396000f3fe608060405260043610620000725763ffffffff7c01000000000000000000000000000000000000000000000000000000006000350416633109c19d8114620000775780636794864c14620000bd5780636882e1741462000177578063910b463014620001bb578063d754309514620001fc575b600080fd5b3480156200008457600080fd5b50620000bb600480360360208110156200009d57600080fd5b503573ffffffffffffffffffffffffffffffffffffffff1662000214565b005b348015620000ca57600080fd5b50620000bb60048036036020811015620000e357600080fd5b810190602081018135640100000000811115620000ff57600080fd5b8201836020820111156200011257600080fd5b803590602001918460018302840111640100000000831117156200013557600080fd5b91908080601f01602080910402602001604051908101604052809392919081815260200183838082843760009201919091525092955062000364945050505050565b3480156200018457600080fd5b50620000bb600480360360208110156200019d57600080fd5b503573ffffffffffffffffffffffffffffffffffffffff1662000875565b348015620001c857600080fd5b50620001d3620009e1565b6040805173ffffffffffffffffffffffffffffffffffffffff9092168252519081900360200190f35b3480156200020957600080fd5b50620000bb62000a34565b3360009081526008602052604090205460ff1615156001146200023657600080fd5b73ffffffffffffffffffffffffffffffffffffffff8116600081815260086020908152604080832080547fffffffffffffffffffffffffffffffffffffffffffffffffffffffffffffff001690558051938452309184018290526060908401818152835460027fffffffffffffffffffffffffffffffffffffffffffffffffffffffffffffffff60018316156101000201909116049185018290527fda5be73e51d6f5cb5ffb0a89d4be5b7af868e0cc1ad3cdd45c39f5b1c1fbda5094869492909190608083019084908015620003515780601f10620003255761010080835404028352916020019162000351565b820191906000526020600020905b8154815290600101906020018083116200033357829003601f168201915b505094505050505060405180910390a150565b600081600560008154811015156200037857fe5b6000918252602082200154604080517fc7335c91000000000000000000000000000000000000000000000000000000008152905173ffffffffffffffffffffffffffffffffffffffff9092169263c7335c9192600480840193829003018186803b158015620003e657600080fd5b505afa158015620003fb573d6000803e3d6000fd5b505050506040513d6000823e601f3d9081017fffffffffffffffffffffffffffffffffffffffffffffffffffffffffffffffe016820160405260208110156200044357600080fd5b8101908080516401000000008111156200045c57600080fd5b820160208101848111156200047057600080fd5b81518560208202830111640100000000821117156200048e57600080fd5b5050929190505050620004a062000b23565b604080825283519082015282518190602080830191606084019187019080838360005b83811015620004dd578181015183820152602001620004c3565b50505050905090810190601f1680156200050b5780820380516001836020036101000a031916815260200191505b508381038252845181528451602091820191808701910280838360005b838110156200054257818101518382015260200162000528565b50505050905001945050505050604051809103906000f0801580156200056c573d6000803e3d6000fd5b509050806007836040518082805190602001908083835b60208310620005c257805182527fffffffffffffffffffffffffffffffffffffffffffffffffffffffffffffffe0909201916020918201910162000583565b51815160209384036101000a7fffffffffffffffffffffffffffffffffffffffffffffffffffffffffffffffff0180199092169116179052920194855250604051938490038101842080547fffffffffffffffffffffffff00000000000000000000000000000000000000001673ffffffffffffffffffffffffffffffffffffffff969096169590951790945550508351600592600792869290918291908401908083835b60208310620006a657805182527fffffffffffffffffffffffffffffffffffffffffffffffffffffffffffffffe0909201916020918201910162000667565b5181517fffffffffffffffffffffffffffffffffffffffffffffffffffffffffffffffff602094850361010090810a8201928316921993909316919091179092529490920196875260408051978890038201882054895460018181018c5560009b8c52848c2090910180547fffffffffffffffffffffffff00000000000000000000000000000000000000001673ffffffffffffffffffffffffffffffffffffffff938416179055908b169289019290925260608089528954600293811615909602909301909416049086018190527f2cc0cc783d4394153ee1cb11493c793869b41b40f52797786620f00fb79c1ea4969588955089945092839250820190608083019087908015620007fd5780601f10620007d157610100808354040283529160200191620007fd565b820191906000526020600020905b815481529060010190602001808311620007df57829003601f168201915b5050838103825284518152845160209182019186019080838360005b838110156200083357818101518382015260200162000819565b50505050905090810190601f168015620008615780820380516001836020036101000a031916815260200191505b509550505050505060405180910390a15050565b3360009081526008602052604090205460ff1615156001146200089757600080fd5b6004805460018181019092557f8a35acfbc15ff81a39ae7d344fd709f28e8600b4aa8c65c6b64bfe7fe36bd19b01805473ffffffffffffffffffffffffffffffffffffffff84167fffffffffffffffffffffffff00000000000000000000000000000000000000009091168117909155600081815260086020908152604080832080547fffffffffffffffffffffffffffffffffffffffffffffffffffffffffffffff00168617905580519384523091840182905260609084018181528354600296811615610100027fffffffffffffffffffffffffffffffffffffffffffffffffffffffffffffffff0116959095049084018190527f126c0c1cb9112bc67424ee87f5f11d2f169bf930d54b28db48e81737dec47eb594869492939291608083019084908015620003515780601f10620003255761010080835404028352916020019162000351565b604080517f6d6173746572000000000000000000000000000000000000000000000000000081526007600682015290519081900360260190205473ffffffffffffffffffffffffffffffffffffffff1690565b60025460069073ffffffffffffffffffffffffffffffffffffffff1662000a5a62000b34565b73ffffffffffffffffffffffffffffffffffffffff909116815260405190819003602001906000f08015801562000a95573d6000803e3d6000fd5b50815460018101835560009283526020928390200180547fffffffffffffffffffffffff00000000000000000000000000000000000000001673ffffffffffffffffffffffffffffffffffffffff929092169190911790556040805133815290517f745a6a1953088a2708a18dd4c3fb40c1ce2047a4383b4db55f321f5cdc8871e5929181900390910190a1565b60405161159e8062000b4683390190565b60405161021c80620020e48339019056fe60806040523480156200001157600080fd5b506040516200159e3803806200159e833981018060405260408110156200003757600080fd5b8101908080516401000000008111156200005057600080fd5b820160208101848111156200006457600080fd5b81516401000000008111828201871017156200007f57600080fd5b505092919060200180516401000000008111156200009c57600080fd5b82016020810184811115620000b057600080fd5b8151856020820283011164010000000082111715620000ce57600080fd5b50508451909350620000ea9250600091506020850190620002cc565b5080516200010090600290602084019062000351565b5062000115816401000000006200011d810204565b5050620003fe565b60005b8151811015620002c85781818151811015156200013957fe5b90602001906020020151600183838151811015156200015457fe5b90602001906020020151600160a060020a031663d13319c46040518163ffffffff167c010000000000000000000000000000000000000000000000000000000002815260040160006040518083038186803b158015620001b357600080fd5b505afa158015620001c8573d6000803e3d6000fd5b505050506040513d6000823e601f3d908101601f191682016040526020811015620001f257600080fd5b8101908080516401000000008111156200020b57600080fd5b820160208101848111156200021f57600080fd5b81516401000000008111828201871017156200023a57600080fd5b50509291905050506040518082805190602001908083835b60208310620002735780518252601f19909201916020918201910162000252565b51815160209384036101000a600019018019909216911617905292019485525060405193849003019092208054600160a060020a031916600160a060020a039490941693909317909255505060010162000120565b5050565b828054600181600116156101000203166002900490600052602060002090601f016020900481019282601f106200030f57805160ff19168380011785556200033f565b828001600101855582156200033f579182015b828111156200033f57825182559160200191906001019062000322565b506200034d929150620003b7565b5090565b828054828255906000526020600020908101928215620003a9579160200282015b82811115620003a95782518254600160a060020a031916600160a060020a0390911617825560209092019160019091019062000372565b506200034d929150620003d7565b620003d491905b808211156200034d5760008155600101620003be565b90565b620003d491905b808211156200034d578054600160a060020a0319168155600101620003de565b611190806200040e6000396000f3fe6080604052600436106100615763ffffffff7c0100000000000000000000000000000000000000000000000000000000600035041663491136708114610066578063b58c61061461008d578063c7335c911461035e578063eae2db7a146103c3575b600080fd5b34801561007257600080fd5b5061007b61044d565b60408051918252519081900360200190f35b34801561009957600080fd5b5061035c600480360360a08110156100b057600080fd5b8101906020810181356401000000008111156100cb57600080fd5b8201836020820111156100dd57600080fd5b803590602001918460018302840111640100000000831117156100ff57600080fd5b91908080601f016020809104026020016040519081016040528093929190818152602001838380828437600092019190915250929594936020810193503591505064010000000081111561015257600080fd5b82018360208201111561016457600080fd5b8035906020019184600183028401116401000000008311171561018657600080fd5b91908080601f01602080910402602001604051908101604052809392919081815260200183838082843760009201919091525092959493602081019350359150506401000000008111156101d957600080fd5b8201836020820111156101eb57600080fd5b8035906020019184600183028401116401000000008311171561020d57600080fd5b91908080601f016020809104026020016040519081016040528093929190818152602001838380828437600092019190915250929594936020810193503591505064010000000081111561026057600080fd5b82018360208201111561027257600080fd5b8035906020019184600183028401116401000000008311171561029457600080fd5b91908080601f01602080910402602001604051908101604052809392919081815260200183838082843760009201919091525092959493602081019350359150506401000000008111156102e757600080fd5b8201836020820111156102f957600080fd5b8035906020019184600183028401116401000000008311171561031b57600080fd5b91908080601f016020809104026020016040519081016040528093929190818152602001838380828437600092019190915250929550610453945050505050565b005b34801561036a57600080fd5b506103736108df565b60408051602080825283518183015283519192839290830191858101910280838360005b838110156103af578181015183820152602001610397565b505050509050019250505060405180910390f35b3480156103cf57600080fd5b506103d861094e565b6040805160208082528351818301528351919283929083019185019080838360005b838110156104125781810151838201526020016103fa565b50505050905090810190601f16801561043f5780820380516001836020036101000a031916815260200191505b509250505060405180910390f35b60025490565b60008585858585610462610a9a565b80806020018060200180602001806020018060200186810386528b818151815260200191508051906020019080838360005b838110156104ac578181015183820152602001610494565b50505050905090810190601f1680156104d95780820380516001836020036101000a031916815260200191505b5086810385528a5181528a516020918201918c019080838360005b8381101561050c5781810151838201526020016104f4565b50505050905090810190601f1680156105395780820380516001836020036101000a031916815260200191505b5086810384528951815289516020918201918b019080838360005b8381101561056c578181015183820152602001610554565b50505050905090810190601f1680156105995780820380516001836020036101000a031916815260200191505b5086810383528851815288516020918201918a019080838360005b838110156105cc5781810151838201526020016105b4565b50505050905090810190601f1680156105f95780820380516001836020036101000a031916815260200191505b50868103825287518152875160209182019189019080838360005b8381101561062c578181015183820152602001610614565b50505050905090810190601f1680156106595780820380516001836020036101000a031916815260200191505b509a5050505050505050505050604051809103906000f080158015610682573d6000803e3d6000fd5b509050806001866040518082805190602001908083835b602083106106d657805182527fffffffffffffffffffffffffffffffffffffffffffffffffffffffffffffffe09092019160209182019101610699565b51815160209384036101000a7fffffffffffffffffffffffffffffffffffffffffffffffffffffffffffffffff018019909216911617905292019485525060408051948590038201852080547fffffffffffffffffffffffff00000000000000000000000000000000000000001673ffffffffffffffffffffffffffffffffffffffff97909716969096179095553380855260808583018181528d51918701919091528c517ffd6d88f4ad58e0413badea4af5148585f787b426d4dac0376143f72c4714a01b9792968e96508b95508d949093840191606085019160a08601919089019080838360005b838110156107d85781810151838201526020016107c0565b50505050905090810190601f1680156108055780820380516001836020036101000a031916815260200191505b50848103835286518152865160209182019188019080838360005b83811015610838578181015183820152602001610820565b50505050905090810190601f1680156108655780820380516001836020036101000a031916815260200191505b50848103825285518152855160209182019187019080838360005b83811015610898578181015183820152602001610880565b50505050905090810190601f1680156108c55780820380516001836020036101000a031916815260200191505b5097505050505050505060405180910390a1505050505050565b6060600280548060200260200160405190810160405280929190818152602001828054801561094457602002820191906000526020600020905b815473ffffffffffffffffffffffffffffffffffffffff168152600190910190602001808311610919575b5050505050905090565b60028054606091907fffffffffffffffffffffffffffffffffffffffffffffffffffffffffffffffff810190811061098257fe5b6000918252602082200154604080517fd13319c4000000000000000000000000000000000000000000000000000000008152905173ffffffffffffffffffffffffffffffffffffffff9092169263d13319c492600480840193829003018186803b1580156109ef57600080fd5b505afa158015610a03573d6000803e3d6000fd5b505050506040513d6000823e601f3d9081017fffffffffffffffffffffffffffffffffffffffffffffffffffffffffffffffe01682016040526020811015610a4a57600080fd5b810190808051640100000000811115610a6257600080fd5b82016020810184811115610a7557600080fd5b8151640100000000811182820187101715610a8f57600080fd5b509094505050505090565b6040516106ba80610aab8339019056fe608060405234801561001057600080fd5b506040516106ba3803806106ba833981018060405260a081101561003357600080fd5b81019080805164010000000081111561004b57600080fd5b8201602081018481111561005e57600080fd5b815164010000000081118282018710171561007857600080fd5b5050929190602001805164010000000081111561009457600080fd5b820160208101848111156100a757600080fd5b81516401000000008111828201871017156100c157600080fd5b505092919060200180516401000000008111156100dd57600080fd5b820160208101848111156100f057600080fd5b815164010000000081118282018710171561010a57600080fd5b5050929190602001805164010000000081111561012657600080fd5b8201602081018481111561013957600080fd5b815164010000000081118282018710171561015357600080fd5b5050929190602001805164010000000081111561016f57600080fd5b8201602081018481111561018257600080fd5b815164010000000081118282018710171561019c57600080fd5b505060008054600160a060020a0319163317905586519093506101c89250600291506020870190610223565b5082516101dc906003906020860190610223565b5081516101f0906004906020850190610223565b508451610204906001906020880190610223565b508051610218906005906020840190610223565b5050505050506102be565b828054600181600116156101000203166002900490600052602060002090601f016020900481019282601f1061026457805160ff1916838001178555610291565b82800160010185558215610291579182015b82811115610291578251825591602001919060010190610276565b5061029d9291506102a1565b5090565b6102bb91905b8082111561029d57600081556001016102a7565b90565b6103ed806102cd6000396000f3fe60806040526004361061006c5763ffffffff7c0100000000000000000000000000000000000000000000000000000000600035041663430fe9c1811461007157806367f29d67146100fb578063a4300ee514610110578063ce6d41de1461014e578063d13319c414610163575b600080fd5b34801561007d57600080fd5b50610086610178565b6040805160208082528351818301528351919283929083019185019080838360005b838110156100c05781810151838201526020016100a8565b50505050905090810190601f1680156100ed5780820380516001836020036101000a031916815260200191505b509250505060405180910390f35b34801561010757600080fd5b5061008661022c565b34801561011c57600080fd5b506101256102aa565b6040805173ffffffffffffffffffffffffffffffffffffffff9092168252519081900360200190f35b34801561015a57600080fd5b506100866102c6565b34801561016f57600080fd5b50610086610345565b60038054604080516020601f60027fffffffffffffffffffffffffffffffffffffffffffffffffffffffffffffffff6101006001881615020190951694909404938401819004810282018101909252828152606093909290918301828280156102225780601f106101f757610100808354040283529160200191610222565b820191906000526020600020905b81548152906001019060200180831161020557829003601f168201915b5050505050905090565b60018054604080516020601f60027fffffffffffffffffffffffffffffffffffffffffffffffffffffffffffffffff61010087891615020190951694909404938401819004810282018101909252828152606093909290918301828280156102225780601f106101f757610100808354040283529160200191610222565b60005473ffffffffffffffffffffffffffffffffffffffff1690565b60048054604080516020601f60027fffffffffffffffffffffffffffffffffffffffffffffffffffffffffffffffff6101006001881615020190951694909404938401819004810282018101909252828152606093909290918301828280156102225780601f106101f757610100808354040283529160200191610222565b60028054604080516020601f7fffffffffffffffffffffffffffffffffffffffffffffffffffffffffffffffff61010060018716150201909416859004938401819004810282018101909252828152606093909290918301828280156102225780601f106101f75761010080835404028352916020019161022256fea165627a7a723058200cd0e7f8eb368813830f6dcd0cec4434a327c874fde935af81e9231a0df3784c0029a165627a7a723058206cb5bac9d88b68eac90ba67872e91304ce431e3cfbeb4bbb412f22ec07a36a5d0029608060405234801561001057600080fd5b5060405160208061021c8339810180604052602081101561003057600080fd5b505160008054600160a060020a03909216600160a060020a031992831617905560018054909116331790556101b28061006a6000396000f3fe60806040526004361061004b5763ffffffff7c010000000000000000000000000000000000000000000000000000000060003504166343d726d68114610050578063f01b393e14610067575b600080fd5b34801561005c57600080fd5b506100656100a7565b005b34801561007357600080fd5b506100656004803603602081101561008a57600080fd5b503573ffffffffffffffffffffffffffffffffffffffff1661010f565b600054339073ffffffffffffffffffffffffffffffffffffffff168114806100e9575060015473ffffffffffffffffffffffffffffffffffffffff8281169116145b15156100f457600080fd5b60015473ffffffffffffffffffffffffffffffffffffffff16ff5b600280546001810182556000919091527f405787fa12a823e0f2b7631cc41b3ba8828b3321ca811111fa75cd3aa3bb5ace0180547fffffffffffffffffffffffff00000000000000000000000000000000000000001673ffffffffffffffffffffffffffffffffffffffff9290921691909117905556fea165627a7a72305820405e9be06a295a9de197428def092cbe8339be0e068c3f34e524e0ded84695130029a165627a7a7230582022d4c16a9e5a27c080692b7352993745f1b416d028e713b30b07f8cef6a9ba74002960806040523480156200001157600080fd5b506040516200159e3803806200159e833981018060405260408110156200003757600080fd5b8101908080516401000000008111156200005057600080fd5b820160208101848111156200006457600080fd5b81516401000000008111828201871017156200007f57600080fd5b505092919060200180516401000000008111156200009c57600080fd5b82016020810184811115620000b057600080fd5b8151856020820283011164010000000082111715620000ce57600080fd5b50508451909350620000ea9250600091506020850190620002cc565b5080516200010090600290602084019062000351565b5062000115816401000000006200011d810204565b5050620003fe565b60005b8151811015620002c85781818151811015156200013957fe5b90602001906020020151600183838151811015156200015457fe5b90602001906020020151600160a060020a031663d13319c46040518163ffffffff167c010000000000000000000000000000000000000000000000000000000002815260040160006040518083038186803b158015620001b357600080fd5b505afa158015620001c8573d6000803e3d6000fd5b505050506040513d6000823e601f3d908101601f191682016040526020811015620001f257600080fd5b8101908080516401000000008111156200020b57600080fd5b820160208101848111156200021f57600080fd5b81516401000000008111828201871017156200023a57600080fd5b50509291905050506040518082805190602001908083835b60208310620002735780518252601f19909201916020918201910162000252565b51815160209384036101000a600019018019909216911617905292019485525060405193849003019092208054600160a060020a031916600160a060020a039490941693909317909255505060010162000120565b5050565b828054600181600116156101000203166002900490600052602060002090601f016020900481019282601f106200030f57805160ff19168380011785556200033f565b828001600101855582156200033f579182015b828111156200033f57825182559160200191906001019062000322565b506200034d929150620003b7565b5090565b828054828255906000526020600020908101928215620003a9579160200282015b82811115620003a95782518254600160a060020a031916600160a060020a0390911617825560209092019160019091019062000372565b506200034d929150620003d7565b620003d491905b808211156200034d5760008155600101620003be565b90565b620003d491905b808211156200034d578054600160a060020a0319168155600101620003de565b611190806200040e6000396000f3fe6080604052600436106100615763ffffffff7c0100000000000000000000000000000000000000000000000000000000600035041663491136708114610066578063b58c61061461008d578063c7335c911461035e578063eae2db7a146103c3575b600080fd5b34801561007257600080fd5b5061007b61044d565b60408051918252519081900360200190f35b34801561009957600080fd5b5061035c600480360360a08110156100b057600080fd5b8101906020810181356401000000008111156100cb57600080fd5b8201836020820111156100dd57600080fd5b803590602001918460018302840111640100000000831117156100ff57600080fd5b91908080601f016020809104026020016040519081016040528093929190818152602001838380828437600092019190915250929594936020810193503591505064010000000081111561015257600080fd5b82018360208201111561016457600080fd5b8035906020019184600183028401116401000000008311171561018657600080fd5b91908080601f01602080910402602001604051908101604052809392919081815260200183838082843760009201919091525092959493602081019350359150506401000000008111156101d957600080fd5b8201836020820111156101eb57600080fd5b8035906020019184600183028401116401000000008311171561020d57600080fd5b91908080601f016020809104026020016040519081016040528093929190818152602001838380828437600092019190915250929594936020810193503591505064010000000081111561026057600080fd5b82018360208201111561027257600080fd5b8035906020019184600183028401116401000000008311171561029457600080fd5b91908080601f01602080910402602001604051908101604052809392919081815260200183838082843760009201919091525092959493602081019350359150506401000000008111156102e757600080fd5b8201836020820111156102f957600080fd5b8035906020019184600183028401116401000000008311171561031b57600080fd5b91908080601f016020809104026020016040519081016040528093929190818152602001838380828437600092019190915250929550610453945050505050565b005b34801561036a57600080fd5b506103736108df565b60408051602080825283518183015283519192839290830191858101910280838360005b838110156103af578181015183820152602001610397565b505050509050019250505060405180910390f35b3480156103cf57600080fd5b506103d861094e565b6040805160208082528351818301528351919283929083019185019080838360005b838110156104125781810151838201526020016103fa565b50505050905090810190601f16801561043f5780820380516001836020036101000a031916815260200191505b509250505060405180910390f35b60025490565b60008585858585610462610a9a565b80806020018060200180602001806020018060200186810386528b818151815260200191508051906020019080838360005b838110156104ac578181015183820152602001610494565b50505050905090810190601f1680156104d95780820380516001836020036101000a031916815260200191505b5086810385528a5181528a516020918201918c019080838360005b8381101561050c5781810151838201526020016104f4565b50505050905090810190601f1680156105395780820380516001836020036101000a031916815260200191505b5086810384528951815289516020918201918b019080838360005b8381101561056c578181015183820152602001610554565b50505050905090810190601f1680156105995780820380516001836020036101000a031916815260200191505b5086810383528851815288516020918201918a019080838360005b838110156105cc5781810151838201526020016105b4565b50505050905090810190601f1680156105f95780820380516001836020036101000a031916815260200191505b50868103825287518152875160209182019189019080838360005b8381101561062c578181015183820152602001610614565b50505050905090810190601f1680156106595780820380516001836020036101000a031916815260200191505b509a5050505050505050505050604051809103906000f080158015610682573d6000803e3d6000fd5b509050806001866040518082805190602001908083835b602083106106d657805182527fffffffffffffffffffffffffffffffffffffffffffffffffffffffffffffffe09092019160209182019101610699565b51815160209384036101000a7fffffffffffffffffffffffffffffffffffffffffffffffffffffffffffffffff018019909216911617905292019485525060408051948590038201852080547fffffffffffffffffffffffff00000000000000000000000000000000000000001673ffffffffffffffffffffffffffffffffffffffff97909716969096179095553380855260808583018181528d51918701919091528c517ffd6d88f4ad58e0413badea4af5148585f787b426d4dac0376143f72c4714a01b9792968e96508b95508d949093840191606085019160a08601919089019080838360005b838110156107d85781810151838201526020016107c0565b50505050905090810190601f1680156108055780820380516001836020036101000a031916815260200191505b50848103835286518152865160209182019188019080838360005b83811015610838578181015183820152602001610820565b50505050905090810190601f1680156108655780820380516001836020036101000a031916815260200191505b50848103825285518152855160209182019187019080838360005b83811015610898578181015183820152602001610880565b50505050905090810190601f1680156108c55780820380516001836020036101000a031916815260200191505b5097505050505050505060405180910390a1505050505050565b6060600280548060200260200160405190810160405280929190818152602001828054801561094457602002820191906000526020600020905b815473ffffffffffffffffffffffffffffffffffffffff168152600190910190602001808311610919575b5050505050905090565b60028054606091907fffffffffffffffffffffffffffffffffffffffffffffffffffffffffffffffff810190811061098257fe5b6000918252602082200154604080517fd13319c4000000000000000000000000000000000000000000000000000000008152905173ffffffffffffffffffffffffffffffffffffffff9092169263d13319c492600480840193829003018186803b1580156109ef57600080fd5b505afa158015610a03573d6000803e3d6000fd5b505050506040513d6000823e601f3d9081017fffffffffffffffffffffffffffffffffffffffffffffffffffffffffffffffe01682016040526020811015610a4a57600080fd5b810190808051640100000000811115610a6257600080fd5b82016020810184811115610a7557600080fd5b8151640100000000811182820187101715610a8f57600080fd5b509094505050505090565b6040516106ba80610aab8339019056fe608060405234801561001057600080fd5b506040516106ba3803806106ba833981018060405260a081101561003357600080fd5b81019080805164010000000081111561004b57600080fd5b8201602081018481111561005e57600080fd5b815164010000000081118282018710171561007857600080fd5b5050929190602001805164010000000081111561009457600080fd5b820160208101848111156100a757600080fd5b81516401000000008111828201871017156100c157600080fd5b505092919060200180516401000000008111156100dd57600080fd5b820160208101848111156100f057600080fd5b815164010000000081118282018710171561010a57600080fd5b5050929190602001805164010000000081111561012657600080fd5b8201602081018481111561013957600080fd5b815164010000000081118282018710171561015357600080fd5b5050929190602001805164010000000081111561016f57600080fd5b8201602081018481111561018257600080fd5b815164010000000081118282018710171561019c57600080fd5b505060008054600160a060020a0319163317905586519093506101c89250600291506020870190610223565b5082516101dc906003906020860190610223565b5081516101f0906004906020850190610223565b508451610204906001906020880190610223565b508051610218906005906020840190610223565b5050505050506102be565b828054600181600116156101000203166002900490600052602060002090601f016020900481019282601f1061026457805160ff1916838001178555610291565b82800160010185558215610291579182015b82811115610291578251825591602001919060010190610276565b5061029d9291506102a1565b5090565b6102bb91905b8082111561029d57600081556001016102a7565b90565b6103ed806102cd6000396000f3fe60806040526004361061006c5763ffffffff7c0100000000000000000000000000000000000000000000000000000000600035041663430fe9c1811461007157806367f29d67146100fb578063a4300ee514610110578063ce6d41de1461014e578063d13319c414610163575b600080fd5b34801561007d57600080fd5b50610086610178565b6040805160208082528351818301528351919283929083019185019080838360005b838110156100c05781810151838201526020016100a8565b50505050905090810190601f1680156100ed5780820380516001836020036101000a031916815260200191505b509250505060405180910390f35b34801561010757600080fd5b5061008661022c565b34801561011c57600080fd5b506101256102aa565b6040805173ffffffffffffffffffffffffffffffffffffffff9092168252519081900360200190f35b34801561015a57600080fd5b506100866102c6565b34801561016f57600080fd5b50610086610345565b60038054604080516020601f60027fffffffffffffffffffffffffffffffffffffffffffffffffffffffffffffffff6101006001881615020190951694909404938401819004810282018101909252828152606093909290918301828280156102225780601f106101f757610100808354040283529160200191610222565b820191906000526020600020905b81548152906001019060200180831161020557829003601f168201915b5050505050905090565b60018054604080516020601f60027fffffffffffffffffffffffffffffffffffffffffffffffffffffffffffffffff61010087891615020190951694909404938401819004810282018101909252828152606093909290918301828280156102225780601f106101f757610100808354040283529160200191610222565b60005473ffffffffffffffffffffffffffffffffffffffff1690565b60048054604080516020601f60027fffffffffffffffffffffffffffffffffffffffffffffffffffffffffffffffff6101006001881615020190951694909404938401819004810282018101909252828152606093909290918301828280156102225780601f106101f757610100808354040283529160200191610222565b60028054604080516020601f7fffffffffffffffffffffffffffffffffffffffffffffffffffffffffffffffff61010060018716150201909416859004938401819004810282018101909252828152606093909290918301828280156102225780601f106101f75761010080835404028352916020019161022256fea165627a7a723058200cd0e7f8eb368813830f6dcd0cec4434a327c874fde935af81e9231a0df3784c0029a165627a7a723058206cb5bac9d88b68eac90ba67872e91304ce431e3cfbeb4bbb412f22ec07a36a5d0029a165627a7a7230582075824fac663173e54a0ef1ce687a2038b74a50f58dbbc1934d6959f04b4ac0920029",
  "source": "pragma solidity ^0.5.0;\n\nimport \"./repo.sol\";\n\ncontract createRepo{\n    repo[] repos;\n    //map\n    event repoCreated(string _repoName,address repoAddress, string _repoDescription, address _repoOwner, uint _creationDate);\n\n    function createNewRepo(string memory _repoName, string memory _repoDescription) public returns(address){\n        repo Repo = new repo(_repoName, _repoDescription);\n        repos.push(Repo);\n        emit repoCreated(_repoName,address(Repo) ,_repoDescription, msg.sender, now);\n        return(address(Repo));\n    }\n}",
  "sourcePath": "/home/yehia/Documents/Projects/hackathon/BlockHub/contracts/createRepo.sol",
  "compiler": {
    "name": "solc",
    "version": "0.5.0+commit.1d4f565a.Emscripten.clang"
  },
  "schemaVersion": "3.0.8",
  "updatedAt": "2019-08-05T10:35:39.501Z",
  "devdoc": {
    "methods": {}
  },
  "userdoc": {
    "methods": {}
  }
}