{
  "contractName": "createRepo",
  "abi": [
    {
      "anonymous": false,
      "inputs": [
        {
          "indexed": false,
          "name": "_repoName",
          "type": "string"
        },
        {
          "indexed": false,
          "name": "repoAddress",
          "type": "address"
        },
        {
          "indexed": false,
          "name": "_repoDescription",
          "type": "string"
        },
        {
          "indexed": false,
          "name": "_repoOwner",
          "type": "address"
        },
        {
          "indexed": false,
          "name": "_creationDate",
          "type": "uint256"
        }
      ],
      "name": "repoCreated",
      "type": "event",
      "signature": "0xa1a198b6b8f946dce5299fc0fbe5fba77d94b2446ed5219cb221f9fe8ebf18da"
    },
    {
      "constant": false,
      "inputs": [
        {
          "name": "_repoName",
          "type": "string"
        },
        {
          "name": "_repoDescription",
          "type": "string"
        }
      ],
      "name": "createNewRepo",
      "outputs": [
        {
          "name": "",
          "type": "address"
        }
      ],
      "payable": false,
      "stateMutability": "nonpayable",
      "type": "function",
      "signature": "0x88f67d92"
    }
  ],
  "bytecode": "0x608060405234801561001057600080fd5b50615fea806100206000396000f3fe6080604052600436106100405763ffffffff7c010000000000000000000000000000000000000000000000000000000060003504166388f67d928114610045575b600080fd5b34801561005157600080fd5b5061017f6004803603604081101561006857600080fd5b81019060208101813564010000000081111561008357600080fd5b82018360208201111561009557600080fd5b803590602001918460018302840111640100000000831117156100b757600080fd5b91908080601f016020809104026020016040519081016040528093929190818152602001838380828437600092019190915250929594936020810193503591505064010000000081111561010a57600080fd5b82018360208201111561011c57600080fd5b8035906020019184600183028401116401000000008311171561013e57600080fd5b91908080601f0160208091040260200160405190810160405280939291908181526020018383808284376000920191909152509295506101a8945050505050565b6040805173ffffffffffffffffffffffffffffffffffffffff9092168252519081900360200190f35b60008083836101b5610433565b604080825283519082015282518190602080830191606084019187019080838360005b838110156101f05781810151838201526020016101d8565b50505050905090810190601f16801561021d5780820380516001836020036101000a031916815260200191505b50838103825284518152845160209182019186019080838360005b83811015610250578181015183820152602001610238565b50505050905090810190601f16801561027d5780820380516001836020036101000a031916815260200191505b50945050505050604051809103906000f0801580156102a0573d6000803e3d6000fd5b50600080546001810182558180527f290decd9548b62a8d60345a988386fc84ba6bc95484008f6362f93160ef3e56301805473ffffffffffffffffffffffffffffffffffffffff191673ffffffffffffffffffffffffffffffffffffffff8416908117909155604080516020808201939093523360608201819052426080830181905260a08084528b51908401528a519697507fa1a198b6b8f946dce5299fc0fbe5fba77d94b2446ed5219cb221f9fe8ebf18da968b9689968c969495939484939084019260c08501928b0191908190849084905b8381101561038d578181015183820152602001610375565b50505050905090810190601f1680156103ba5780820380516001836020036101000a031916815260200191505b50838103825286518152865160209182019188019080838360005b838110156103ed5781810151838201526020016103d5565b50505050905090810190601f16801561041a5780820380516001836020036101000a031916815260200191505b5097505050505050505060405180910390a19392505050565b604051615b7b806104448339019056fe60806040523480156200001157600080fd5b5060405162005b7b38038062005b7b833981018060405260408110156200003757600080fd5b8101908080516401000000008111156200005057600080fd5b820160208101848111156200006457600080fd5b81516401000000008111828201871017156200007f57600080fd5b505092919060200180516401000000008111156200009c57600080fd5b82016020810184811115620000b057600080fd5b8151640100000000811182820187101715620000cb57600080fd5b50508451909350620000e7925060009150602085019062000368565b508051620000fd90600190602084019062000368565b5060028054600160a060020a031916339081179091556000908152600860205260408120805460ff1916600117905542600355606090816200013e620003ed565b60408082526006908201527f6d61737465720000000000000000000000000000000000000000000000000000606082015260806020808301828152845192840192909252835183929160a0840191868201910280838360005b83811015620001b157818101518382015260200162000197565b505050509050019350505050604051809103906000f080158015620001da573d6000803e3d6000fd5b50604080517f6d6173746572000000000000000000000000000000000000000000000000000081526007600682015281519081900360260181208054600160a060020a038516600160a060020a03199182168117909255600580546001818101835560009283527f036b6384b5eca791c62761152d0c79bb0604c104a5fb6f4eb0703f3154bb3db090910180549093168417909255602084019290925260608084528254600292811615610100026000190116919091049083018190529394507f2cc0cc783d4394153ee1cb11493c793869b41b40f52797786620f00fb79c1ea493909285929182918201906080830190869080156200031e5780601f10620002f2576101008083540402835291602001916200031e565b820191906000526020600020905b8154815290600101906020018083116200030057829003601f168201915b5050928303905250600681527f6d61737465720000000000000000000000000000000000000000000000000000602082015260408051918290030192509050a1505050506200041e565b828054600181600116156101000203166002900490600052602060002090601f016020900481019282601f10620003ab57805160ff1916838001178555620003db565b82800160010185558215620003db579182015b82811115620003db578251825591602001919060010190620003be565b50620003e9929150620003fe565b5090565b604051611d168062003e6583390190565b6200041b91905b80821115620003e9576000815560010162000405565b90565b613a37806200042e6000396000f3fe608060405260043610620000655763ffffffff60e060020a6000350416633109c19d81146200006a5780634665f42e14620000a35780636794864c14620001fd5780636882e17414620002b757806386e7a51714620002ee578063910b46301462000432575b600080fd5b3480156200007757600080fd5b50620000a1600480360360208110156200009057600080fd5b5035600160a060020a031662000466565b005b348015620000b057600080fd5b50620001e760048036036040811015620000c957600080fd5b810190602081018135640100000000811115620000e557600080fd5b820183602082011115620000f857600080fd5b803590602001918460018302840111640100000000831117156200011b57600080fd5b91908080601f01602080910402602001604051908101604052809392919081815260200183838082843760009201919091525092959493602081019350359150506401000000008111156200016f57600080fd5b8201836020820111156200018257600080fd5b80359060200191846001830284011164010000000083111715620001a557600080fd5b91908080601f0160208091040260200160405190810160405280939291908181526020018383808284376000920191909152509295506200056d945050505050565b6040805160ff9092168252519081900360200190f35b3480156200020a57600080fd5b50620000a1600480360360208110156200022357600080fd5b8101906020810181356401000000008111156200023f57600080fd5b8201836020820111156200025257600080fd5b803590602001918460018302840111640100000000831117156200027557600080fd5b91908080601f01602080910402602001604051908101604052809392919081815260200183838082843760009201919091525092955062000b04945050505050565b348015620002c457600080fd5b50620000a160048036036020811015620002dd57600080fd5b5035600160a060020a031662000f42565b348015620002fb57600080fd5b50620000a1600480360360408110156200031457600080fd5b8101906020810181356401000000008111156200033057600080fd5b8201836020820111156200034357600080fd5b803590602001918460018302840111640100000000831117156200036657600080fd5b91908080601f0160208091040260200160405190810160405280939291908181526020018383808284376000920191909152509295949360208101935035915050640100000000811115620003ba57600080fd5b820183602082011115620003cd57600080fd5b80359060200191846001830284011164010000000083111715620003f057600080fd5b91908080601f0160208091040260200160405190810160405280939291908181526020018383808284376000920191909152509295506200105a945050505050565b3480156200043f57600080fd5b506200044a620012a9565b60408051600160a060020a039092168252519081900360200190f35b3360009081526008602052604090205460ff1615156001146200048857600080fd5b600160a060020a0381166000818152600860209081526040808320805460ff1916905580519384523091840182905260609084018181528354600260001960018316156101000201909116049185018290527fda5be73e51d6f5cb5ffb0a89d4be5b7af868e0cc1ad3cdd45c39f5b1c1fbda50948694929091906080830190849080156200055a5780601f106200052e576101008083540402835291602001916200055a565b820191906000526020600020905b8154815290600101906020018083116200053c57829003601f168201915b505094505050505060405180910390a150565b6000806007846040518082805190602001908083835b60208310620005a45780518252601f19909201916020918201910162000583565b51815160209384036101000a60001901801990921691161790529201948552506040519384900381018420548751600160a060020a03909116955060009460079450889350918291908401908083835b60208310620006155780518252601f199092019160209182019101620005f4565b51815160209384036101000a600019018019909216911617905292019485525060408051948590039091018420547fc7335c910000000000000000000000000000000000000000000000000000000085529051600160a060020a039182169550606094918716935063c7335c9192506004808301926000929190829003018186803b158015620006a457600080fd5b505afa158015620006b9573d6000803e3d6000fd5b505050506040513d6000823e601f3d908101601f191682016040526020811015620006e357600080fd5b810190808051640100000000811115620006fc57600080fd5b820160208101848111156200071057600080fd5b81518560208202830111640100000000821117156200072e57600080fd5b50509291905050509050606082600160a060020a031663c7335c916040518163ffffffff1660e060020a02815260040160006040518083038186803b1580156200077757600080fd5b505afa1580156200078c573d6000803e3d6000fd5b505050506040513d6000823e601f3d908101601f191682016040526020811015620007b657600080fd5b810190808051640100000000811115620007cf57600080fd5b82016020810184811115620007e357600080fd5b81518560208202830111640100000000821117156200080157600080fd5b5050805190945084935060001981019250821090506200081d57fe5b90602001906020020151600160a060020a031663d13319c46040518163ffffffff1660e060020a02815260040160006040518083038186803b1580156200086357600080fd5b505afa15801562000878573d6000803e3d6000fd5b505050506040513d6000823e601f3d908101601f191682016040526020811015620008a257600080fd5b810190808051640100000000811115620008bb57600080fd5b82016020810184811115620008cf57600080fd5b8151640100000000811182820187101715620008ea57600080fd5b50509291905050506040516020018082805190602001908083835b60208310620009265780518252601f19909201916020918201910162000905565b6001836020036101000a038019825116818451168082178552505050505050905001915050604051602081830303815290604052805190602001208260018451038151811015156200097457fe5b90602001906020020151600160a060020a031663d13319c46040518163ffffffff1660e060020a02815260040160006040518083038186803b158015620009ba57600080fd5b505afa158015620009cf573d6000803e3d6000fd5b505050506040513d6000823e601f3d908101601f191682016040526020811015620009f957600080fd5b81019080805164010000000081111562000a1257600080fd5b8201602081018481111562000a2657600080fd5b815164010000000081118282018710171562000a4157600080fd5b50509291905050506040516020018082805190602001908083835b6020831062000a7d5780518252601f19909201916020918201910162000a5c565b6001836020036101000a03801982511681845116808217855250505050505090500191505060405160208183030381529060405280519060200120141562000acd57600094505050505062000afe565b81518151111562000af15762000ae5818386620012ef565b94505050505062000afe565b62000ae5828285620012ef565b92915050565b6000816005600081548110151562000b1857fe5b6000918252602082200154604080517fc7335c910000000000000000000000000000000000000000000000000000000081529051600160a060020a039092169263c7335c9192600480840193829003018186803b15801562000b7957600080fd5b505afa15801562000b8e573d6000803e3d6000fd5b505050506040513d6000823e601f3d908101601f19168201604052602081101562000bb857600080fd5b81019080805164010000000081111562000bd157600080fd5b8201602081018481111562000be557600080fd5b815185602082028301116401000000008211171562000c0357600080fd5b505092919050505062000c1562001afe565b604080825283519082015282518190602080830191606084019187019080838360005b8381101562000c5257818101518382015260200162000c38565b50505050905090810190601f16801562000c805780820380516001836020036101000a031916815260200191505b508381038252845181528451602091820191808701910280838360005b8381101562000cb757818101518382015260200162000c9d565b50505050905001945050505050604051809103906000f08015801562000ce1573d6000803e3d6000fd5b509050806007836040518082805190602001908083835b6020831062000d195780518252601f19909201916020918201910162000cf8565b51815160209384036101000a60001901801990921691161790529201948552506040519384900381018420805473ffffffffffffffffffffffffffffffffffffffff1916600160a060020a03969096169590951790945550508351600592600792869290918291908401908083835b6020831062000da95780518252601f19909201916020918201910162000d88565b518151600019602094850361010090810a8201928316921993909316919091179092529490920196875260408051978890038201882054895460018181018c5560009b8c52848c20909101805473ffffffffffffffffffffffffffffffffffffffff1916600160a060020a03938416179055908b169289019290925260608089528954600293811615909602909301909416049086018190527f2cc0cc783d4394153ee1cb11493c793869b41b40f52797786620f00fb79c1ea496958895508994509283925082019060808301908790801562000eca5780601f1062000e9e5761010080835404028352916020019162000eca565b820191906000526020600020905b81548152906001019060200180831162000eac57829003601f168201915b5050838103825284518152845160209182019186019080838360005b8381101562000f0057818101518382015260200162000ee6565b50505050905090810190601f16801562000f2e5780820380516001836020036101000a031916815260200191505b509550505050505060405180910390a15050565b3360009081526008602052604090205460ff16151560011462000f6457600080fd5b6004805460018181019092557f8a35acfbc15ff81a39ae7d344fd709f28e8600b4aa8c65c6b64bfe7fe36bd19b018054600160a060020a03841673ffffffffffffffffffffffffffffffffffffffff1990911681179091556000818152600860209081526040808320805460ff19168617905580519384523091840182905260609084018181528354600296811615610100026000190116959095049084018190527f126c0c1cb9112bc67424ee87f5f11d2f169bf930d54b28db48e81737dec47eb5948694929392916080830190849080156200055a5780601f106200052e576101008083540402835291602001916200055a565b600682826200106862001b0f565b604080825283519082015282518190602080830191606084019187019080838360005b83811015620010a55781810151838201526020016200108b565b50505050905090810190601f168015620010d35780820380516001836020036101000a031916815260200191505b50838103825284518152845160209182019186019080838360005b8381101562001108578181015183820152602001620010ee565b50505050905090810190601f168015620011365780820380516001836020036101000a031916815260200191505b50945050505050604051809103906000f0801580156200115a573d6000803e3d6000fd5b50815460018101835560009283526020808420909101805473ffffffffffffffffffffffffffffffffffffffff1916600160a060020a0393909316929092179091556040805181815285519181019190915284517f6a2048571c488b823b275fdce75f8182edfa62343dae464560c00ea49a30be409386938693928392838301926060850192908801918190849084905b8381101562001205578181015183820152602001620011eb565b50505050905090810190601f168015620012335780820380516001836020036101000a031916815260200191505b50838103825284518152845160209182019186019080838360005b83811015620012685781810151838201526020016200124e565b50505050905090810190601f168015620012965780820380516001836020036101000a031916815260200191505b5094505050505060405180910390a15050565b604080517f6d61737465720000000000000000000000000000000000000000000000000000815260076006820152905190819003602601902054600160a060020a031690565b815183516000919081900390849060001981019081106200130c57fe5b90602001906020020151600160a060020a031685826001885103038151811015156200133457fe5b60209081029091010151600160a060020a0316146200135857606391505062001af7565b835160005b8281101562001aef5784600160a060020a03166379397dca88848151811015156200138457fe5b90602001906020020151600160a060020a031663a4300ee56040518163ffffffff1660e060020a02815260040160206040518083038186803b158015620013ca57600080fd5b505afa158015620013df573d6000803e3d6000fd5b505050506040513d6020811015620013f657600080fd5b505189518a90869081106200140757fe5b90602001906020020151600160a060020a0316634c9f9fc36040518163ffffffff1660e060020a02815260040160006040518083038186803b1580156200144d57600080fd5b505afa15801562001462573d6000803e3d6000fd5b505050506040513d6000823e601f3d908101601f1916820160405260208110156200148c57600080fd5b810190808051640100000000811115620014a557600080fd5b82016020810184811115620014b957600080fd5b8151640100000000811182820187101715620014d457600080fd5b50508d519093508d92508891508110620014ea57fe5b90602001906020020151600160a060020a031663430fe9c16040518163ffffffff1660e060020a02815260040160006040518083038186803b1580156200153057600080fd5b505afa15801562001545573d6000803e3d6000fd5b505050506040513d6000823e601f3d908101601f1916820160405260208110156200156f57600080fd5b8101908080516401000000008111156200158857600080fd5b820160208101848111156200159c57600080fd5b8151640100000000811182820187101715620015b757600080fd5b50508e519093508e92508991508110620015cd57fe5b90602001906020020151600160a060020a031663d13319c46040518163ffffffff1660e060020a02815260040160006040518083038186803b1580156200161357600080fd5b505afa15801562001628573d6000803e3d6000fd5b505050506040513d6000823e601f3d908101601f1916820160405260208110156200165257600080fd5b8101908080516401000000008111156200166b57600080fd5b820160208101848111156200167f57600080fd5b81516401000000008111828201871017156200169a57600080fd5b50508f519093508f92508a91508110620016b057fe5b90602001906020020151600160a060020a031663ce6d41de6040518163ffffffff1660e060020a02815260040160006040518083038186803b158015620016f657600080fd5b505afa1580156200170b573d6000803e3d6000fd5b505050506040513d6000823e601f3d908101601f1916820160405260208110156200173557600080fd5b8101908080516401000000008111156200174e57600080fd5b820160208101848111156200176257600080fd5b81516401000000008111828201871017156200177d57600080fd5b50509291905050508d898151811015156200179457fe5b90602001906020020151600160a060020a031663b7ed5abc6040518163ffffffff1660e060020a02815260040160006040518083038186803b158015620017da57600080fd5b505afa158015620017ef573d6000803e3d6000fd5b505050506040513d6000823e601f3d908101601f1916820160405260208110156200181957600080fd5b8101908080516401000000008111156200183257600080fd5b820160208101848111156200184657600080fd5b81516401000000008111828201871017156200186157600080fd5b50509291905050506040518763ffffffff1660e060020a0281526004018087600160a060020a0316600160a060020a03168152602001806020018060200180602001806020018060200186810386528b818151815260200191508051906020019080838360005b83811015620018e2578181015183820152602001620018c8565b50505050905090810190601f168015620019105780820380516001836020036101000a031916815260200191505b5086810385528a5181528a516020918201918c019080838360005b83811015620019455781810151838201526020016200192b565b50505050905090810190601f168015620019735780820380516001836020036101000a031916815260200191505b5086810384528951815289516020918201918b019080838360005b83811015620019a85781810151838201526020016200198e565b50505050905090810190601f168015620019d65780820380516001836020036101000a031916815260200191505b5086810383528851815288516020918201918a019080838360005b8381101562001a0b578181015183820152602001620019f1565b50505050905090810190601f16801562001a395780820380516001836020036101000a031916815260200191505b50868103825287518152875160209182019189019080838360005b8381101562001a6e57818101518382015260200162001a54565b50505050905090810190601f16801562001a9c5780820380516001836020036101000a031916815260200191505b509b505050505050505050505050600060405180830381600087803b15801562001ac557600080fd5b505af115801562001ada573d6000803e3d6000fd5b5050506001928301929190910190506200135d565b506001925050505b9392505050565b604051611d168062001b2183390190565b6040516101d580620038378339019056fe60806040523480156200001157600080fd5b5060405162001d1638038062001d16833981018060405260408110156200003757600080fd5b8101908080516401000000008111156200005057600080fd5b820160208101848111156200006457600080fd5b81516401000000008111828201871017156200007f57600080fd5b505092919060200180516401000000008111156200009c57600080fd5b82016020810184811115620000b057600080fd5b8151856020820283011164010000000082111715620000ce57600080fd5b50508451909350620000ea9250600091506020850190620002cc565b5080516200010090600290602084019062000351565b5062000115816401000000006200011d810204565b5050620003fe565b60005b8151811015620002c85781818151811015156200013957fe5b90602001906020020151600183838151811015156200015457fe5b90602001906020020151600160a060020a031663d13319c46040518163ffffffff167c010000000000000000000000000000000000000000000000000000000002815260040160006040518083038186803b158015620001b357600080fd5b505afa158015620001c8573d6000803e3d6000fd5b505050506040513d6000823e601f3d908101601f191682016040526020811015620001f257600080fd5b8101908080516401000000008111156200020b57600080fd5b820160208101848111156200021f57600080fd5b81516401000000008111828201871017156200023a57600080fd5b50509291905050506040518082805190602001908083835b60208310620002735780518252601f19909201916020918201910162000252565b51815160209384036101000a600019018019909216911617905292019485525060405193849003019092208054600160a060020a031916600160a060020a039490941693909317909255505060010162000120565b5050565b828054600181600116156101000203166002900490600052602060002090601f016020900481019282601f106200030f57805160ff19168380011785556200033f565b828001600101855582156200033f579182015b828111156200033f57825182559160200191906001019062000322565b506200034d929150620003b7565b5090565b828054828255906000526020600020908101928215620003a9579160200282015b82811115620003a95782518254600160a060020a031916600160a060020a0390911617825560209092019160019091019062000372565b506200034d929150620003d7565b620003d491905b808211156200034d5760008155600101620003be565b90565b620003d491905b808211156200034d578054600160a060020a0319168155600101620003de565b611908806200040e6000396000f3fe608060405260043610620000665763ffffffff7c010000000000000000000000000000000000000000000000000000000060003504166379397dca81146200006b578063b58c6106146200035f578063c7335c911462000641578063eae2db7a14620006ab575b600080fd5b3480156200007857600080fd5b506200035d600480360360c08110156200009157600080fd5b600160a060020a038235169190810190604081016020820135640100000000811115620000bd57600080fd5b820183602082011115620000d057600080fd5b80359060200191846001830284011164010000000083111715620000f357600080fd5b91908080601f01602080910402602001604051908101604052809392919081815260200183838082843760009201919091525092959493602081019350359150506401000000008111156200014757600080fd5b8201836020820111156200015a57600080fd5b803590602001918460018302840111640100000000831117156200017d57600080fd5b91908080601f0160208091040260200160405190810160405280939291908181526020018383808284376000920191909152509295949360208101935035915050640100000000811115620001d157600080fd5b820183602082011115620001e457600080fd5b803590602001918460018302840111640100000000831117156200020757600080fd5b91908080601f01602080910402602001604051908101604052809392919081815260200183838082843760009201919091525092959493602081019350359150506401000000008111156200025b57600080fd5b8201836020820111156200026e57600080fd5b803590602001918460018302840111640100000000831117156200029157600080fd5b91908080601f0160208091040260200160405190810160405280939291908181526020018383808284376000920191909152509295949360208101935035915050640100000000811115620002e557600080fd5b820183602082011115620002f857600080fd5b803590602001918460018302840111640100000000831117156200031b57600080fd5b91908080601f0160208091040260200160405190810160405280939291908181526020018383808284376000920191909152509295506200073b945050505050565b005b3480156200036c57600080fd5b506200035d600480360360a08110156200038557600080fd5b810190602081018135640100000000811115620003a157600080fd5b820183602082011115620003b457600080fd5b80359060200191846001830284011164010000000083111715620003d757600080fd5b91908080601f01602080910402602001604051908101604052809392919081815260200183838082843760009201919091525092959493602081019350359150506401000000008111156200042b57600080fd5b8201836020820111156200043e57600080fd5b803590602001918460018302840111640100000000831117156200046157600080fd5b91908080601f0160208091040260200160405190810160405280939291908181526020018383808284376000920191909152509295949360208101935035915050640100000000811115620004b557600080fd5b820183602082011115620004c857600080fd5b80359060200191846001830284011164010000000083111715620004eb57600080fd5b91908080601f01602080910402602001604051908101604052809392919081815260200183838082843760009201919091525092959493602081019350359150506401000000008111156200053f57600080fd5b8201836020820111156200055257600080fd5b803590602001918460018302840111640100000000831117156200057557600080fd5b91908080601f0160208091040260200160405190810160405280939291908181526020018383808284376000920191909152509295949360208101935035915050640100000000811115620005c957600080fd5b820183602082011115620005dc57600080fd5b80359060200191846001830284011164010000000083111715620005ff57600080fd5b91908080601f01602080910402602001604051908101604052809392919081815260200183838082843760009201919091525092955062000be0945050505050565b3480156200064e57600080fd5b506200065962001087565b60408051602080825283518183015283519192839290830191858101910280838360005b83811015620006975781810151838201526020016200067d565b505050509050019250505060405180910390f35b348015620006b857600080fd5b50620006c3620010eb565b6040805160208082528351818301528351919283929083019185019080838360005b83811015620006ff578181015183820152602001620006e5565b50505050905090810190601f1680156200072d5780820380516001836020036101000a031916815260200191505b509250505060405180910390f35b60008686868686866200074d620011f5565b8087600160a060020a0316600160a060020a03168152602001806020018060200180602001806020018060200186810386528b818151815260200191508051906020019080838360005b83811015620007b157818101518382015260200162000797565b50505050905090810190601f168015620007df5780820380516001836020036101000a031916815260200191505b5086810385528a5181528a516020918201918c019080838360005b8381101562000814578181015183820152602001620007fa565b50505050905090810190601f168015620008425780820380516001836020036101000a031916815260200191505b5086810384528951815289516020918201918b019080838360005b83811015620008775781810151838201526020016200085d565b50505050905090810190601f168015620008a55780820380516001836020036101000a031916815260200191505b5086810383528851815288516020918201918a019080838360005b83811015620008da578181015183820152602001620008c0565b50505050905090810190601f168015620009085780820380516001836020036101000a031916815260200191505b50868103825287518152875160209182019189019080838360005b838110156200093d57818101518382015260200162000923565b50505050905090810190601f1680156200096b5780820380516001836020036101000a031916815260200191505b509b505050505050505050505050604051809103906000f08015801562000996573d6000803e3d6000fd5b509050806001866040518082805190602001908083835b60208310620009ce5780518252601f199092019160209182019101620009ad565b51815160209384036101000a60001901801990921691161790529201948552506040519384900381018420805473ffffffffffffffffffffffffffffffffffffffff1916600160a060020a03969096169590951790945550508651600292600192899290918291908401908083835b6020831062000a5e5780518252601f19909201916020918201910162000a3d565b51815160001960209485036101000a01908116901991909116179052920194855250604080519485900382018520548654600181018855600097885283882001805473ffffffffffffffffffffffffffffffffffffffff1916600160a060020a039283161790558d16855260608583018181528a519187019190915289517f49e41cf7f645152827d5c078de6829eb2dc16ae1ac0a4cbe6025d392d3cd7076978f978c97508e96509492938501926080860192908801918190849084905b8381101562000b3657818101518382015260200162000b1c565b50505050905090810190601f16801562000b645780820380516001836020036101000a031916815260200191505b50838103825284518152845160209182019186019080838360005b8381101562000b9957818101518382015260200162000b7f565b50505050905090810190601f16801562000bc75780820380516001836020036101000a031916815260200191505b509550505050505060405180910390a150505050505050565b600033868686868662000bf2620011f5565b8087600160a060020a0316600160a060020a03168152602001806020018060200180602001806020018060200186810386528b818151815260200191508051906020019080838360005b8381101562000c5657818101518382015260200162000c3c565b50505050905090810190601f16801562000c845780820380516001836020036101000a031916815260200191505b5086810385528a5181528a516020918201918c019080838360005b8381101562000cb957818101518382015260200162000c9f565b50505050905090810190601f16801562000ce75780820380516001836020036101000a031916815260200191505b5086810384528951815289516020918201918b019080838360005b8381101562000d1c57818101518382015260200162000d02565b50505050905090810190601f16801562000d4a5780820380516001836020036101000a031916815260200191505b5086810383528851815288516020918201918a019080838360005b8381101562000d7f57818101518382015260200162000d65565b50505050905090810190601f16801562000dad5780820380516001836020036101000a031916815260200191505b50868103825287518152875160209182019189019080838360005b8381101562000de257818101518382015260200162000dc8565b50505050905090810190601f16801562000e105780820380516001836020036101000a031916815260200191505b509b505050505050505050505050604051809103906000f08015801562000e3b573d6000803e3d6000fd5b509050806001866040518082805190602001908083835b6020831062000e735780518252601f19909201916020918201910162000e52565b51815160209384036101000a60001901801990921691161790529201948552506040519384900381018420805473ffffffffffffffffffffffffffffffffffffffff1916600160a060020a03969096169590951790945550508651600292600192899290918291908401908083835b6020831062000f035780518252601f19909201916020918201910162000ee2565b51815160001960209485036101000a01908116901991909116179052920194855250604080519485900382018520548654600181018855600097885283882001805473ffffffffffffffffffffffffffffffffffffffff1916600160a060020a039092169190911790553380865260608684018181528b51918801919091528a517f49e41cf7f645152827d5c078de6829eb2dc16ae1ac0a4cbe6025d392d3cd70769892978c97508e96509491938501926080860192880191908190849084905b8381101562000fde57818101518382015260200162000fc4565b50505050905090810190601f1680156200100c5780820380516001836020036101000a031916815260200191505b50838103825284518152845160209182019186019080838360005b838110156200104157818101518382015260200162001027565b50505050905090810190601f1680156200106f5780820380516001836020036101000a031916815260200191505b509550505050505060405180910390a1505050505050565b60606002805480602002602001604051908101604052809291908181526020018280548015620010e157602002820191906000526020600020905b8154600160a060020a03168152600190910190602001808311620010c2575b5050505050905090565b600280546060919060001981019081106200110257fe5b6000918252602082200154604080517fd13319c40000000000000000000000000000000000000000000000000000000081529051600160a060020a039092169263d13319c492600480840193829003018186803b1580156200116357600080fd5b505afa15801562001178573d6000803e3d6000fd5b505050506040513d6000823e601f3d908101601f191682016040526020811015620011a257600080fd5b810190808051640100000000811115620011bb57600080fd5b82016020810184811115620011cf57600080fd5b8151640100000000811182820187101715620011ea57600080fd5b509094505050505090565b6040516106d680620012078339019056fe608060405234801561001057600080fd5b506040516106d63803806106d6833981018060405260c081101561003357600080fd5b81516020830180519193928301929164010000000081111561005457600080fd5b8201602081018481111561006757600080fd5b815164010000000081118282018710171561008157600080fd5b5050929190602001805164010000000081111561009d57600080fd5b820160208101848111156100b057600080fd5b81516401000000008111828201871017156100ca57600080fd5b505092919060200180516401000000008111156100e657600080fd5b820160208101848111156100f957600080fd5b815164010000000081118282018710171561011357600080fd5b5050929190602001805164010000000081111561012f57600080fd5b8201602081018481111561014257600080fd5b815164010000000081118282018710171561015c57600080fd5b5050929190602001805164010000000081111561017857600080fd5b8201602081018481111561018b57600080fd5b81516401000000008111828201871017156101a557600080fd5b505060008054600160a060020a031916600160a060020a038b1617905586519093506101da9250600291506020870190610236565b5082516101ee906003906020860190610236565b508151610202906004906020850190610236565b508051610216906005906020840190610236565b50845161022a906001906020880190610236565b505050505050506102d1565b828054600181600116156101000203166002900490600052602060002090601f016020900481019282601f1061027757805160ff19168380011785556102a4565b828001600101855582156102a4579182015b828111156102a4578251825591602001919060010190610289565b506102b09291506102b4565b5090565b6102ce91905b808211156102b057600081556001016102ba565b90565b6103f6806102e06000396000f3fe6080604052600436106100775763ffffffff7c0100000000000000000000000000000000000000000000000000000000600035041663430fe9c1811461007c5780634c9f9fc314610106578063a4300ee51461011b578063b7ed5abc14610159578063ce6d41de1461016e578063d13319c414610183575b600080fd5b34801561008857600080fd5b50610091610198565b6040805160208082528351818301528351919283929083019185019080838360005b838110156100cb5781810151838201526020016100b3565b50505050905090810190601f1680156100f85780820380516001836020036101000a031916815260200191505b509250505060405180910390f35b34801561011257600080fd5b5061009161022e565b34801561012757600080fd5b5061013061028e565b6040805173ffffffffffffffffffffffffffffffffffffffff9092168252519081900360200190f35b34801561016557600080fd5b506100916102aa565b34801561017a57600080fd5b5061009161030b565b34801561018f57600080fd5b5061009161036c565b60038054604080516020601f60026000196101006001881615020190951694909404938401819004810282018101909252828152606093909290918301828280156102245780601f106101f957610100808354040283529160200191610224565b820191906000526020600020905b81548152906001019060200180831161020757829003601f168201915b5050505050905090565b60018054604080516020601f600260001961010087891615020190951694909404938401819004810282018101909252828152606093909290918301828280156102245780601f106101f957610100808354040283529160200191610224565b60005473ffffffffffffffffffffffffffffffffffffffff1690565b60058054604080516020601f60026000196101006001881615020190951694909404938401819004810282018101909252828152606093909290918301828280156102245780601f106101f957610100808354040283529160200191610224565b60048054604080516020601f60026000196101006001881615020190951694909404938401819004810282018101909252828152606093909290918301828280156102245780601f106101f957610100808354040283529160200191610224565b60028054604080516020601f60001961010060018716150201909416859004938401819004810282018101909252828152606093909290918301828280156102245780601f106101f95761010080835404028352916020019161022456fea165627a7a72305820fbb785ea4a1983aaac09f02495a11576d6390b9b6d071409bf34091009d7a24a0029a165627a7a72305820fd200e3e25d0f5bd3cb995fc5c34cc5c448c7ccc58c6253dd5511bf6f2ed433d0029608060405234801561001057600080fd5b506040516101d53803806101d58339810180604052604081101561003357600080fd5b81019080805164010000000081111561004b57600080fd5b8201602081018481111561005e57600080fd5b815164010000000081118282018710171561007857600080fd5b5050929190602001805164010000000081111561009457600080fd5b820160208101848111156100a757600080fd5b81516401000000008111828201871017156100c157600080fd5b505084519093506100db92506000915060208501906100f7565b5080516100ef9060019060208401906100f7565b505050610192565b828054600181600116156101000203166002900490600052602060002090601f016020900481019282601f1061013857805160ff1916838001178555610165565b82800160010185558215610165579182015b8281111561016557825182559160200191906001019061014a565b50610171929150610175565b5090565b61018f91905b80821115610171576000815560010161017b565b90565b6035806101a06000396000f3fe6080604052600080fdfea165627a7a72305820cd14aaceb35f172bf8efc1728e6889cf10ba94a13bb71a7ce4865faeefdc03ce0029a165627a7a72305820d96fbbf419a11830f3ce3da47961c6598ed9bb7ca0c0a8faba68c63394e7635a002960806040523480156200001157600080fd5b5060405162001d1638038062001d16833981018060405260408110156200003757600080fd5b8101908080516401000000008111156200005057600080fd5b820160208101848111156200006457600080fd5b81516401000000008111828201871017156200007f57600080fd5b505092919060200180516401000000008111156200009c57600080fd5b82016020810184811115620000b057600080fd5b8151856020820283011164010000000082111715620000ce57600080fd5b50508451909350620000ea9250600091506020850190620002cc565b5080516200010090600290602084019062000351565b5062000115816401000000006200011d810204565b5050620003fe565b60005b8151811015620002c85781818151811015156200013957fe5b90602001906020020151600183838151811015156200015457fe5b90602001906020020151600160a060020a031663d13319c46040518163ffffffff167c010000000000000000000000000000000000000000000000000000000002815260040160006040518083038186803b158015620001b357600080fd5b505afa158015620001c8573d6000803e3d6000fd5b505050506040513d6000823e601f3d908101601f191682016040526020811015620001f257600080fd5b8101908080516401000000008111156200020b57600080fd5b820160208101848111156200021f57600080fd5b81516401000000008111828201871017156200023a57600080fd5b50509291905050506040518082805190602001908083835b60208310620002735780518252601f19909201916020918201910162000252565b51815160209384036101000a600019018019909216911617905292019485525060405193849003019092208054600160a060020a031916600160a060020a039490941693909317909255505060010162000120565b5050565b828054600181600116156101000203166002900490600052602060002090601f016020900481019282601f106200030f57805160ff19168380011785556200033f565b828001600101855582156200033f579182015b828111156200033f57825182559160200191906001019062000322565b506200034d929150620003b7565b5090565b828054828255906000526020600020908101928215620003a9579160200282015b82811115620003a95782518254600160a060020a031916600160a060020a0390911617825560209092019160019091019062000372565b506200034d929150620003d7565b620003d491905b808211156200034d5760008155600101620003be565b90565b620003d491905b808211156200034d578054600160a060020a0319168155600101620003de565b611908806200040e6000396000f3fe608060405260043610620000665763ffffffff7c010000000000000000000000000000000000000000000000000000000060003504166379397dca81146200006b578063b58c6106146200035f578063c7335c911462000641578063eae2db7a14620006ab575b600080fd5b3480156200007857600080fd5b506200035d600480360360c08110156200009157600080fd5b600160a060020a038235169190810190604081016020820135640100000000811115620000bd57600080fd5b820183602082011115620000d057600080fd5b80359060200191846001830284011164010000000083111715620000f357600080fd5b91908080601f01602080910402602001604051908101604052809392919081815260200183838082843760009201919091525092959493602081019350359150506401000000008111156200014757600080fd5b8201836020820111156200015a57600080fd5b803590602001918460018302840111640100000000831117156200017d57600080fd5b91908080601f0160208091040260200160405190810160405280939291908181526020018383808284376000920191909152509295949360208101935035915050640100000000811115620001d157600080fd5b820183602082011115620001e457600080fd5b803590602001918460018302840111640100000000831117156200020757600080fd5b91908080601f01602080910402602001604051908101604052809392919081815260200183838082843760009201919091525092959493602081019350359150506401000000008111156200025b57600080fd5b8201836020820111156200026e57600080fd5b803590602001918460018302840111640100000000831117156200029157600080fd5b91908080601f0160208091040260200160405190810160405280939291908181526020018383808284376000920191909152509295949360208101935035915050640100000000811115620002e557600080fd5b820183602082011115620002f857600080fd5b803590602001918460018302840111640100000000831117156200031b57600080fd5b91908080601f0160208091040260200160405190810160405280939291908181526020018383808284376000920191909152509295506200073b945050505050565b005b3480156200036c57600080fd5b506200035d600480360360a08110156200038557600080fd5b810190602081018135640100000000811115620003a157600080fd5b820183602082011115620003b457600080fd5b80359060200191846001830284011164010000000083111715620003d757600080fd5b91908080601f01602080910402602001604051908101604052809392919081815260200183838082843760009201919091525092959493602081019350359150506401000000008111156200042b57600080fd5b8201836020820111156200043e57600080fd5b803590602001918460018302840111640100000000831117156200046157600080fd5b91908080601f0160208091040260200160405190810160405280939291908181526020018383808284376000920191909152509295949360208101935035915050640100000000811115620004b557600080fd5b820183602082011115620004c857600080fd5b80359060200191846001830284011164010000000083111715620004eb57600080fd5b91908080601f01602080910402602001604051908101604052809392919081815260200183838082843760009201919091525092959493602081019350359150506401000000008111156200053f57600080fd5b8201836020820111156200055257600080fd5b803590602001918460018302840111640100000000831117156200057557600080fd5b91908080601f0160208091040260200160405190810160405280939291908181526020018383808284376000920191909152509295949360208101935035915050640100000000811115620005c957600080fd5b820183602082011115620005dc57600080fd5b80359060200191846001830284011164010000000083111715620005ff57600080fd5b91908080601f01602080910402602001604051908101604052809392919081815260200183838082843760009201919091525092955062000be0945050505050565b3480156200064e57600080fd5b506200065962001087565b60408051602080825283518183015283519192839290830191858101910280838360005b83811015620006975781810151838201526020016200067d565b505050509050019250505060405180910390f35b348015620006b857600080fd5b50620006c3620010eb565b6040805160208082528351818301528351919283929083019185019080838360005b83811015620006ff578181015183820152602001620006e5565b50505050905090810190601f1680156200072d5780820380516001836020036101000a031916815260200191505b509250505060405180910390f35b60008686868686866200074d620011f5565b8087600160a060020a0316600160a060020a03168152602001806020018060200180602001806020018060200186810386528b818151815260200191508051906020019080838360005b83811015620007b157818101518382015260200162000797565b50505050905090810190601f168015620007df5780820380516001836020036101000a031916815260200191505b5086810385528a5181528a516020918201918c019080838360005b8381101562000814578181015183820152602001620007fa565b50505050905090810190601f168015620008425780820380516001836020036101000a031916815260200191505b5086810384528951815289516020918201918b019080838360005b83811015620008775781810151838201526020016200085d565b50505050905090810190601f168015620008a55780820380516001836020036101000a031916815260200191505b5086810383528851815288516020918201918a019080838360005b83811015620008da578181015183820152602001620008c0565b50505050905090810190601f168015620009085780820380516001836020036101000a031916815260200191505b50868103825287518152875160209182019189019080838360005b838110156200093d57818101518382015260200162000923565b50505050905090810190601f1680156200096b5780820380516001836020036101000a031916815260200191505b509b505050505050505050505050604051809103906000f08015801562000996573d6000803e3d6000fd5b509050806001866040518082805190602001908083835b60208310620009ce5780518252601f199092019160209182019101620009ad565b51815160209384036101000a60001901801990921691161790529201948552506040519384900381018420805473ffffffffffffffffffffffffffffffffffffffff1916600160a060020a03969096169590951790945550508651600292600192899290918291908401908083835b6020831062000a5e5780518252601f19909201916020918201910162000a3d565b51815160001960209485036101000a01908116901991909116179052920194855250604080519485900382018520548654600181018855600097885283882001805473ffffffffffffffffffffffffffffffffffffffff1916600160a060020a039283161790558d16855260608583018181528a519187019190915289517f49e41cf7f645152827d5c078de6829eb2dc16ae1ac0a4cbe6025d392d3cd7076978f978c97508e96509492938501926080860192908801918190849084905b8381101562000b3657818101518382015260200162000b1c565b50505050905090810190601f16801562000b645780820380516001836020036101000a031916815260200191505b50838103825284518152845160209182019186019080838360005b8381101562000b9957818101518382015260200162000b7f565b50505050905090810190601f16801562000bc75780820380516001836020036101000a031916815260200191505b509550505050505060405180910390a150505050505050565b600033868686868662000bf2620011f5565b8087600160a060020a0316600160a060020a03168152602001806020018060200180602001806020018060200186810386528b818151815260200191508051906020019080838360005b8381101562000c5657818101518382015260200162000c3c565b50505050905090810190601f16801562000c845780820380516001836020036101000a031916815260200191505b5086810385528a5181528a516020918201918c019080838360005b8381101562000cb957818101518382015260200162000c9f565b50505050905090810190601f16801562000ce75780820380516001836020036101000a031916815260200191505b5086810384528951815289516020918201918b019080838360005b8381101562000d1c57818101518382015260200162000d02565b50505050905090810190601f16801562000d4a5780820380516001836020036101000a031916815260200191505b5086810383528851815288516020918201918a019080838360005b8381101562000d7f57818101518382015260200162000d65565b50505050905090810190601f16801562000dad5780820380516001836020036101000a031916815260200191505b50868103825287518152875160209182019189019080838360005b8381101562000de257818101518382015260200162000dc8565b50505050905090810190601f16801562000e105780820380516001836020036101000a031916815260200191505b509b505050505050505050505050604051809103906000f08015801562000e3b573d6000803e3d6000fd5b509050806001866040518082805190602001908083835b6020831062000e735780518252601f19909201916020918201910162000e52565b51815160209384036101000a60001901801990921691161790529201948552506040519384900381018420805473ffffffffffffffffffffffffffffffffffffffff1916600160a060020a03969096169590951790945550508651600292600192899290918291908401908083835b6020831062000f035780518252601f19909201916020918201910162000ee2565b51815160001960209485036101000a01908116901991909116179052920194855250604080519485900382018520548654600181018855600097885283882001805473ffffffffffffffffffffffffffffffffffffffff1916600160a060020a039092169190911790553380865260608684018181528b51918801919091528a517f49e41cf7f645152827d5c078de6829eb2dc16ae1ac0a4cbe6025d392d3cd70769892978c97508e96509491938501926080860192880191908190849084905b8381101562000fde57818101518382015260200162000fc4565b50505050905090810190601f1680156200100c5780820380516001836020036101000a031916815260200191505b50838103825284518152845160209182019186019080838360005b838110156200104157818101518382015260200162001027565b50505050905090810190601f1680156200106f5780820380516001836020036101000a031916815260200191505b509550505050505060405180910390a1505050505050565b60606002805480602002602001604051908101604052809291908181526020018280548015620010e157602002820191906000526020600020905b8154600160a060020a03168152600190910190602001808311620010c2575b5050505050905090565b600280546060919060001981019081106200110257fe5b6000918252602082200154604080517fd13319c40000000000000000000000000000000000000000000000000000000081529051600160a060020a039092169263d13319c492600480840193829003018186803b1580156200116357600080fd5b505afa15801562001178573d6000803e3d6000fd5b505050506040513d6000823e601f3d908101601f191682016040526020811015620011a257600080fd5b810190808051640100000000811115620011bb57600080fd5b82016020810184811115620011cf57600080fd5b8151640100000000811182820187101715620011ea57600080fd5b509094505050505090565b6040516106d680620012078339019056fe608060405234801561001057600080fd5b506040516106d63803806106d6833981018060405260c081101561003357600080fd5b81516020830180519193928301929164010000000081111561005457600080fd5b8201602081018481111561006757600080fd5b815164010000000081118282018710171561008157600080fd5b5050929190602001805164010000000081111561009d57600080fd5b820160208101848111156100b057600080fd5b81516401000000008111828201871017156100ca57600080fd5b505092919060200180516401000000008111156100e657600080fd5b820160208101848111156100f957600080fd5b815164010000000081118282018710171561011357600080fd5b5050929190602001805164010000000081111561012f57600080fd5b8201602081018481111561014257600080fd5b815164010000000081118282018710171561015c57600080fd5b5050929190602001805164010000000081111561017857600080fd5b8201602081018481111561018b57600080fd5b81516401000000008111828201871017156101a557600080fd5b505060008054600160a060020a031916600160a060020a038b1617905586519093506101da9250600291506020870190610236565b5082516101ee906003906020860190610236565b508151610202906004906020850190610236565b508051610216906005906020840190610236565b50845161022a906001906020880190610236565b505050505050506102d1565b828054600181600116156101000203166002900490600052602060002090601f016020900481019282601f1061027757805160ff19168380011785556102a4565b828001600101855582156102a4579182015b828111156102a4578251825591602001919060010190610289565b506102b09291506102b4565b5090565b6102ce91905b808211156102b057600081556001016102ba565b90565b6103f6806102e06000396000f3fe6080604052600436106100775763ffffffff7c0100000000000000000000000000000000000000000000000000000000600035041663430fe9c1811461007c5780634c9f9fc314610106578063a4300ee51461011b578063b7ed5abc14610159578063ce6d41de1461016e578063d13319c414610183575b600080fd5b34801561008857600080fd5b50610091610198565b6040805160208082528351818301528351919283929083019185019080838360005b838110156100cb5781810151838201526020016100b3565b50505050905090810190601f1680156100f85780820380516001836020036101000a031916815260200191505b509250505060405180910390f35b34801561011257600080fd5b5061009161022e565b34801561012757600080fd5b5061013061028e565b6040805173ffffffffffffffffffffffffffffffffffffffff9092168252519081900360200190f35b34801561016557600080fd5b506100916102aa565b34801561017a57600080fd5b5061009161030b565b34801561018f57600080fd5b5061009161036c565b60038054604080516020601f60026000196101006001881615020190951694909404938401819004810282018101909252828152606093909290918301828280156102245780601f106101f957610100808354040283529160200191610224565b820191906000526020600020905b81548152906001019060200180831161020757829003601f168201915b5050505050905090565b60018054604080516020601f600260001961010087891615020190951694909404938401819004810282018101909252828152606093909290918301828280156102245780601f106101f957610100808354040283529160200191610224565b60005473ffffffffffffffffffffffffffffffffffffffff1690565b60058054604080516020601f60026000196101006001881615020190951694909404938401819004810282018101909252828152606093909290918301828280156102245780601f106101f957610100808354040283529160200191610224565b60048054604080516020601f60026000196101006001881615020190951694909404938401819004810282018101909252828152606093909290918301828280156102245780601f106101f957610100808354040283529160200191610224565b60028054604080516020601f60001961010060018716150201909416859004938401819004810282018101909252828152606093909290918301828280156102245780601f106101f95761010080835404028352916020019161022456fea165627a7a72305820fbb785ea4a1983aaac09f02495a11576d6390b9b6d071409bf34091009d7a24a0029a165627a7a72305820fd200e3e25d0f5bd3cb995fc5c34cc5c448c7ccc58c6253dd5511bf6f2ed433d0029a165627a7a7230582054a37e35aed37911b754029bea75821518d20094196e9b3abe22bbf79b4aa9a30029",
  "source": "pragma solidity ^0.5.0;\n\nimport \"./repo.sol\";\n\ncontract createRepo{\n    repo[] repos;\n    //map\n    event repoCreated(string _repoName,address repoAddress, string _repoDescription, address _repoOwner, uint _creationDate);\n\n    function createNewRepo(string memory _repoName, string memory _repoDescription) public returns(address){\n        repo Repo = new repo(_repoName, _repoDescription);\n        repos.push(Repo);\n        emit repoCreated(_repoName,address(Repo) ,_repoDescription, msg.sender, now);\n        return(address(Repo));\n    }\n}",
  "sourcePath": "/home/yehia/Documents/Projects/hackathon/BlockHub/contracts/createRepo.sol",
  "compiler": {
    "name": "solc",
    "version": "0.5.0+commit.1d4f565a.Emscripten.clang"
  },
  "schemaVersion": "3.0.8",
  "updatedAt": "2019-08-01T15:19:28.197Z",
  "devdoc": {
    "methods": {}
  },
  "userdoc": {
    "methods": {}
  }
}