{
  "contractName": "issue",
  "abi": [
    {
      "inputs": [
        {
          "name": "_repoOwner",
          "type": "address"
        }
      ],
      "payable": false,
      "stateMutability": "nonpayable",
      "type": "constructor"
    },
    {
      "constant": false,
      "inputs": [],
      "name": "close",
      "outputs": [],
      "payable": false,
      "stateMutability": "nonpayable",
      "type": "function"
    },
    {
      "constant": false,
      "inputs": [
        {
          "name": "commitRequest",
          "type": "address"
        }
      ],
      "name": "pullRequest",
      "outputs": [],
      "payable": false,
      "stateMutability": "nonpayable",
      "type": "function"
    }
  ],
  "bytecode": "0x608060405234801561001057600080fd5b5060405160208061021c8339810180604052602081101561003057600080fd5b505160008054600160a060020a03909216600160a060020a031992831617905560018054909116331790556101b28061006a6000396000f3fe60806040526004361061004b5763ffffffff7c01000000000000000000000000000000000000000000000000000000006000350416633c4ffc94811461005057806343d726d614610092575b600080fd5b34801561005c57600080fd5b506100906004803603602081101561007357600080fd5b503573ffffffffffffffffffffffffffffffffffffffff166100a7565b005b34801561009e57600080fd5b5061009061011e565b600280546001810182556000919091527f405787fa12a823e0f2b7631cc41b3ba8828b3321ca811111fa75cd3aa3bb5ace0180547fffffffffffffffffffffffff00000000000000000000000000000000000000001673ffffffffffffffffffffffffffffffffffffffff92909216919091179055565b600054339073ffffffffffffffffffffffffffffffffffffffff16811480610160575060015473ffffffffffffffffffffffffffffffffffffffff8281169116145b151561016b57600080fd5b60015473ffffffffffffffffffffffffffffffffffffffff16fffea165627a7a72305820cdac98264c599703b2c90df38c3689cefb0650050bc180c2e0d2ad7b73c63b230029",
  "source": "pragma solidity ^0.5.0;\nimport \"./commit.sol\"; \ncontract issue{\n    address payable repoOwner;\n    address payable issueCreator;\n    commit[] CommitsRequest;\n    constructor(address payable _repoOwner) public{\n        repoOwner= _repoOwner;\n        issueCreator = msg.sender;\n    }\n    modifier onlyPermited(address closer){\n        require(closer == repoOwner || closer == issueCreator);\n         _;\n    }\n   function close() public onlyPermited(msg.sender) {\n       selfdestruct(issueCreator);\n   }\n   function pullRequest(commit commitRequest) public{\n       CommitsRequest.push(commitRequest);\n   }\n}",
  "sourcePath": "/home/yehia/Documents/Projects/hackathon/BlockHub/contracts/issue.sol",
  "compiler": {
    "name": "solc",
    "version": "0.5.0+commit.1d4f565a.Emscripten.clang"
  },
  "schemaVersion": "3.0.8",
  "updatedAt": "2019-08-08T10:18:25.069Z",
  "devdoc": {
    "methods": {}
  },
  "userdoc": {
    "methods": {}
  }
}