{
  "contractName": "issue",
  "abi": [
    {
      "inputs": [
        {
          "name": "_issueName",
          "type": "string"
        },
        {
          "name": "_issueDescription",
          "type": "string"
        }
      ],
      "payable": false,
      "stateMutability": "nonpayable",
      "type": "constructor"
    },
    {
      "constant": false,
      "inputs": [],
      "name": "close",
      "outputs": [],
      "payable": false,
      "stateMutability": "nonpayable",
      "type": "function"
    },
    {
      "constant": false,
      "inputs": [
        {
          "name": "commitRequest",
          "type": "address"
        }
      ],
      "name": "pullRequest",
      "outputs": [],
      "payable": false,
      "stateMutability": "nonpayable",
      "type": "function"
    }
  ],
  "bytecode": "0x608060405234801561001057600080fd5b506040516103653803806103658339810180604052604081101561003357600080fd5b81019080805164010000000081111561004b57600080fd5b8201602081018481111561005e57600080fd5b815164010000000081118282018710171561007857600080fd5b5050929190602001805164010000000081111561009457600080fd5b820160208101848111156100a757600080fd5b81516401000000008111828201871017156100c157600080fd5b505060018054600160a060020a0319163317905584519093506100ed9250600291506020850190610109565b508051610101906003906020840190610109565b5050506101a4565b828054600181600116156101000203166002900490600052602060002090601f016020900481019282601f1061014a57805160ff1916838001178555610177565b82800160010185558215610177579182015b8281111561017757825182559160200191906001019061015c565b50610183929150610187565b5090565b6101a191905b80821115610183576000815560010161018d565b90565b6101b2806101b36000396000f3fe60806040526004361061004b5763ffffffff7c01000000000000000000000000000000000000000000000000000000006000350416633c4ffc94811461005057806343d726d614610092575b600080fd5b34801561005c57600080fd5b506100906004803603602081101561007357600080fd5b503573ffffffffffffffffffffffffffffffffffffffff166100a7565b005b34801561009e57600080fd5b5061009061011e565b600480546001810182556000919091527f8a35acfbc15ff81a39ae7d344fd709f28e8600b4aa8c65c6b64bfe7fe36bd19b0180547fffffffffffffffffffffffff00000000000000000000000000000000000000001673ffffffffffffffffffffffffffffffffffffffff92909216919091179055565b600054339073ffffffffffffffffffffffffffffffffffffffff16811480610160575060015473ffffffffffffffffffffffffffffffffffffffff8281169116145b151561016b57600080fd5b60015473ffffffffffffffffffffffffffffffffffffffff16fffea165627a7a72305820dd6d59526a360b8c0b1416eeeaf9b9f81d72c26d994622927de43e7fa9b7ee570029",
  "source": "pragma solidity ^0.5.0;\nimport \"./commit.sol\";\ncontract issue{\n    address payable repoOwner;\n    address payable issueCreator;\n    string issueName;\n    string issueDescription;\n    commit[] CommitsRequest;\n    constructor(string memory _issueName, string memory _issueDescription) public{\n        issueCreator = msg.sender;\n        issueName = _issueName;\n        issueDescription = _issueDescription;\n    }\n    modifier onlyPermitted(address closer){\n        require(closer == repoOwner || closer == issueCreator);\n         _;\n    }\n   function close() public onlyPermitted(msg.sender) {\n       selfdestruct(issueCreator);\n   }\n   function pullRequest(commit commitRequest) public{\n       CommitsRequest.push(commitRequest);\n   }\n}",
  "sourcePath": "/home/yehia/Documents/Projects/hackathon/BlockHub/contracts/issue.sol",
  "compiler": {
    "name": "solc",
    "version": "0.5.0+commit.1d4f565a.Emscripten.clang"
  },
  "schemaVersion": "3.0.8",
  "updatedAt": "2019-08-26T10:23:02.853Z",
  "devdoc": {
    "methods": {}
  },
  "userdoc": {
    "methods": {}
  }
}