{
  "contractName": "repo",
  "abi": [
    {
      "inputs": [
        {
          "name": "_repoName",
          "type": "string"
        },
        {
          "name": "_repoDescription",
          "type": "string"
        }
      ],
      "payable": false,
      "stateMutability": "nonpayable",
      "type": "constructor"
    },
    {
      "anonymous": false,
      "inputs": [
        {
          "indexed": false,
          "name": "collaborator",
          "type": "address"
        },
        {
          "indexed": false,
          "name": "repoAddress",
          "type": "address"
        },
        {
          "indexed": false,
          "name": "repoName",
          "type": "string"
        }
      ],
      "name": "collaboratorAdded",
      "type": "event"
    },
    {
      "anonymous": false,
      "inputs": [
        {
          "indexed": false,
          "name": "collaborator",
          "type": "address"
        },
        {
          "indexed": false,
          "name": "repoAddress",
          "type": "address"
        },
        {
          "indexed": false,
          "name": "repoName",
          "type": "string"
        }
      ],
      "name": "collaboratorRemoved",
      "type": "event"
    },
    {
      "anonymous": false,
      "inputs": [
        {
          "indexed": false,
          "name": "repoName",
          "type": "string"
        },
        {
          "indexed": false,
          "name": "branchName",
          "type": "string"
        }
      ],
      "name": "branchCreated",
      "type": "event"
    },
    {
      "anonymous": false,
      "inputs": [
        {
          "indexed": false,
          "name": "issueLabel",
          "type": "string"
        },
        {
          "indexed": false,
          "name": "issueMessage",
          "type": "string"
        }
      ],
      "name": "issueCreated",
      "type": "event"
    },
    {
      "constant": false,
      "inputs": [
        {
          "name": "_collaborator",
          "type": "address"
        }
      ],
      "name": "addColaborator",
      "outputs": [],
      "payable": false,
      "stateMutability": "nonpayable",
      "type": "function"
    },
    {
      "constant": false,
      "inputs": [
        {
          "name": "_collaborator",
          "type": "address"
        }
      ],
      "name": "removeCollaborator",
      "outputs": [],
      "payable": false,
      "stateMutability": "nonpayable",
      "type": "function"
    },
    {
      "constant": false,
      "inputs": [
        {
          "name": "_branchName",
          "type": "string"
        }
      ],
      "name": "makeBranch",
      "outputs": [],
      "payable": false,
      "stateMutability": "nonpayable",
      "type": "function"
    },
    {
      "constant": false,
      "inputs": [
        {
          "name": "_firstBranchName",
          "type": "string"
        },
        {
          "name": "_secondBranchName",
          "type": "string"
        }
      ],
      "name": "merge",
      "outputs": [
        {
          "name": "",
          "type": "uint8"
        }
      ],
      "payable": false,
      "stateMutability": "nonpayable",
      "type": "function"
    },
    {
      "constant": false,
      "inputs": [
        {
          "name": "_issueLabel",
          "type": "string"
        },
        {
          "name": "_issueMessage",
          "type": "string"
        }
      ],
      "name": "makeIssue",
      "outputs": [],
      "payable": false,
      "stateMutability": "nonpayable",
      "type": "function"
    }
  ],
  "bytecode": "0x60806040523480156200001157600080fd5b50604051620047b6380380620047b6833981018060405260408110156200003757600080fd5b8101908080516401000000008111156200005057600080fd5b820160208101848111156200006457600080fd5b81516401000000008111828201871017156200007f57600080fd5b505092919060200180516401000000008111156200009c57600080fd5b82016020810184811115620000b057600080fd5b8151640100000000811182820187101715620000cb57600080fd5b50508451909350620000e7925060009150602085019062000360565b508051620000fd90600190602084019062000360565b50600280546001600160a01b03191633908117909155600090815260086020526040808220805460ff1916600117905542600355516060919082906200014390620003e5565b60408082526006908201527f6d61737465720000000000000000000000000000000000000000000000000000606082015260806020808301828152845192840192909252835183929160a0840191868201910280838360005b83811015620001b65781810151838201526020016200019c565b505050509050019350505050604051809103906000f080158015620001df573d6000803e3d6000fd5b50604080517f6d61737465720000000000000000000000000000000000000000000000000000815260076006820152815190819003602601812080546001600160a01b0385166001600160a01b03199182168117909255600580546001818101835560009283527f036b6384b5eca791c62761152d0c79bb0604c104a5fb6f4eb0703f3154bb3db090910180549093169093179091558383528054600292811615610100026000190116919091049282018390529293507fcc3654bbee02bd3fae9c6595c93933c3b2d0e04395572bb318cdf083a749cb7e929181906020820190606083019085908015620003185780601f10620002ec5761010080835404028352916020019162000318565b820191906000526020600020905b815481529060010190602001808311620002fa57829003601f168201915b5050928303905250600681527f6d6173746572000000000000000000000000000000000000000000000000000060208201526040805191829003019150a15050505062000413565b828054600181600116156101000203166002900490600052602060002090601f016020900481019282601f10620003a357805160ff1916838001178555620003d3565b82800160010185558215620003d3579182015b82811115620003d3578251825591602001919060010190620003b6565b50620003e1929150620003f3565b5090565b611421806200339583390190565b6200041091905b80821115620003e15760008155600101620003fa565b90565b612f7280620004236000396000f3fe60806040523480156200001157600080fd5b50600436106200005e5760003560e01c80633109c19d14620000635780634665f42e146200008e5780636794864c14620001d65780636882e174146200028057806386e7a51714620002a9575b600080fd5b6200008c600480360360208110156200007b57600080fd5b50356001600160a01b0316620003db565b005b620001c060048036036040811015620000a657600080fd5b810190602081018135600160201b811115620000c157600080fd5b820183602082011115620000d457600080fd5b803590602001918460018302840111600160201b83111715620000f657600080fd5b91908080601f0160208091040260200160405190810160405280939291908181526020018383808284376000920191909152509295949360208101935035915050600160201b8111156200014957600080fd5b8201836020820111156200015c57600080fd5b803590602001918460018302840111600160201b831117156200017e57600080fd5b91908080601f016020809104026020016040519081016040528093929190818152602001838380828437600092019190915250929550620004e2945050505050565b6040805160ff9092168252519081900360200190f35b6200008c60048036036020811015620001ee57600080fd5b810190602081018135600160201b8111156200020957600080fd5b8201836020820111156200021c57600080fd5b803590602001918460018302840111600160201b831117156200023e57600080fd5b91908080601f01602080910402602001604051908101604052809392919081815260200183838082843760009201919091525092955062000a4b945050505050565b6200008c600480360360208110156200029857600080fd5b50356001600160a01b031662000e52565b6200008c60048036036040811015620002c157600080fd5b810190602081018135600160201b811115620002dc57600080fd5b820183602082011115620002ef57600080fd5b803590602001918460018302840111600160201b831117156200031157600080fd5b91908080601f0160208091040260200160405190810160405280939291908181526020018383808284376000920191909152509295949360208101935035915050600160201b8111156200036457600080fd5b8201836020820111156200037757600080fd5b803590602001918460018302840111600160201b831117156200039957600080fd5b91908080601f01602080910402602001604051908101604052809392919081815260200183838082843760009201919091525092955062000f5d945050505050565b3360009081526008602052604090205460ff161515600114620003fd57600080fd5b6001600160a01b0381166000818152600860209081526040808320805460ff1916905580519384523091840182905260609084018181528354600260001960018316156101000201909116049185018290527fda5be73e51d6f5cb5ffb0a89d4be5b7af868e0cc1ad3cdd45c39f5b1c1fbda5094869492909190608083019084908015620004cf5780601f10620004a357610100808354040283529160200191620004cf565b820191906000526020600020905b815481529060010190602001808311620004b157829003601f168201915b505094505050505060405180910390a150565b6000806007846040518082805190602001908083835b60208310620005195780518252601f199092019160209182019101620004f8565b51815160209384036101000a600019018019909216911617905292019485525060405193849003810184205487516001600160a01b03909116955060009460079450889350918291908401908083835b602083106200058a5780518252601f19909201916020918201910162000569565b51815160209384036101000a60001901801990921691161790529201948552506040805194859003909101842054600160e01b63c7335c9102855290516001600160a01b039182169550606094918716935063c7335c9192506004808301926000929190829003018186803b1580156200060357600080fd5b505afa15801562000618573d6000803e3d6000fd5b505050506040513d6000823e601f3d908101601f1916820160405260208110156200064257600080fd5b810190808051600160201b8111156200065a57600080fd5b820160208101848111156200066e57600080fd5b81518560208202830111600160201b821117156200068b57600080fd5b505092919050505090506060826001600160a01b031663c7335c916040518163ffffffff1660e01b815260040160006040518083038186803b158015620006d157600080fd5b505afa158015620006e6573d6000803e3d6000fd5b505050506040513d6000823e601f3d908101601f1916820160405260208110156200071057600080fd5b810190808051600160201b8111156200072857600080fd5b820160208101848111156200073c57600080fd5b81518560208202830111600160201b821117156200075957600080fd5b50509291905050509050806001825103815181106200077457fe5b60200260200101516001600160a01b031663d13319c46040518163ffffffff1660e01b815260040160006040518083038186803b158015620007b557600080fd5b505afa158015620007ca573d6000803e3d6000fd5b505050506040513d6000823e601f3d908101601f191682016040526020811015620007f457600080fd5b810190808051600160201b8111156200080c57600080fd5b820160208101848111156200082057600080fd5b8151600160201b8111828201871017156200083a57600080fd5b50509291905050506040516020018082805190602001908083835b60208310620008765780518252601f19909201916020918201910162000855565b6001836020036101000a0380198251168184511680821785525050505050509050019150506040516020818303038152906040528051906020012082600184510381518110620008c257fe5b60200260200101516001600160a01b031663d13319c46040518163ffffffff1660e01b815260040160006040518083038186803b1580156200090357600080fd5b505afa15801562000918573d6000803e3d6000fd5b505050506040513d6000823e601f3d908101601f1916820160405260208110156200094257600080fd5b810190808051600160201b8111156200095a57600080fd5b820160208101848111156200096e57600080fd5b8151600160201b8111828201871017156200098857600080fd5b50509291905050506040516020018082805190602001908083835b60208310620009c45780518252601f199092019160209182019101620009a3565b6001836020036101000a03801982511681845116808217855250505050505090500191505060405160208183030381529060405280519060200120141562000a1457600094505050505062000a45565b81518151111562000a385762000a2c8183866200115f565b94505050505062000a45565b62000a2c8282856200115f565b92915050565b600081600560008154811062000a5d57fe5b600091825260208220015460408051600160e01b63c7335c9102815290516001600160a01b039092169263c7335c9192600480840193829003018186803b15801562000aa857600080fd5b505afa15801562000abd573d6000803e3d6000fd5b505050506040513d6000823e601f3d908101601f19168201604052602081101562000ae757600080fd5b810190808051600160201b81111562000aff57600080fd5b8201602081018481111562000b1357600080fd5b81518560208202830111600160201b8211171562000b3057600080fd5b505092919050505060405162000b469062001934565b604080825283519082015282518190602080830191606084019187019080838360005b8381101562000b8357818101518382015260200162000b69565b50505050905090810190601f16801562000bb15780820380516001836020036101000a031916815260200191505b508381038252845181528451602091820191808701910280838360005b8381101562000be857818101518382015260200162000bce565b50505050905001945050505050604051809103906000f08015801562000c12573d6000803e3d6000fd5b509050806007836040518082805190602001908083835b6020831062000c4a5780518252601f19909201916020918201910162000c29565b51815160209384036101000a6000190180199092169116179052920194855250604051938490038101842080546001600160a01b0319166001600160a01b03969096169590951790945550508351600592600792869290918291908401908083835b6020831062000ccd5780518252601f19909201916020918201910162000cac565b518151600019602094850361010090810a8201928316921993909316919091179092529490920196875260408051978890038201882054895460018181018c5560009b8c52848c2090910180546001600160a01b0319166001600160a01b03909316929092179091558189528954600291811615909602909301909416919091049286018390527fcc3654bbee02bd3fae9c6595c93933c3b2d0e04395572bb318cdf083a749cb7e969589955093508392908301915060608301908690801562000ddb5780601f1062000daf5761010080835404028352916020019162000ddb565b820191906000526020600020905b81548152906001019060200180831162000dbd57829003601f168201915b5050838103825284518152845160209182019186019080838360005b8381101562000e1157818101518382015260200162000df7565b50505050905090810190601f16801562000e3f5780820380516001836020036101000a031916815260200191505b5094505050505060405180910390a15050565b3360009081526008602052604090205460ff16151560011462000e7457600080fd5b6004805460018181019092557f8a35acfbc15ff81a39ae7d344fd709f28e8600b4aa8c65c6b64bfe7fe36bd19b0180546001600160a01b0384166001600160a01b031990911681179091556000818152600860209081526040808320805460ff19168617905580519384523091840182905260609084018181528354600296811615610100026000190116959095049084018190527f126c0c1cb9112bc67424ee87f5f11d2f169bf930d54b28db48e81737dec47eb594869492939291608083019084908015620004cf5780601f10620004a357610100808354040283529160200191620004cf565b6006828260405162000f6f9062001942565b604080825283519082015282518190602080830191606084019187019080838360005b8381101562000fac57818101518382015260200162000f92565b50505050905090810190601f16801562000fda5780820380516001836020036101000a031916815260200191505b50838103825284518152845160209182019186019080838360005b838110156200100f57818101518382015260200162000ff5565b50505050905090810190601f1680156200103d5780820380516001836020036101000a031916815260200191505b50945050505050604051809103906000f08015801562001061573d6000803e3d6000fd5b5081546001810183556000928352602080842090910180546001600160a01b0319166001600160a01b0393909316929092179091556040805181815285519181019190915284517f6a2048571c488b823b275fdce75f8182edfa62343dae464560c00ea49a30be409386938693928392838301926060850192908801918190849084905b83811015620010ff578181015183820152602001620010e5565b50505050905090810190601f1680156200112d5780820380516001836020036101000a031916815260200191505b5083810382528451815284516020918201918601908083836000831562000e1157818101518382015260200162000df7565b60008083518551039050836001855103815181106200117a57fe5b60200260200101516001600160a01b03168582600188510303815181106200119e57fe5b60200260200101516001600160a01b031614620011c05760639150506200192d565b835160005b828110156200192557846001600160a01b03166379397dca888481518110620011ea57fe5b60200260200101516001600160a01b031663a4300ee56040518163ffffffff1660e01b815260040160206040518083038186803b1580156200122b57600080fd5b505afa15801562001240573d6000803e3d6000fd5b505050506040513d60208110156200125757600080fd5b505189518a90869081106200126857fe5b60200260200101516001600160a01b0316634c9f9fc36040518163ffffffff1660e01b815260040160006040518083038186803b158015620012a957600080fd5b505afa158015620012be573d6000803e3d6000fd5b505050506040513d6000823e601f3d908101601f191682016040526020811015620012e857600080fd5b810190808051600160201b8111156200130057600080fd5b820160208101848111156200131457600080fd5b8151600160201b8111828201871017156200132e57600080fd5b50509291905050508a86815181106200134357fe5b60200260200101516001600160a01b031663430fe9c16040518163ffffffff1660e01b815260040160006040518083038186803b1580156200138457600080fd5b505afa15801562001399573d6000803e3d6000fd5b505050506040513d6000823e601f3d908101601f191682016040526020811015620013c357600080fd5b810190808051600160201b811115620013db57600080fd5b82016020810184811115620013ef57600080fd5b8151600160201b8111828201871017156200140957600080fd5b50509291905050508b87815181106200141e57fe5b60200260200101516001600160a01b031663d13319c46040518163ffffffff1660e01b815260040160006040518083038186803b1580156200145f57600080fd5b505afa15801562001474573d6000803e3d6000fd5b505050506040513d6000823e601f3d908101601f1916820160405260208110156200149e57600080fd5b810190808051600160201b811115620014b657600080fd5b82016020810184811115620014ca57600080fd5b8151600160201b811182820187101715620014e457600080fd5b50509291905050508c8881518110620014f957fe5b60200260200101516001600160a01b031663ce6d41de6040518163ffffffff1660e01b815260040160006040518083038186803b1580156200153a57600080fd5b505afa1580156200154f573d6000803e3d6000fd5b505050506040513d6000823e601f3d908101601f1916820160405260208110156200157957600080fd5b810190808051600160201b8111156200159157600080fd5b82016020810184811115620015a557600080fd5b8151600160201b811182820187101715620015bf57600080fd5b50509291905050508d8981518110620015d457fe5b60200260200101516001600160a01b031663b7ed5abc6040518163ffffffff1660e01b815260040160006040518083038186803b1580156200161557600080fd5b505afa1580156200162a573d6000803e3d6000fd5b505050506040513d6000823e601f3d908101601f1916820160405260208110156200165457600080fd5b810190808051600160201b8111156200166c57600080fd5b820160208101848111156200168057600080fd5b8151600160201b8111828201871017156200169a57600080fd5b50509291905050506040518763ffffffff1660e01b815260040180876001600160a01b03166001600160a01b03168152602001806020018060200180602001806020018060200186810386528b818151815260200191508051906020019080838360005b8381101562001718578181015183820152602001620016fe565b50505050905090810190601f168015620017465780820380516001836020036101000a031916815260200191505b5086810385528a5181528a516020918201918c019080838360005b838110156200177b57818101518382015260200162001761565b50505050905090810190601f168015620017a95780820380516001836020036101000a031916815260200191505b5086810384528951815289516020918201918b019080838360005b83811015620017de578181015183820152602001620017c4565b50505050905090810190601f1680156200180c5780820380516001836020036101000a031916815260200191505b5086810383528851815288516020918201918a019080838360005b838110156200184157818101518382015260200162001827565b50505050905090810190601f1680156200186f5780820380516001836020036101000a031916815260200191505b50868103825287518152875160209182019189019080838360005b83811015620018a45781810151838201526020016200188a565b50505050905090810190601f168015620018d25780820380516001836020036101000a031916815260200191505b509b505050505050505050505050600060405180830381600087803b158015620018fb57600080fd5b505af115801562001910573d6000803e3d6000fd5b505050600192830192919091019050620011c5565b506001925050505b9392505050565b611421806200195183390190565b6101d58062002d728339019056fe60806040523480156200001157600080fd5b506040516200142138038062001421833981018060405260408110156200003757600080fd5b8101908080516401000000008111156200005057600080fd5b820160208101848111156200006457600080fd5b81516401000000008111828201871017156200007f57600080fd5b505092919060200180516401000000008111156200009c57600080fd5b82016020810184811115620000b057600080fd5b8151856020820283011164010000000082111715620000ce57600080fd5b50508451909350620000ea9250600091506020850190620002a5565b508051620001009060029060208401906200032a565b5062000112816200011a60201b60201c565b5050620003d7565b60005b8151811015620002a1578181815181106200013457fe5b602002602001015160018383815181106200014b57fe5b60200260200101516001600160a01b031663d13319c46040518163ffffffff1660e01b815260040160006040518083038186803b1580156200018c57600080fd5b505afa158015620001a1573d6000803e3d6000fd5b505050506040513d6000823e601f3d908101601f191682016040526020811015620001cb57600080fd5b810190808051640100000000811115620001e457600080fd5b82016020810184811115620001f857600080fd5b81516401000000008111828201871017156200021357600080fd5b50509291905050506040518082805190602001908083835b602083106200024c5780518252601f1990920191602091820191016200022b565b51815160209384036101000a6000190180199092169116179052920194855250604051938490030190922080546001600160a01b0319166001600160a01b03949094169390931790925550506001016200011d565b5050565b828054600181600116156101000203166002900490600052602060002090601f016020900481019282601f10620002e857805160ff191683800117855562000318565b8280016001018555821562000318579182015b8281111562000318578251825591602001919060010190620002fb565b506200032692915062000390565b5090565b82805482825590600052602060002090810192821562000382579160200282015b828111156200038257825182546001600160a01b0319166001600160a01b039091161782556020909201916001909101906200034b565b5062000326929150620003b0565b620003ad91905b8082111562000326576000815560010162000397565b90565b620003ad91905b80821115620003265780546001600160a01b0319168155600101620003b7565b61103a80620003e76000396000f3fe608060405234801561001057600080fd5b50600436106100415760003560e01c806379397dca14610046578063c7335c9114610310578063eae2db7a14610368575b600080fd5b61030e600480360360c081101561005c57600080fd5b6001600160a01b038235169190810190604081016020820135600160201b81111561008657600080fd5b82018360208201111561009857600080fd5b803590602001918460018302840111600160201b831117156100b957600080fd5b91908080601f0160208091040260200160405190810160405280939291908181526020018383808284376000920191909152509295949360208101935035915050600160201b81111561010b57600080fd5b82018360208201111561011d57600080fd5b803590602001918460018302840111600160201b8311171561013e57600080fd5b91908080601f0160208091040260200160405190810160405280939291908181526020018383808284376000920191909152509295949360208101935035915050600160201b81111561019057600080fd5b8201836020820111156101a257600080fd5b803590602001918460018302840111600160201b831117156101c357600080fd5b91908080601f0160208091040260200160405190810160405280939291908181526020018383808284376000920191909152509295949360208101935035915050600160201b81111561021557600080fd5b82018360208201111561022757600080fd5b803590602001918460018302840111600160201b8311171561024857600080fd5b91908080601f0160208091040260200160405190810160405280939291908181526020018383808284376000920191909152509295949360208101935035915050600160201b81111561029a57600080fd5b8201836020820111156102ac57600080fd5b803590602001918460018302840111600160201b831117156102cd57600080fd5b91908080601f0160208091040260200160405190810160405280939291908181526020018383808284376000920191909152509295506103e5945050505050565b005b61031861085b565b60408051602080825283518183015283519192839290830191858101910280838360005b8381101561035457818101518382015260200161033c565b505050509050019250505060405180910390f35b6103706108bd565b6040805160208082528351818301528351919283929083019185019080838360005b838110156103aa578181015183820152602001610392565b50505050905090810190601f1680156103d75780820380516001836020036101000a031916815260200191505b509250505060405180910390f35b60008686868686866040516103f9906109a8565b80876001600160a01b03166001600160a01b03168152602001806020018060200180602001806020018060200186810386528b818151815260200191508051906020019080838360005b8381101561045b578181015183820152602001610443565b50505050905090810190601f1680156104885780820380516001836020036101000a031916815260200191505b5086810385528a5181528a516020918201918c019080838360005b838110156104bb5781810151838201526020016104a3565b50505050905090810190601f1680156104e85780820380516001836020036101000a031916815260200191505b5086810384528951815289516020918201918b019080838360005b8381101561051b578181015183820152602001610503565b50505050905090810190601f1680156105485780820380516001836020036101000a031916815260200191505b5086810383528851815288516020918201918a019080838360005b8381101561057b578181015183820152602001610563565b50505050905090810190601f1680156105a85780820380516001836020036101000a031916815260200191505b50868103825287518152875160209182019189019080838360005b838110156105db5781810151838201526020016105c3565b50505050905090810190601f1680156106085780820380516001836020036101000a031916815260200191505b509b505050505050505050505050604051809103906000f080158015610632573d6000803e3d6000fd5b509050806001866040518082805190602001908083835b602083106106685780518252601f199092019160209182019101610649565b51815160209384036101000a6000190180199092169116179052920194855250604051938490038101842080546001600160a01b0319166001600160a01b03969096169590951790945550508651600292600192899290918291908401908083835b602083106106e95780518252601f1990920191602091820191016106ca565b51815160001960209485036101000a0190811690199190911617905292019485525060408051948590038201852054865460018101885560009788528388200180546001600160a01b0319166001600160a01b039092169190911790553380865260608684018181528b51918801919091528a517f49e41cf7f645152827d5c078de6829eb2dc16ae1ac0a4cbe6025d392d3cd70769892978c97508e96509491938501926080860192880191908190849084905b838110156107b557818101518382015260200161079d565b50505050905090810190601f1680156107e25780820380516001836020036101000a031916815260200191505b50838103825284518152845160209182019186019080838360005b838110156108155781810151838201526020016107fd565b50505050905090810190601f1680156108425780820380516001836020036101000a031916815260200191505b509550505050505060405180910390a150505050505050565b606060028054806020026020016040519081016040528092919081815260200182805480156108b357602002820191906000526020600020905b81546001600160a01b03168152600190910190602001808311610895575b5050505050905090565b600280546060919060001981019081106108d357fe5b600091825260208220015460408051600160e21b63344cc67102815290516001600160a01b039092169263d13319c492600480840193829003018186803b15801561091d57600080fd5b505afa158015610931573d6000803e3d6000fd5b505050506040513d6000823e601f3d908101601f19168201604052602081101561095a57600080fd5b810190808051600160201b81111561097157600080fd5b8201602081018481111561098457600080fd5b8151600160201b81118282018710171561099d57600080fd5b509094505050505090565b610659806109b68339019056fe608060405234801561001057600080fd5b50604051610659380380610659833981018060405260c081101561003357600080fd5b81516020830180519193928301929164010000000081111561005457600080fd5b8201602081018481111561006757600080fd5b815164010000000081118282018710171561008157600080fd5b5050929190602001805164010000000081111561009d57600080fd5b820160208101848111156100b057600080fd5b81516401000000008111828201871017156100ca57600080fd5b505092919060200180516401000000008111156100e657600080fd5b820160208101848111156100f957600080fd5b815164010000000081118282018710171561011357600080fd5b5050929190602001805164010000000081111561012f57600080fd5b8201602081018481111561014257600080fd5b815164010000000081118282018710171561015c57600080fd5b5050929190602001805164010000000081111561017857600080fd5b8201602081018481111561018b57600080fd5b81516401000000008111828201871017156101a557600080fd5b5050600080546001600160a01b0319166001600160a01b038b1617905586519093506101da9250600291506020870190610236565b5082516101ee906003906020860190610236565b508151610202906004906020850190610236565b508051610216906005906020840190610236565b50845161022a906001906020880190610236565b505050505050506102d1565b828054600181600116156101000203166002900490600052602060002090601f016020900481019282601f1061027757805160ff19168380011785556102a4565b828001600101855582156102a4579182015b828111156102a4578251825591602001919060010190610289565b506102b09291506102b4565b5090565b6102ce91905b808211156102b057600081556001016102ba565b90565b610379806102e06000396000f3fe608060405234801561001057600080fd5b50600436106100625760003560e01c8063430fe9c1146100675780634c9f9fc3146100e4578063a4300ee5146100ec578063b7ed5abc14610110578063ce6d41de14610118578063d13319c414610120575b600080fd5b61006f610128565b6040805160208082528351818301528351919283929083019185019080838360005b838110156100a9578181015183820152602001610091565b50505050905090810190601f1680156100d65780820380516001836020036101000a031916815260200191505b509250505060405180910390f35b61006f6101be565b6100f461021e565b604080516001600160a01b039092168252519081900360200190f35b61006f61022d565b61006f61028e565b61006f6102ef565b60038054604080516020601f60026000196101006001881615020190951694909404938401819004810282018101909252828152606093909290918301828280156101b45780601f10610189576101008083540402835291602001916101b4565b820191906000526020600020905b81548152906001019060200180831161019757829003601f168201915b5050505050905090565b60018054604080516020601f600260001961010087891615020190951694909404938401819004810282018101909252828152606093909290918301828280156101b45780601f10610189576101008083540402835291602001916101b4565b6000546001600160a01b031690565b60058054604080516020601f60026000196101006001881615020190951694909404938401819004810282018101909252828152606093909290918301828280156101b45780601f10610189576101008083540402835291602001916101b4565b60048054604080516020601f60026000196101006001881615020190951694909404938401819004810282018101909252828152606093909290918301828280156101b45780601f10610189576101008083540402835291602001916101b4565b60028054604080516020601f60001961010060018716150201909416859004938401819004810282018101909252828152606093909290918301828280156101b45780601f10610189576101008083540402835291602001916101b456fea165627a7a72305820cdd60dcf89b4029996bff27be113524b0be49e7f83ef70a9b1a03f124dddebf40029a165627a7a72305820a53c1e658ebeb1e692df341dcd61fea475a3cd8ba2ee9ee4088a8fc4823663050029608060405234801561001057600080fd5b506040516101d53803806101d58339810180604052604081101561003357600080fd5b81019080805164010000000081111561004b57600080fd5b8201602081018481111561005e57600080fd5b815164010000000081118282018710171561007857600080fd5b5050929190602001805164010000000081111561009457600080fd5b820160208101848111156100a757600080fd5b81516401000000008111828201871017156100c157600080fd5b505084519093506100db92506000915060208501906100f7565b5080516100ef9060019060208401906100f7565b505050610192565b828054600181600116156101000203166002900490600052602060002090601f016020900481019282601f1061013857805160ff1916838001178555610165565b82800160010185558215610165579182015b8281111561016557825182559160200191906001019061014a565b50610171929150610175565b5090565b61018f91905b80821115610171576000815560010161017b565b90565b6035806101a06000396000f3fe6080604052600080fdfea165627a7a723058200ac7f9d722ec6af5f71ac7a273f69b6665647790fba7cf78d8b479acf7c7cc9f0029a165627a7a72305820d94e2f4ea295f1adb2440d68c5a488036d11b9eb931cdcc4db745dd58959875b002960806040523480156200001157600080fd5b506040516200142138038062001421833981018060405260408110156200003757600080fd5b8101908080516401000000008111156200005057600080fd5b820160208101848111156200006457600080fd5b81516401000000008111828201871017156200007f57600080fd5b505092919060200180516401000000008111156200009c57600080fd5b82016020810184811115620000b057600080fd5b8151856020820283011164010000000082111715620000ce57600080fd5b50508451909350620000ea9250600091506020850190620002a5565b508051620001009060029060208401906200032a565b5062000112816200011a60201b60201c565b5050620003d7565b60005b8151811015620002a1578181815181106200013457fe5b602002602001015160018383815181106200014b57fe5b60200260200101516001600160a01b031663d13319c46040518163ffffffff1660e01b815260040160006040518083038186803b1580156200018c57600080fd5b505afa158015620001a1573d6000803e3d6000fd5b505050506040513d6000823e601f3d908101601f191682016040526020811015620001cb57600080fd5b810190808051640100000000811115620001e457600080fd5b82016020810184811115620001f857600080fd5b81516401000000008111828201871017156200021357600080fd5b50509291905050506040518082805190602001908083835b602083106200024c5780518252601f1990920191602091820191016200022b565b51815160209384036101000a6000190180199092169116179052920194855250604051938490030190922080546001600160a01b0319166001600160a01b03949094169390931790925550506001016200011d565b5050565b828054600181600116156101000203166002900490600052602060002090601f016020900481019282601f10620002e857805160ff191683800117855562000318565b8280016001018555821562000318579182015b8281111562000318578251825591602001919060010190620002fb565b506200032692915062000390565b5090565b82805482825590600052602060002090810192821562000382579160200282015b828111156200038257825182546001600160a01b0319166001600160a01b039091161782556020909201916001909101906200034b565b5062000326929150620003b0565b620003ad91905b8082111562000326576000815560010162000397565b90565b620003ad91905b80821115620003265780546001600160a01b0319168155600101620003b7565b61103a80620003e76000396000f3fe608060405234801561001057600080fd5b50600436106100415760003560e01c806379397dca14610046578063c7335c9114610310578063eae2db7a14610368575b600080fd5b61030e600480360360c081101561005c57600080fd5b6001600160a01b038235169190810190604081016020820135600160201b81111561008657600080fd5b82018360208201111561009857600080fd5b803590602001918460018302840111600160201b831117156100b957600080fd5b91908080601f0160208091040260200160405190810160405280939291908181526020018383808284376000920191909152509295949360208101935035915050600160201b81111561010b57600080fd5b82018360208201111561011d57600080fd5b803590602001918460018302840111600160201b8311171561013e57600080fd5b91908080601f0160208091040260200160405190810160405280939291908181526020018383808284376000920191909152509295949360208101935035915050600160201b81111561019057600080fd5b8201836020820111156101a257600080fd5b803590602001918460018302840111600160201b831117156101c357600080fd5b91908080601f0160208091040260200160405190810160405280939291908181526020018383808284376000920191909152509295949360208101935035915050600160201b81111561021557600080fd5b82018360208201111561022757600080fd5b803590602001918460018302840111600160201b8311171561024857600080fd5b91908080601f0160208091040260200160405190810160405280939291908181526020018383808284376000920191909152509295949360208101935035915050600160201b81111561029a57600080fd5b8201836020820111156102ac57600080fd5b803590602001918460018302840111600160201b831117156102cd57600080fd5b91908080601f0160208091040260200160405190810160405280939291908181526020018383808284376000920191909152509295506103e5945050505050565b005b61031861085b565b60408051602080825283518183015283519192839290830191858101910280838360005b8381101561035457818101518382015260200161033c565b505050509050019250505060405180910390f35b6103706108bd565b6040805160208082528351818301528351919283929083019185019080838360005b838110156103aa578181015183820152602001610392565b50505050905090810190601f1680156103d75780820380516001836020036101000a031916815260200191505b509250505060405180910390f35b60008686868686866040516103f9906109a8565b80876001600160a01b03166001600160a01b03168152602001806020018060200180602001806020018060200186810386528b818151815260200191508051906020019080838360005b8381101561045b578181015183820152602001610443565b50505050905090810190601f1680156104885780820380516001836020036101000a031916815260200191505b5086810385528a5181528a516020918201918c019080838360005b838110156104bb5781810151838201526020016104a3565b50505050905090810190601f1680156104e85780820380516001836020036101000a031916815260200191505b5086810384528951815289516020918201918b019080838360005b8381101561051b578181015183820152602001610503565b50505050905090810190601f1680156105485780820380516001836020036101000a031916815260200191505b5086810383528851815288516020918201918a019080838360005b8381101561057b578181015183820152602001610563565b50505050905090810190601f1680156105a85780820380516001836020036101000a031916815260200191505b50868103825287518152875160209182019189019080838360005b838110156105db5781810151838201526020016105c3565b50505050905090810190601f1680156106085780820380516001836020036101000a031916815260200191505b509b505050505050505050505050604051809103906000f080158015610632573d6000803e3d6000fd5b509050806001866040518082805190602001908083835b602083106106685780518252601f199092019160209182019101610649565b51815160209384036101000a6000190180199092169116179052920194855250604051938490038101842080546001600160a01b0319166001600160a01b03969096169590951790945550508651600292600192899290918291908401908083835b602083106106e95780518252601f1990920191602091820191016106ca565b51815160001960209485036101000a0190811690199190911617905292019485525060408051948590038201852054865460018101885560009788528388200180546001600160a01b0319166001600160a01b039092169190911790553380865260608684018181528b51918801919091528a517f49e41cf7f645152827d5c078de6829eb2dc16ae1ac0a4cbe6025d392d3cd70769892978c97508e96509491938501926080860192880191908190849084905b838110156107b557818101518382015260200161079d565b50505050905090810190601f1680156107e25780820380516001836020036101000a031916815260200191505b50838103825284518152845160209182019186019080838360005b838110156108155781810151838201526020016107fd565b50505050905090810190601f1680156108425780820380516001836020036101000a031916815260200191505b509550505050505060405180910390a150505050505050565b606060028054806020026020016040519081016040528092919081815260200182805480156108b357602002820191906000526020600020905b81546001600160a01b03168152600190910190602001808311610895575b5050505050905090565b600280546060919060001981019081106108d357fe5b600091825260208220015460408051600160e21b63344cc67102815290516001600160a01b039092169263d13319c492600480840193829003018186803b15801561091d57600080fd5b505afa158015610931573d6000803e3d6000fd5b505050506040513d6000823e601f3d908101601f19168201604052602081101561095a57600080fd5b810190808051600160201b81111561097157600080fd5b8201602081018481111561098457600080fd5b8151600160201b81118282018710171561099d57600080fd5b509094505050505090565b610659806109b68339019056fe608060405234801561001057600080fd5b50604051610659380380610659833981018060405260c081101561003357600080fd5b81516020830180519193928301929164010000000081111561005457600080fd5b8201602081018481111561006757600080fd5b815164010000000081118282018710171561008157600080fd5b5050929190602001805164010000000081111561009d57600080fd5b820160208101848111156100b057600080fd5b81516401000000008111828201871017156100ca57600080fd5b505092919060200180516401000000008111156100e657600080fd5b820160208101848111156100f957600080fd5b815164010000000081118282018710171561011357600080fd5b5050929190602001805164010000000081111561012f57600080fd5b8201602081018481111561014257600080fd5b815164010000000081118282018710171561015c57600080fd5b5050929190602001805164010000000081111561017857600080fd5b8201602081018481111561018b57600080fd5b81516401000000008111828201871017156101a557600080fd5b5050600080546001600160a01b0319166001600160a01b038b1617905586519093506101da9250600291506020870190610236565b5082516101ee906003906020860190610236565b508151610202906004906020850190610236565b508051610216906005906020840190610236565b50845161022a906001906020880190610236565b505050505050506102d1565b828054600181600116156101000203166002900490600052602060002090601f016020900481019282601f1061027757805160ff19168380011785556102a4565b828001600101855582156102a4579182015b828111156102a4578251825591602001919060010190610289565b506102b09291506102b4565b5090565b6102ce91905b808211156102b057600081556001016102ba565b90565b610379806102e06000396000f3fe608060405234801561001057600080fd5b50600436106100625760003560e01c8063430fe9c1146100675780634c9f9fc3146100e4578063a4300ee5146100ec578063b7ed5abc14610110578063ce6d41de14610118578063d13319c414610120575b600080fd5b61006f610128565b6040805160208082528351818301528351919283929083019185019080838360005b838110156100a9578181015183820152602001610091565b50505050905090810190601f1680156100d65780820380516001836020036101000a031916815260200191505b509250505060405180910390f35b61006f6101be565b6100f461021e565b604080516001600160a01b039092168252519081900360200190f35b61006f61022d565b61006f61028e565b61006f6102ef565b60038054604080516020601f60026000196101006001881615020190951694909404938401819004810282018101909252828152606093909290918301828280156101b45780601f10610189576101008083540402835291602001916101b4565b820191906000526020600020905b81548152906001019060200180831161019757829003601f168201915b5050505050905090565b60018054604080516020601f600260001961010087891615020190951694909404938401819004810282018101909252828152606093909290918301828280156101b45780601f10610189576101008083540402835291602001916101b4565b6000546001600160a01b031690565b60058054604080516020601f60026000196101006001881615020190951694909404938401819004810282018101909252828152606093909290918301828280156101b45780601f10610189576101008083540402835291602001916101b4565b60048054604080516020601f60026000196101006001881615020190951694909404938401819004810282018101909252828152606093909290918301828280156101b45780601f10610189576101008083540402835291602001916101b4565b60028054604080516020601f60001961010060018716150201909416859004938401819004810282018101909252828152606093909290918301828280156101b45780601f10610189576101008083540402835291602001916101b456fea165627a7a72305820cdd60dcf89b4029996bff27be113524b0be49e7f83ef70a9b1a03f124dddebf40029a165627a7a72305820a53c1e658ebeb1e692df341dcd61fea475a3cd8ba2ee9ee4088a8fc4823663050029",
  "source": "pragma solidity ^0.5.0;\n\nimport \"./branch.sol\";\nimport \"./issue.sol\";\n\ncontract repo{\n    string repoName;\n    string repoDescription;\n    address repoOwner;\n    uint creationDate;\n    address[] collaborators;\n    branch[] branches;\n    issue[] issues;\n    mapping (string => address) branchesMap; //branchName => branchContract\n    mapping (address => bool) collaboratorsMap;\n\n    constructor(string memory _repoName, string memory _repoDescription) public{\n        repoName = _repoName;\n        repoDescription = _repoDescription;\n        repoOwner = msg.sender;\n        collaboratorsMap[msg.sender] = true;\n        creationDate = now;\n        commit[] memory _commitArray;\n        branch masterBranch = new branch(\"master\", _commitArray);\n        branchesMap[\"master\"] = address(masterBranch);\n        branches.push(masterBranch);\n        emit branchCreated(repoName, \"master\");\n    }\n\n    event collaboratorAdded(address collaborator, address repoAddress, string repoName);\n    event collaboratorRemoved(address collaborator, address repoAddress, string repoName);\n    event branchCreated(string repoName, string branchName);\n    event issueCreated(string issueLabel, string issueMessage);\n\n    modifier onlyOwner(){\n        require(collaboratorsMap[msg.sender] == true);\n        _;\n    }\n\n    modifier onlyPermitted(){\n        //require(msg.sender == repoOwner);\n        _;\n    }\n\n    function addColaborator (address _collaborator) onlyOwner public{\n        collaborators.push(_collaborator);\n        collaboratorsMap[_collaborator] = true;\n        emit collaboratorAdded(_collaborator, address(this), repoName);\n    }\n\n    function removeCollaborator(address _collaborator) onlyOwner public{\n        collaboratorsMap[_collaborator] = false;\n        emit collaboratorRemoved(_collaborator, address(this), repoName);\n    }\n\n    function makeBranch(string memory _branchName) onlyPermitted public{\n        branch Branch = new branch(_branchName, branches[0].getCommitsArray());\n        branchesMap[_branchName] = address(Branch);\n        branches.push(branch(branchesMap[_branchName]));\n        emit branchCreated(repoName, _branchName);\n    }\n    function doMerge(commit[] memory originalBranhceCommits,commit[] memory mergedBranhceCommits,branch  mergedBranch) private returns(uint8) {\n            uint  diff = originalBranhceCommits.length -  mergedBranhceCommits.length;\n             if(originalBranhceCommits[originalBranhceCommits.length-1-diff] != mergedBranhceCommits[mergedBranhceCommits.length-1] )\n             {\n                return 99;\n             }\n             else{\n                uint  counter = mergedBranhceCommits.length;\n                for(uint i = 0; i < diff;i++ ){\n                    mergedBranch.parseCommit(originalBranhceCommits[counter].getAuthorAddress(),originalBranhceCommits[counter].getAuthoreName(),\n                    originalBranhceCommits[counter].getDate(), originalBranhceCommits[counter].getHash(),originalBranhceCommits[counter].getMessage(),originalBranhceCommits[counter].getChange());\n                    counter++;\n                }\n                \n                return 1;\n             }\n    }\n    function merge(string memory _firstBranchName,string memory _secondBranchName) public returns(uint8) {\n        branch firstBranche = branch(branchesMap[_firstBranchName]);\n        branch secondBranche = branch(branchesMap[_secondBranchName]);\n        commit[] memory firstBranchCommits = firstBranche.getCommitsArray();\n        commit[] memory secondBranchCommits = secondBranche.getCommitsArray();\n        if(keccak256(abi.encodePacked((firstBranchCommits[firstBranchCommits.length -1].getHash())))  == keccak256(abi.encodePacked((secondBranchCommits[secondBranchCommits.length -1].getHash())))){\n            return 0;\n        }\n        else if(secondBranchCommits.length  > firstBranchCommits.length){\n             return doMerge(secondBranchCommits,firstBranchCommits,firstBranche);\n        }\n        else{\n            return doMerge(firstBranchCommits,secondBranchCommits,secondBranche);\n        }\n    }\n\n    function makeIssue(string memory _issueLabel, string memory _issueMessage) public{\n        issues.push(new issue(_issueLabel, _issueMessage));\n        emit issueCreated(_issueLabel, _issueMessage);\n    }\n}",
  "sourcePath": "/home/mahmoud/Projects/BlockHub/contracts/repo.sol",
  "compiler": {
    "name": "solc",
    "version": "0.5.8+commit.23d335f2.Emscripten.clang"
  },
  "schemaVersion": "3.0.11",
  "updatedAt": "2019-08-01T13:00:04.216Z",
  "devdoc": {
    "methods": {}
  },
  "userdoc": {
    "methods": {}
  }
}