{
  "contractName": "repo",
  "abi": [
    {
      "inputs": [
        {
          "name": "_repoName",
          "type": "string"
        },
        {
          "name": "_repoDescription",
          "type": "string"
        }
      ],
      "payable": false,
      "stateMutability": "nonpayable",
      "type": "constructor"
    },
    {
      "anonymous": false,
      "inputs": [
        {
          "indexed": false,
          "name": "collaborator",
          "type": "address"
        },
        {
          "indexed": false,
          "name": "repoAddress",
          "type": "address"
        },
        {
          "indexed": false,
          "name": "repoName",
          "type": "string"
        }
      ],
      "name": "collaboratorAdded",
      "type": "event"
    },
    {
      "anonymous": false,
      "inputs": [
        {
          "indexed": false,
          "name": "collaborator",
          "type": "address"
        },
        {
          "indexed": false,
          "name": "repoAddress",
          "type": "address"
        },
        {
          "indexed": false,
          "name": "repoName",
          "type": "string"
        }
      ],
      "name": "collaboratorRemoved",
      "type": "event"
    },
    {
      "anonymous": false,
      "inputs": [
        {
          "indexed": false,
          "name": "repoName",
          "type": "string"
        },
        {
          "indexed": false,
          "name": "branchName",
          "type": "string"
        }
      ],
      "name": "branchCreated",
      "type": "event"
    },
    {
      "constant": false,
      "inputs": [
        {
          "name": "issueLabel",
          "type": "string",
          "indexed": false
        },
        {
          "indexed": false,
          "name": "issueMessage",
          "type": "string"
        }
      ],
      "name": "issueCreated",
      "outputs": [],
      "payable": false,
      "stateMutability": "nonpayable",
      "type": "event",
      "anonymous": false
    },
    {
      "constant": false,
      "inputs": [
        {
          "name": "_collaborator",
          "type": "address"
        }
      ],
      "name": "addColaborator",
      "outputs": [],
      "payable": false,
      "stateMutability": "nonpayable",
      "type": "function"
    },
    {
      "constant": false,
      "inputs": [
        {
          "name": "_collaborator",
          "type": "address"
        }
      ],
      "name": "removeCollaborator",
      "outputs": [],
      "payable": false,
      "stateMutability": "nonpayable",
      "type": "function"
    },
    {
      "constant": false,
      "inputs": [
        {
          "name": "_branchName",
          "type": "string"
        },
        {
          "name": "_secondBranchName",
          "type": "string"
        }
      ],
      "name": "makeBranch",
      "outputs": [
        {
          "name": "",
          "type": "uint8"
        }
      ],
      "payable": false,
      "stateMutability": "nonpayable",
      "type": "function"
    },
    {
      "constant": false,
      "inputs": [
        {
          "name": "_firstBranchName",
          "type": "string"
        },
        {
          "name": "_secondBranchName",
          "type": "string"
        }
      ],
      "name": "merge",
      "outputs": [
        {
          "name": "",
          "type": "uint8"
        }
      ],
      "payable": false,
      "stateMutability": "nonpayable",
      "type": "function"
    },
    {
      "constant": false,
      "inputs": [
        {
          "name": "_issueLabel",
          "type": "string"
        },
        {
          "name": "_issueMessage",
          "type": "string"
        }
      ],
      "name": "makeIssue",
      "outputs": [],
      "payable": false,
      "stateMutability": "nonpayable",
      "type": "function"
    }
  ],
  "bytecode": "0x60806040523480156200001157600080fd5b5060405162005a9f38038062005a9f833981018060405260408110156200003757600080fd5b8101908080516401000000008111156200005057600080fd5b820160208101848111156200006457600080fd5b81516401000000008111828201871017156200007f57600080fd5b505092919060200180516401000000008111156200009c57600080fd5b82016020810184811115620000b057600080fd5b8151640100000000811182820187101715620000cb57600080fd5b50508451909350620000e792506000915060208501906200035b565b508051620000fd9060019060208401906200035b565b5060028054600160a060020a031916339081179091556000908152600860205260408120805460ff1916600117905542600355606090816200013e620003e0565b60408082526006908201527f6d61737465720000000000000000000000000000000000000000000000000000606082015260806020808301828152845192840192909252835183929160a0840191868201910280838360005b83811015620001b157818101518382015260200162000197565b505050509050019350505050604051809103906000f080158015620001da573d6000803e3d6000fd5b50604080517f6d6173746572000000000000000000000000000000000000000000000000000081526007600682015281519081900360260181208054600160a060020a038516600160a060020a03199182168117909255600580546001818101835560009283527f036b6384b5eca791c62761152d0c79bb0604c104a5fb6f4eb0703f3154bb3db090910180549093169093179091558383528054600292811615610100026000190116919091049282018390529293507fcc3654bbee02bd3fae9c6595c93933c3b2d0e04395572bb318cdf083a749cb7e929181906020820190606083019085908015620003135780601f10620002e75761010080835404028352916020019162000313565b820191906000526020600020905b815481529060010190602001808311620002f557829003601f168201915b5050928303905250600681527f6d6173746572000000000000000000000000000000000000000000000000000060208201526040805191829003019150a15050505062000411565b828054600181600116156101000203166002900490600052602060002090601f016020900481019282601f106200039e57805160ff1916838001178555620003ce565b82800160010185558215620003ce579182015b82811115620003ce578251825591602001919060010190620003b1565b50620003dc929150620003f1565b5090565b604051611d168062003d8983390190565b6200040e91905b80821115620003dc5760008155600101620003f8565b90565b61396880620004216000396000f3fe608060405260043610620000595763ffffffff60e060020a6000350416633109c19d81146200005e5780634665f42e14620000975780636794864c14620001f15780636882e17414620002ab57806386e7a51714620002e2575b600080fd5b3480156200006b57600080fd5b5062000095600480360360208110156200008457600080fd5b5035600160a060020a031662000426565b005b348015620000a457600080fd5b50620001db60048036036040811015620000bd57600080fd5b810190602081018135640100000000811115620000d957600080fd5b820183602082011115620000ec57600080fd5b803590602001918460018302840111640100000000831117156200010f57600080fd5b91908080601f01602080910402602001604051908101604052809392919081815260200183838082843760009201919091525092959493602081019350359150506401000000008111156200016357600080fd5b8201836020820111156200017657600080fd5b803590602001918460018302840111640100000000831117156200019957600080fd5b91908080601f0160208091040260200160405190810160405280939291908181526020018383808284376000920191909152509295506200052d945050505050565b6040805160ff9092168252519081900360200190f35b348015620001fe57600080fd5b5062000095600480360360208110156200021757600080fd5b8101906020810181356401000000008111156200023357600080fd5b8201836020820111156200024657600080fd5b803590602001918460018302840111640100000000831117156200026957600080fd5b91908080601f01602080910402602001604051908101604052809392919081815260200183838082843760009201919091525092955062000ac4945050505050565b348015620002b857600080fd5b506200009560048036036020811015620002d157600080fd5b5035600160a060020a031662000efb565b348015620002ef57600080fd5b5062000095600480360360408110156200030857600080fd5b8101906020810181356401000000008111156200032457600080fd5b8201836020820111156200033757600080fd5b803590602001918460018302840111640100000000831117156200035a57600080fd5b91908080601f0160208091040260200160405190810160405280939291908181526020018383808284376000920191909152509295949360208101935035915050640100000000811115620003ae57600080fd5b820183602082011115620003c157600080fd5b80359060200191846001830284011164010000000083111715620003e457600080fd5b91908080601f01602080910402602001604051908101604052809392919081815260200183838082843760009201919091525092955062001013945050505050565b3360009081526008602052604090205460ff1615156001146200044857600080fd5b600160a060020a0381166000818152600860209081526040808320805460ff1916905580519384523091840182905260609084018181528354600260001960018316156101000201909116049185018290527fda5be73e51d6f5cb5ffb0a89d4be5b7af868e0cc1ad3cdd45c39f5b1c1fbda50948694929091906080830190849080156200051a5780601f10620004ee576101008083540402835291602001916200051a565b820191906000526020600020905b815481529060010190602001808311620004fc57829003601f168201915b505094505050505060405180910390a150565b6000806007846040518082805190602001908083835b60208310620005645780518252601f19909201916020918201910162000543565b51815160209384036101000a60001901801990921691161790529201948552506040519384900381018420548751600160a060020a03909116955060009460079450889350918291908401908083835b60208310620005d55780518252601f199092019160209182019101620005b4565b51815160209384036101000a600019018019909216911617905292019485525060408051948590039091018420547fc7335c910000000000000000000000000000000000000000000000000000000085529051600160a060020a039182169550606094918716935063c7335c9192506004808301926000929190829003018186803b1580156200066457600080fd5b505afa15801562000679573d6000803e3d6000fd5b505050506040513d6000823e601f3d908101601f191682016040526020811015620006a357600080fd5b810190808051640100000000811115620006bc57600080fd5b82016020810184811115620006d057600080fd5b8151856020820283011164010000000082111715620006ee57600080fd5b50509291905050509050606082600160a060020a031663c7335c916040518163ffffffff1660e060020a02815260040160006040518083038186803b1580156200073757600080fd5b505afa1580156200074c573d6000803e3d6000fd5b505050506040513d6000823e601f3d908101601f1916820160405260208110156200077657600080fd5b8101908080516401000000008111156200078f57600080fd5b82016020810184811115620007a357600080fd5b8151856020820283011164010000000082111715620007c157600080fd5b505080519094508493506000198101925082109050620007dd57fe5b90602001906020020151600160a060020a031663d13319c46040518163ffffffff1660e060020a02815260040160006040518083038186803b1580156200082357600080fd5b505afa15801562000838573d6000803e3d6000fd5b505050506040513d6000823e601f3d908101601f1916820160405260208110156200086257600080fd5b8101908080516401000000008111156200087b57600080fd5b820160208101848111156200088f57600080fd5b8151640100000000811182820187101715620008aa57600080fd5b50509291905050506040516020018082805190602001908083835b60208310620008e65780518252601f199092019160209182019101620008c5565b6001836020036101000a038019825116818451168082178552505050505050905001915050604051602081830303815290604052805190602001208260018451038151811015156200093457fe5b90602001906020020151600160a060020a031663d13319c46040518163ffffffff1660e060020a02815260040160006040518083038186803b1580156200097a57600080fd5b505afa1580156200098f573d6000803e3d6000fd5b505050506040513d6000823e601f3d908101601f191682016040526020811015620009b957600080fd5b810190808051640100000000811115620009d257600080fd5b82016020810184811115620009e657600080fd5b815164010000000081118282018710171562000a0157600080fd5b50509291905050506040516020018082805190602001908083835b6020831062000a3d5780518252601f19909201916020918201910162000a1c565b6001836020036101000a03801982511681845116808217855250505050505090500191505060405160208183030381529060405280519060200120141562000a8d57600094505050505062000abe565b81518151111562000ab15762000aa581838662001220565b94505050505062000abe565b62000aa582828562001220565b92915050565b6000816005600081548110151562000ad857fe5b6000918252602082200154604080517fc7335c910000000000000000000000000000000000000000000000000000000081529051600160a060020a039092169263c7335c9192600480840193829003018186803b15801562000b3957600080fd5b505afa15801562000b4e573d6000803e3d6000fd5b505050506040513d6000823e601f3d908101601f19168201604052602081101562000b7857600080fd5b81019080805164010000000081111562000b9157600080fd5b8201602081018481111562000ba557600080fd5b815185602082028301116401000000008211171562000bc357600080fd5b505092919050505062000bd562001a2f565b604080825283519082015282518190602080830191606084019187019080838360005b8381101562000c1257818101518382015260200162000bf8565b50505050905090810190601f16801562000c405780820380516001836020036101000a031916815260200191505b508381038252845181528451602091820191808701910280838360005b8381101562000c7757818101518382015260200162000c5d565b50505050905001945050505050604051809103906000f08015801562000ca1573d6000803e3d6000fd5b509050806007836040518082805190602001908083835b6020831062000cd95780518252601f19909201916020918201910162000cb8565b51815160209384036101000a60001901801990921691161790529201948552506040519384900381018420805473ffffffffffffffffffffffffffffffffffffffff1916600160a060020a03969096169590951790945550508351600592600792869290918291908401908083835b6020831062000d695780518252601f19909201916020918201910162000d48565b518151600019602094850361010090810a8201928316921993909316919091179092529490920196875260408051978890038201882054895460018181018c5560009b8c52848c20909101805473ffffffffffffffffffffffffffffffffffffffff1916600160a060020a03909316929092179091558189528954600291811615909602909301909416919091049286018390527fcc3654bbee02bd3fae9c6595c93933c3b2d0e04395572bb318cdf083a749cb7e969589955093508392908301915060608301908690801562000e845780601f1062000e585761010080835404028352916020019162000e84565b820191906000526020600020905b81548152906001019060200180831162000e6657829003601f168201915b5050838103825284518152845160209182019186019080838360005b8381101562000eba57818101518382015260200162000ea0565b50505050905090810190601f16801562000ee85780820380516001836020036101000a031916815260200191505b5094505050505060405180910390a15050565b3360009081526008602052604090205460ff16151560011462000f1d57600080fd5b6004805460018181019092557f8a35acfbc15ff81a39ae7d344fd709f28e8600b4aa8c65c6b64bfe7fe36bd19b018054600160a060020a03841673ffffffffffffffffffffffffffffffffffffffff1990911681179091556000818152600860209081526040808320805460ff19168617905580519384523091840182905260609084018181528354600296811615610100026000190116959095049084018190527f126c0c1cb9112bc67424ee87f5f11d2f169bf930d54b28db48e81737dec47eb5948694929392916080830190849080156200051a5780601f10620004ee576101008083540402835291602001916200051a565b600682826200102162001a40565b604080825283519082015282518190602080830191606084019187019080838360005b838110156200105e57818101518382015260200162001044565b50505050905090810190601f1680156200108c5780820380516001836020036101000a031916815260200191505b50838103825284518152845160209182019186019080838360005b83811015620010c1578181015183820152602001620010a7565b50505050905090810190601f168015620010ef5780820380516001836020036101000a031916815260200191505b50945050505050604051809103906000f08015801562001113573d6000803e3d6000fd5b50815460018101835560009283526020808420909101805473ffffffffffffffffffffffffffffffffffffffff1916600160a060020a0393909316929092179091556040805181815285519181019190915284517f6a2048571c488b823b275fdce75f8182edfa62343dae464560c00ea49a30be409386938693928392838301926060850192908801918190849084905b83811015620011be578181015183820152602001620011a4565b50505050905090810190601f168015620011ec5780820380516001836020036101000a031916815260200191505b50838103825284518152845160209182019186019080838360008381101562000eba57818101518382015260200162000ea0565b815183516000919081900390849060001981019081106200123d57fe5b90602001906020020151600160a060020a031685826001885103038151811015156200126557fe5b60209081029091010151600160a060020a0316146200128957606391505062001a28565b835160005b8281101562001a205784600160a060020a03166379397dca8884815181101515620012b557fe5b90602001906020020151600160a060020a031663a4300ee56040518163ffffffff1660e060020a02815260040160206040518083038186803b158015620012fb57600080fd5b505afa15801562001310573d6000803e3d6000fd5b505050506040513d60208110156200132757600080fd5b505189518a90869081106200133857fe5b90602001906020020151600160a060020a0316634c9f9fc36040518163ffffffff1660e060020a02815260040160006040518083038186803b1580156200137e57600080fd5b505afa15801562001393573d6000803e3d6000fd5b505050506040513d6000823e601f3d908101601f191682016040526020811015620013bd57600080fd5b810190808051640100000000811115620013d657600080fd5b82016020810184811115620013ea57600080fd5b81516401000000008111828201871017156200140557600080fd5b50508d519093508d925088915081106200141b57fe5b90602001906020020151600160a060020a031663430fe9c16040518163ffffffff1660e060020a02815260040160006040518083038186803b1580156200146157600080fd5b505afa15801562001476573d6000803e3d6000fd5b505050506040513d6000823e601f3d908101601f191682016040526020811015620014a057600080fd5b810190808051640100000000811115620014b957600080fd5b82016020810184811115620014cd57600080fd5b8151640100000000811182820187101715620014e857600080fd5b50508e519093508e92508991508110620014fe57fe5b90602001906020020151600160a060020a031663d13319c46040518163ffffffff1660e060020a02815260040160006040518083038186803b1580156200154457600080fd5b505afa15801562001559573d6000803e3d6000fd5b505050506040513d6000823e601f3d908101601f1916820160405260208110156200158357600080fd5b8101908080516401000000008111156200159c57600080fd5b82016020810184811115620015b057600080fd5b8151640100000000811182820187101715620015cb57600080fd5b50508f519093508f92508a91508110620015e157fe5b90602001906020020151600160a060020a031663ce6d41de6040518163ffffffff1660e060020a02815260040160006040518083038186803b1580156200162757600080fd5b505afa1580156200163c573d6000803e3d6000fd5b505050506040513d6000823e601f3d908101601f1916820160405260208110156200166657600080fd5b8101908080516401000000008111156200167f57600080fd5b820160208101848111156200169357600080fd5b8151640100000000811182820187101715620016ae57600080fd5b50509291905050508d89815181101515620016c557fe5b90602001906020020151600160a060020a031663b7ed5abc6040518163ffffffff1660e060020a02815260040160006040518083038186803b1580156200170b57600080fd5b505afa15801562001720573d6000803e3d6000fd5b505050506040513d6000823e601f3d908101601f1916820160405260208110156200174a57600080fd5b8101908080516401000000008111156200176357600080fd5b820160208101848111156200177757600080fd5b81516401000000008111828201871017156200179257600080fd5b50509291905050506040518763ffffffff1660e060020a0281526004018087600160a060020a0316600160a060020a03168152602001806020018060200180602001806020018060200186810386528b818151815260200191508051906020019080838360005b8381101562001813578181015183820152602001620017f9565b50505050905090810190601f168015620018415780820380516001836020036101000a031916815260200191505b5086810385528a5181528a516020918201918c019080838360005b83811015620018765781810151838201526020016200185c565b50505050905090810190601f168015620018a45780820380516001836020036101000a031916815260200191505b5086810384528951815289516020918201918b019080838360005b83811015620018d9578181015183820152602001620018bf565b50505050905090810190601f168015620019075780820380516001836020036101000a031916815260200191505b5086810383528851815288516020918201918a019080838360005b838110156200193c57818101518382015260200162001922565b50505050905090810190601f1680156200196a5780820380516001836020036101000a031916815260200191505b50868103825287518152875160209182019189019080838360005b838110156200199f57818101518382015260200162001985565b50505050905090810190601f168015620019cd5780820380516001836020036101000a031916815260200191505b509b505050505050505050505050600060405180830381600087803b158015620019f657600080fd5b505af115801562001a0b573d6000803e3d6000fd5b5050506001928301929190910190506200128e565b506001925050505b9392505050565b604051611d168062001a5283390190565b6040516101d580620037688339019056fe60806040523480156200001157600080fd5b5060405162001d1638038062001d16833981018060405260408110156200003757600080fd5b8101908080516401000000008111156200005057600080fd5b820160208101848111156200006457600080fd5b81516401000000008111828201871017156200007f57600080fd5b505092919060200180516401000000008111156200009c57600080fd5b82016020810184811115620000b057600080fd5b8151856020820283011164010000000082111715620000ce57600080fd5b50508451909350620000ea9250600091506020850190620002cc565b5080516200010090600290602084019062000351565b5062000115816401000000006200011d810204565b5050620003fe565b60005b8151811015620002c85781818151811015156200013957fe5b90602001906020020151600183838151811015156200015457fe5b90602001906020020151600160a060020a031663d13319c46040518163ffffffff167c010000000000000000000000000000000000000000000000000000000002815260040160006040518083038186803b158015620001b357600080fd5b505afa158015620001c8573d6000803e3d6000fd5b505050506040513d6000823e601f3d908101601f191682016040526020811015620001f257600080fd5b8101908080516401000000008111156200020b57600080fd5b820160208101848111156200021f57600080fd5b81516401000000008111828201871017156200023a57600080fd5b50509291905050506040518082805190602001908083835b60208310620002735780518252601f19909201916020918201910162000252565b51815160209384036101000a600019018019909216911617905292019485525060405193849003019092208054600160a060020a031916600160a060020a039490941693909317909255505060010162000120565b5050565b828054600181600116156101000203166002900490600052602060002090601f016020900481019282601f106200030f57805160ff19168380011785556200033f565b828001600101855582156200033f579182015b828111156200033f57825182559160200191906001019062000322565b506200034d929150620003b7565b5090565b828054828255906000526020600020908101928215620003a9579160200282015b82811115620003a95782518254600160a060020a031916600160a060020a0390911617825560209092019160019091019062000372565b506200034d929150620003d7565b620003d491905b808211156200034d5760008155600101620003be565b90565b620003d491905b808211156200034d578054600160a060020a0319168155600101620003de565b611908806200040e6000396000f3fe608060405260043610620000665763ffffffff7c010000000000000000000000000000000000000000000000000000000060003504166379397dca81146200006b578063b58c6106146200035f578063c7335c911462000641578063eae2db7a14620006ab575b600080fd5b3480156200007857600080fd5b506200035d600480360360c08110156200009157600080fd5b600160a060020a038235169190810190604081016020820135640100000000811115620000bd57600080fd5b820183602082011115620000d057600080fd5b80359060200191846001830284011164010000000083111715620000f357600080fd5b91908080601f01602080910402602001604051908101604052809392919081815260200183838082843760009201919091525092959493602081019350359150506401000000008111156200014757600080fd5b8201836020820111156200015a57600080fd5b803590602001918460018302840111640100000000831117156200017d57600080fd5b91908080601f0160208091040260200160405190810160405280939291908181526020018383808284376000920191909152509295949360208101935035915050640100000000811115620001d157600080fd5b820183602082011115620001e457600080fd5b803590602001918460018302840111640100000000831117156200020757600080fd5b91908080601f01602080910402602001604051908101604052809392919081815260200183838082843760009201919091525092959493602081019350359150506401000000008111156200025b57600080fd5b8201836020820111156200026e57600080fd5b803590602001918460018302840111640100000000831117156200029157600080fd5b91908080601f0160208091040260200160405190810160405280939291908181526020018383808284376000920191909152509295949360208101935035915050640100000000811115620002e557600080fd5b820183602082011115620002f857600080fd5b803590602001918460018302840111640100000000831117156200031b57600080fd5b91908080601f0160208091040260200160405190810160405280939291908181526020018383808284376000920191909152509295506200073b945050505050565b005b3480156200036c57600080fd5b506200035d600480360360a08110156200038557600080fd5b810190602081018135640100000000811115620003a157600080fd5b820183602082011115620003b457600080fd5b80359060200191846001830284011164010000000083111715620003d757600080fd5b91908080601f01602080910402602001604051908101604052809392919081815260200183838082843760009201919091525092959493602081019350359150506401000000008111156200042b57600080fd5b8201836020820111156200043e57600080fd5b803590602001918460018302840111640100000000831117156200046157600080fd5b91908080601f0160208091040260200160405190810160405280939291908181526020018383808284376000920191909152509295949360208101935035915050640100000000811115620004b557600080fd5b820183602082011115620004c857600080fd5b80359060200191846001830284011164010000000083111715620004eb57600080fd5b91908080601f01602080910402602001604051908101604052809392919081815260200183838082843760009201919091525092959493602081019350359150506401000000008111156200053f57600080fd5b8201836020820111156200055257600080fd5b803590602001918460018302840111640100000000831117156200057557600080fd5b91908080601f0160208091040260200160405190810160405280939291908181526020018383808284376000920191909152509295949360208101935035915050640100000000811115620005c957600080fd5b820183602082011115620005dc57600080fd5b80359060200191846001830284011164010000000083111715620005ff57600080fd5b91908080601f01602080910402602001604051908101604052809392919081815260200183838082843760009201919091525092955062000be0945050505050565b3480156200064e57600080fd5b506200065962001087565b60408051602080825283518183015283519192839290830191858101910280838360005b83811015620006975781810151838201526020016200067d565b505050509050019250505060405180910390f35b348015620006b857600080fd5b50620006c3620010eb565b6040805160208082528351818301528351919283929083019185019080838360005b83811015620006ff578181015183820152602001620006e5565b50505050905090810190601f1680156200072d5780820380516001836020036101000a031916815260200191505b509250505060405180910390f35b60008686868686866200074d620011f5565b8087600160a060020a0316600160a060020a03168152602001806020018060200180602001806020018060200186810386528b818151815260200191508051906020019080838360005b83811015620007b157818101518382015260200162000797565b50505050905090810190601f168015620007df5780820380516001836020036101000a031916815260200191505b5086810385528a5181528a516020918201918c019080838360005b8381101562000814578181015183820152602001620007fa565b50505050905090810190601f168015620008425780820380516001836020036101000a031916815260200191505b5086810384528951815289516020918201918b019080838360005b83811015620008775781810151838201526020016200085d565b50505050905090810190601f168015620008a55780820380516001836020036101000a031916815260200191505b5086810383528851815288516020918201918a019080838360005b83811015620008da578181015183820152602001620008c0565b50505050905090810190601f168015620009085780820380516001836020036101000a031916815260200191505b50868103825287518152875160209182019189019080838360005b838110156200093d57818101518382015260200162000923565b50505050905090810190601f1680156200096b5780820380516001836020036101000a031916815260200191505b509b505050505050505050505050604051809103906000f08015801562000996573d6000803e3d6000fd5b509050806001866040518082805190602001908083835b60208310620009ce5780518252601f199092019160209182019101620009ad565b51815160209384036101000a60001901801990921691161790529201948552506040519384900381018420805473ffffffffffffffffffffffffffffffffffffffff1916600160a060020a03969096169590951790945550508651600292600192899290918291908401908083835b6020831062000a5e5780518252601f19909201916020918201910162000a3d565b51815160001960209485036101000a01908116901991909116179052920194855250604080519485900382018520548654600181018855600097885283882001805473ffffffffffffffffffffffffffffffffffffffff1916600160a060020a039283161790558d16855260608583018181528a519187019190915289517f49e41cf7f645152827d5c078de6829eb2dc16ae1ac0a4cbe6025d392d3cd7076978f978c97508e96509492938501926080860192908801918190849084905b8381101562000b3657818101518382015260200162000b1c565b50505050905090810190601f16801562000b645780820380516001836020036101000a031916815260200191505b50838103825284518152845160209182019186019080838360005b8381101562000b9957818101518382015260200162000b7f565b50505050905090810190601f16801562000bc75780820380516001836020036101000a031916815260200191505b509550505050505060405180910390a150505050505050565b600033868686868662000bf2620011f5565b8087600160a060020a0316600160a060020a03168152602001806020018060200180602001806020018060200186810386528b818151815260200191508051906020019080838360005b8381101562000c5657818101518382015260200162000c3c565b50505050905090810190601f16801562000c845780820380516001836020036101000a031916815260200191505b5086810385528a5181528a516020918201918c019080838360005b8381101562000cb957818101518382015260200162000c9f565b50505050905090810190601f16801562000ce75780820380516001836020036101000a031916815260200191505b5086810384528951815289516020918201918b019080838360005b8381101562000d1c57818101518382015260200162000d02565b50505050905090810190601f16801562000d4a5780820380516001836020036101000a031916815260200191505b5086810383528851815288516020918201918a019080838360005b8381101562000d7f57818101518382015260200162000d65565b50505050905090810190601f16801562000dad5780820380516001836020036101000a031916815260200191505b50868103825287518152875160209182019189019080838360005b8381101562000de257818101518382015260200162000dc8565b50505050905090810190601f16801562000e105780820380516001836020036101000a031916815260200191505b509b505050505050505050505050604051809103906000f08015801562000e3b573d6000803e3d6000fd5b509050806001866040518082805190602001908083835b6020831062000e735780518252601f19909201916020918201910162000e52565b51815160209384036101000a60001901801990921691161790529201948552506040519384900381018420805473ffffffffffffffffffffffffffffffffffffffff1916600160a060020a03969096169590951790945550508651600292600192899290918291908401908083835b6020831062000f035780518252601f19909201916020918201910162000ee2565b51815160001960209485036101000a01908116901991909116179052920194855250604080519485900382018520548654600181018855600097885283882001805473ffffffffffffffffffffffffffffffffffffffff1916600160a060020a039092169190911790553380865260608684018181528b51918801919091528a517f49e41cf7f645152827d5c078de6829eb2dc16ae1ac0a4cbe6025d392d3cd70769892978c97508e96509491938501926080860192880191908190849084905b8381101562000fde57818101518382015260200162000fc4565b50505050905090810190601f1680156200100c5780820380516001836020036101000a031916815260200191505b50838103825284518152845160209182019186019080838360005b838110156200104157818101518382015260200162001027565b50505050905090810190601f1680156200106f5780820380516001836020036101000a031916815260200191505b509550505050505060405180910390a1505050505050565b60606002805480602002602001604051908101604052809291908181526020018280548015620010e157602002820191906000526020600020905b8154600160a060020a03168152600190910190602001808311620010c2575b5050505050905090565b600280546060919060001981019081106200110257fe5b6000918252602082200154604080517fd13319c40000000000000000000000000000000000000000000000000000000081529051600160a060020a039092169263d13319c492600480840193829003018186803b1580156200116357600080fd5b505afa15801562001178573d6000803e3d6000fd5b505050506040513d6000823e601f3d908101601f191682016040526020811015620011a257600080fd5b810190808051640100000000811115620011bb57600080fd5b82016020810184811115620011cf57600080fd5b8151640100000000811182820187101715620011ea57600080fd5b509094505050505090565b6040516106d680620012078339019056fe608060405234801561001057600080fd5b506040516106d63803806106d6833981018060405260c081101561003357600080fd5b81516020830180519193928301929164010000000081111561005457600080fd5b8201602081018481111561006757600080fd5b815164010000000081118282018710171561008157600080fd5b5050929190602001805164010000000081111561009d57600080fd5b820160208101848111156100b057600080fd5b81516401000000008111828201871017156100ca57600080fd5b505092919060200180516401000000008111156100e657600080fd5b820160208101848111156100f957600080fd5b815164010000000081118282018710171561011357600080fd5b5050929190602001805164010000000081111561012f57600080fd5b8201602081018481111561014257600080fd5b815164010000000081118282018710171561015c57600080fd5b5050929190602001805164010000000081111561017857600080fd5b8201602081018481111561018b57600080fd5b81516401000000008111828201871017156101a557600080fd5b505060008054600160a060020a031916600160a060020a038b1617905586519093506101da9250600291506020870190610236565b5082516101ee906003906020860190610236565b508151610202906004906020850190610236565b508051610216906005906020840190610236565b50845161022a906001906020880190610236565b505050505050506102d1565b828054600181600116156101000203166002900490600052602060002090601f016020900481019282601f1061027757805160ff19168380011785556102a4565b828001600101855582156102a4579182015b828111156102a4578251825591602001919060010190610289565b506102b09291506102b4565b5090565b6102ce91905b808211156102b057600081556001016102ba565b90565b6103f6806102e06000396000f3fe6080604052600436106100775763ffffffff7c0100000000000000000000000000000000000000000000000000000000600035041663430fe9c1811461007c5780634c9f9fc314610106578063a4300ee51461011b578063b7ed5abc14610159578063ce6d41de1461016e578063d13319c414610183575b600080fd5b34801561008857600080fd5b50610091610198565b6040805160208082528351818301528351919283929083019185019080838360005b838110156100cb5781810151838201526020016100b3565b50505050905090810190601f1680156100f85780820380516001836020036101000a031916815260200191505b509250505060405180910390f35b34801561011257600080fd5b5061009161022e565b34801561012757600080fd5b5061013061028e565b6040805173ffffffffffffffffffffffffffffffffffffffff9092168252519081900360200190f35b34801561016557600080fd5b506100916102aa565b34801561017a57600080fd5b5061009161030b565b34801561018f57600080fd5b5061009161036c565b60038054604080516020601f60026000196101006001881615020190951694909404938401819004810282018101909252828152606093909290918301828280156102245780601f106101f957610100808354040283529160200191610224565b820191906000526020600020905b81548152906001019060200180831161020757829003601f168201915b5050505050905090565b60018054604080516020601f600260001961010087891615020190951694909404938401819004810282018101909252828152606093909290918301828280156102245780601f106101f957610100808354040283529160200191610224565b60005473ffffffffffffffffffffffffffffffffffffffff1690565b60058054604080516020601f60026000196101006001881615020190951694909404938401819004810282018101909252828152606093909290918301828280156102245780601f106101f957610100808354040283529160200191610224565b60048054604080516020601f60026000196101006001881615020190951694909404938401819004810282018101909252828152606093909290918301828280156102245780601f106101f957610100808354040283529160200191610224565b60028054604080516020601f60001961010060018716150201909416859004938401819004810282018101909252828152606093909290918301828280156102245780601f106101f95761010080835404028352916020019161022456fea165627a7a72305820fbb785ea4a1983aaac09f02495a11576d6390b9b6d071409bf34091009d7a24a0029a165627a7a72305820fd200e3e25d0f5bd3cb995fc5c34cc5c448c7ccc58c6253dd5511bf6f2ed433d0029608060405234801561001057600080fd5b506040516101d53803806101d58339810180604052604081101561003357600080fd5b81019080805164010000000081111561004b57600080fd5b8201602081018481111561005e57600080fd5b815164010000000081118282018710171561007857600080fd5b5050929190602001805164010000000081111561009457600080fd5b820160208101848111156100a757600080fd5b81516401000000008111828201871017156100c157600080fd5b505084519093506100db92506000915060208501906100f7565b5080516100ef9060019060208401906100f7565b505050610192565b828054600181600116156101000203166002900490600052602060002090601f016020900481019282601f1061013857805160ff1916838001178555610165565b82800160010185558215610165579182015b8281111561016557825182559160200191906001019061014a565b50610171929150610175565b5090565b61018f91905b80821115610171576000815560010161017b565b90565b6035806101a06000396000f3fe6080604052600080fdfea165627a7a72305820cd14aaceb35f172bf8efc1728e6889cf10ba94a13bb71a7ce4865faeefdc03ce0029a165627a7a72305820e2cb05b2a49c3999a0e2b0772679ef23ed7bc7a3e57731e1fcbef06a14d991b0002960806040523480156200001157600080fd5b5060405162001d1638038062001d16833981018060405260408110156200003757600080fd5b8101908080516401000000008111156200005057600080fd5b820160208101848111156200006457600080fd5b81516401000000008111828201871017156200007f57600080fd5b505092919060200180516401000000008111156200009c57600080fd5b82016020810184811115620000b057600080fd5b8151856020820283011164010000000082111715620000ce57600080fd5b50508451909350620000ea9250600091506020850190620002cc565b5080516200010090600290602084019062000351565b5062000115816401000000006200011d810204565b5050620003fe565b60005b8151811015620002c85781818151811015156200013957fe5b90602001906020020151600183838151811015156200015457fe5b90602001906020020151600160a060020a031663d13319c46040518163ffffffff167c010000000000000000000000000000000000000000000000000000000002815260040160006040518083038186803b158015620001b357600080fd5b505afa158015620001c8573d6000803e3d6000fd5b505050506040513d6000823e601f3d908101601f191682016040526020811015620001f257600080fd5b8101908080516401000000008111156200020b57600080fd5b820160208101848111156200021f57600080fd5b81516401000000008111828201871017156200023a57600080fd5b50509291905050506040518082805190602001908083835b60208310620002735780518252601f19909201916020918201910162000252565b51815160209384036101000a600019018019909216911617905292019485525060405193849003019092208054600160a060020a031916600160a060020a039490941693909317909255505060010162000120565b5050565b828054600181600116156101000203166002900490600052602060002090601f016020900481019282601f106200030f57805160ff19168380011785556200033f565b828001600101855582156200033f579182015b828111156200033f57825182559160200191906001019062000322565b506200034d929150620003b7565b5090565b828054828255906000526020600020908101928215620003a9579160200282015b82811115620003a95782518254600160a060020a031916600160a060020a0390911617825560209092019160019091019062000372565b506200034d929150620003d7565b620003d491905b808211156200034d5760008155600101620003be565b90565b620003d491905b808211156200034d578054600160a060020a0319168155600101620003de565b611908806200040e6000396000f3fe608060405260043610620000665763ffffffff7c010000000000000000000000000000000000000000000000000000000060003504166379397dca81146200006b578063b58c6106146200035f578063c7335c911462000641578063eae2db7a14620006ab575b600080fd5b3480156200007857600080fd5b506200035d600480360360c08110156200009157600080fd5b600160a060020a038235169190810190604081016020820135640100000000811115620000bd57600080fd5b820183602082011115620000d057600080fd5b80359060200191846001830284011164010000000083111715620000f357600080fd5b91908080601f01602080910402602001604051908101604052809392919081815260200183838082843760009201919091525092959493602081019350359150506401000000008111156200014757600080fd5b8201836020820111156200015a57600080fd5b803590602001918460018302840111640100000000831117156200017d57600080fd5b91908080601f0160208091040260200160405190810160405280939291908181526020018383808284376000920191909152509295949360208101935035915050640100000000811115620001d157600080fd5b820183602082011115620001e457600080fd5b803590602001918460018302840111640100000000831117156200020757600080fd5b91908080601f01602080910402602001604051908101604052809392919081815260200183838082843760009201919091525092959493602081019350359150506401000000008111156200025b57600080fd5b8201836020820111156200026e57600080fd5b803590602001918460018302840111640100000000831117156200029157600080fd5b91908080601f0160208091040260200160405190810160405280939291908181526020018383808284376000920191909152509295949360208101935035915050640100000000811115620002e557600080fd5b820183602082011115620002f857600080fd5b803590602001918460018302840111640100000000831117156200031b57600080fd5b91908080601f0160208091040260200160405190810160405280939291908181526020018383808284376000920191909152509295506200073b945050505050565b005b3480156200036c57600080fd5b506200035d600480360360a08110156200038557600080fd5b810190602081018135640100000000811115620003a157600080fd5b820183602082011115620003b457600080fd5b80359060200191846001830284011164010000000083111715620003d757600080fd5b91908080601f01602080910402602001604051908101604052809392919081815260200183838082843760009201919091525092959493602081019350359150506401000000008111156200042b57600080fd5b8201836020820111156200043e57600080fd5b803590602001918460018302840111640100000000831117156200046157600080fd5b91908080601f0160208091040260200160405190810160405280939291908181526020018383808284376000920191909152509295949360208101935035915050640100000000811115620004b557600080fd5b820183602082011115620004c857600080fd5b80359060200191846001830284011164010000000083111715620004eb57600080fd5b91908080601f01602080910402602001604051908101604052809392919081815260200183838082843760009201919091525092959493602081019350359150506401000000008111156200053f57600080fd5b8201836020820111156200055257600080fd5b803590602001918460018302840111640100000000831117156200057557600080fd5b91908080601f0160208091040260200160405190810160405280939291908181526020018383808284376000920191909152509295949360208101935035915050640100000000811115620005c957600080fd5b820183602082011115620005dc57600080fd5b80359060200191846001830284011164010000000083111715620005ff57600080fd5b91908080601f01602080910402602001604051908101604052809392919081815260200183838082843760009201919091525092955062000be0945050505050565b3480156200064e57600080fd5b506200065962001087565b60408051602080825283518183015283519192839290830191858101910280838360005b83811015620006975781810151838201526020016200067d565b505050509050019250505060405180910390f35b348015620006b857600080fd5b50620006c3620010eb565b6040805160208082528351818301528351919283929083019185019080838360005b83811015620006ff578181015183820152602001620006e5565b50505050905090810190601f1680156200072d5780820380516001836020036101000a031916815260200191505b509250505060405180910390f35b60008686868686866200074d620011f5565b8087600160a060020a0316600160a060020a03168152602001806020018060200180602001806020018060200186810386528b818151815260200191508051906020019080838360005b83811015620007b157818101518382015260200162000797565b50505050905090810190601f168015620007df5780820380516001836020036101000a031916815260200191505b5086810385528a5181528a516020918201918c019080838360005b8381101562000814578181015183820152602001620007fa565b50505050905090810190601f168015620008425780820380516001836020036101000a031916815260200191505b5086810384528951815289516020918201918b019080838360005b83811015620008775781810151838201526020016200085d565b50505050905090810190601f168015620008a55780820380516001836020036101000a031916815260200191505b5086810383528851815288516020918201918a019080838360005b83811015620008da578181015183820152602001620008c0565b50505050905090810190601f168015620009085780820380516001836020036101000a031916815260200191505b50868103825287518152875160209182019189019080838360005b838110156200093d57818101518382015260200162000923565b50505050905090810190601f1680156200096b5780820380516001836020036101000a031916815260200191505b509b505050505050505050505050604051809103906000f08015801562000996573d6000803e3d6000fd5b509050806001866040518082805190602001908083835b60208310620009ce5780518252601f199092019160209182019101620009ad565b51815160209384036101000a60001901801990921691161790529201948552506040519384900381018420805473ffffffffffffffffffffffffffffffffffffffff1916600160a060020a03969096169590951790945550508651600292600192899290918291908401908083835b6020831062000a5e5780518252601f19909201916020918201910162000a3d565b51815160001960209485036101000a01908116901991909116179052920194855250604080519485900382018520548654600181018855600097885283882001805473ffffffffffffffffffffffffffffffffffffffff1916600160a060020a039283161790558d16855260608583018181528a519187019190915289517f49e41cf7f645152827d5c078de6829eb2dc16ae1ac0a4cbe6025d392d3cd7076978f978c97508e96509492938501926080860192908801918190849084905b8381101562000b3657818101518382015260200162000b1c565b50505050905090810190601f16801562000b645780820380516001836020036101000a031916815260200191505b50838103825284518152845160209182019186019080838360005b8381101562000b9957818101518382015260200162000b7f565b50505050905090810190601f16801562000bc75780820380516001836020036101000a031916815260200191505b509550505050505060405180910390a150505050505050565b600033868686868662000bf2620011f5565b8087600160a060020a0316600160a060020a03168152602001806020018060200180602001806020018060200186810386528b818151815260200191508051906020019080838360005b8381101562000c5657818101518382015260200162000c3c565b50505050905090810190601f16801562000c845780820380516001836020036101000a031916815260200191505b5086810385528a5181528a516020918201918c019080838360005b8381101562000cb957818101518382015260200162000c9f565b50505050905090810190601f16801562000ce75780820380516001836020036101000a031916815260200191505b5086810384528951815289516020918201918b019080838360005b8381101562000d1c57818101518382015260200162000d02565b50505050905090810190601f16801562000d4a5780820380516001836020036101000a031916815260200191505b5086810383528851815288516020918201918a019080838360005b8381101562000d7f57818101518382015260200162000d65565b50505050905090810190601f16801562000dad5780820380516001836020036101000a031916815260200191505b50868103825287518152875160209182019189019080838360005b8381101562000de257818101518382015260200162000dc8565b50505050905090810190601f16801562000e105780820380516001836020036101000a031916815260200191505b509b505050505050505050505050604051809103906000f08015801562000e3b573d6000803e3d6000fd5b509050806001866040518082805190602001908083835b6020831062000e735780518252601f19909201916020918201910162000e52565b51815160209384036101000a60001901801990921691161790529201948552506040519384900381018420805473ffffffffffffffffffffffffffffffffffffffff1916600160a060020a03969096169590951790945550508651600292600192899290918291908401908083835b6020831062000f035780518252601f19909201916020918201910162000ee2565b51815160001960209485036101000a01908116901991909116179052920194855250604080519485900382018520548654600181018855600097885283882001805473ffffffffffffffffffffffffffffffffffffffff1916600160a060020a039092169190911790553380865260608684018181528b51918801919091528a517f49e41cf7f645152827d5c078de6829eb2dc16ae1ac0a4cbe6025d392d3cd70769892978c97508e96509491938501926080860192880191908190849084905b8381101562000fde57818101518382015260200162000fc4565b50505050905090810190601f1680156200100c5780820380516001836020036101000a031916815260200191505b50838103825284518152845160209182019186019080838360005b838110156200104157818101518382015260200162001027565b50505050905090810190601f1680156200106f5780820380516001836020036101000a031916815260200191505b509550505050505060405180910390a1505050505050565b60606002805480602002602001604051908101604052809291908181526020018280548015620010e157602002820191906000526020600020905b8154600160a060020a03168152600190910190602001808311620010c2575b5050505050905090565b600280546060919060001981019081106200110257fe5b6000918252602082200154604080517fd13319c40000000000000000000000000000000000000000000000000000000081529051600160a060020a039092169263d13319c492600480840193829003018186803b1580156200116357600080fd5b505afa15801562001178573d6000803e3d6000fd5b505050506040513d6000823e601f3d908101601f191682016040526020811015620011a257600080fd5b810190808051640100000000811115620011bb57600080fd5b82016020810184811115620011cf57600080fd5b8151640100000000811182820187101715620011ea57600080fd5b509094505050505090565b6040516106d680620012078339019056fe608060405234801561001057600080fd5b506040516106d63803806106d6833981018060405260c081101561003357600080fd5b81516020830180519193928301929164010000000081111561005457600080fd5b8201602081018481111561006757600080fd5b815164010000000081118282018710171561008157600080fd5b5050929190602001805164010000000081111561009d57600080fd5b820160208101848111156100b057600080fd5b81516401000000008111828201871017156100ca57600080fd5b505092919060200180516401000000008111156100e657600080fd5b820160208101848111156100f957600080fd5b815164010000000081118282018710171561011357600080fd5b5050929190602001805164010000000081111561012f57600080fd5b8201602081018481111561014257600080fd5b815164010000000081118282018710171561015c57600080fd5b5050929190602001805164010000000081111561017857600080fd5b8201602081018481111561018b57600080fd5b81516401000000008111828201871017156101a557600080fd5b505060008054600160a060020a031916600160a060020a038b1617905586519093506101da9250600291506020870190610236565b5082516101ee906003906020860190610236565b508151610202906004906020850190610236565b508051610216906005906020840190610236565b50845161022a906001906020880190610236565b505050505050506102d1565b828054600181600116156101000203166002900490600052602060002090601f016020900481019282601f1061027757805160ff19168380011785556102a4565b828001600101855582156102a4579182015b828111156102a4578251825591602001919060010190610289565b506102b09291506102b4565b5090565b6102ce91905b808211156102b057600081556001016102ba565b90565b6103f6806102e06000396000f3fe6080604052600436106100775763ffffffff7c0100000000000000000000000000000000000000000000000000000000600035041663430fe9c1811461007c5780634c9f9fc314610106578063a4300ee51461011b578063b7ed5abc14610159578063ce6d41de1461016e578063d13319c414610183575b600080fd5b34801561008857600080fd5b50610091610198565b6040805160208082528351818301528351919283929083019185019080838360005b838110156100cb5781810151838201526020016100b3565b50505050905090810190601f1680156100f85780820380516001836020036101000a031916815260200191505b509250505060405180910390f35b34801561011257600080fd5b5061009161022e565b34801561012757600080fd5b5061013061028e565b6040805173ffffffffffffffffffffffffffffffffffffffff9092168252519081900360200190f35b34801561016557600080fd5b506100916102aa565b34801561017a57600080fd5b5061009161030b565b34801561018f57600080fd5b5061009161036c565b60038054604080516020601f60026000196101006001881615020190951694909404938401819004810282018101909252828152606093909290918301828280156102245780601f106101f957610100808354040283529160200191610224565b820191906000526020600020905b81548152906001019060200180831161020757829003601f168201915b5050505050905090565b60018054604080516020601f600260001961010087891615020190951694909404938401819004810282018101909252828152606093909290918301828280156102245780601f106101f957610100808354040283529160200191610224565b60005473ffffffffffffffffffffffffffffffffffffffff1690565b60058054604080516020601f60026000196101006001881615020190951694909404938401819004810282018101909252828152606093909290918301828280156102245780601f106101f957610100808354040283529160200191610224565b60048054604080516020601f60026000196101006001881615020190951694909404938401819004810282018101909252828152606093909290918301828280156102245780601f106101f957610100808354040283529160200191610224565b60028054604080516020601f60001961010060018716150201909416859004938401819004810282018101909252828152606093909290918301828280156102245780601f106101f95761010080835404028352916020019161022456fea165627a7a72305820fbb785ea4a1983aaac09f02495a11576d6390b9b6d071409bf34091009d7a24a0029a165627a7a72305820fd200e3e25d0f5bd3cb995fc5c34cc5c448c7ccc58c6253dd5511bf6f2ed433d0029",
  "source": "pragma solidity ^0.5.0;\n\nimport \"./branch.sol\";\nimport \"./issue.sol\";\n\ncontract repo{\n    string repoName;\n    string repoDescription;\n    address repoOwner;\n    uint creationDate;\n    address[] collaborators;\n    branch[] branches;\n    issue[] issues;\n    mapping (string => address) branchesMap; //branchName => branchContract\n    mapping (address => bool) collaboratorsMap;\n\n    constructor(string memory _repoName, string memory _repoDescription) public{\n        repoName = _repoName;\n        repoDescription = _repoDescription;\n        repoOwner = msg.sender;\n        collaboratorsMap[msg.sender] = true;\n        creationDate = now;\n        commit[] memory _commitArray;\n        branch masterBranch = new branch(\"master\", _commitArray);\n        branchesMap[\"master\"] = address(masterBranch);\n        branches.push(masterBranch);\n        emit branchCreated(repoName, \"master\");\n    }\n\n    event collaboratorAdded(address collaborator, address repoAddress, string repoName);\n    event collaboratorRemoved(address collaborator, address repoAddress, string repoName);\n    event branchCreated(string repoName, string branchName);\n    event issueCreated(string issueLabel, string issueMessage);\n\n    modifier onlyOwner(){\n        require(collaboratorsMap[msg.sender] == true);\n        _;\n    }\n\n    modifier onlyPermitted(){\n        //require(msg.sender == repoOwner);\n        _;\n    }\n\n    function addColaborator (address _collaborator) onlyOwner public{\n        collaborators.push(_collaborator);\n        collaboratorsMap[_collaborator] = true;\n        emit collaboratorAdded(_collaborator, address(this), repoName);\n    }\n\n    function removeCollaborator(address _collaborator) onlyOwner public{\n        collaboratorsMap[_collaborator] = false;\n        emit collaboratorRemoved(_collaborator, address(this), repoName);\n    }\n\n    function makeBranch(string memory _branchName) onlyPermitted public{\n        branch Branch = new branch(_branchName, branches[0].getCommitsArray());\n        branchesMap[_branchName] = address(Branch);\n        branches.push(branch(branchesMap[_branchName]));\n        emit branchCreated(repoName, _branchName);\n    }\n    function doMerge(commit[] memory originalBranhceCommits,commit[] memory mergedBranhceCommits,branch  mergedBranch) private returns(uint8) {\n            uint  diff = originalBranhceCommits.length -  mergedBranhceCommits.length;\n             if(originalBranhceCommits[originalBranhceCommits.length-1-diff] != mergedBranhceCommits[mergedBranhceCommits.length-1] )\n             {\n                return 99;\n             }\n             else{\n                uint  counter = mergedBranhceCommits.length;\n                for(uint i = 0; i < diff;i++ ){\n                    mergedBranch.parseCommit(originalBranhceCommits[counter].getAuthorAddress(),originalBranhceCommits[counter].getAuthoreName(),\n                    originalBranhceCommits[counter].getDate(), originalBranhceCommits[counter].getHash(),originalBranhceCommits[counter].getMessage(),originalBranhceCommits[counter].getChange());\n                    counter++;\n                }\n                \n                return 1;\n             }\n    }\n    function merge(string memory _firstBranchName,string memory _secondBranchName) public returns(uint8) {\n        branch firstBranche = branch(branchesMap[_firstBranchName]);\n        branch secondBranche = branch(branchesMap[_secondBranchName]);\n        commit[] memory firstBranchCommits = firstBranche.getCommitsArray();\n        commit[] memory secondBranchCommits = secondBranche.getCommitsArray();\n        if(keccak256(abi.encodePacked((firstBranchCommits[firstBranchCommits.length -1].getHash())))  == keccak256(abi.encodePacked((secondBranchCommits[secondBranchCommits.length -1].getHash())))){\n            return 0;\n        }\n        else if(secondBranchCommits.length  > firstBranchCommits.length){\n             return doMerge(secondBranchCommits,firstBranchCommits,firstBranche);\n        }\n        else{\n            return doMerge(firstBranchCommits,secondBranchCommits,secondBranche);\n        }\n    }\n\n    function makeIssue(string memory _issueLabel, string memory _issueMessage) public{\n        issues.push(new issue(_issueLabel, _issueMessage));\n        emit issueCreated(_issueLabel, _issueMessage);\n    }\n}",
  "sourcePath": "/home/yehia/Documents/Projects/hackathon/BlockHub/contracts/repo.sol",
  "compiler": {
    "name": "solc",
    "version": "0.5.0+commit.1d4f565a.Emscripten.clang"
  },
  "schemaVersion": "3.0.8",
  "updatedAt": "2019-08-01T14:29:18.941Z",
  "devdoc": {
    "methods": {}
  },
  "userdoc": {
    "methods": {}
  }
}