{
  "contractName": "repo",
  "abi": [
    {
      "inputs": [
        {
          "name": "_repoName",
          "type": "string"
        },
        {
          "name": "_repoDescription",
          "type": "string"
        }
      ],
      "payable": false,
      "stateMutability": "nonpayable",
      "type": "constructor"
    },
    {
      "anonymous": false,
      "inputs": [
        {
          "indexed": false,
          "name": "collaborator",
          "type": "address"
        },
        {
          "indexed": false,
          "name": "repoAddress",
          "type": "address"
        },
        {
          "indexed": false,
          "name": "repoName",
          "type": "string"
        }
      ],
      "name": "collaboratorAdded",
      "type": "event"
    },
    {
      "anonymous": false,
      "inputs": [
        {
          "indexed": false,
          "name": "collaborator",
          "type": "address"
        },
        {
          "indexed": false,
          "name": "repoAddress",
          "type": "address"
        },
        {
          "indexed": false,
          "name": "repoName",
          "type": "string"
        }
      ],
      "name": "collaboratorRemoved",
      "type": "event"
    },
    {
      "anonymous": false,
      "inputs": [
        {
          "indexed": false,
          "name": "repoName",
          "type": "string"
        },
        {
          "indexed": false,
          "name": "_branchName",
          "type": "string"
        }
      ],
      "name": "branchCreated",
      "type": "event"
    },
    {
      "constant": false,
      "inputs": [
        {
          "name": "_collaborator",
          "type": "address"
        }
      ],
      "name": "addColaborator",
      "outputs": [],
      "payable": false,
      "stateMutability": "nonpayable",
      "type": "function"
    },
    {
      "constant": false,
      "inputs": [
        {
          "name": "_collaborator",
          "type": "address"
        }
      ],
      "name": "removeCollaborator",
      "outputs": [],
      "payable": false,
      "stateMutability": "nonpayable",
      "type": "function"
    },
    {
      "constant": false,
      "inputs": [
        {
          "name": "_branchName",
          "type": "string"
        }
      ],
      "name": "makeBranch",
      "outputs": [],
      "payable": false,
      "stateMutability": "nonpayable",
      "type": "function"
    },
    {
      "constant": false,
      "inputs": [
        {
          "name": "_firstBranchName",
          "type": "string"
        },
        {
          "name": "_secondBranchName",
          "type": "string"
        }
      ],
      "name": "merge",
      "outputs": [
        {
          "name": "",
          "type": "uint8"
        }
      ],
      "payable": false,
      "stateMutability": "nonpayable",
      "type": "function"
    }
  ],
  "bytecode": "0x60806040523480156200001157600080fd5b50604051620045a7380380620045a7833981018060405260408110156200003757600080fd5b8101908080516401000000008111156200005057600080fd5b820160208101848111156200006457600080fd5b81516401000000008111828201871017156200007f57600080fd5b505092919060200180516401000000008111156200009c57600080fd5b82016020810184811115620000b057600080fd5b8151640100000000811182820187101715620000cb57600080fd5b50508451909350620000e792506000915060208501906200035a565b508051620000fd9060019060208401906200035a565b5060028054600160a060020a031916339081179091556000908152600760205260408120805460ff1916600117905542600355606090816200013e620003df565b60408082526006908201527f6d61737465720000000000000000000000000000000000000000000000000000606082015260806020808301828152845192840192909252835183929160a0840191868201910280838360005b83811015620001b157818101518382015260200162000197565b505050509050019350505050604051809103906000f080158015620001da573d6000803e3d6000fd5b50604080517f6d61737465720000000000000000000000000000000000000000000000000000815260068181015281519081900360260181208054600160a060020a038516600160a060020a03199182168117909255600580546001818101835560009283527f036b6384b5eca791c62761152d0c79bb0604c104a5fb6f4eb0703f3154bb3db090910180549093169093179091558383528054600292811615610100026000190116919091049282018390529293507fcc3654bbee02bd3fae9c6595c93933c3b2d0e04395572bb318cdf083a749cb7e929181906020820190606083019085908015620003125780601f10620002e65761010080835404028352916020019162000312565b820191906000526020600020905b815481529060010190602001808311620002f457829003601f168201915b5050928303905250600681527f6d6173746572000000000000000000000000000000000000000000000000000060208201526040805191829003019150a15050505062000410565b828054600181600116156101000203166002900490600052602060002090601f016020900481019282601f106200039d57805160ff1916838001178555620003cd565b82800160010185558215620003cd579182015b82811115620003cd578251825591602001919060010190620003b0565b50620003db929150620003f0565b5090565b60405161153c806200306b83390190565b6200040d91905b80821115620003db5760008155600101620003f7565b90565b612c4b80620004206000396000f3fe6080604052600436106200004d5763ffffffff60e060020a6000350416633109c19d8114620000525780634665f42e146200008b5780636794864c14620001e55780636882e174146200029f575b600080fd5b3480156200005f57600080fd5b5062000089600480360360208110156200007857600080fd5b5035600160a060020a0316620002d6565b005b3480156200009857600080fd5b50620001cf60048036036040811015620000b157600080fd5b810190602081018135640100000000811115620000cd57600080fd5b820183602082011115620000e057600080fd5b803590602001918460018302840111640100000000831117156200010357600080fd5b91908080601f01602080910402602001604051908101604052809392919081815260200183838082843760009201919091525092959493602081019350359150506401000000008111156200015757600080fd5b8201836020820111156200016a57600080fd5b803590602001918460018302840111640100000000831117156200018d57600080fd5b91908080601f016020809104026020016040519081016040528093929190818152602001838380828437600092019190915250929550620003dd945050505050565b6040805160ff9092168252519081900360200190f35b348015620001f257600080fd5b5062000089600480360360208110156200020b57600080fd5b8101906020810181356401000000008111156200022757600080fd5b8201836020820111156200023a57600080fd5b803590602001918460018302840111640100000000831117156200025d57600080fd5b91908080601f01602080910402602001604051908101604052809392919081815260200183838082843760009201919091525092955062000974945050505050565b348015620002ac57600080fd5b506200008960048036036020811015620002c557600080fd5b5035600160a060020a031662000dab565b3360009081526007602052604090205460ff161515600114620002f857600080fd5b600160a060020a0381166000818152600760209081526040808320805460ff1916905580519384523091840182905260609084018181528354600260001960018316156101000201909116049185018290527fda5be73e51d6f5cb5ffb0a89d4be5b7af868e0cc1ad3cdd45c39f5b1c1fbda5094869492909190608083019084908015620003ca5780601f106200039e57610100808354040283529160200191620003ca565b820191906000526020600020905b815481529060010190602001808311620003ac57829003601f168201915b505094505050505060405180910390a150565b6000806006846040518082805190602001908083835b60208310620004145780518252601f199092019160209182019101620003f3565b51815160209384036101000a60001901801990921691161790529201948552506040519384900381018420548751600160a060020a03909116955060009460069450889350918291908401908083835b60208310620004855780518252601f19909201916020918201910162000464565b51815160209384036101000a600019018019909216911617905292019485525060408051948590039091018420547fc7335c910000000000000000000000000000000000000000000000000000000085529051600160a060020a039182169550606094918716935063c7335c9192506004808301926000929190829003018186803b1580156200051457600080fd5b505afa15801562000529573d6000803e3d6000fd5b505050506040513d6000823e601f3d908101601f1916820160405260208110156200055357600080fd5b8101908080516401000000008111156200056c57600080fd5b820160208101848111156200058057600080fd5b81518560208202830111640100000000821117156200059e57600080fd5b50509291905050509050606082600160a060020a031663c7335c916040518163ffffffff1660e060020a02815260040160006040518083038186803b158015620005e757600080fd5b505afa158015620005fc573d6000803e3d6000fd5b505050506040513d6000823e601f3d908101601f1916820160405260208110156200062657600080fd5b8101908080516401000000008111156200063f57600080fd5b820160208101848111156200065357600080fd5b81518560208202830111640100000000821117156200067157600080fd5b5050805190945084935060001981019250821090506200068d57fe5b90602001906020020151600160a060020a031663d13319c46040518163ffffffff1660e060020a02815260040160006040518083038186803b158015620006d357600080fd5b505afa158015620006e8573d6000803e3d6000fd5b505050506040513d6000823e601f3d908101601f1916820160405260208110156200071257600080fd5b8101908080516401000000008111156200072b57600080fd5b820160208101848111156200073f57600080fd5b81516401000000008111828201871017156200075a57600080fd5b50509291905050506040516020018082805190602001908083835b60208310620007965780518252601f19909201916020918201910162000775565b6001836020036101000a03801982511681845116808217855250505050505090500191505060405160208183030381529060405280519060200120826001845103815181101515620007e457fe5b90602001906020020151600160a060020a031663d13319c46040518163ffffffff1660e060020a02815260040160006040518083038186803b1580156200082a57600080fd5b505afa1580156200083f573d6000803e3d6000fd5b505050506040513d6000823e601f3d908101601f1916820160405260208110156200086957600080fd5b8101908080516401000000008111156200088257600080fd5b820160208101848111156200089657600080fd5b8151640100000000811182820187101715620008b157600080fd5b50509291905050506040516020018082805190602001908083835b60208310620008ed5780518252601f199092019160209182019101620008cc565b6001836020036101000a0380198251168184511680821785525050505050509050019150506040516020818303038152906040528051906020012014156200093d5760009450505050506200096e565b81518151111562000961576200095581838662000ec3565b9450505050506200096e565b6200095582828562000ec3565b92915050565b600081600560008154811015156200098857fe5b6000918252602082200154604080517fc7335c910000000000000000000000000000000000000000000000000000000081529051600160a060020a039092169263c7335c9192600480840193829003018186803b158015620009e957600080fd5b505afa158015620009fe573d6000803e3d6000fd5b505050506040513d6000823e601f3d908101601f19168201604052602081101562000a2857600080fd5b81019080805164010000000081111562000a4157600080fd5b8201602081018481111562000a5557600080fd5b815185602082028301116401000000008211171562000a7357600080fd5b505092919050505062000a85620016d2565b604080825283519082015282518190602080830191606084019187019080838360005b8381101562000ac257818101518382015260200162000aa8565b50505050905090810190601f16801562000af05780820380516001836020036101000a031916815260200191505b508381038252845181528451602091820191808701910280838360005b8381101562000b2757818101518382015260200162000b0d565b50505050905001945050505050604051809103906000f08015801562000b51573d6000803e3d6000fd5b509050806006836040518082805190602001908083835b6020831062000b895780518252601f19909201916020918201910162000b68565b51815160209384036101000a60001901801990921691161790529201948552506040519384900381018420805473ffffffffffffffffffffffffffffffffffffffff1916600160a060020a03969096169590951790945550508351600592600692869290918291908401908083835b6020831062000c195780518252601f19909201916020918201910162000bf8565b518151600019602094850361010090810a8201928316921993909316919091179092529490920196875260408051978890038201882054895460018181018c5560009b8c52848c20909101805473ffffffffffffffffffffffffffffffffffffffff1916600160a060020a03909316929092179091558189528954600291811615909602909301909416919091049286018390527fcc3654bbee02bd3fae9c6595c93933c3b2d0e04395572bb318cdf083a749cb7e969589955093508392908301915060608301908690801562000d345780601f1062000d085761010080835404028352916020019162000d34565b820191906000526020600020905b81548152906001019060200180831162000d1657829003601f168201915b5050838103825284518152845160209182019186019080838360005b8381101562000d6a57818101518382015260200162000d50565b50505050905090810190601f16801562000d985780820380516001836020036101000a031916815260200191505b5094505050505060405180910390a15050565b3360009081526007602052604090205460ff16151560011462000dcd57600080fd5b6004805460018181019092557f8a35acfbc15ff81a39ae7d344fd709f28e8600b4aa8c65c6b64bfe7fe36bd19b018054600160a060020a03841673ffffffffffffffffffffffffffffffffffffffff1990911681179091556000818152600760209081526040808320805460ff19168617905580519384523091840182905260609084018181528354600296811615610100026000190116959095049084018190527f126c0c1cb9112bc67424ee87f5f11d2f169bf930d54b28db48e81737dec47eb594869492939291608083019084908015620003ca5780601f106200039e57610100808354040283529160200191620003ca565b8151835160009190819003908490600019810190811062000ee057fe5b90602001906020020151600160a060020a0316858260018851030381518110151562000f0857fe5b60209081029091010151600160a060020a03161462000f2c576063915050620016cb565b835160005b82811015620016c35784600160a060020a03166379397dca888481518110151562000f5857fe5b90602001906020020151600160a060020a031663a4300ee56040518163ffffffff1660e060020a02815260040160206040518083038186803b15801562000f9e57600080fd5b505afa15801562000fb3573d6000803e3d6000fd5b505050506040513d602081101562000fca57600080fd5b505189518a908690811062000fdb57fe5b90602001906020020151600160a060020a0316634c9f9fc36040518163ffffffff1660e060020a02815260040160006040518083038186803b1580156200102157600080fd5b505afa15801562001036573d6000803e3d6000fd5b505050506040513d6000823e601f3d908101601f1916820160405260208110156200106057600080fd5b8101908080516401000000008111156200107957600080fd5b820160208101848111156200108d57600080fd5b8151640100000000811182820187101715620010a857600080fd5b50508d519093508d92508891508110620010be57fe5b90602001906020020151600160a060020a031663430fe9c16040518163ffffffff1660e060020a02815260040160006040518083038186803b1580156200110457600080fd5b505afa15801562001119573d6000803e3d6000fd5b505050506040513d6000823e601f3d908101601f1916820160405260208110156200114357600080fd5b8101908080516401000000008111156200115c57600080fd5b820160208101848111156200117057600080fd5b81516401000000008111828201871017156200118b57600080fd5b50508e519093508e92508991508110620011a157fe5b90602001906020020151600160a060020a031663d13319c46040518163ffffffff1660e060020a02815260040160006040518083038186803b158015620011e757600080fd5b505afa158015620011fc573d6000803e3d6000fd5b505050506040513d6000823e601f3d908101601f1916820160405260208110156200122657600080fd5b8101908080516401000000008111156200123f57600080fd5b820160208101848111156200125357600080fd5b81516401000000008111828201871017156200126e57600080fd5b50508f519093508f92508a915081106200128457fe5b90602001906020020151600160a060020a031663ce6d41de6040518163ffffffff1660e060020a02815260040160006040518083038186803b158015620012ca57600080fd5b505afa158015620012df573d6000803e3d6000fd5b505050506040513d6000823e601f3d908101601f1916820160405260208110156200130957600080fd5b8101908080516401000000008111156200132257600080fd5b820160208101848111156200133657600080fd5b81516401000000008111828201871017156200135157600080fd5b50509291905050508d898151811015156200136857fe5b90602001906020020151600160a060020a031663b7ed5abc6040518163ffffffff1660e060020a02815260040160006040518083038186803b158015620013ae57600080fd5b505afa158015620013c3573d6000803e3d6000fd5b505050506040513d6000823e601f3d908101601f191682016040526020811015620013ed57600080fd5b8101908080516401000000008111156200140657600080fd5b820160208101848111156200141a57600080fd5b81516401000000008111828201871017156200143557600080fd5b50509291905050506040518763ffffffff1660e060020a0281526004018087600160a060020a0316600160a060020a03168152602001806020018060200180602001806020018060200186810386528b818151815260200191508051906020019080838360005b83811015620014b65781810151838201526020016200149c565b50505050905090810190601f168015620014e45780820380516001836020036101000a031916815260200191505b5086810385528a5181528a516020918201918c019080838360005b8381101562001519578181015183820152602001620014ff565b50505050905090810190601f168015620015475780820380516001836020036101000a031916815260200191505b5086810384528951815289516020918201918b019080838360005b838110156200157c57818101518382015260200162001562565b50505050905090810190601f168015620015aa5780820380516001836020036101000a031916815260200191505b5086810383528851815288516020918201918a019080838360005b83811015620015df578181015183820152602001620015c5565b50505050905090810190601f1680156200160d5780820380516001836020036101000a031916815260200191505b50868103825287518152875160209182019189019080838360005b838110156200164257818101518382015260200162001628565b50505050905090810190601f168015620016705780820380516001836020036101000a031916815260200191505b509b505050505050505050505050600060405180830381600087803b1580156200169957600080fd5b505af1158015620016ae573d6000803e3d6000fd5b50505060019283019291909101905062000f31565b506001925050505b9392505050565b60405161153c80620016e48339019056fe60806040523480156200001157600080fd5b506040516200153c3803806200153c833981018060405260408110156200003757600080fd5b8101908080516401000000008111156200005057600080fd5b820160208101848111156200006457600080fd5b81516401000000008111828201871017156200007f57600080fd5b505092919060200180516401000000008111156200009c57600080fd5b82016020810184811115620000b057600080fd5b8151856020820283011164010000000082111715620000ce57600080fd5b50508451909350620000ea9250600091506020850190620002cc565b5080516200010090600290602084019062000351565b5062000115816401000000006200011d810204565b5050620003fe565b60005b8151811015620002c85781818151811015156200013957fe5b90602001906020020151600183838151811015156200015457fe5b90602001906020020151600160a060020a031663d13319c46040518163ffffffff167c010000000000000000000000000000000000000000000000000000000002815260040160006040518083038186803b158015620001b357600080fd5b505afa158015620001c8573d6000803e3d6000fd5b505050506040513d6000823e601f3d908101601f191682016040526020811015620001f257600080fd5b8101908080516401000000008111156200020b57600080fd5b820160208101848111156200021f57600080fd5b81516401000000008111828201871017156200023a57600080fd5b50509291905050506040518082805190602001908083835b60208310620002735780518252601f19909201916020918201910162000252565b51815160209384036101000a600019018019909216911617905292019485525060405193849003019092208054600160a060020a031916600160a060020a039490941693909317909255505060010162000120565b5050565b828054600181600116156101000203166002900490600052602060002090601f016020900481019282601f106200030f57805160ff19168380011785556200033f565b828001600101855582156200033f579182015b828111156200033f57825182559160200191906001019062000322565b506200034d929150620003b7565b5090565b828054828255906000526020600020908101928215620003a9579160200282015b82811115620003a95782518254600160a060020a031916600160a060020a0390911617825560209092019160019091019062000372565b506200034d929150620003d7565b620003d491905b808211156200034d5760008155600101620003be565b90565b620003d491905b808211156200034d578054600160a060020a0319168155600101620003de565b61112e806200040e6000396000f3fe6080604052600436106100565763ffffffff7c010000000000000000000000000000000000000000000000000000000060003504166379397dca811461005b578063c7335c911461033c578063eae2db7a146103a1575b600080fd5b34801561006757600080fd5b5061033a600480360360c081101561007e57600080fd5b600160a060020a0382351691908101906040810160208201356401000000008111156100a957600080fd5b8201836020820111156100bb57600080fd5b803590602001918460018302840111640100000000831117156100dd57600080fd5b91908080601f016020809104026020016040519081016040528093929190818152602001838380828437600092019190915250929594936020810193503591505064010000000081111561013057600080fd5b82018360208201111561014257600080fd5b8035906020019184600183028401116401000000008311171561016457600080fd5b91908080601f01602080910402602001604051908101604052809392919081815260200183838082843760009201919091525092959493602081019350359150506401000000008111156101b757600080fd5b8201836020820111156101c957600080fd5b803590602001918460018302840111640100000000831117156101eb57600080fd5b91908080601f016020809104026020016040519081016040528093929190818152602001838380828437600092019190915250929594936020810193503591505064010000000081111561023e57600080fd5b82018360208201111561025057600080fd5b8035906020019184600183028401116401000000008311171561027257600080fd5b91908080601f01602080910402602001604051908101604052809392919081815260200183838082843760009201919091525092959493602081019350359150506401000000008111156102c557600080fd5b8201836020820111156102d757600080fd5b803590602001918460018302840111640100000000831117156102f957600080fd5b91908080601f01602080910402602001604051908101604052809392919081815260200183838082843760009201919091525092955061042b945050505050565b005b34801561034857600080fd5b506103516108b7565b60408051602080825283518183015283519192839290830191858101910280838360005b8381101561038d578181015183820152602001610375565b505050509050019250505060405180910390f35b3480156103ad57600080fd5b506103b6610919565b6040805160208082528351818301528351919283929083019185019080838360005b838110156103f05781810151838201526020016103d8565b50505050905090810190601f16801561041d5780820380516001836020036101000a031916815260200191505b509250505060405180910390f35b600086868686868661043b610a1c565b8087600160a060020a0316600160a060020a03168152602001806020018060200180602001806020018060200186810386528b818151815260200191508051906020019080838360005b8381101561049d578181015183820152602001610485565b50505050905090810190601f1680156104ca5780820380516001836020036101000a031916815260200191505b5086810385528a5181528a516020918201918c019080838360005b838110156104fd5781810151838201526020016104e5565b50505050905090810190601f16801561052a5780820380516001836020036101000a031916815260200191505b5086810384528951815289516020918201918b019080838360005b8381101561055d578181015183820152602001610545565b50505050905090810190601f16801561058a5780820380516001836020036101000a031916815260200191505b5086810383528851815288516020918201918a019080838360005b838110156105bd5781810151838201526020016105a5565b50505050905090810190601f1680156105ea5780820380516001836020036101000a031916815260200191505b50868103825287518152875160209182019189019080838360005b8381101561061d578181015183820152602001610605565b50505050905090810190601f16801561064a5780820380516001836020036101000a031916815260200191505b509b505050505050505050505050604051809103906000f080158015610674573d6000803e3d6000fd5b509050806001866040518082805190602001908083835b602083106106aa5780518252601f19909201916020918201910161068b565b51815160209384036101000a60001901801990921691161790529201948552506040519384900381018420805473ffffffffffffffffffffffffffffffffffffffff1916600160a060020a03969096169590951790945550508651600292600192899290918291908401908083835b602083106107385780518252601f199092019160209182019101610719565b51815160001960209485036101000a01908116901991909116179052920194855250604080519485900382018520548654600181018855600097885283882001805473ffffffffffffffffffffffffffffffffffffffff1916600160a060020a039092169190911790553380865260608684018181528b51918801919091528a517f49e41cf7f645152827d5c078de6829eb2dc16ae1ac0a4cbe6025d392d3cd70769892978c97508e96509491938501926080860192880191908190849084905b838110156108115781810151838201526020016107f9565b50505050905090810190601f16801561083e5780820380516001836020036101000a031916815260200191505b50838103825284518152845160209182019186019080838360005b83811015610871578181015183820152602001610859565b50505050905090810190601f16801561089e5780820380516001836020036101000a031916815260200191505b509550505050505060405180910390a150505050505050565b6060600280548060200260200160405190810160405280929190818152602001828054801561090f57602002820191906000526020600020905b8154600160a060020a031681526001909101906020018083116108f1575b5050505050905090565b6002805460609190600019810190811061092f57fe5b6000918252602082200154604080517fd13319c40000000000000000000000000000000000000000000000000000000081529051600160a060020a039092169263d13319c492600480840193829003018186803b15801561098f57600080fd5b505afa1580156109a3573d6000803e3d6000fd5b505050506040513d6000823e601f3d908101601f1916820160405260208110156109cc57600080fd5b8101908080516401000000008111156109e457600080fd5b820160208101848111156109f757600080fd5b8151640100000000811182820187101715610a1157600080fd5b509094505050505090565b6040516106d680610a2d8339019056fe608060405234801561001057600080fd5b506040516106d63803806106d6833981018060405260c081101561003357600080fd5b81516020830180519193928301929164010000000081111561005457600080fd5b8201602081018481111561006757600080fd5b815164010000000081118282018710171561008157600080fd5b5050929190602001805164010000000081111561009d57600080fd5b820160208101848111156100b057600080fd5b81516401000000008111828201871017156100ca57600080fd5b505092919060200180516401000000008111156100e657600080fd5b820160208101848111156100f957600080fd5b815164010000000081118282018710171561011357600080fd5b5050929190602001805164010000000081111561012f57600080fd5b8201602081018481111561014257600080fd5b815164010000000081118282018710171561015c57600080fd5b5050929190602001805164010000000081111561017857600080fd5b8201602081018481111561018b57600080fd5b81516401000000008111828201871017156101a557600080fd5b505060008054600160a060020a031916600160a060020a038b1617905586519093506101da9250600291506020870190610236565b5082516101ee906003906020860190610236565b508151610202906004906020850190610236565b508051610216906005906020840190610236565b50845161022a906001906020880190610236565b505050505050506102d1565b828054600181600116156101000203166002900490600052602060002090601f016020900481019282601f1061027757805160ff19168380011785556102a4565b828001600101855582156102a4579182015b828111156102a4578251825591602001919060010190610289565b506102b09291506102b4565b5090565b6102ce91905b808211156102b057600081556001016102ba565b90565b6103f6806102e06000396000f3fe6080604052600436106100775763ffffffff7c0100000000000000000000000000000000000000000000000000000000600035041663430fe9c1811461007c5780634c9f9fc314610106578063a4300ee51461011b578063b7ed5abc14610159578063ce6d41de1461016e578063d13319c414610183575b600080fd5b34801561008857600080fd5b50610091610198565b6040805160208082528351818301528351919283929083019185019080838360005b838110156100cb5781810151838201526020016100b3565b50505050905090810190601f1680156100f85780820380516001836020036101000a031916815260200191505b509250505060405180910390f35b34801561011257600080fd5b5061009161022e565b34801561012757600080fd5b5061013061028e565b6040805173ffffffffffffffffffffffffffffffffffffffff9092168252519081900360200190f35b34801561016557600080fd5b506100916102aa565b34801561017a57600080fd5b5061009161030b565b34801561018f57600080fd5b5061009161036c565b60038054604080516020601f60026000196101006001881615020190951694909404938401819004810282018101909252828152606093909290918301828280156102245780601f106101f957610100808354040283529160200191610224565b820191906000526020600020905b81548152906001019060200180831161020757829003601f168201915b5050505050905090565b60018054604080516020601f600260001961010087891615020190951694909404938401819004810282018101909252828152606093909290918301828280156102245780601f106101f957610100808354040283529160200191610224565b60005473ffffffffffffffffffffffffffffffffffffffff1690565b60058054604080516020601f60026000196101006001881615020190951694909404938401819004810282018101909252828152606093909290918301828280156102245780601f106101f957610100808354040283529160200191610224565b60048054604080516020601f60026000196101006001881615020190951694909404938401819004810282018101909252828152606093909290918301828280156102245780601f106101f957610100808354040283529160200191610224565b60028054604080516020601f60001961010060018716150201909416859004938401819004810282018101909252828152606093909290918301828280156102245780601f106101f95761010080835404028352916020019161022456fea165627a7a72305820fbb785ea4a1983aaac09f02495a11576d6390b9b6d071409bf34091009d7a24a0029a165627a7a7230582082a1cce756166752dba71ac012a1266ea92b9c621c961dfa803a2afee7ee271a0029a165627a7a723058202c1fe7398d5f2032d0112cf3b53c01549f81c4eefd06b61111bfdc0b0daccee4002960806040523480156200001157600080fd5b506040516200153c3803806200153c833981018060405260408110156200003757600080fd5b8101908080516401000000008111156200005057600080fd5b820160208101848111156200006457600080fd5b81516401000000008111828201871017156200007f57600080fd5b505092919060200180516401000000008111156200009c57600080fd5b82016020810184811115620000b057600080fd5b8151856020820283011164010000000082111715620000ce57600080fd5b50508451909350620000ea9250600091506020850190620002cc565b5080516200010090600290602084019062000351565b5062000115816401000000006200011d810204565b5050620003fe565b60005b8151811015620002c85781818151811015156200013957fe5b90602001906020020151600183838151811015156200015457fe5b90602001906020020151600160a060020a031663d13319c46040518163ffffffff167c010000000000000000000000000000000000000000000000000000000002815260040160006040518083038186803b158015620001b357600080fd5b505afa158015620001c8573d6000803e3d6000fd5b505050506040513d6000823e601f3d908101601f191682016040526020811015620001f257600080fd5b8101908080516401000000008111156200020b57600080fd5b820160208101848111156200021f57600080fd5b81516401000000008111828201871017156200023a57600080fd5b50509291905050506040518082805190602001908083835b60208310620002735780518252601f19909201916020918201910162000252565b51815160209384036101000a600019018019909216911617905292019485525060405193849003019092208054600160a060020a031916600160a060020a039490941693909317909255505060010162000120565b5050565b828054600181600116156101000203166002900490600052602060002090601f016020900481019282601f106200030f57805160ff19168380011785556200033f565b828001600101855582156200033f579182015b828111156200033f57825182559160200191906001019062000322565b506200034d929150620003b7565b5090565b828054828255906000526020600020908101928215620003a9579160200282015b82811115620003a95782518254600160a060020a031916600160a060020a0390911617825560209092019160019091019062000372565b506200034d929150620003d7565b620003d491905b808211156200034d5760008155600101620003be565b90565b620003d491905b808211156200034d578054600160a060020a0319168155600101620003de565b61112e806200040e6000396000f3fe6080604052600436106100565763ffffffff7c010000000000000000000000000000000000000000000000000000000060003504166379397dca811461005b578063c7335c911461033c578063eae2db7a146103a1575b600080fd5b34801561006757600080fd5b5061033a600480360360c081101561007e57600080fd5b600160a060020a0382351691908101906040810160208201356401000000008111156100a957600080fd5b8201836020820111156100bb57600080fd5b803590602001918460018302840111640100000000831117156100dd57600080fd5b91908080601f016020809104026020016040519081016040528093929190818152602001838380828437600092019190915250929594936020810193503591505064010000000081111561013057600080fd5b82018360208201111561014257600080fd5b8035906020019184600183028401116401000000008311171561016457600080fd5b91908080601f01602080910402602001604051908101604052809392919081815260200183838082843760009201919091525092959493602081019350359150506401000000008111156101b757600080fd5b8201836020820111156101c957600080fd5b803590602001918460018302840111640100000000831117156101eb57600080fd5b91908080601f016020809104026020016040519081016040528093929190818152602001838380828437600092019190915250929594936020810193503591505064010000000081111561023e57600080fd5b82018360208201111561025057600080fd5b8035906020019184600183028401116401000000008311171561027257600080fd5b91908080601f01602080910402602001604051908101604052809392919081815260200183838082843760009201919091525092959493602081019350359150506401000000008111156102c557600080fd5b8201836020820111156102d757600080fd5b803590602001918460018302840111640100000000831117156102f957600080fd5b91908080601f01602080910402602001604051908101604052809392919081815260200183838082843760009201919091525092955061042b945050505050565b005b34801561034857600080fd5b506103516108b7565b60408051602080825283518183015283519192839290830191858101910280838360005b8381101561038d578181015183820152602001610375565b505050509050019250505060405180910390f35b3480156103ad57600080fd5b506103b6610919565b6040805160208082528351818301528351919283929083019185019080838360005b838110156103f05781810151838201526020016103d8565b50505050905090810190601f16801561041d5780820380516001836020036101000a031916815260200191505b509250505060405180910390f35b600086868686868661043b610a1c565b8087600160a060020a0316600160a060020a03168152602001806020018060200180602001806020018060200186810386528b818151815260200191508051906020019080838360005b8381101561049d578181015183820152602001610485565b50505050905090810190601f1680156104ca5780820380516001836020036101000a031916815260200191505b5086810385528a5181528a516020918201918c019080838360005b838110156104fd5781810151838201526020016104e5565b50505050905090810190601f16801561052a5780820380516001836020036101000a031916815260200191505b5086810384528951815289516020918201918b019080838360005b8381101561055d578181015183820152602001610545565b50505050905090810190601f16801561058a5780820380516001836020036101000a031916815260200191505b5086810383528851815288516020918201918a019080838360005b838110156105bd5781810151838201526020016105a5565b50505050905090810190601f1680156105ea5780820380516001836020036101000a031916815260200191505b50868103825287518152875160209182019189019080838360005b8381101561061d578181015183820152602001610605565b50505050905090810190601f16801561064a5780820380516001836020036101000a031916815260200191505b509b505050505050505050505050604051809103906000f080158015610674573d6000803e3d6000fd5b509050806001866040518082805190602001908083835b602083106106aa5780518252601f19909201916020918201910161068b565b51815160209384036101000a60001901801990921691161790529201948552506040519384900381018420805473ffffffffffffffffffffffffffffffffffffffff1916600160a060020a03969096169590951790945550508651600292600192899290918291908401908083835b602083106107385780518252601f199092019160209182019101610719565b51815160001960209485036101000a01908116901991909116179052920194855250604080519485900382018520548654600181018855600097885283882001805473ffffffffffffffffffffffffffffffffffffffff1916600160a060020a039092169190911790553380865260608684018181528b51918801919091528a517f49e41cf7f645152827d5c078de6829eb2dc16ae1ac0a4cbe6025d392d3cd70769892978c97508e96509491938501926080860192880191908190849084905b838110156108115781810151838201526020016107f9565b50505050905090810190601f16801561083e5780820380516001836020036101000a031916815260200191505b50838103825284518152845160209182019186019080838360005b83811015610871578181015183820152602001610859565b50505050905090810190601f16801561089e5780820380516001836020036101000a031916815260200191505b509550505050505060405180910390a150505050505050565b6060600280548060200260200160405190810160405280929190818152602001828054801561090f57602002820191906000526020600020905b8154600160a060020a031681526001909101906020018083116108f1575b5050505050905090565b6002805460609190600019810190811061092f57fe5b6000918252602082200154604080517fd13319c40000000000000000000000000000000000000000000000000000000081529051600160a060020a039092169263d13319c492600480840193829003018186803b15801561098f57600080fd5b505afa1580156109a3573d6000803e3d6000fd5b505050506040513d6000823e601f3d908101601f1916820160405260208110156109cc57600080fd5b8101908080516401000000008111156109e457600080fd5b820160208101848111156109f757600080fd5b8151640100000000811182820187101715610a1157600080fd5b509094505050505090565b6040516106d680610a2d8339019056fe608060405234801561001057600080fd5b506040516106d63803806106d6833981018060405260c081101561003357600080fd5b81516020830180519193928301929164010000000081111561005457600080fd5b8201602081018481111561006757600080fd5b815164010000000081118282018710171561008157600080fd5b5050929190602001805164010000000081111561009d57600080fd5b820160208101848111156100b057600080fd5b81516401000000008111828201871017156100ca57600080fd5b505092919060200180516401000000008111156100e657600080fd5b820160208101848111156100f957600080fd5b815164010000000081118282018710171561011357600080fd5b5050929190602001805164010000000081111561012f57600080fd5b8201602081018481111561014257600080fd5b815164010000000081118282018710171561015c57600080fd5b5050929190602001805164010000000081111561017857600080fd5b8201602081018481111561018b57600080fd5b81516401000000008111828201871017156101a557600080fd5b505060008054600160a060020a031916600160a060020a038b1617905586519093506101da9250600291506020870190610236565b5082516101ee906003906020860190610236565b508151610202906004906020850190610236565b508051610216906005906020840190610236565b50845161022a906001906020880190610236565b505050505050506102d1565b828054600181600116156101000203166002900490600052602060002090601f016020900481019282601f1061027757805160ff19168380011785556102a4565b828001600101855582156102a4579182015b828111156102a4578251825591602001919060010190610289565b506102b09291506102b4565b5090565b6102ce91905b808211156102b057600081556001016102ba565b90565b6103f6806102e06000396000f3fe6080604052600436106100775763ffffffff7c0100000000000000000000000000000000000000000000000000000000600035041663430fe9c1811461007c5780634c9f9fc314610106578063a4300ee51461011b578063b7ed5abc14610159578063ce6d41de1461016e578063d13319c414610183575b600080fd5b34801561008857600080fd5b50610091610198565b6040805160208082528351818301528351919283929083019185019080838360005b838110156100cb5781810151838201526020016100b3565b50505050905090810190601f1680156100f85780820380516001836020036101000a031916815260200191505b509250505060405180910390f35b34801561011257600080fd5b5061009161022e565b34801561012757600080fd5b5061013061028e565b6040805173ffffffffffffffffffffffffffffffffffffffff9092168252519081900360200190f35b34801561016557600080fd5b506100916102aa565b34801561017a57600080fd5b5061009161030b565b34801561018f57600080fd5b5061009161036c565b60038054604080516020601f60026000196101006001881615020190951694909404938401819004810282018101909252828152606093909290918301828280156102245780601f106101f957610100808354040283529160200191610224565b820191906000526020600020905b81548152906001019060200180831161020757829003601f168201915b5050505050905090565b60018054604080516020601f600260001961010087891615020190951694909404938401819004810282018101909252828152606093909290918301828280156102245780601f106101f957610100808354040283529160200191610224565b60005473ffffffffffffffffffffffffffffffffffffffff1690565b60058054604080516020601f60026000196101006001881615020190951694909404938401819004810282018101909252828152606093909290918301828280156102245780601f106101f957610100808354040283529160200191610224565b60048054604080516020601f60026000196101006001881615020190951694909404938401819004810282018101909252828152606093909290918301828280156102245780601f106101f957610100808354040283529160200191610224565b60028054604080516020601f60001961010060018716150201909416859004938401819004810282018101909252828152606093909290918301828280156102245780601f106101f95761010080835404028352916020019161022456fea165627a7a72305820fbb785ea4a1983aaac09f02495a11576d6390b9b6d071409bf34091009d7a24a0029a165627a7a7230582082a1cce756166752dba71ac012a1266ea92b9c621c961dfa803a2afee7ee271a0029",
  "source": "pragma solidity ^0.5.0;\n\nimport \"./branch.sol\";\n\ncontract repo{\n    string repoName;\n    string repoDescription;\n    address repoOwner;\n    uint creationDate;\n    address[] collaborators;\n    branch[] branches;\n    mapping (string => address) branchesMap; //branchName => branchContract\n    mapping (address => bool) collaboratorsMap;\n\n    constructor(string memory _repoName, string memory _repoDescription) public{\n        repoName = _repoName;\n        repoDescription = _repoDescription;\n        repoOwner = msg.sender;\n        collaboratorsMap[msg.sender] = true;\n        creationDate = now;\n        commit[] memory _commitArray;\n        branch masterBranch = new branch(\"master\", _commitArray);\n        branchesMap[\"master\"] = address(masterBranch);\n        branches.push(masterBranch);\n        emit branchCreated(repoName, \"master\");\n    }\n\n    event collaboratorAdded(address collaborator, address repoAddress, string repoName);\n    event collaboratorRemoved(address collaborator, address repoAddress, string repoName);\n    event branchCreated(string repoName, string _branchName);\n\n    modifier onlyOwner(){\n        require(collaboratorsMap[msg.sender] == true);\n        _;\n    }\n\n    modifier onlyPermitted(){\n        //require(msg.sender == repoOwner);\n        _;\n    }\n\n    function addColaborator (address _collaborator) onlyOwner public{\n        collaborators.push(_collaborator);\n        collaboratorsMap[_collaborator] = true;\n        emit collaboratorAdded(_collaborator, address(this), repoName);\n    }\n\n    function removeCollaborator(address _collaborator) onlyOwner public{\n        collaboratorsMap[_collaborator] = false;\n        emit collaboratorRemoved(_collaborator, address(this), repoName);\n    }\n\n    function makeBranch(string memory _branchName) onlyPermitted public{\n        branch Branch = new branch(_branchName, branches[0].getCommitsArray());\n        branchesMap[_branchName] = address(Branch);\n        branches.push(branch(branchesMap[_branchName]));\n\n        emit branchCreated(repoName, _branchName);\n    }\n    function doMerge(commit[] memory originalBranhceCommits,commit[] memory mergedBranhceCommits,branch  mergedBranch) private returns(uint8) {\n            uint  diff = originalBranhceCommits.length -  mergedBranhceCommits.length;\n             if(originalBranhceCommits[originalBranhceCommits.length-1-diff] != mergedBranhceCommits[mergedBranhceCommits.length-1] )\n             {\n                return 99;\n             }\n             else{\n                uint  counter = mergedBranhceCommits.length;\n                for(uint i = 0; i < diff;i++ ){\n                    mergedBranch.parseCommit(originalBranhceCommits[counter].getAuthorAddress(),originalBranhceCommits[counter].getAuthoreName(),\n                    originalBranhceCommits[counter].getDate(), originalBranhceCommits[counter].getHash(),originalBranhceCommits[counter].getMessage(),originalBranhceCommits[counter].getChange());\n                    counter++;\n                }\n                \n                return 1;\n             }\n    }\n    function merge(string memory _firstBranchName,string memory _secondBranchName) public returns(uint8) {\n        branch firstBranche = branch(branchesMap[_firstBranchName]);\n        branch secondBranche = branch(branchesMap[_secondBranchName]);\n        commit[] memory firstBranchCommits = firstBranche.getCommitsArray();\n        commit[] memory secondBranchCommits = secondBranche.getCommitsArray();\n        if(keccak256(abi.encodePacked((firstBranchCommits[firstBranchCommits.length -1].getHash())))  ==keccak256(abi.encodePacked((secondBranchCommits[secondBranchCommits.length -1].getHash())))){\n            return 0;\n        }\n        else if(secondBranchCommits.length  > firstBranchCommits.length){\n             return doMerge(secondBranchCommits,firstBranchCommits,firstBranche);\n        }\n        else{\n            return doMerge(firstBranchCommits,secondBranchCommits,secondBranche);\n        }\n    }\n}",
  "sourcePath": "/home/yehia/Documents/Projects/hackathon/BlockHub/contracts/repo.sol",
  "compiler": {
    "name": "solc",
    "version": "0.5.0+commit.1d4f565a.Emscripten.clang"
  },
  "schemaVersion": "3.0.8",
  "updatedAt": "2019-07-31T18:28:07.097Z",
  "devdoc": {
    "methods": {}
  },
  "userdoc": {
    "methods": {}
  }
}