{
  "contractName": "repo",
  "abi": [
    {
      "inputs": [
        {
          "name": "_repoName",
          "type": "string"
        },
        {
          "name": "_repoDescription",
          "type": "string"
        }
      ],
      "payable": false,
      "stateMutability": "nonpayable",
      "type": "constructor"
    },
    {
      "anonymous": false,
      "inputs": [
        {
          "indexed": false,
          "name": "collaborator",
          "type": "address"
        },
        {
          "indexed": false,
          "name": "repoAddress",
          "type": "address"
        },
        {
          "indexed": false,
          "name": "repoName",
          "type": "string"
        }
      ],
      "name": "collaboratorAdded",
      "type": "event"
    },
    {
      "anonymous": false,
      "inputs": [
        {
          "indexed": false,
          "name": "collaborator",
          "type": "address"
        },
        {
          "indexed": false,
          "name": "repoAddress",
          "type": "address"
        },
        {
          "indexed": false,
          "name": "repoName",
          "type": "string"
        }
      ],
      "name": "collaboratorRemoved",
      "type": "event"
    },
    {
      "anonymous": false,
      "inputs": [
        {
          "indexed": false,
          "name": "repoName",
          "type": "string"
        },
        {
          "indexed": false,
          "name": "branchAddress",
          "type": "address"
        },
        {
          "indexed": false,
          "name": "branchName",
          "type": "string"
        }
      ],
      "name": "branchCreated",
      "type": "event"
    },
    {
      "anonymous": false,
      "inputs": [
        {
          "indexed": false,
          "name": "issueLabel",
          "type": "string"
        },
        {
          "indexed": false,
          "name": "issueMessage",
          "type": "string"
        }
      ],
      "name": "issueCreated",
      "type": "event"
    },
    {
      "constant": true,
      "inputs": [],
      "name": "getMasterBranch",
      "outputs": [
        {
          "name": "",
          "type": "address"
        }
      ],
      "payable": false,
      "stateMutability": "view",
      "type": "function"
    },
    {
      "constant": false,
      "inputs": [
        {
          "name": "_collaborator",
          "type": "address"
        }
      ],
      "name": "addColaborator",
      "outputs": [],
      "payable": false,
      "stateMutability": "nonpayable",
      "type": "function"
    },
    {
      "constant": false,
      "inputs": [
        {
          "name": "_collaborator",
          "type": "address"
        }
      ],
      "name": "removeCollaborator",
      "outputs": [],
      "payable": false,
      "stateMutability": "nonpayable",
      "type": "function"
    },
    {
      "constant": false,
      "inputs": [
        {
          "name": "Commit",
          "type": "address"
        },
        {
          "name": "_addedFiles",
          "type": "bytes32[]"
        },
        {
          "name": "_addedLines",
          "type": "bytes32[]"
        },
        {
          "name": "_removedFiles",
          "type": "bytes32[]"
        },
        {
          "name": "_removedLines",
          "type": "bytes32[]"
        }
      ],
      "name": "parseChanges",
      "outputs": [],
      "payable": false,
      "stateMutability": "nonpayable",
      "type": "function"
    },
    {
      "constant": false,
      "inputs": [
        {
          "name": "_branchName",
          "type": "string"
        }
      ],
      "name": "makeBranch",
      "outputs": [],
      "payable": false,
      "stateMutability": "nonpayable",
      "type": "function"
    },
    {
      "constant": false,
      "inputs": [
        {
          "name": "_firstBranchName",
          "type": "string"
        },
        {
          "name": "_secondBranchName",
          "type": "string"
        }
      ],
      "name": "merge",
      "outputs": [
        {
          "name": "",
          "type": "uint8"
        }
      ],
      "payable": false,
      "stateMutability": "nonpayable",
      "type": "function"
    },
    {
      "constant": false,
      "inputs": [
        {
          "name": "_issueLabel",
          "type": "string"
        },
        {
          "name": "_issueMessage",
          "type": "string"
        }
      ],
      "name": "makeIssue",
      "outputs": [],
      "payable": false,
      "stateMutability": "nonpayable",
      "type": "function"
    }
  ],
  "bytecode": "0x60806040523480156200001157600080fd5b506040516200710938038062007109833981018060405260408110156200003757600080fd5b8101908080516401000000008111156200005057600080fd5b820160208101848111156200006457600080fd5b81516401000000008111828201871017156200007f57600080fd5b505092919060200180516401000000008111156200009c57600080fd5b82016020810184811115620000b057600080fd5b8151640100000000811182820187101715620000cb57600080fd5b50508451909350620000e7925060009150602085019062000368565b508051620000fd90600190602084019062000368565b5060028054600160a060020a031916339081179091556000908152600860205260408120805460ff1916600117905542600355606090816200013e620003ed565b60408082526006908201527f6d61737465720000000000000000000000000000000000000000000000000000606082015260806020808301828152845192840192909252835183929160a0840191868201910280838360005b83811015620001b157818101518382015260200162000197565b505050509050019350505050604051809103906000f080158015620001da573d6000803e3d6000fd5b50604080517f6d6173746572000000000000000000000000000000000000000000000000000081526007600682015281519081900360260181208054600160a060020a038516600160a060020a03199182168117909255600580546001818101835560009283527f036b6384b5eca791c62761152d0c79bb0604c104a5fb6f4eb0703f3154bb3db090910180549093168417909255602084019290925260608084528254600292811615610100026000190116919091049083018190529394507f2cc0cc783d4394153ee1cb11493c793869b41b40f52797786620f00fb79c1ea493909285929182918201906080830190869080156200031e5780601f10620002f2576101008083540402835291602001916200031e565b820191906000526020600020905b8154815290600101906020018083116200030057829003601f168201915b5050928303905250600681527f6d61737465720000000000000000000000000000000000000000000000000000602082015260408051918290030192509050a1505050506200041e565b828054600181600116156101000203166002900490600052602060002090601f016020900481019282601f10620003ab57805160ff1916838001178555620003db565b82800160010185558215620003db579182015b82811115620003db578251825591602001919060010190620003be565b50620003e9929150620003fe565b5090565b6040516124508062004cb983390190565b6200041b91905b80821115620003e9576000815560010162000405565b90565b61488b806200042e6000396000f3fe6080604052600436106200007c5763ffffffff600080516020620048408339815191526000350416633109c19d8114620000815780634665f42e14620000ba5780636794864c14620002145780636882e17414620002ce57806386e7a5171462000305578063910b46301462000449578063d578951d146200047d575b600080fd5b3480156200008e57600080fd5b50620000b860048036036020811015620000a757600080fd5b5035600160a060020a0316620006d9565b005b348015620000c757600080fd5b50620001fe60048036036040811015620000e057600080fd5b810190602081018135640100000000811115620000fc57600080fd5b8201836020820111156200010f57600080fd5b803590602001918460018302840111640100000000831117156200013257600080fd5b91908080601f01602080910402602001604051908101604052809392919081815260200183838082843760009201919091525092959493602081019350359150506401000000008111156200018657600080fd5b8201836020820111156200019957600080fd5b80359060200191846001830284011164010000000083111715620001bc57600080fd5b91908080601f016020809104026020016040519081016040528093929190818152602001838380828437600092019190915250929550620007e0945050505050565b6040805160ff9092168252519081900360200190f35b3480156200022157600080fd5b50620000b8600480360360208110156200023a57600080fd5b8101906020810181356401000000008111156200025657600080fd5b8201836020820111156200026957600080fd5b803590602001918460018302840111640100000000831117156200028c57600080fd5b91908080601f01602080910402602001604051908101604052809392919081815260200183838082843760009201919091525092955062000d98945050505050565b348015620002db57600080fd5b50620000b860048036036020811015620002f457600080fd5b5035600160a060020a0316620011d6565b3480156200031257600080fd5b50620000b8600480360360408110156200032b57600080fd5b8101906020810181356401000000008111156200034757600080fd5b8201836020820111156200035a57600080fd5b803590602001918460018302840111640100000000831117156200037d57600080fd5b91908080601f0160208091040260200160405190810160405280939291908181526020018383808284376000920191909152509295949360208101935035915050640100000000811115620003d157600080fd5b820183602082011115620003e457600080fd5b803590602001918460018302840111640100000000831117156200040757600080fd5b91908080601f016020809104026020016040519081016040528093929190818152602001838380828437600092019190915250929550620012ee945050505050565b3480156200045657600080fd5b50620004616200153d565b60408051600160a060020a039092168252519081900360200190f35b3480156200048a57600080fd5b50620000b8600480360360a0811015620004a357600080fd5b600160a060020a038235169190810190604081016020820135640100000000811115620004cf57600080fd5b820183602082011115620004e257600080fd5b803590602001918460208302840111640100000000831117156200050557600080fd5b91908080602002602001604051908101604052809392919081815260200183836020028082843760009201919091525092959493602081019350359150506401000000008111156200055657600080fd5b8201836020820111156200056957600080fd5b803590602001918460208302840111640100000000831117156200058c57600080fd5b9190808060200260200160405190810160405280939291908181526020018383602002808284376000920191909152509295949360208101935035915050640100000000811115620005dd57600080fd5b820183602082011115620005f057600080fd5b803590602001918460208302840111640100000000831117156200061357600080fd5b91908080602002602001604051908101604052809392919081815260200183836020028082843760009201919091525092959493602081019350359150506401000000008111156200066457600080fd5b8201836020820111156200067757600080fd5b803590602001918460208302840111640100000000831117156200069a57600080fd5b91908080602002602001604051908101604052809392919081815260200183836020028082843760009201919091525092955062001583945050505050565b3360009081526008602052604090205460ff161515600114620006fb57600080fd5b600160a060020a0381166000818152600860209081526040808320805460ff1916905580519384523091840182905260609084018181528354600260001960018316156101000201909116049185018290527fda5be73e51d6f5cb5ffb0a89d4be5b7af868e0cc1ad3cdd45c39f5b1c1fbda5094869492909190608083019084908015620007cd5780601f10620007a157610100808354040283529160200191620007cd565b820191906000526020600020905b815481529060010190602001808311620007af57829003601f168201915b505094505050505060405180910390a150565b6000806007846040518082805190602001908083835b60208310620008175780518252601f199092019160209182019101620007f6565b51815160209384036101000a60001901801990921691161790529201948552506040519384900381018420548751600160a060020a03909116955060009460079450889350918291908401908083835b60208310620008885780518252601f19909201916020918201910162000867565b51815160209384036101000a600019018019909216911617905292019485525060408051948590039091018420547fc7335c910000000000000000000000000000000000000000000000000000000085529051600160a060020a039182169550606094918716935063c7335c9192506004808301926000929190829003018186803b1580156200091757600080fd5b505afa1580156200092c573d6000803e3d6000fd5b505050506040513d6000823e601f3d908101601f1916820160405260208110156200095657600080fd5b8101908080516401000000008111156200096f57600080fd5b820160208101848111156200098357600080fd5b8151856020820283011164010000000082111715620009a157600080fd5b50509291905050509050606082600160a060020a031663c7335c916040518163ffffffff166000805160206200484083398151915202815260040160006040518083038186803b158015620009f557600080fd5b505afa15801562000a0a573d6000803e3d6000fd5b505050506040513d6000823e601f3d908101601f19168201604052602081101562000a3457600080fd5b81019080805164010000000081111562000a4d57600080fd5b8201602081018481111562000a6157600080fd5b815185602082028301116401000000008211171562000a7f57600080fd5b50508051909450849350600019810192508210905062000a9b57fe5b90602001906020020151600160a060020a031663d13319c46040518163ffffffff166000805160206200484083398151915202815260040160006040518083038186803b15801562000aec57600080fd5b505afa15801562000b01573d6000803e3d6000fd5b505050506040513d6000823e601f3d908101601f19168201604052602081101562000b2b57600080fd5b81019080805164010000000081111562000b4457600080fd5b8201602081018481111562000b5857600080fd5b815164010000000081118282018710171562000b7357600080fd5b50509291905050506040516020018082805190602001908083835b6020831062000baf5780518252601f19909201916020918201910162000b8e565b6001836020036101000a0380198251168184511680821785525050505050509050019150506040516020818303038152906040528051906020012082600184510381518110151562000bfd57fe5b90602001906020020151600160a060020a031663d13319c46040518163ffffffff166000805160206200484083398151915202815260040160006040518083038186803b15801562000c4e57600080fd5b505afa15801562000c63573d6000803e3d6000fd5b505050506040513d6000823e601f3d908101601f19168201604052602081101562000c8d57600080fd5b81019080805164010000000081111562000ca657600080fd5b8201602081018481111562000cba57600080fd5b815164010000000081118282018710171562000cd557600080fd5b50509291905050506040516020018082805190602001908083835b6020831062000d115780518252601f19909201916020918201910162000cf0565b6001836020036101000a03801982511681845116808217855250505050505090500191505060405160208183030381529060405280519060200120141562000d6157600094505050505062000d92565b81518151111562000d855762000d7981838662001710565b94505050505062000d92565b62000d7982828562001710565b92915050565b6000816005600081548110151562000dac57fe5b6000918252602082200154604080517fc7335c910000000000000000000000000000000000000000000000000000000081529051600160a060020a039092169263c7335c9192600480840193829003018186803b15801562000e0d57600080fd5b505afa15801562000e22573d6000803e3d6000fd5b505050506040513d6000823e601f3d908101601f19168201604052602081101562000e4c57600080fd5b81019080805164010000000081111562000e6557600080fd5b8201602081018481111562000e7957600080fd5b815185602082028301116401000000008211171562000e9757600080fd5b505092919050505062000ea9620021f8565b604080825283519082015282518190602080830191606084019187019080838360005b8381101562000ee657818101518382015260200162000ecc565b50505050905090810190601f16801562000f145780820380516001836020036101000a031916815260200191505b508381038252845181528451602091820191808701910280838360005b8381101562000f4b57818101518382015260200162000f31565b50505050905001945050505050604051809103906000f08015801562000f75573d6000803e3d6000fd5b509050806007836040518082805190602001908083835b6020831062000fad5780518252601f19909201916020918201910162000f8c565b51815160209384036101000a60001901801990921691161790529201948552506040519384900381018420805473ffffffffffffffffffffffffffffffffffffffff1916600160a060020a03969096169590951790945550508351600592600792869290918291908401908083835b602083106200103d5780518252601f1990920191602091820191016200101c565b518151600019602094850361010090810a8201928316921993909316919091179092529490920196875260408051978890038201882054895460018181018c5560009b8c52848c20909101805473ffffffffffffffffffffffffffffffffffffffff1916600160a060020a03938416179055908b169289019290925260608089528954600293811615909602909301909416049086018190527f2cc0cc783d4394153ee1cb11493c793869b41b40f52797786620f00fb79c1ea49695889550899450928392508201906080830190879080156200115e5780601f1062001132576101008083540402835291602001916200115e565b820191906000526020600020905b8154815290600101906020018083116200114057829003601f168201915b5050838103825284518152845160209182019186019080838360005b83811015620011945781810151838201526020016200117a565b50505050905090810190601f168015620011c25780820380516001836020036101000a031916815260200191505b509550505050505060405180910390a15050565b3360009081526008602052604090205460ff161515600114620011f857600080fd5b6004805460018181019092557f8a35acfbc15ff81a39ae7d344fd709f28e8600b4aa8c65c6b64bfe7fe36bd19b018054600160a060020a03841673ffffffffffffffffffffffffffffffffffffffff1990911681179091556000818152600860209081526040808320805460ff19168617905580519384523091840182905260609084018181528354600296811615610100026000190116959095049084018190527f126c0c1cb9112bc67424ee87f5f11d2f169bf930d54b28db48e81737dec47eb594869492939291608083019084908015620007cd5780601f10620007a157610100808354040283529160200191620007cd565b60068282620012fc62002209565b604080825283519082015282518190602080830191606084019187019080838360005b83811015620013395781810151838201526020016200131f565b50505050905090810190601f168015620013675780820380516001836020036101000a031916815260200191505b50838103825284518152845160209182019186019080838360005b838110156200139c57818101518382015260200162001382565b50505050905090810190601f168015620013ca5780820380516001836020036101000a031916815260200191505b50945050505050604051809103906000f080158015620013ee573d6000803e3d6000fd5b50815460018101835560009283526020808420909101805473ffffffffffffffffffffffffffffffffffffffff1916600160a060020a0393909316929092179091556040805181815285519181019190915284517f6a2048571c488b823b275fdce75f8182edfa62343dae464560c00ea49a30be409386938693928392838301926060850192908801918190849084905b83811015620014995781810151838201526020016200147f565b50505050905090810190601f168015620014c75780820380516001836020036101000a031916815260200191505b50838103825284518152845160209182019186019080838360005b83811015620014fc578181015183820152602001620014e2565b50505050905090810190601f1680156200152a5780820380516001836020036101000a031916815260200191505b5094505050505060405180910390a15050565b604080517f6d61737465720000000000000000000000000000000000000000000000000000815260076006820152905190819003602601902054600160a060020a031690565b84600160a060020a031663faa51b86858585856040518563ffffffff16600080516020620048408339815191520281526004018080602001806020018060200180602001858103855289818151815260200191508051906020019060200280838360005b8381101562001601578181015183820152602001620015e7565b50505050905001858103845288818151815260200191508051906020019060200280838360005b838110156200164257818101518382015260200162001628565b50505050905001858103835287818151815260200191508051906020019060200280838360005b838110156200168357818101518382015260200162001669565b50505050905001858103825286818151815260200191508051906020019060200280838360005b83811015620016c4578181015183820152602001620016aa565b5050505090500198505050505050505050600060405180830381600087803b158015620016f057600080fd5b505af115801562001705573d6000803e3d6000fd5b505050505050505050565b815183516000919081900390849060001981019081106200172d57fe5b90602001906020020151600160a060020a031685826001885103038151811015156200175557fe5b60209081029091010151600160a060020a03161462001779576063915050620021f1565b835160005b82811015620021e95784600160a060020a031663cf3a54228884815181101515620017a557fe5b90602001906020020151600160a060020a031663a4300ee56040518163ffffffff166000805160206200484083398151915202815260040160206040518083038186803b158015620017f657600080fd5b505afa1580156200180b573d6000803e3d6000fd5b505050506040513d60208110156200182257600080fd5b505189518a90869081106200183357fe5b90602001906020020151600160a060020a03166367f29d676040518163ffffffff166000805160206200484083398151915202815260040160006040518083038186803b1580156200188457600080fd5b505afa15801562001899573d6000803e3d6000fd5b505050506040513d6000823e601f3d908101601f191682016040526020811015620018c357600080fd5b810190808051640100000000811115620018dc57600080fd5b82016020810184811115620018f057600080fd5b81516401000000008111828201871017156200190b57600080fd5b50508d519093508d925088915081106200192157fe5b90602001906020020151600160a060020a031663430fe9c16040518163ffffffff166000805160206200484083398151915202815260040160006040518083038186803b1580156200197257600080fd5b505afa15801562001987573d6000803e3d6000fd5b505050506040513d6000823e601f3d908101601f191682016040526020811015620019b157600080fd5b810190808051640100000000811115620019ca57600080fd5b82016020810184811115620019de57600080fd5b8151640100000000811182820187101715620019f957600080fd5b50508e519093508e9250899150811062001a0f57fe5b90602001906020020151600160a060020a031663d13319c46040518163ffffffff166000805160206200484083398151915202815260040160006040518083038186803b15801562001a6057600080fd5b505afa15801562001a75573d6000803e3d6000fd5b505050506040513d6000823e601f3d908101601f19168201604052602081101562001a9f57600080fd5b81019080805164010000000081111562001ab857600080fd5b8201602081018481111562001acc57600080fd5b815164010000000081118282018710171562001ae757600080fd5b50508f519093508f92508a9150811062001afd57fe5b90602001906020020151600160a060020a031663ce6d41de6040518163ffffffff166000805160206200484083398151915202815260040160006040518083038186803b15801562001b4e57600080fd5b505afa15801562001b63573d6000803e3d6000fd5b505050506040513d6000823e601f3d908101601f19168201604052602081101562001b8d57600080fd5b81019080805164010000000081111562001ba657600080fd5b8201602081018481111562001bba57600080fd5b815164010000000081118282018710171562001bd557600080fd5b50509291905050506040518663ffffffff16600080516020620048408339815191520281526004018086600160a060020a0316600160a060020a0316815260200180602001806020018060200180602001858103855289818151815260200191508051906020019080838360005b8381101562001c5d57818101518382015260200162001c43565b50505050905090810190601f16801562001c8b5780820380516001836020036101000a031916815260200191505b5085810384528851815288516020918201918a019080838360005b8381101562001cc057818101518382015260200162001ca6565b50505050905090810190601f16801562001cee5780820380516001836020036101000a031916815260200191505b50858103835287518152875160209182019189019080838360005b8381101562001d2357818101518382015260200162001d09565b50505050905090810190601f16801562001d515780820380516001836020036101000a031916815260200191505b50858103825286518152865160209182019188019080838360005b8381101562001d8657818101518382015260200162001d6c565b50505050905090810190601f16801562001db45780820380516001836020036101000a031916815260200191505b509950505050505050505050600060405180830381600087803b15801562001ddb57600080fd5b505af115801562001df0573d6000803e3d6000fd5b50505050620021dc878381518110151562001e0757fe5b90602001906020020151888481518110151562001e2057fe5b90602001906020020151600160a060020a0316635a1dafcf6040518163ffffffff166000805160206200484083398151915202815260040160006040518083038186803b15801562001e7157600080fd5b505afa15801562001e86573d6000803e3d6000fd5b505050506040513d6000823e601f3d908101601f19168201604052602081101562001eb057600080fd5b81019080805164010000000081111562001ec957600080fd5b8201602081018481111562001edd57600080fd5b815185602082028301116401000000008211171562001efb57600080fd5b50508c519093508c9250879150811062001f1157fe5b90602001906020020151600160a060020a03166330beb7416040518163ffffffff166000805160206200484083398151915202815260040160006040518083038186803b15801562001f6257600080fd5b505afa15801562001f77573d6000803e3d6000fd5b505050506040513d6000823e601f3d908101601f19168201604052602081101562001fa157600080fd5b81019080805164010000000081111562001fba57600080fd5b8201602081018481111562001fce57600080fd5b815185602082028301116401000000008211171562001fec57600080fd5b50508d519093508d925088915081106200200257fe5b90602001906020020151600160a060020a0316635000c0156040518163ffffffff166000805160206200484083398151915202815260040160006040518083038186803b1580156200205357600080fd5b505afa15801562002068573d6000803e3d6000fd5b505050506040513d6000823e601f3d908101601f1916820160405260208110156200209257600080fd5b810190808051640100000000811115620020ab57600080fd5b82016020810184811115620020bf57600080fd5b8151856020820283011164010000000082111715620020dd57600080fd5b50508e519093508e92508991508110620020f357fe5b90602001906020020151600160a060020a03166356b688856040518163ffffffff166000805160206200484083398151915202815260040160006040518083038186803b1580156200214457600080fd5b505afa15801562002159573d6000803e3d6000fd5b505050506040513d6000823e601f3d908101601f1916820160405260208110156200218357600080fd5b8101908080516401000000008111156200219c57600080fd5b82016020810184811115620021b057600080fd5b8151856020820283011164010000000082111715620021ce57600080fd5b505092919050505062001583565b600191820191016200177e565b506001925050505b9392505050565b604051612450806200221b83390190565b6040516101d5806200466b8339019056fe60806040523480156200001157600080fd5b506040516200245038038062002450833981018060405260408110156200003757600080fd5b8101908080516401000000008111156200005057600080fd5b820160208101848111156200006457600080fd5b81516401000000008111828201871017156200007f57600080fd5b505092919060200180516401000000008111156200009c57600080fd5b82016020810184811115620000b057600080fd5b8151856020820283011164010000000082111715620000ce57600080fd5b50508451909350620000ea9250600091506020850190620002cc565b5080516200010090600290602084019062000351565b5062000115816401000000006200011d810204565b5050620003fe565b60005b8151811015620002c85781818151811015156200013957fe5b90602001906020020151600183838151811015156200015457fe5b90602001906020020151600160a060020a031663d13319c46040518163ffffffff167c010000000000000000000000000000000000000000000000000000000002815260040160006040518083038186803b158015620001b357600080fd5b505afa158015620001c8573d6000803e3d6000fd5b505050506040513d6000823e601f3d908101601f191682016040526020811015620001f257600080fd5b8101908080516401000000008111156200020b57600080fd5b820160208101848111156200021f57600080fd5b81516401000000008111828201871017156200023a57600080fd5b50509291905050506040518082805190602001908083835b60208310620002735780518252601f19909201916020918201910162000252565b51815160209384036101000a600019018019909216911617905292019485525060405193849003019092208054600160a060020a031916600160a060020a039490941693909317909255505060010162000120565b5050565b828054600181600116156101000203166002900490600052602060002090601f016020900481019282601f106200030f57805160ff19168380011785556200033f565b828001600101855582156200033f579182015b828111156200033f57825182559160200191906001019062000322565b506200034d929150620003b7565b5090565b828054828255906000526020600020908101928215620003a9579160200282015b82811115620003a95782518254600160a060020a031916600160a060020a0390911617825560209092019160019091019062000372565b506200034d929150620003d7565b620003d491905b808211156200034d5760008155600101620003be565b90565b620003d491905b808211156200034d578054600160a060020a0319168155600101620003de565b612042806200040e6000396000f3fe608060405260043610620000665763ffffffff7c0100000000000000000000000000000000000000000000000000000000600035041663c7068e2381146200006b578063c7335c9114620004e2578063cf3a5422146200054c578063eae2db7a14620007c1575b600080fd5b3480156200007857600080fd5b50620004e060048036036101008110156200009257600080fd5b810190602081018135640100000000811115620000ae57600080fd5b820183602082011115620000c157600080fd5b80359060200191846001830284011164010000000083111715620000e457600080fd5b91908080601f01602080910402602001604051908101604052809392919081815260200183838082843760009201919091525092959493602081019350359150506401000000008111156200013857600080fd5b8201836020820111156200014b57600080fd5b803590602001918460018302840111640100000000831117156200016e57600080fd5b91908080601f0160208091040260200160405190810160405280939291908181526020018383808284376000920191909152509295949360208101935035915050640100000000811115620001c257600080fd5b820183602082011115620001d557600080fd5b80359060200191846001830284011164010000000083111715620001f857600080fd5b91908080601f01602080910402602001604051908101604052809392919081815260200183838082843760009201919091525092959493602081019350359150506401000000008111156200024c57600080fd5b8201836020820111156200025f57600080fd5b803590602001918460018302840111640100000000831117156200028257600080fd5b91908080601f0160208091040260200160405190810160405280939291908181526020018383808284376000920191909152509295949360208101935035915050640100000000811115620002d657600080fd5b820183602082011115620002e957600080fd5b803590602001918460208302840111640100000000831117156200030c57600080fd5b91908080602002602001604051908101604052809392919081815260200183836020028082843760009201919091525092959493602081019350359150506401000000008111156200035d57600080fd5b8201836020820111156200037057600080fd5b803590602001918460208302840111640100000000831117156200039357600080fd5b9190808060200260200160405190810160405280939291908181526020018383602002808284376000920191909152509295949360208101935035915050640100000000811115620003e457600080fd5b820183602082011115620003f757600080fd5b803590602001918460208302840111640100000000831117156200041a57600080fd5b91908080602002602001604051908101604052809392919081815260200183836020028082843760009201919091525092959493602081019350359150506401000000008111156200046b57600080fd5b8201836020820111156200047e57600080fd5b80359060200191846020830284011164010000000083111715620004a157600080fd5b91908080602002602001604051908101604052809392919081815260200183836020028082843760009201919091525092955062000851945050505050565b005b348015620004ef57600080fd5b50620004fa62000ece565b60408051602080825283518183015283519192839290830191858101910280838360005b83811015620005385781810151838201526020016200051e565b505050509050019250505060405180910390f35b3480156200055957600080fd5b50620004e0600480360360a08110156200057257600080fd5b73ffffffffffffffffffffffffffffffffffffffff8235169190810190604081016020820135640100000000811115620005ab57600080fd5b820183602082011115620005be57600080fd5b80359060200191846001830284011164010000000083111715620005e157600080fd5b91908080601f01602080910402602001604051908101604052809392919081815260200183838082843760009201919091525092959493602081019350359150506401000000008111156200063557600080fd5b8201836020820111156200064857600080fd5b803590602001918460018302840111640100000000831117156200066b57600080fd5b91908080601f0160208091040260200160405190810160405280939291908181526020018383808284376000920191909152509295949360208101935035915050640100000000811115620006bf57600080fd5b820183602082011115620006d257600080fd5b80359060200191846001830284011164010000000083111715620006f557600080fd5b91908080601f01602080910402602001604051908101604052809392919081815260200183838082843760009201919091525092959493602081019350359150506401000000008111156200074957600080fd5b8201836020820111156200075c57600080fd5b803590602001918460018302840111640100000000831117156200077f57600080fd5b91908080601f01602080910402602001604051908101604052809392919081815260200183838082843760009201919091525092955062000f3f945050505050565b348015620007ce57600080fd5b50620007d9620013ad565b6040805160208082528351818301528351919283929083019185019080838360005b8381101562000815578181015183820152602001620007fb565b50505050905090810190601f168015620008435780820380516001836020036101000a031916815260200191505b509250505060405180910390f35b6000338989898962000862620014c4565b808673ffffffffffffffffffffffffffffffffffffffff1673ffffffffffffffffffffffffffffffffffffffff16815260200180602001806020018060200180602001858103855289818151815260200191508051906020019080838360005b83811015620008dc578181015183820152602001620008c2565b50505050905090810190601f1680156200090a5780820380516001836020036101000a031916815260200191505b5085810384528851815288516020918201918a019080838360005b838110156200093f57818101518382015260200162000925565b50505050905090810190601f1680156200096d5780820380516001836020036101000a031916815260200191505b50858103835287518152875160209182019189019080838360005b83811015620009a257818101518382015260200162000988565b50505050905090810190601f168015620009d05780820380516001836020036101000a031916815260200191505b50858103825286518152865160209182019188019080838360005b8381101562000a05578181015183820152602001620009eb565b50505050905090810190601f16801562000a335780820380516001836020036101000a031916815260200191505b509950505050505050505050604051809103906000f08015801562000a5c573d6000803e3d6000fd5b5090508073ffffffffffffffffffffffffffffffffffffffff1663faa51b86868686866040518563ffffffff167c01000000000000000000000000000000000000000000000000000000000281526004018080602001806020018060200180602001858103855289818151815260200191508051906020019060200280838360005b8381101562000af857818101518382015260200162000ade565b50505050905001858103845288818151815260200191508051906020019060200280838360005b8381101562000b3957818101518382015260200162000b1f565b50505050905001858103835287818151815260200191508051906020019060200280838360005b8381101562000b7a57818101518382015260200162000b60565b50505050905001858103825286818151815260200191508051906020019060200280838360005b8381101562000bbb57818101518382015260200162000ba1565b5050505090500198505050505050505050600060405180830381600087803b15801562000be757600080fd5b505af115801562000bfc573d6000803e3d6000fd5b50505050806001896040518082805190602001908083835b6020831062000c355780518252601f19909201916020918201910162000c14565b51815160209384036101000a60001901801990921691161790529201948552506040519384900381018420805473ffffffffffffffffffffffffffffffffffffffff191673ffffffffffffffffffffffffffffffffffffffff9690961695909517909455505089516002926001928c9290918291908401908083835b6020831062000cd25780518252601f19909201916020918201910162000cb1565b6001836020036101000a038019825116818451168082178552505050505050905001915050908152602001604051809103902060009054906101000a900473ffffffffffffffffffffffffffffffffffffffff1690806001815401808255809150509060018203906000526020600020016000909192909190916101000a81548173ffffffffffffffffffffffffffffffffffffffff021916908373ffffffffffffffffffffffffffffffffffffffff160217905550507f49e41cf7f645152827d5c078de6829eb2dc16ae1ac0a4cbe6025d392d3cd707633878a604051808473ffffffffffffffffffffffffffffffffffffffff1673ffffffffffffffffffffffffffffffffffffffff1681526020018060200180602001838103835285818151815260200191508051906020019080838360005b8381101562000e2257818101518382015260200162000e08565b50505050905090810190601f16801562000e505780820380516001836020036101000a031916815260200191505b50838103825284518152845160209182019186019080838360005b8381101562000e8557818101518382015260200162000e6b565b50505050905090810190601f16801562000eb35780820380516001836020036101000a031916815260200191505b509550505050505060405180910390a1505050505050505050565b6060600280548060200260200160405190810160405280929190818152602001828054801562000f3557602002820191906000526020600020905b815473ffffffffffffffffffffffffffffffffffffffff16815260019091019060200180831162000f09575b5050505050905090565b6000858585858562000f50620014c4565b808673ffffffffffffffffffffffffffffffffffffffff1673ffffffffffffffffffffffffffffffffffffffff16815260200180602001806020018060200180602001858103855289818151815260200191508051906020019080838360005b8381101562000fca57818101518382015260200162000fb0565b50505050905090810190601f16801562000ff85780820380516001836020036101000a031916815260200191505b5085810384528851815288516020918201918a019080838360005b838110156200102d57818101518382015260200162001013565b50505050905090810190601f1680156200105b5780820380516001836020036101000a031916815260200191505b50858103835287518152875160209182019189019080838360005b838110156200109057818101518382015260200162001076565b50505050905090810190601f168015620010be5780820380516001836020036101000a031916815260200191505b50858103825286518152865160209182019188019080838360005b83811015620010f3578181015183820152602001620010d9565b50505050905090810190601f168015620011215780820380516001836020036101000a031916815260200191505b509950505050505050505050604051809103906000f0801580156200114a573d6000803e3d6000fd5b509050806001856040518082805190602001908083835b60208310620011825780518252601f19909201916020918201910162001161565b51815160209384036101000a60001901801990921691161790529201948552506040519384900381018420805473ffffffffffffffffffffffffffffffffffffffff191673ffffffffffffffffffffffffffffffffffffffff969096169590951790945550508551600292600192889290918291908401908083835b602083106200121f5780518252601f199092019160209182019101620011fe565b51815160001960209485036101000a01908116901991909116179052920194855250604080519485900382018520548654600181018855600097885283882001805473ffffffffffffffffffffffffffffffffffffffff191673ffffffffffffffffffffffffffffffffffffffff9283161790558c168552606085830181815289519187019190915288517f49e41cf7f645152827d5c078de6829eb2dc16ae1ac0a4cbe6025d392d3cd7076978e978b97508d96509492938501926080860192908801918190849084905b8381101562001304578181015183820152602001620012ea565b50505050905090810190601f168015620013325780820380516001836020036101000a031916815260200191505b50838103825284518152845160209182019186019080838360005b83811015620013675781810151838201526020016200134d565b50505050905090810190601f168015620013955780820380516001836020036101000a031916815260200191505b509550505050505060405180910390a1505050505050565b60028054606091906000198101908110620013c457fe5b6000918252602082200154604080517fd13319c4000000000000000000000000000000000000000000000000000000008152905173ffffffffffffffffffffffffffffffffffffffff9092169263d13319c492600480840193829003018186803b1580156200143257600080fd5b505afa15801562001447573d6000803e3d6000fd5b505050506040513d6000823e601f3d908101601f1916820160405260208110156200147157600080fd5b8101908080516401000000008111156200148a57600080fd5b820160208101848111156200149e57600080fd5b8151640100000000811182820187101715620014b957600080fd5b509094505050505090565b604051610b4180620014d68339019056fe60806040523480156200001157600080fd5b5060405162000b4138038062000b41833981018060405260a08110156200003757600080fd5b8151602083018051919392830192916401000000008111156200005957600080fd5b820160208101848111156200006d57600080fd5b81516401000000008111828201871017156200008857600080fd5b50509291906020018051640100000000811115620000a557600080fd5b82016020810184811115620000b957600080fd5b8151640100000000811182820187101715620000d457600080fd5b50509291906020018051640100000000811115620000f157600080fd5b820160208101848111156200010557600080fd5b81516401000000008111828201871017156200012057600080fd5b505092919060200180516401000000008111156200013d57600080fd5b820160208101848111156200015157600080fd5b81516401000000008111828201871017156200016c57600080fd5b505060008054600160a060020a031916600160a060020a038a161790558551909350620001a39250600291506020860190620001f1565b508151620001b9906003906020850190620001f1565b508051620001cf906004906020840190620001f1565b508351620001e5906001906020870190620001f1565b50505050505062000296565b828054600181600116156101000203166002900490600052602060002090601f016020900481019282601f106200023457805160ff191683800117855562000264565b8280016001018555821562000264579182015b828111156200026457825182559160200191906001019062000247565b506200027292915062000276565b5090565b6200029391905b808211156200027257600081556001016200027d565b90565b61089b80620002a66000396000f3fe6080604052600436106100a35763ffffffff7c010000000000000000000000000000000000000000000000000000000060003504166330beb74181146100a8578063430fe9c11461010d5780635000c0151461019757806356b68885146101ac5780635a1dafcf146101c157806367f29d67146101d6578063a4300ee5146101eb578063ce6d41de14610229578063d13319c41461023e578063faa51b8614610253575b600080fd5b3480156100b457600080fd5b506100bd610491565b60408051602080825283518183015283519192839290830191858101910280838360005b838110156100f95781810151838201526020016100e1565b505050509050019250505060405180910390f35b34801561011957600080fd5b506101226104ea565b6040805160208082528351818301528351919283929083019185019080838360005b8381101561015c578181015183820152602001610144565b50505050905090810190601f1680156101895780820380516001836020036101000a031916815260200191505b509250505060405180910390f35b3480156101a357600080fd5b506100bd610577565b3480156101b857600080fd5b506100bd6105cd565b3480156101cd57600080fd5b506100bd610623565b3480156101e257600080fd5b50610122610679565b3480156101f757600080fd5b506102006106d9565b6040805173ffffffffffffffffffffffffffffffffffffffff9092168252519081900360200190f35b34801561023557600080fd5b506101226106f5565b34801561024a57600080fd5b50610122610756565b34801561025f57600080fd5b5061048f6004803603608081101561027657600080fd5b81019060208101813564010000000081111561029157600080fd5b8201836020820111156102a357600080fd5b803590602001918460208302840111640100000000831117156102c557600080fd5b919080806020026020016040519081016040528093929190818152602001838360200280828437600092019190915250929594936020810193503591505064010000000081111561031557600080fd5b82018360208201111561032757600080fd5b8035906020019184602083028401116401000000008311171561034957600080fd5b919080806020026020016040519081016040528093929190818152602001838360200280828437600092019190915250929594936020810193503591505064010000000081111561039957600080fd5b8201836020820111156103ab57600080fd5b803590602001918460208302840111640100000000831117156103cd57600080fd5b919080806020026020016040519081016040528093929190818152602001838360200280828437600092019190915250929594936020810193503591505064010000000081111561041d57600080fd5b82018360208201111561042f57600080fd5b8035906020019184602083028401116401000000008311171561045157600080fd5b9190808060200260200160405190810160405280939291908181526020018383602002808284376000920191909152509295506107b4945050505050565b005b606060068054806020026020016040519081016040528092919081815260200182805480156104df57602002820191906000526020600020905b8154815260200190600101908083116104cb575b505050505090505b90565b60038054604080516020601f60026000196101006001881615020190951694909404938401819004810282018101909252828152606093909290918301828280156104df5780601f1061054b576101008083540402835291602001916104df565b820191906000526020600020905b81548152906001019060200180831161055957509395945050505050565b606060078054806020026020016040519081016040528092919081815260200182805480156104df57602002820191906000526020600020908154815260200190600101908083116104cb575050505050905090565b606060088054806020026020016040519081016040528092919081815260200182805480156104df57602002820191906000526020600020908154815260200190600101908083116104cb575050505050905090565b606060058054806020026020016040519081016040528092919081815260200182805480156104df57602002820191906000526020600020908154815260200190600101908083116104cb575050505050905090565b60018054604080516020601f600260001961010087891615020190951694909404938401819004810282018101909252828152606093909290918301828280156104df5780601f1061054b576101008083540402835291602001916104df565b60005473ffffffffffffffffffffffffffffffffffffffff1690565b60048054604080516020601f60026000196101006001881615020190951694909404938401819004810282018101909252828152606093909290918301828280156104df5780601f1061054b576101008083540402835291602001916104df565b60028054604080516020601f60001961010060018716150201909416859004938401819004810282018101909252828152606093909290918301828280156104df5780601f1061054b576101008083540402835291602001916104df565b83516107c790600590602087019061080a565b5082516107db90600690602086019061080a565b5081516107ef90600790602085019061080a565b50805161080390600890602084019061080a565b5050505050565b828054828255906000526020600020908101928215610845579160200282015b8281111561084557825182559160200191906001019061082a565b50610851929150610855565b5090565b6104e791905b80821115610851576000815560010161085b56fea165627a7a723058202e3425a3670deb3b3b05f06baf573094890c12455c14d8956b42fa4b5037e7740029a165627a7a72305820e85d38902327f904667611dd98406a9e5e6ca0f8908f6583c4211bff14665d300029608060405234801561001057600080fd5b506040516101d53803806101d58339810180604052604081101561003357600080fd5b81019080805164010000000081111561004b57600080fd5b8201602081018481111561005e57600080fd5b815164010000000081118282018710171561007857600080fd5b5050929190602001805164010000000081111561009457600080fd5b820160208101848111156100a757600080fd5b81516401000000008111828201871017156100c157600080fd5b505084519093506100db92506000915060208501906100f7565b5080516100ef9060019060208401906100f7565b505050610192565b828054600181600116156101000203166002900490600052602060002090601f016020900481019282601f1061013857805160ff1916838001178555610165565b82800160010185558215610165579182015b8281111561016557825182559160200191906001019061014a565b50610171929150610175565b5090565b61018f91905b80821115610171576000815560010161017b565b90565b6035806101a06000396000f3fe6080604052600080fdfea165627a7a7230582033a0547df0da00cb0aae65774084e93ed08e33b23313e9eb6db32f5fdefcff0600290000000100000000000000000000000000000000000000000000000000000000a165627a7a7230582081d7a988c077f277e5edd7c708ce172d473f466af749880ed3d2bc0e03eb4f41002960806040523480156200001157600080fd5b506040516200245038038062002450833981018060405260408110156200003757600080fd5b8101908080516401000000008111156200005057600080fd5b820160208101848111156200006457600080fd5b81516401000000008111828201871017156200007f57600080fd5b505092919060200180516401000000008111156200009c57600080fd5b82016020810184811115620000b057600080fd5b8151856020820283011164010000000082111715620000ce57600080fd5b50508451909350620000ea9250600091506020850190620002cc565b5080516200010090600290602084019062000351565b5062000115816401000000006200011d810204565b5050620003fe565b60005b8151811015620002c85781818151811015156200013957fe5b90602001906020020151600183838151811015156200015457fe5b90602001906020020151600160a060020a031663d13319c46040518163ffffffff167c010000000000000000000000000000000000000000000000000000000002815260040160006040518083038186803b158015620001b357600080fd5b505afa158015620001c8573d6000803e3d6000fd5b505050506040513d6000823e601f3d908101601f191682016040526020811015620001f257600080fd5b8101908080516401000000008111156200020b57600080fd5b820160208101848111156200021f57600080fd5b81516401000000008111828201871017156200023a57600080fd5b50509291905050506040518082805190602001908083835b60208310620002735780518252601f19909201916020918201910162000252565b51815160209384036101000a600019018019909216911617905292019485525060405193849003019092208054600160a060020a031916600160a060020a039490941693909317909255505060010162000120565b5050565b828054600181600116156101000203166002900490600052602060002090601f016020900481019282601f106200030f57805160ff19168380011785556200033f565b828001600101855582156200033f579182015b828111156200033f57825182559160200191906001019062000322565b506200034d929150620003b7565b5090565b828054828255906000526020600020908101928215620003a9579160200282015b82811115620003a95782518254600160a060020a031916600160a060020a0390911617825560209092019160019091019062000372565b506200034d929150620003d7565b620003d491905b808211156200034d5760008155600101620003be565b90565b620003d491905b808211156200034d578054600160a060020a0319168155600101620003de565b612042806200040e6000396000f3fe608060405260043610620000665763ffffffff7c0100000000000000000000000000000000000000000000000000000000600035041663c7068e2381146200006b578063c7335c9114620004e2578063cf3a5422146200054c578063eae2db7a14620007c1575b600080fd5b3480156200007857600080fd5b50620004e060048036036101008110156200009257600080fd5b810190602081018135640100000000811115620000ae57600080fd5b820183602082011115620000c157600080fd5b80359060200191846001830284011164010000000083111715620000e457600080fd5b91908080601f01602080910402602001604051908101604052809392919081815260200183838082843760009201919091525092959493602081019350359150506401000000008111156200013857600080fd5b8201836020820111156200014b57600080fd5b803590602001918460018302840111640100000000831117156200016e57600080fd5b91908080601f0160208091040260200160405190810160405280939291908181526020018383808284376000920191909152509295949360208101935035915050640100000000811115620001c257600080fd5b820183602082011115620001d557600080fd5b80359060200191846001830284011164010000000083111715620001f857600080fd5b91908080601f01602080910402602001604051908101604052809392919081815260200183838082843760009201919091525092959493602081019350359150506401000000008111156200024c57600080fd5b8201836020820111156200025f57600080fd5b803590602001918460018302840111640100000000831117156200028257600080fd5b91908080601f0160208091040260200160405190810160405280939291908181526020018383808284376000920191909152509295949360208101935035915050640100000000811115620002d657600080fd5b820183602082011115620002e957600080fd5b803590602001918460208302840111640100000000831117156200030c57600080fd5b91908080602002602001604051908101604052809392919081815260200183836020028082843760009201919091525092959493602081019350359150506401000000008111156200035d57600080fd5b8201836020820111156200037057600080fd5b803590602001918460208302840111640100000000831117156200039357600080fd5b9190808060200260200160405190810160405280939291908181526020018383602002808284376000920191909152509295949360208101935035915050640100000000811115620003e457600080fd5b820183602082011115620003f757600080fd5b803590602001918460208302840111640100000000831117156200041a57600080fd5b91908080602002602001604051908101604052809392919081815260200183836020028082843760009201919091525092959493602081019350359150506401000000008111156200046b57600080fd5b8201836020820111156200047e57600080fd5b80359060200191846020830284011164010000000083111715620004a157600080fd5b91908080602002602001604051908101604052809392919081815260200183836020028082843760009201919091525092955062000851945050505050565b005b348015620004ef57600080fd5b50620004fa62000ece565b60408051602080825283518183015283519192839290830191858101910280838360005b83811015620005385781810151838201526020016200051e565b505050509050019250505060405180910390f35b3480156200055957600080fd5b50620004e0600480360360a08110156200057257600080fd5b73ffffffffffffffffffffffffffffffffffffffff8235169190810190604081016020820135640100000000811115620005ab57600080fd5b820183602082011115620005be57600080fd5b80359060200191846001830284011164010000000083111715620005e157600080fd5b91908080601f01602080910402602001604051908101604052809392919081815260200183838082843760009201919091525092959493602081019350359150506401000000008111156200063557600080fd5b8201836020820111156200064857600080fd5b803590602001918460018302840111640100000000831117156200066b57600080fd5b91908080601f0160208091040260200160405190810160405280939291908181526020018383808284376000920191909152509295949360208101935035915050640100000000811115620006bf57600080fd5b820183602082011115620006d257600080fd5b80359060200191846001830284011164010000000083111715620006f557600080fd5b91908080601f01602080910402602001604051908101604052809392919081815260200183838082843760009201919091525092959493602081019350359150506401000000008111156200074957600080fd5b8201836020820111156200075c57600080fd5b803590602001918460018302840111640100000000831117156200077f57600080fd5b91908080601f01602080910402602001604051908101604052809392919081815260200183838082843760009201919091525092955062000f3f945050505050565b348015620007ce57600080fd5b50620007d9620013ad565b6040805160208082528351818301528351919283929083019185019080838360005b8381101562000815578181015183820152602001620007fb565b50505050905090810190601f168015620008435780820380516001836020036101000a031916815260200191505b509250505060405180910390f35b6000338989898962000862620014c4565b808673ffffffffffffffffffffffffffffffffffffffff1673ffffffffffffffffffffffffffffffffffffffff16815260200180602001806020018060200180602001858103855289818151815260200191508051906020019080838360005b83811015620008dc578181015183820152602001620008c2565b50505050905090810190601f1680156200090a5780820380516001836020036101000a031916815260200191505b5085810384528851815288516020918201918a019080838360005b838110156200093f57818101518382015260200162000925565b50505050905090810190601f1680156200096d5780820380516001836020036101000a031916815260200191505b50858103835287518152875160209182019189019080838360005b83811015620009a257818101518382015260200162000988565b50505050905090810190601f168015620009d05780820380516001836020036101000a031916815260200191505b50858103825286518152865160209182019188019080838360005b8381101562000a05578181015183820152602001620009eb565b50505050905090810190601f16801562000a335780820380516001836020036101000a031916815260200191505b509950505050505050505050604051809103906000f08015801562000a5c573d6000803e3d6000fd5b5090508073ffffffffffffffffffffffffffffffffffffffff1663faa51b86868686866040518563ffffffff167c01000000000000000000000000000000000000000000000000000000000281526004018080602001806020018060200180602001858103855289818151815260200191508051906020019060200280838360005b8381101562000af857818101518382015260200162000ade565b50505050905001858103845288818151815260200191508051906020019060200280838360005b8381101562000b3957818101518382015260200162000b1f565b50505050905001858103835287818151815260200191508051906020019060200280838360005b8381101562000b7a57818101518382015260200162000b60565b50505050905001858103825286818151815260200191508051906020019060200280838360005b8381101562000bbb57818101518382015260200162000ba1565b5050505090500198505050505050505050600060405180830381600087803b15801562000be757600080fd5b505af115801562000bfc573d6000803e3d6000fd5b50505050806001896040518082805190602001908083835b6020831062000c355780518252601f19909201916020918201910162000c14565b51815160209384036101000a60001901801990921691161790529201948552506040519384900381018420805473ffffffffffffffffffffffffffffffffffffffff191673ffffffffffffffffffffffffffffffffffffffff9690961695909517909455505089516002926001928c9290918291908401908083835b6020831062000cd25780518252601f19909201916020918201910162000cb1565b6001836020036101000a038019825116818451168082178552505050505050905001915050908152602001604051809103902060009054906101000a900473ffffffffffffffffffffffffffffffffffffffff1690806001815401808255809150509060018203906000526020600020016000909192909190916101000a81548173ffffffffffffffffffffffffffffffffffffffff021916908373ffffffffffffffffffffffffffffffffffffffff160217905550507f49e41cf7f645152827d5c078de6829eb2dc16ae1ac0a4cbe6025d392d3cd707633878a604051808473ffffffffffffffffffffffffffffffffffffffff1673ffffffffffffffffffffffffffffffffffffffff1681526020018060200180602001838103835285818151815260200191508051906020019080838360005b8381101562000e2257818101518382015260200162000e08565b50505050905090810190601f16801562000e505780820380516001836020036101000a031916815260200191505b50838103825284518152845160209182019186019080838360005b8381101562000e8557818101518382015260200162000e6b565b50505050905090810190601f16801562000eb35780820380516001836020036101000a031916815260200191505b509550505050505060405180910390a1505050505050505050565b6060600280548060200260200160405190810160405280929190818152602001828054801562000f3557602002820191906000526020600020905b815473ffffffffffffffffffffffffffffffffffffffff16815260019091019060200180831162000f09575b5050505050905090565b6000858585858562000f50620014c4565b808673ffffffffffffffffffffffffffffffffffffffff1673ffffffffffffffffffffffffffffffffffffffff16815260200180602001806020018060200180602001858103855289818151815260200191508051906020019080838360005b8381101562000fca57818101518382015260200162000fb0565b50505050905090810190601f16801562000ff85780820380516001836020036101000a031916815260200191505b5085810384528851815288516020918201918a019080838360005b838110156200102d57818101518382015260200162001013565b50505050905090810190601f1680156200105b5780820380516001836020036101000a031916815260200191505b50858103835287518152875160209182019189019080838360005b838110156200109057818101518382015260200162001076565b50505050905090810190601f168015620010be5780820380516001836020036101000a031916815260200191505b50858103825286518152865160209182019188019080838360005b83811015620010f3578181015183820152602001620010d9565b50505050905090810190601f168015620011215780820380516001836020036101000a031916815260200191505b509950505050505050505050604051809103906000f0801580156200114a573d6000803e3d6000fd5b509050806001856040518082805190602001908083835b60208310620011825780518252601f19909201916020918201910162001161565b51815160209384036101000a60001901801990921691161790529201948552506040519384900381018420805473ffffffffffffffffffffffffffffffffffffffff191673ffffffffffffffffffffffffffffffffffffffff969096169590951790945550508551600292600192889290918291908401908083835b602083106200121f5780518252601f199092019160209182019101620011fe565b51815160001960209485036101000a01908116901991909116179052920194855250604080519485900382018520548654600181018855600097885283882001805473ffffffffffffffffffffffffffffffffffffffff191673ffffffffffffffffffffffffffffffffffffffff9283161790558c168552606085830181815289519187019190915288517f49e41cf7f645152827d5c078de6829eb2dc16ae1ac0a4cbe6025d392d3cd7076978e978b97508d96509492938501926080860192908801918190849084905b8381101562001304578181015183820152602001620012ea565b50505050905090810190601f168015620013325780820380516001836020036101000a031916815260200191505b50838103825284518152845160209182019186019080838360005b83811015620013675781810151838201526020016200134d565b50505050905090810190601f168015620013955780820380516001836020036101000a031916815260200191505b509550505050505060405180910390a1505050505050565b60028054606091906000198101908110620013c457fe5b6000918252602082200154604080517fd13319c4000000000000000000000000000000000000000000000000000000008152905173ffffffffffffffffffffffffffffffffffffffff9092169263d13319c492600480840193829003018186803b1580156200143257600080fd5b505afa15801562001447573d6000803e3d6000fd5b505050506040513d6000823e601f3d908101601f1916820160405260208110156200147157600080fd5b8101908080516401000000008111156200148a57600080fd5b820160208101848111156200149e57600080fd5b8151640100000000811182820187101715620014b957600080fd5b509094505050505090565b604051610b4180620014d68339019056fe60806040523480156200001157600080fd5b5060405162000b4138038062000b41833981018060405260a08110156200003757600080fd5b8151602083018051919392830192916401000000008111156200005957600080fd5b820160208101848111156200006d57600080fd5b81516401000000008111828201871017156200008857600080fd5b50509291906020018051640100000000811115620000a557600080fd5b82016020810184811115620000b957600080fd5b8151640100000000811182820187101715620000d457600080fd5b50509291906020018051640100000000811115620000f157600080fd5b820160208101848111156200010557600080fd5b81516401000000008111828201871017156200012057600080fd5b505092919060200180516401000000008111156200013d57600080fd5b820160208101848111156200015157600080fd5b81516401000000008111828201871017156200016c57600080fd5b505060008054600160a060020a031916600160a060020a038a161790558551909350620001a39250600291506020860190620001f1565b508151620001b9906003906020850190620001f1565b508051620001cf906004906020840190620001f1565b508351620001e5906001906020870190620001f1565b50505050505062000296565b828054600181600116156101000203166002900490600052602060002090601f016020900481019282601f106200023457805160ff191683800117855562000264565b8280016001018555821562000264579182015b828111156200026457825182559160200191906001019062000247565b506200027292915062000276565b5090565b6200029391905b808211156200027257600081556001016200027d565b90565b61089b80620002a66000396000f3fe6080604052600436106100a35763ffffffff7c010000000000000000000000000000000000000000000000000000000060003504166330beb74181146100a8578063430fe9c11461010d5780635000c0151461019757806356b68885146101ac5780635a1dafcf146101c157806367f29d67146101d6578063a4300ee5146101eb578063ce6d41de14610229578063d13319c41461023e578063faa51b8614610253575b600080fd5b3480156100b457600080fd5b506100bd610491565b60408051602080825283518183015283519192839290830191858101910280838360005b838110156100f95781810151838201526020016100e1565b505050509050019250505060405180910390f35b34801561011957600080fd5b506101226104ea565b6040805160208082528351818301528351919283929083019185019080838360005b8381101561015c578181015183820152602001610144565b50505050905090810190601f1680156101895780820380516001836020036101000a031916815260200191505b509250505060405180910390f35b3480156101a357600080fd5b506100bd610577565b3480156101b857600080fd5b506100bd6105cd565b3480156101cd57600080fd5b506100bd610623565b3480156101e257600080fd5b50610122610679565b3480156101f757600080fd5b506102006106d9565b6040805173ffffffffffffffffffffffffffffffffffffffff9092168252519081900360200190f35b34801561023557600080fd5b506101226106f5565b34801561024a57600080fd5b50610122610756565b34801561025f57600080fd5b5061048f6004803603608081101561027657600080fd5b81019060208101813564010000000081111561029157600080fd5b8201836020820111156102a357600080fd5b803590602001918460208302840111640100000000831117156102c557600080fd5b919080806020026020016040519081016040528093929190818152602001838360200280828437600092019190915250929594936020810193503591505064010000000081111561031557600080fd5b82018360208201111561032757600080fd5b8035906020019184602083028401116401000000008311171561034957600080fd5b919080806020026020016040519081016040528093929190818152602001838360200280828437600092019190915250929594936020810193503591505064010000000081111561039957600080fd5b8201836020820111156103ab57600080fd5b803590602001918460208302840111640100000000831117156103cd57600080fd5b919080806020026020016040519081016040528093929190818152602001838360200280828437600092019190915250929594936020810193503591505064010000000081111561041d57600080fd5b82018360208201111561042f57600080fd5b8035906020019184602083028401116401000000008311171561045157600080fd5b9190808060200260200160405190810160405280939291908181526020018383602002808284376000920191909152509295506107b4945050505050565b005b606060068054806020026020016040519081016040528092919081815260200182805480156104df57602002820191906000526020600020905b8154815260200190600101908083116104cb575b505050505090505b90565b60038054604080516020601f60026000196101006001881615020190951694909404938401819004810282018101909252828152606093909290918301828280156104df5780601f1061054b576101008083540402835291602001916104df565b820191906000526020600020905b81548152906001019060200180831161055957509395945050505050565b606060078054806020026020016040519081016040528092919081815260200182805480156104df57602002820191906000526020600020908154815260200190600101908083116104cb575050505050905090565b606060088054806020026020016040519081016040528092919081815260200182805480156104df57602002820191906000526020600020908154815260200190600101908083116104cb575050505050905090565b606060058054806020026020016040519081016040528092919081815260200182805480156104df57602002820191906000526020600020908154815260200190600101908083116104cb575050505050905090565b60018054604080516020601f600260001961010087891615020190951694909404938401819004810282018101909252828152606093909290918301828280156104df5780601f1061054b576101008083540402835291602001916104df565b60005473ffffffffffffffffffffffffffffffffffffffff1690565b60048054604080516020601f60026000196101006001881615020190951694909404938401819004810282018101909252828152606093909290918301828280156104df5780601f1061054b576101008083540402835291602001916104df565b60028054604080516020601f60001961010060018716150201909416859004938401819004810282018101909252828152606093909290918301828280156104df5780601f1061054b576101008083540402835291602001916104df565b83516107c790600590602087019061080a565b5082516107db90600690602086019061080a565b5081516107ef90600790602085019061080a565b50805161080390600890602084019061080a565b5050505050565b828054828255906000526020600020908101928215610845579160200282015b8281111561084557825182559160200191906001019061082a565b50610851929150610855565b5090565b6104e791905b80821115610851576000815560010161085b56fea165627a7a723058202e3425a3670deb3b3b05f06baf573094890c12455c14d8956b42fa4b5037e7740029a165627a7a72305820e85d38902327f904667611dd98406a9e5e6ca0f8908f6583c4211bff14665d300029",
  "source": "pragma solidity ^0.5.0;\n\nimport \"./branch.sol\";\nimport \"./issue.sol\";\n\ncontract repo{\n    string repoName;\n    string repoDescription;\n    address repoOwner;\n    uint creationDate;\n    address[] collaborators;\n    branch[] branches;\n    issue[] issues;\n    mapping (string => address) branchesMap; //branchName => branchContract\n    mapping (address => bool) collaboratorsMap;\n\n    constructor(string memory _repoName, string memory _repoDescription) public{\n        repoName = _repoName;\n        repoDescription = _repoDescription;\n        repoOwner = msg.sender;\n        collaboratorsMap[msg.sender] = true;\n        creationDate = now;\n        commit[] memory _commitArray;\n        branch masterBranch = new branch(\"master\", _commitArray);\n        branchesMap[\"master\"] = address(masterBranch);\n        branches.push(masterBranch);\n        emit branchCreated(repoName,address(masterBranch), \"master\");\n    }\n\n    event collaboratorAdded(address collaborator, address repoAddress, string repoName);\n    event collaboratorRemoved(address collaborator, address repoAddress, string repoName);\n    event branchCreated(string repoName,address branchAddress ,string branchName);\n    event issueCreated(string issueLabel, string issueMessage);\n    function getMasterBranch() public view returns (address) {\n        return branchesMap['master'];\n    }\n    modifier onlyOwner(){\n        require(collaboratorsMap[msg.sender] == true);\n        _;\n    }\n\n    modifier onlyPermitted(){\n        //require(msg.sender == repoOwner);\n        _;\n    }\n\n    function addColaborator (address _collaborator) public onlyOwner{\n        collaborators.push(_collaborator);\n        collaboratorsMap[_collaborator] = true;\n        emit collaboratorAdded(_collaborator, address(this), repoName);\n    }\n\n    function removeCollaborator(address _collaborator) public onlyOwner{\n        collaboratorsMap[_collaborator] = false;\n        emit collaboratorRemoved(_collaborator, address(this), repoName);\n    }\n    function parseChanges(commit Commit,bytes32[] memory _addedFiles, bytes32[] memory _addedLines,\n        bytes32[] memory _removedFiles, bytes32[] memory _removedLines) public{\n        Commit.initChanges( _addedFiles,  _addedLines,_removedFiles, _removedLines);\n\n  }\n    function makeBranch(string memory _branchName) public onlyPermitted{\n        branch Branch = new branch(_branchName, branches[0].getCommitsArray());\n        branchesMap[_branchName] = address(Branch);\n        branches.push(branch(branchesMap[_branchName]));\n        emit branchCreated(repoName,address(Branch),_branchName);\n    }\n    function doMerge(commit[] memory originalBranchCommits,commit[] memory mergedBranchCommits,branch mergedBranch) private returns(uint8) {\n            uint  diff = originalBranchCommits.length - mergedBranchCommits.length;\n             if(originalBranchCommits[originalBranchCommits.length-1-diff] != mergedBranchCommits[mergedBranchCommits.length-1] )\n             {\n                return 99;\n             }\n             else{\n                uint  counter = mergedBranchCommits.length;\n                for(uint i = 0; i < diff;i++ ){\n                    mergedBranch.parseCommit(originalBranchCommits[counter].getAuthorAddress(),originalBranchCommits[counter].getAuthorName(),\n                    originalBranchCommits[counter].getDate(), originalBranchCommits[counter].getHash(),originalBranchCommits[counter].getMessage());\n                    \n                    parseChanges(originalBranchCommits[counter],originalBranchCommits[counter].getAddedFiles(), originalBranchCommits[counter].getAddedLines(),\n                    originalBranchCommits[counter].getRemovedFiles(),originalBranchCommits[counter].getRemovedLines());\n                    counter++;\n                }\n                \n                return 1;\n             }\n    }\n    function merge(string memory _firstBranchName,string memory _secondBranchName) public returns(uint8) {\n        branch firstBranch = branch(branchesMap[_firstBranchName]);\n        branch secondBranch = branch(branchesMap[_secondBranchName]);\n        commit[] memory firstBranchCommits = firstBranch.getCommitsArray();\n        commit[] memory secondBranchCommits = secondBranch.getCommitsArray();\n        if(keccak256(abi.encodePacked((firstBranchCommits[firstBranchCommits.length -1].getHash())))  == keccak256(abi.encodePacked((secondBranchCommits[secondBranchCommits.length -1].getHash())))){\n            return 0;\n        }\n        else if(secondBranchCommits.length > firstBranchCommits.length){\n             return doMerge(secondBranchCommits,firstBranchCommits,firstBranch);\n        }\n        else{\n            return doMerge(firstBranchCommits,secondBranchCommits,secondBranch);\n        }\n    }\n\n    function makeIssue(string memory _issueLabel, string memory _issueMessage) public{\n        issues.push(new issue(_issueLabel, _issueMessage));\n        emit issueCreated(_issueLabel, _issueMessage);\n    }\n}",
  "sourcePath": "/home/yehia/Documents/Projects/hackathon/BlockHub/contracts/repo.sol",
  "compiler": {
    "name": "solc",
    "version": "0.5.0+commit.1d4f565a.Emscripten.clang"
  },
  "schemaVersion": "3.0.8",
  "updatedAt": "2019-08-02T14:08:36.725Z",
  "devdoc": {
    "methods": {}
  },
  "userdoc": {
    "methods": {}
  }
}