{
  "contractName": "repo",
  "abi": [
    {
      "inputs": [
        {
          "name": "_repoName",
          "type": "string"
        },
        {
          "name": "_repoDescription",
          "type": "string"
        }
      ],
      "payable": false,
      "stateMutability": "nonpayable",
      "type": "constructor"
    },
    {
      "anonymous": false,
      "inputs": [
        {
          "indexed": false,
          "name": "collaborator",
          "type": "address"
        },
        {
          "indexed": false,
          "name": "repoAddress",
          "type": "address"
        },
        {
          "indexed": false,
          "name": "repoName",
          "type": "string"
        }
      ],
      "name": "collaboratorAdded",
      "type": "event"
    },
    {
      "anonymous": false,
      "inputs": [
        {
          "indexed": false,
          "name": "collaborator",
          "type": "address"
        },
        {
          "indexed": false,
          "name": "repoAddress",
          "type": "address"
        },
        {
          "indexed": false,
          "name": "repoName",
          "type": "string"
        }
      ],
      "name": "collaboratorRemoved",
      "type": "event"
    },
    {
      "anonymous": false,
      "inputs": [
        {
          "indexed": false,
          "name": "repoName",
          "type": "string"
        },
        {
          "indexed": false,
          "name": "branchAddress",
          "type": "address"
        },
        {
          "indexed": false,
          "name": "branchName",
          "type": "string"
        }
      ],
      "name": "branchCreated",
      "type": "event"
    },
    {
      "anonymous": false,
      "inputs": [
        {
          "indexed": false,
          "name": "issueCreator",
          "type": "address"
        },
        {
          "indexed": false,
          "name": "issueName",
          "type": "string"
        }
      ],
      "name": "issueCreated",
      "type": "event"
    },
    {
      "constant": true,
      "inputs": [],
      "name": "getMasterBranch",
      "outputs": [
        {
          "name": "",
          "type": "address"
        }
      ],
      "payable": false,
      "stateMutability": "view",
      "type": "function"
    },
    {
      "constant": false,
      "inputs": [
        {
          "name": "_collaborator",
          "type": "address"
        }
      ],
      "name": "addColaborator",
      "outputs": [],
      "payable": false,
      "stateMutability": "nonpayable",
      "type": "function"
    },
    {
      "constant": false,
      "inputs": [
        {
          "name": "_collaborator",
          "type": "address"
        }
      ],
      "name": "removeCollaborator",
      "outputs": [],
      "payable": false,
      "stateMutability": "nonpayable",
      "type": "function"
    },
    {
      "constant": true,
      "inputs": [],
      "name": "getMasterRootCommit",
      "outputs": [
        {
          "name": "",
          "type": "string"
        }
      ],
      "payable": false,
      "stateMutability": "view",
      "type": "function"
    },
    {
      "constant": false,
      "inputs": [
        {
          "name": "_branchName",
          "type": "string"
        }
      ],
      "name": "makeBranch",
      "outputs": [],
      "payable": false,
      "stateMutability": "nonpayable",
      "type": "function"
    },
    {
      "constant": false,
      "inputs": [
        {
          "name": "_issueName",
          "type": "string"
        },
        {
          "name": "_issueDescription",
          "type": "string"
        }
      ],
      "name": "makeIssue",
      "outputs": [],
      "payable": false,
      "stateMutability": "nonpayable",
      "type": "function"
    }
  ],
  "bytecode": "0x60806040523480156200001157600080fd5b506040516200462b3803806200462b833981018060405260408110156200003757600080fd5b8101908080516401000000008111156200005057600080fd5b820160208101848111156200006457600080fd5b81516401000000008111828201871017156200007f57600080fd5b505092919060200180516401000000008111156200009c57600080fd5b82016020810184811115620000b057600080fd5b8151640100000000811182820187101715620000cb57600080fd5b50508451909350620000e7925060009150602085019062000368565b508051620000fd90600190602084019062000368565b5060028054600160a060020a031916339081179091556000908152600860205260408120805460ff1916600117905542600355606090816200013e620003ed565b60408082526006908201527f6d61737465720000000000000000000000000000000000000000000000000000606082015260806020808301828152845192840192909252835183929160a0840191868201910280838360005b83811015620001b157818101518382015260200162000197565b505050509050019350505050604051809103906000f080158015620001da573d6000803e3d6000fd5b50604080517f6d6173746572000000000000000000000000000000000000000000000000000081526007600682015281519081900360260181208054600160a060020a038516600160a060020a03199182168117909255600580546001818101835560009283527f036b6384b5eca791c62761152d0c79bb0604c104a5fb6f4eb0703f3154bb3db090910180549093168417909255602084019290925260608084528254600292811615610100026000190116919091049083018190529394507f2cc0cc783d4394153ee1cb11493c793869b41b40f52797786620f00fb79c1ea493909285929182918201906080830190869080156200031e5780601f10620002f2576101008083540402835291602001916200031e565b820191906000526020600020905b8154815290600101906020018083116200030057829003601f168201915b5050928303905250600681527f6d61737465720000000000000000000000000000000000000000000000000000602082015260408051918290030192509050a1505050506200041e565b828054600181600116156101000203166002900490600052602060002090601f016020900481019282601f10620003ab57805160ff1916838001178555620003db565b82800160010185558215620003db579182015b82811115620003db578251825591602001919060010190620003be565b50620003e9929150620003fe565b5090565b60405161177b8062002eb083390190565b6200041b91905b80821115620003e9576000815560010162000405565b90565b612a82806200042e6000396000f3fe6080604052600436106200007e5763ffffffff7c01000000000000000000000000000000000000000000000000000000006000350416632dfc3a4f8114620000835780633109c19d14620001135780636794864c14620001595780636882e174146200021357806386e7a5171462000257578063910b4630146200039b575b600080fd5b3480156200009057600080fd5b506200009b620003dc565b6040805160208082528351818301528351919283929083019185019080838360005b83811015620000d7578181015183820152602001620000bd565b50505050905090810190601f168015620001055780820380516001836020036101000a031916815260200191505b509250505060405180910390f35b3480156200012057600080fd5b5062000157600480360360208110156200013957600080fd5b503573ffffffffffffffffffffffffffffffffffffffff166200052f565b005b3480156200016657600080fd5b5062000157600480360360208110156200017f57600080fd5b8101906020810181356401000000008111156200019b57600080fd5b820183602082011115620001ae57600080fd5b80359060200191846001830284011164010000000083111715620001d157600080fd5b91908080601f0160208091040260200160405190810160405280939291908181526020018383808284376000920191909152509295506200067f945050505050565b3480156200022057600080fd5b5062000157600480360360208110156200023957600080fd5b503573ffffffffffffffffffffffffffffffffffffffff1662000b90565b3480156200026457600080fd5b5062000157600480360360408110156200027d57600080fd5b8101906020810181356401000000008111156200029957600080fd5b820183602082011115620002ac57600080fd5b80359060200191846001830284011164010000000083111715620002cf57600080fd5b91908080601f01602080910402602001604051908101604052809392919081815260200183838082843760009201919091525092959493602081019350359150506401000000008111156200032357600080fd5b8201836020820111156200033657600080fd5b803590602001918460018302840111640100000000831117156200035957600080fd5b91908080601f01602080910402602001604051908101604052809392919081815260200183838082843760009201919091525092955062000cfc945050505050565b348015620003a857600080fd5b50620003b362000f01565b6040805173ffffffffffffffffffffffffffffffffffffffff9092168252519081900360200190f35b604080517f6d617374657200000000000000000000000000000000000000000000000000008152600760068201528151908190036026018120547ff9960314000000000000000000000000000000000000000000000000000000008252915160609273ffffffffffffffffffffffffffffffffffffffff1691829163f996031491600480820192600092909190829003018186803b1580156200047e57600080fd5b505afa15801562000493573d6000803e3d6000fd5b505050506040513d6000823e601f3d9081017fffffffffffffffffffffffffffffffffffffffffffffffffffffffffffffffe01682016040526020811015620004db57600080fd5b810190808051640100000000811115620004f457600080fd5b820160208101848111156200050857600080fd5b81516401000000008111828201871017156200052357600080fd5b50909550505050505090565b3360009081526008602052604090205460ff1615156001146200055157600080fd5b73ffffffffffffffffffffffffffffffffffffffff8116600081815260086020908152604080832080547fffffffffffffffffffffffffffffffffffffffffffffffffffffffffffffff001690558051938452309184018290526060908401818152835460027fffffffffffffffffffffffffffffffffffffffffffffffffffffffffffffffff60018316156101000201909116049185018290527fda5be73e51d6f5cb5ffb0a89d4be5b7af868e0cc1ad3cdd45c39f5b1c1fbda50948694929091906080830190849080156200066c5780601f1062000640576101008083540402835291602001916200066c565b820191906000526020600020905b8154815290600101906020018083116200064e57829003601f168201915b505094505050505060405180910390a150565b600081600560008154811015156200069357fe5b6000918252602082200154604080517fc7335c91000000000000000000000000000000000000000000000000000000008152905173ffffffffffffffffffffffffffffffffffffffff9092169263c7335c9192600480840193829003018186803b1580156200070157600080fd5b505afa15801562000716573d6000803e3d6000fd5b505050506040513d6000823e601f3d9081017fffffffffffffffffffffffffffffffffffffffffffffffffffffffffffffffe016820160405260208110156200075e57600080fd5b8101908080516401000000008111156200077757600080fd5b820160208101848111156200078b57600080fd5b8151856020820283011164010000000082111715620007a957600080fd5b5050929190505050620007bb62000f54565b604080825283519082015282518190602080830191606084019187019080838360005b83811015620007f8578181015183820152602001620007de565b50505050905090810190601f168015620008265780820380516001836020036101000a031916815260200191505b508381038252845181528451602091820191808701910280838360005b838110156200085d57818101518382015260200162000843565b50505050905001945050505050604051809103906000f08015801562000887573d6000803e3d6000fd5b509050806007836040518082805190602001908083835b60208310620008dd57805182527fffffffffffffffffffffffffffffffffffffffffffffffffffffffffffffffe090920191602091820191016200089e565b51815160209384036101000a7fffffffffffffffffffffffffffffffffffffffffffffffffffffffffffffffff0180199092169116179052920194855250604051938490038101842080547fffffffffffffffffffffffff00000000000000000000000000000000000000001673ffffffffffffffffffffffffffffffffffffffff969096169590951790945550508351600592600792869290918291908401908083835b60208310620009c157805182527fffffffffffffffffffffffffffffffffffffffffffffffffffffffffffffffe0909201916020918201910162000982565b5181517fffffffffffffffffffffffffffffffffffffffffffffffffffffffffffffffff602094850361010090810a8201928316921993909316919091179092529490920196875260408051978890038201882054895460018181018c5560009b8c52848c2090910180547fffffffffffffffffffffffff00000000000000000000000000000000000000001673ffffffffffffffffffffffffffffffffffffffff938416179055908b169289019290925260608089528954600293811615909602909301909416049086018190527f2cc0cc783d4394153ee1cb11493c793869b41b40f52797786620f00fb79c1ea496958895508994509283925082019060808301908790801562000b185780601f1062000aec5761010080835404028352916020019162000b18565b820191906000526020600020905b81548152906001019060200180831162000afa57829003601f168201915b5050838103825284518152845160209182019186019080838360005b8381101562000b4e57818101518382015260200162000b34565b50505050905090810190601f16801562000b7c5780820380516001836020036101000a031916815260200191505b509550505050505060405180910390a15050565b3360009081526008602052604090205460ff16151560011462000bb257600080fd5b6004805460018181019092557f8a35acfbc15ff81a39ae7d344fd709f28e8600b4aa8c65c6b64bfe7fe36bd19b01805473ffffffffffffffffffffffffffffffffffffffff84167fffffffffffffffffffffffff00000000000000000000000000000000000000009091168117909155600081815260086020908152604080832080547fffffffffffffffffffffffffffffffffffffffffffffffffffffffffffffff00168617905580519384523091840182905260609084018181528354600296811615610100027fffffffffffffffffffffffffffffffffffffffffffffffffffffffffffffffff0116959095049084018190527f126c0c1cb9112bc67424ee87f5f11d2f169bf930d54b28db48e81737dec47eb5948694929392916080830190849080156200066c5780601f1062000640576101008083540402835291602001916200066c565b6006828262000d0a62000f65565b604080825283519082015282518190602080830191606084019187019080838360005b8381101562000d4757818101518382015260200162000d2d565b50505050905090810190601f16801562000d755780820380516001836020036101000a031916815260200191505b50838103825284518152845160209182019186019080838360005b8381101562000daa57818101518382015260200162000d90565b50505050905090810190601f16801562000dd85780820380516001836020036101000a031916815260200191505b50945050505050604051809103906000f08015801562000dfc573d6000803e3d6000fd5b5081546001810183556000928352602080842090910180547fffffffffffffffffffffffff00000000000000000000000000000000000000001673ffffffffffffffffffffffffffffffffffffffff9390931692909217909155604080513380825281840183815287519383019390935286517f7e1ec461cc041638d81e7c36c8d61b640c000f749ec744c84132dd5b1b6fdf9d959194889492606085019291860191908190849084905b8381101562000ec157818101518382015260200162000ea7565b50505050905090810190601f16801562000eef5780820380516001836020036101000a031916815260200191505b50935050505060405180910390a15050565b604080517f6d6173746572000000000000000000000000000000000000000000000000000081526007600682015290519081900360260190205473ffffffffffffffffffffffffffffffffffffffff1690565b60405161177b8062000f7783390190565b60405161036580620026f28339019056fe60806040523480156200001157600080fd5b506040516200177b3803806200177b833981018060405260408110156200003757600080fd5b8101908080516401000000008111156200005057600080fd5b820160208101848111156200006457600080fd5b81516401000000008111828201871017156200007f57600080fd5b505092919060200180516401000000008111156200009c57600080fd5b82016020810184811115620000b057600080fd5b8151856020820283011164010000000082111715620000ce57600080fd5b50508451909350620000ea9250600091506020850190620002cc565b5080516200010090600390602084019062000351565b5062000115816401000000006200011d810204565b5050620003fe565b60005b8151811015620002c85781818151811015156200013957fe5b90602001906020020151600183838151811015156200015457fe5b90602001906020020151600160a060020a031663d13319c46040518163ffffffff167c010000000000000000000000000000000000000000000000000000000002815260040160006040518083038186803b158015620001b357600080fd5b505afa158015620001c8573d6000803e3d6000fd5b505050506040513d6000823e601f3d908101601f191682016040526020811015620001f257600080fd5b8101908080516401000000008111156200020b57600080fd5b820160208101848111156200021f57600080fd5b81516401000000008111828201871017156200023a57600080fd5b50509291905050506040518082805190602001908083835b60208310620002735780518252601f19909201916020918201910162000252565b51815160209384036101000a600019018019909216911617905292019485525060405193849003019092208054600160a060020a031916600160a060020a039490941693909317909255505060010162000120565b5050565b828054600181600116156101000203166002900490600052602060002090601f016020900481019282601f106200030f57805160ff19168380011785556200033f565b828001600101855582156200033f579182015b828111156200033f57825182559160200191906001019062000322565b506200034d929150620003b7565b5090565b828054828255906000526020600020908101928215620003a9579160200282015b82811115620003a95782518254600160a060020a031916600160a060020a0390911617825560209092019160019091019062000372565b506200034d929150620003d7565b620003d491905b808211156200034d5760008155600101620003be565b90565b620003d491905b808211156200034d578054600160a060020a0319168155600101620003de565b61136d806200040e6000396000f3fe60806040526004361061006c5763ffffffff7c0100000000000000000000000000000000000000000000000000000000600035041663491136708114610071578063b58c610614610098578063c7335c9114610369578063eae2db7a146103ce578063f996031414610458575b600080fd5b34801561007d57600080fd5b5061008661046d565b60408051918252519081900360200190f35b3480156100a457600080fd5b50610367600480360360a08110156100bb57600080fd5b8101906020810181356401000000008111156100d657600080fd5b8201836020820111156100e857600080fd5b8035906020019184600183028401116401000000008311171561010a57600080fd5b91908080601f016020809104026020016040519081016040528093929190818152602001838380828437600092019190915250929594936020810193503591505064010000000081111561015d57600080fd5b82018360208201111561016f57600080fd5b8035906020019184600183028401116401000000008311171561019157600080fd5b91908080601f01602080910402602001604051908101604052809392919081815260200183838082843760009201919091525092959493602081019350359150506401000000008111156101e457600080fd5b8201836020820111156101f657600080fd5b8035906020019184600183028401116401000000008311171561021857600080fd5b91908080601f016020809104026020016040519081016040528093929190818152602001838380828437600092019190915250929594936020810193503591505064010000000081111561026b57600080fd5b82018360208201111561027d57600080fd5b8035906020019184600183028401116401000000008311171561029f57600080fd5b91908080601f01602080910402602001604051908101604052809392919081815260200183838082843760009201919091525092959493602081019350359150506401000000008111156102f257600080fd5b82018360208201111561030457600080fd5b8035906020019184600183028401116401000000008311171561032657600080fd5b91908080601f016020809104026020016040519081016040528093929190818152602001838380828437600092019190915250929550610474945050505050565b005b34801561037557600080fd5b5061037e6109a6565b60408051602080825283518183015283519192839290830191858101910280838360005b838110156103ba5781810151838201526020016103a2565b505050509050019250505060405180910390f35b3480156103da57600080fd5b506103e3610a15565b6040805160208082528351818301528351919283929083019185019080838360005b8381101561041d578181015183820152602001610405565b50505050905090810190601f16801561044a5780820380516001836020036101000a031916815260200191505b509250505060405180910390f35b34801561046457600080fd5b506103e3610b61565b6003545b90565b600085858585610482610c3d565b8080602001806020018060200180602001858103855289818151815260200191508051906020019080838360005b838110156104c85781810151838201526020016104b0565b50505050905090810190601f1680156104f55780820380516001836020036101000a031916815260200191505b5085810384528851815288516020918201918a019080838360005b83811015610528578181015183820152602001610510565b50505050905090810190601f1680156105555780820380516001836020036101000a031916815260200191505b50858103835287518152875160209182019189019080838360005b83811015610588578181015183820152602001610570565b50505050905090810190601f1680156105b55780820380516001836020036101000a031916815260200191505b50858103825286518152865160209182019188019080838360005b838110156105e85781810151838201526020016105d0565b50505050905090810190601f1680156106155780820380516001836020036101000a031916815260200191505b5098505050505050505050604051809103906000f08015801561063c573d6000803e3d6000fd5b509050606060405190810160405280602d81526020017f616161616161616161616161616161616161616161616161616161616161616181526020017f61616161616161616161616161000000000000000000000000000000000000008152506002866040518082805190602001908083835b602083106106ec57805182527fffffffffffffffffffffffffffffffffffffffffffffffffffffffffffffffe090920191602091820191016106af565b51815160209384036101000a7fffffffffffffffffffffffffffffffffffffffffffffffffffffffffffffffff0180199092169116179052920194855250604051938490038101909320845161074b9591949190910192509050610c4d565b50806001866040518082805190602001908083835b6020831061079d57805182527fffffffffffffffffffffffffffffffffffffffffffffffffffffffffffffffe09092019160209182019101610760565b51815160209384036101000a7fffffffffffffffffffffffffffffffffffffffffffffffffffffffffffffffff018019909216911617905292019485525060408051948590038201852080547fffffffffffffffffffffffff00000000000000000000000000000000000000001673ffffffffffffffffffffffffffffffffffffffff97909716969096179095553380855260808583018181528d51918701919091528c517ffd6d88f4ad58e0413badea4af5148585f787b426d4dac0376143f72c4714a01b9792968e96508b95508d949093840191606085019160a08601919089019080838360005b8381101561089f578181015183820152602001610887565b50505050905090810190601f1680156108cc5780820380516001836020036101000a031916815260200191505b50848103835286518152865160209182019188019080838360005b838110156108ff5781810151838201526020016108e7565b50505050905090810190601f16801561092c5780820380516001836020036101000a031916815260200191505b50848103825285518152855160209182019187019080838360005b8381101561095f578181015183820152602001610947565b50505050905090810190601f16801561098c5780820380516001836020036101000a031916815260200191505b5097505050505050505060405180910390a1505050505050565b60606003805480602002602001604051908101604052809291908181526020018280548015610a0b57602002820191906000526020600020905b815473ffffffffffffffffffffffffffffffffffffffff1681526001909101906020018083116109e0575b5050505050905090565b60038054606091907fffffffffffffffffffffffffffffffffffffffffffffffffffffffffffffffff8101908110610a4957fe5b6000918252602082200154604080517fd13319c4000000000000000000000000000000000000000000000000000000008152905173ffffffffffffffffffffffffffffffffffffffff9092169263d13319c492600480840193829003018186803b158015610ab657600080fd5b505afa158015610aca573d6000803e3d6000fd5b505050506040513d6000823e601f3d9081017fffffffffffffffffffffffffffffffffffffffffffffffffffffffffffffffe01682016040526020811015610b1157600080fd5b810190808051640100000000811115610b2957600080fd5b82016020810184811115610b3c57600080fd5b8151640100000000811182820187101715610b5657600080fd5b509094505050505090565b604080517f726f6f74000000000000000000000000000000000000000000000000000000008152600260048201819052825191829003602401822080546020601f7fffffffffffffffffffffffffffffffffffffffffffffffffffffffffffffffff61010060018516150201909216939093049081018390048302840183019094528383526060939091830182828015610a0b5780601f10610c1157610100808354040283529160200191610a0b565b820191906000526020600020905b815481529060010190602001808311610c1f57509395945050505050565b60405161065c80610ce683390190565b828054600181600116156101000203166002900490600052602060002090601f016020900481019282601f10610c8e57805160ff1916838001178555610cbb565b82800160010185558215610cbb579182015b82811115610cbb578251825591602001919060010190610ca0565b50610cc7929150610ccb565b5090565b61047191905b80821115610cc75760008155600101610cd156fe608060405234801561001057600080fd5b5060405161065c38038061065c8339810180604052608081101561003357600080fd5b81019080805164010000000081111561004b57600080fd5b8201602081018481111561005e57600080fd5b815164010000000081118282018710171561007857600080fd5b5050929190602001805164010000000081111561009457600080fd5b820160208101848111156100a757600080fd5b81516401000000008111828201871017156100c157600080fd5b505092919060200180516401000000008111156100dd57600080fd5b820160208101848111156100f057600080fd5b815164010000000081118282018710171561010a57600080fd5b5050929190602001805164010000000081111561012657600080fd5b8201602081018481111561013957600080fd5b815164010000000081118282018710171561015357600080fd5b505060008054600160a060020a03191633179055855190935061017f92506002915060208601906101c5565b5081516101939060039060208501906101c5565b5080516101a79060049060208401906101c5565b5083516101bb9060019060208701906101c5565b5050505050610260565b828054600181600116156101000203166002900490600052602060002090601f016020900481019282601f1061020657805160ff1916838001178555610233565b82800160010185558215610233579182015b82811115610233578251825591602001919060010190610218565b5061023f929150610243565b5090565b61025d91905b8082111561023f5760008155600101610249565b90565b6103ed8061026f6000396000f3fe60806040526004361061006c5763ffffffff7c0100000000000000000000000000000000000000000000000000000000600035041663430fe9c1811461007157806367f29d67146100fb578063a4300ee514610110578063ce6d41de1461014e578063d13319c414610163575b600080fd5b34801561007d57600080fd5b50610086610178565b6040805160208082528351818301528351919283929083019185019080838360005b838110156100c05781810151838201526020016100a8565b50505050905090810190601f1680156100ed5780820380516001836020036101000a031916815260200191505b509250505060405180910390f35b34801561010757600080fd5b5061008661022c565b34801561011c57600080fd5b506101256102aa565b6040805173ffffffffffffffffffffffffffffffffffffffff9092168252519081900360200190f35b34801561015a57600080fd5b506100866102c6565b34801561016f57600080fd5b50610086610345565b60038054604080516020601f60027fffffffffffffffffffffffffffffffffffffffffffffffffffffffffffffffff6101006001881615020190951694909404938401819004810282018101909252828152606093909290918301828280156102225780601f106101f757610100808354040283529160200191610222565b820191906000526020600020905b81548152906001019060200180831161020557829003601f168201915b5050505050905090565b60018054604080516020601f60027fffffffffffffffffffffffffffffffffffffffffffffffffffffffffffffffff61010087891615020190951694909404938401819004810282018101909252828152606093909290918301828280156102225780601f106101f757610100808354040283529160200191610222565b60005473ffffffffffffffffffffffffffffffffffffffff1690565b60048054604080516020601f60027fffffffffffffffffffffffffffffffffffffffffffffffffffffffffffffffff6101006001881615020190951694909404938401819004810282018101909252828152606093909290918301828280156102225780601f106101f757610100808354040283529160200191610222565b60028054604080516020601f7fffffffffffffffffffffffffffffffffffffffffffffffffffffffffffffffff61010060018716150201909416859004938401819004810282018101909252828152606093909290918301828280156102225780601f106101f75761010080835404028352916020019161022256fea165627a7a72305820359a8a93d4c6ff054d85195550dda7af93d5c7197a9fda2d9944c3d95310048b0029a165627a7a723058209acda9da0c8bc88f83e27f9ddce8576922f5f81a48966797f182b5a9bb5557570029608060405234801561001057600080fd5b506040516103653803806103658339810180604052604081101561003357600080fd5b81019080805164010000000081111561004b57600080fd5b8201602081018481111561005e57600080fd5b815164010000000081118282018710171561007857600080fd5b5050929190602001805164010000000081111561009457600080fd5b820160208101848111156100a757600080fd5b81516401000000008111828201871017156100c157600080fd5b505060018054600160a060020a0319163317905584519093506100ed9250600291506020850190610109565b508051610101906003906020840190610109565b5050506101a4565b828054600181600116156101000203166002900490600052602060002090601f016020900481019282601f1061014a57805160ff1916838001178555610177565b82800160010185558215610177579182015b8281111561017757825182559160200191906001019061015c565b50610183929150610187565b5090565b6101a191905b80821115610183576000815560010161018d565b90565b6101b2806101b36000396000f3fe60806040526004361061004b5763ffffffff7c01000000000000000000000000000000000000000000000000000000006000350416633c4ffc94811461005057806343d726d614610092575b600080fd5b34801561005c57600080fd5b506100906004803603602081101561007357600080fd5b503573ffffffffffffffffffffffffffffffffffffffff166100a7565b005b34801561009e57600080fd5b5061009061011e565b600480546001810182556000919091527f8a35acfbc15ff81a39ae7d344fd709f28e8600b4aa8c65c6b64bfe7fe36bd19b0180547fffffffffffffffffffffffff00000000000000000000000000000000000000001673ffffffffffffffffffffffffffffffffffffffff92909216919091179055565b600054339073ffffffffffffffffffffffffffffffffffffffff16811480610160575060015473ffffffffffffffffffffffffffffffffffffffff8281169116145b151561016b57600080fd5b60015473ffffffffffffffffffffffffffffffffffffffff16fffea165627a7a72305820dd6d59526a360b8c0b1416eeeaf9b9f81d72c26d994622927de43e7fa9b7ee570029a165627a7a72305820f4b003c460c7f8484987053067c62eaa3925362fe8044273c4a596d26650b725002960806040523480156200001157600080fd5b506040516200177b3803806200177b833981018060405260408110156200003757600080fd5b8101908080516401000000008111156200005057600080fd5b820160208101848111156200006457600080fd5b81516401000000008111828201871017156200007f57600080fd5b505092919060200180516401000000008111156200009c57600080fd5b82016020810184811115620000b057600080fd5b8151856020820283011164010000000082111715620000ce57600080fd5b50508451909350620000ea9250600091506020850190620002cc565b5080516200010090600390602084019062000351565b5062000115816401000000006200011d810204565b5050620003fe565b60005b8151811015620002c85781818151811015156200013957fe5b90602001906020020151600183838151811015156200015457fe5b90602001906020020151600160a060020a031663d13319c46040518163ffffffff167c010000000000000000000000000000000000000000000000000000000002815260040160006040518083038186803b158015620001b357600080fd5b505afa158015620001c8573d6000803e3d6000fd5b505050506040513d6000823e601f3d908101601f191682016040526020811015620001f257600080fd5b8101908080516401000000008111156200020b57600080fd5b820160208101848111156200021f57600080fd5b81516401000000008111828201871017156200023a57600080fd5b50509291905050506040518082805190602001908083835b60208310620002735780518252601f19909201916020918201910162000252565b51815160209384036101000a600019018019909216911617905292019485525060405193849003019092208054600160a060020a031916600160a060020a039490941693909317909255505060010162000120565b5050565b828054600181600116156101000203166002900490600052602060002090601f016020900481019282601f106200030f57805160ff19168380011785556200033f565b828001600101855582156200033f579182015b828111156200033f57825182559160200191906001019062000322565b506200034d929150620003b7565b5090565b828054828255906000526020600020908101928215620003a9579160200282015b82811115620003a95782518254600160a060020a031916600160a060020a0390911617825560209092019160019091019062000372565b506200034d929150620003d7565b620003d491905b808211156200034d5760008155600101620003be565b90565b620003d491905b808211156200034d578054600160a060020a0319168155600101620003de565b61136d806200040e6000396000f3fe60806040526004361061006c5763ffffffff7c0100000000000000000000000000000000000000000000000000000000600035041663491136708114610071578063b58c610614610098578063c7335c9114610369578063eae2db7a146103ce578063f996031414610458575b600080fd5b34801561007d57600080fd5b5061008661046d565b60408051918252519081900360200190f35b3480156100a457600080fd5b50610367600480360360a08110156100bb57600080fd5b8101906020810181356401000000008111156100d657600080fd5b8201836020820111156100e857600080fd5b8035906020019184600183028401116401000000008311171561010a57600080fd5b91908080601f016020809104026020016040519081016040528093929190818152602001838380828437600092019190915250929594936020810193503591505064010000000081111561015d57600080fd5b82018360208201111561016f57600080fd5b8035906020019184600183028401116401000000008311171561019157600080fd5b91908080601f01602080910402602001604051908101604052809392919081815260200183838082843760009201919091525092959493602081019350359150506401000000008111156101e457600080fd5b8201836020820111156101f657600080fd5b8035906020019184600183028401116401000000008311171561021857600080fd5b91908080601f016020809104026020016040519081016040528093929190818152602001838380828437600092019190915250929594936020810193503591505064010000000081111561026b57600080fd5b82018360208201111561027d57600080fd5b8035906020019184600183028401116401000000008311171561029f57600080fd5b91908080601f01602080910402602001604051908101604052809392919081815260200183838082843760009201919091525092959493602081019350359150506401000000008111156102f257600080fd5b82018360208201111561030457600080fd5b8035906020019184600183028401116401000000008311171561032657600080fd5b91908080601f016020809104026020016040519081016040528093929190818152602001838380828437600092019190915250929550610474945050505050565b005b34801561037557600080fd5b5061037e6109a6565b60408051602080825283518183015283519192839290830191858101910280838360005b838110156103ba5781810151838201526020016103a2565b505050509050019250505060405180910390f35b3480156103da57600080fd5b506103e3610a15565b6040805160208082528351818301528351919283929083019185019080838360005b8381101561041d578181015183820152602001610405565b50505050905090810190601f16801561044a5780820380516001836020036101000a031916815260200191505b509250505060405180910390f35b34801561046457600080fd5b506103e3610b61565b6003545b90565b600085858585610482610c3d565b8080602001806020018060200180602001858103855289818151815260200191508051906020019080838360005b838110156104c85781810151838201526020016104b0565b50505050905090810190601f1680156104f55780820380516001836020036101000a031916815260200191505b5085810384528851815288516020918201918a019080838360005b83811015610528578181015183820152602001610510565b50505050905090810190601f1680156105555780820380516001836020036101000a031916815260200191505b50858103835287518152875160209182019189019080838360005b83811015610588578181015183820152602001610570565b50505050905090810190601f1680156105b55780820380516001836020036101000a031916815260200191505b50858103825286518152865160209182019188019080838360005b838110156105e85781810151838201526020016105d0565b50505050905090810190601f1680156106155780820380516001836020036101000a031916815260200191505b5098505050505050505050604051809103906000f08015801561063c573d6000803e3d6000fd5b509050606060405190810160405280602d81526020017f616161616161616161616161616161616161616161616161616161616161616181526020017f61616161616161616161616161000000000000000000000000000000000000008152506002866040518082805190602001908083835b602083106106ec57805182527fffffffffffffffffffffffffffffffffffffffffffffffffffffffffffffffe090920191602091820191016106af565b51815160209384036101000a7fffffffffffffffffffffffffffffffffffffffffffffffffffffffffffffffff0180199092169116179052920194855250604051938490038101909320845161074b9591949190910192509050610c4d565b50806001866040518082805190602001908083835b6020831061079d57805182527fffffffffffffffffffffffffffffffffffffffffffffffffffffffffffffffe09092019160209182019101610760565b51815160209384036101000a7fffffffffffffffffffffffffffffffffffffffffffffffffffffffffffffffff018019909216911617905292019485525060408051948590038201852080547fffffffffffffffffffffffff00000000000000000000000000000000000000001673ffffffffffffffffffffffffffffffffffffffff97909716969096179095553380855260808583018181528d51918701919091528c517ffd6d88f4ad58e0413badea4af5148585f787b426d4dac0376143f72c4714a01b9792968e96508b95508d949093840191606085019160a08601919089019080838360005b8381101561089f578181015183820152602001610887565b50505050905090810190601f1680156108cc5780820380516001836020036101000a031916815260200191505b50848103835286518152865160209182019188019080838360005b838110156108ff5781810151838201526020016108e7565b50505050905090810190601f16801561092c5780820380516001836020036101000a031916815260200191505b50848103825285518152855160209182019187019080838360005b8381101561095f578181015183820152602001610947565b50505050905090810190601f16801561098c5780820380516001836020036101000a031916815260200191505b5097505050505050505060405180910390a1505050505050565b60606003805480602002602001604051908101604052809291908181526020018280548015610a0b57602002820191906000526020600020905b815473ffffffffffffffffffffffffffffffffffffffff1681526001909101906020018083116109e0575b5050505050905090565b60038054606091907fffffffffffffffffffffffffffffffffffffffffffffffffffffffffffffffff8101908110610a4957fe5b6000918252602082200154604080517fd13319c4000000000000000000000000000000000000000000000000000000008152905173ffffffffffffffffffffffffffffffffffffffff9092169263d13319c492600480840193829003018186803b158015610ab657600080fd5b505afa158015610aca573d6000803e3d6000fd5b505050506040513d6000823e601f3d9081017fffffffffffffffffffffffffffffffffffffffffffffffffffffffffffffffe01682016040526020811015610b1157600080fd5b810190808051640100000000811115610b2957600080fd5b82016020810184811115610b3c57600080fd5b8151640100000000811182820187101715610b5657600080fd5b509094505050505090565b604080517f726f6f74000000000000000000000000000000000000000000000000000000008152600260048201819052825191829003602401822080546020601f7fffffffffffffffffffffffffffffffffffffffffffffffffffffffffffffffff61010060018516150201909216939093049081018390048302840183019094528383526060939091830182828015610a0b5780601f10610c1157610100808354040283529160200191610a0b565b820191906000526020600020905b815481529060010190602001808311610c1f57509395945050505050565b60405161065c80610ce683390190565b828054600181600116156101000203166002900490600052602060002090601f016020900481019282601f10610c8e57805160ff1916838001178555610cbb565b82800160010185558215610cbb579182015b82811115610cbb578251825591602001919060010190610ca0565b50610cc7929150610ccb565b5090565b61047191905b80821115610cc75760008155600101610cd156fe608060405234801561001057600080fd5b5060405161065c38038061065c8339810180604052608081101561003357600080fd5b81019080805164010000000081111561004b57600080fd5b8201602081018481111561005e57600080fd5b815164010000000081118282018710171561007857600080fd5b5050929190602001805164010000000081111561009457600080fd5b820160208101848111156100a757600080fd5b81516401000000008111828201871017156100c157600080fd5b505092919060200180516401000000008111156100dd57600080fd5b820160208101848111156100f057600080fd5b815164010000000081118282018710171561010a57600080fd5b5050929190602001805164010000000081111561012657600080fd5b8201602081018481111561013957600080fd5b815164010000000081118282018710171561015357600080fd5b505060008054600160a060020a03191633179055855190935061017f92506002915060208601906101c5565b5081516101939060039060208501906101c5565b5080516101a79060049060208401906101c5565b5083516101bb9060019060208701906101c5565b5050505050610260565b828054600181600116156101000203166002900490600052602060002090601f016020900481019282601f1061020657805160ff1916838001178555610233565b82800160010185558215610233579182015b82811115610233578251825591602001919060010190610218565b5061023f929150610243565b5090565b61025d91905b8082111561023f5760008155600101610249565b90565b6103ed8061026f6000396000f3fe60806040526004361061006c5763ffffffff7c0100000000000000000000000000000000000000000000000000000000600035041663430fe9c1811461007157806367f29d67146100fb578063a4300ee514610110578063ce6d41de1461014e578063d13319c414610163575b600080fd5b34801561007d57600080fd5b50610086610178565b6040805160208082528351818301528351919283929083019185019080838360005b838110156100c05781810151838201526020016100a8565b50505050905090810190601f1680156100ed5780820380516001836020036101000a031916815260200191505b509250505060405180910390f35b34801561010757600080fd5b5061008661022c565b34801561011c57600080fd5b506101256102aa565b6040805173ffffffffffffffffffffffffffffffffffffffff9092168252519081900360200190f35b34801561015a57600080fd5b506100866102c6565b34801561016f57600080fd5b50610086610345565b60038054604080516020601f60027fffffffffffffffffffffffffffffffffffffffffffffffffffffffffffffffff6101006001881615020190951694909404938401819004810282018101909252828152606093909290918301828280156102225780601f106101f757610100808354040283529160200191610222565b820191906000526020600020905b81548152906001019060200180831161020557829003601f168201915b5050505050905090565b60018054604080516020601f60027fffffffffffffffffffffffffffffffffffffffffffffffffffffffffffffffff61010087891615020190951694909404938401819004810282018101909252828152606093909290918301828280156102225780601f106101f757610100808354040283529160200191610222565b60005473ffffffffffffffffffffffffffffffffffffffff1690565b60048054604080516020601f60027fffffffffffffffffffffffffffffffffffffffffffffffffffffffffffffffff6101006001881615020190951694909404938401819004810282018101909252828152606093909290918301828280156102225780601f106101f757610100808354040283529160200191610222565b60028054604080516020601f7fffffffffffffffffffffffffffffffffffffffffffffffffffffffffffffffff61010060018716150201909416859004938401819004810282018101909252828152606093909290918301828280156102225780601f106101f75761010080835404028352916020019161022256fea165627a7a72305820359a8a93d4c6ff054d85195550dda7af93d5c7197a9fda2d9944c3d95310048b0029a165627a7a723058209acda9da0c8bc88f83e27f9ddce8576922f5f81a48966797f182b5a9bb5557570029",
  "source": "pragma solidity ^0.5.0;\n\nimport \"./branch.sol\";\nimport \"./issue.sol\";\n\ncontract repo{\n    string repoName;\n    string repoDescription;\n    address payable repoOwner;\n    uint creationDate;\n    address[] collaborators;\n    branch[] branches;\n    issue[] issues;\n    mapping (string => address) branchesMap; //branchName => branchContract\n    mapping (address => bool) collaboratorsMap;\n\n    constructor(string memory _repoName, string memory _repoDescription) public{\n        repoName = _repoName;\n        repoDescription = _repoDescription;\n        repoOwner = msg.sender;\n        collaboratorsMap[msg.sender] = true;\n        creationDate = now;\n        commit[] memory _commitArray;\n        branch masterBranch = new branch(\"master\", _commitArray);\n        branchesMap[\"master\"] = address(masterBranch);\n        branches.push(masterBranch);\n        emit branchCreated(repoName,address(masterBranch), \"master\");\n    }\n\n    event collaboratorAdded(address collaborator, address repoAddress, string repoName);\n    event collaboratorRemoved(address collaborator, address repoAddress, string repoName);\n    event branchCreated(string repoName,address branchAddress ,string branchName);\n    event issueCreated(address issueCreator, string issueName);\n    \n    modifier onlyOwner(){\n        require(collaboratorsMap[msg.sender] == true);\n        _;\n    }\n\n    modifier onlyPermitted(){\n        //require(msg.sender == repoOwner);\n        _;\n    }\n\n    function getMasterBranch() public view returns (address) {\n        return branchesMap['master'];\n    }\n\n    function addColaborator (address _collaborator) public onlyOwner{\n        collaborators.push(_collaborator);\n        collaboratorsMap[_collaborator] = true;\n        emit collaboratorAdded(_collaborator, address(this), repoName);\n    }\n\n    function removeCollaborator(address _collaborator) public onlyOwner{\n        collaboratorsMap[_collaborator] = false;\n        emit collaboratorRemoved(_collaborator, address(this), repoName);\n    }\n    function getMasterRootCommit() view public returns (string memory) {\n        branch Branch = branch(branchesMap[\"master\"]);\n        return Branch.getRootCommit(); \n    }\n    function makeBranch(string memory _branchName) public onlyPermitted{\n        branch Branch = new branch(_branchName, branches[0].getCommitsArray());\n        branchesMap[_branchName] = address(Branch);\n        branches.push(branch(branchesMap[_branchName]));\n        emit branchCreated(repoName,address(Branch),_branchName);\n    }\n\n\n    function makeIssue(string memory _issueName, string memory _issueDescription) public{\n        issues.push(new issue(_issueName, _issueDescription));\n        emit issueCreated(msg.sender, _issueName);\n    }\n}",
  "sourcePath": "/home/yehia/Documents/Projects/hackathon/BlockHub/contracts/repo.sol",
  "compiler": {
    "name": "solc",
    "version": "0.5.0+commit.1d4f565a.Emscripten.clang"
  },
  "schemaVersion": "3.0.8",
  "updatedAt": "2019-08-20T11:59:32.588Z",
  "devdoc": {
    "methods": {}
  },
  "userdoc": {
    "methods": {}
  }
}