{
  "contractName": "Simple",
  "abi": [
    {
      "constant": true,
      "inputs": [],
      "name": "hello",
      "outputs": [
        {
          "name": "",
          "type": "string"
        }
      ],
      "payable": false,
      "stateMutability": "view",
      "type": "function"
    },
    {
      "constant": true,
      "inputs": [],
      "name": "get",
      "outputs": [
        {
          "name": "",
          "type": "string"
        }
      ],
      "payable": false,
      "stateMutability": "view",
      "type": "function"
    },
    {
      "constant": false,
      "inputs": [
        {
          "name": "_hello",
          "type": "string"
        }
      ],
      "name": "set",
      "outputs": [],
      "payable": false,
      "stateMutability": "nonpayable",
      "type": "function"
    }
  ],
  "bytecode": "0x60c0604052600c60808190527f68656c6c6f20776f726c6421000000000000000000000000000000000000000060a090815261003e9160009190610051565b5034801561004b57600080fd5b506100ec565b828054600181600116156101000203166002900490600052602060002090601f016020900481019282601f1061009257805160ff19168380011785556100bf565b828001600101855582156100bf579182015b828111156100bf5782518255916020019190600101906100a4565b506100cb9291506100cf565b5090565b6100e991905b808211156100cb57600081556001016100d5565b90565b610373806100fb6000396000f3fe608060405234801561001057600080fd5b50600436106100415760003560e01c806319ff1d21146100465780634ed3885e146100c35780636d4ce63c1461016b575b600080fd5b61004e610173565b6040805160208082528351818301528351919283929083019185019080838360005b83811015610088578181015183820152602001610070565b50505050905090810190601f1680156100b55780820380516001836020036101000a031916815260200191505b509250505060405180910390f35b610169600480360360208110156100d957600080fd5b8101906020810181356401000000008111156100f457600080fd5b82018360208201111561010657600080fd5b8035906020019184600183028401116401000000008311171561012857600080fd5b91908080601f016020809104026020016040519081016040528093929190818152602001838380828437600092019190915250929550610201945050505050565b005b61004e610218565b6000805460408051602060026001851615610100026000190190941693909304601f810184900484028201840190925281815292918301828280156101f95780601f106101ce576101008083540402835291602001916101f9565b820191906000526020600020905b8154815290600101906020018083116101dc57829003601f168201915b505050505081565b80516102149060009060208401906102af565b5050565b60008054604080516020601f60026000196101006001881615020190951694909404938401819004810282018101909252828152606093909290918301828280156102a45780601f10610279576101008083540402835291602001916102a4565b820191906000526020600020905b81548152906001019060200180831161028757829003601f168201915b505050505090505b90565b828054600181600116156101000203166002900490600052602060002090601f016020900481019282601f106102f057805160ff191683800117855561031d565b8280016001018555821561031d579182015b8281111561031d578251825591602001919060010190610302565b5061032992915061032d565b5090565b6102ac91905b80821115610329576000815560010161033356fea165627a7a723058201bd431008e66ecc103cd11754c621771f7e1e58a531f1557fbe889b8fa149c540029",
  "source": "pragma solidity ^0.5.0;\n\ncontract Simple{\nstring public hello =\"hello world!\";    \nfunction get() public view returns(string memory){\nreturn hello;\n}\nfunction set(string memory _hello) public{\nhello = _hello;\n}\n}\n",
  "sourcePath": "D:/ASU CHEP/Internships/Think Big/DGitHub/contracts/Simple.sol",
  "compiler": {
    "name": "solc",
    "version": "0.5.8+commit.23d335f2.Emscripten.clang"
  },
  "schemaVersion": "3.0.11",
  "updatedAt": "2019-07-28T13:07:01.948Z",
  "devdoc": {
    "methods": {}
  },
  "userdoc": {
    "methods": {}
  }
}